{
  "_format": "hh-sol-artifact-1",
  "contractName": "ADS",
  "sourceName": "contracts/ADS.sol",
  "abi": [
    {
      "inputs": [
        {
          "internalType": "address",
          "name": "_wldToken",
          "type": "address"
        },
        {
          "internalType": "address",
          "name": "_worldId",
          "type": "address"
        },
        {
          "internalType": "string",
          "name": "_appId",
          "type": "string"
        },
        {
          "internalType": "string",
          "name": "_action",
          "type": "string"
        }
      ],
      "stateMutability": "nonpayable",
      "type": "constructor"
    },
    {
      "inputs": [],
      "name": "AdWasRemoved",
      "type": "error"
    },
    {
      "inputs": [],
      "name": "AdvertiserIsBanned",
      "type": "error"
    },
    {
      "inputs": [],
      "name": "AlreadyClaimed",
      "type": "error"
    },
    {
      "inputs": [],
      "name": "AlreadyClicked",
      "type": "error"
    },
    {
      "inputs": [],
      "name": "AlreadyFinalized",
      "type": "error"
    },
    {
      "inputs": [],
      "name": "AlreadyRegistered",
      "type": "error"
    },
    {
      "inputs": [],
      "name": "ClaimDeadlineNotPassed",
      "type": "error"
    },
    {
      "inputs": [],
      "name": "ClaimDeadlinePassed",
      "type": "error"
    },
    {
      "inputs": [],
      "name": "InvalidAmount",
      "type": "error"
    },
    {
      "inputs": [],
      "name": "InvalidCycle",
      "type": "error"
    },
    {
      "inputs": [],
      "name": "InvalidSlot",
      "type": "error"
    },
    {
      "inputs": [],
      "name": "NoClickRecorded",
      "type": "error"
    },
    {
      "inputs": [],
      "name": "NotAdvertiser",
      "type": "error"
    },
    {
      "inputs": [],
      "name": "NotAuthorized",
      "type": "error"
    },
    {
      "inputs": [],
      "name": "NotFinalized",
      "type": "error"
    },
    {
      "inputs": [],
      "name": "NotRegistered",
      "type": "error"
    },
    {
      "inputs": [
        {
          "internalType": "address",
          "name": "owner",
          "type": "address"
        }
      ],
      "name": "OwnableInvalidOwner",
      "type": "error"
    },
    {
      "inputs": [
        {
          "internalType": "address",
          "name": "account",
          "type": "address"
        }
      ],
      "name": "OwnableUnauthorizedAccount",
      "type": "error"
    },
    {
      "inputs": [],
      "name": "ReentrancyGuardReentrantCall",
      "type": "error"
    },
    {
      "inputs": [],
      "name": "SignatureAlreadyUsed",
      "type": "error"
    },
    {
      "inputs": [],
      "name": "TransferFailed",
      "type": "error"
    },
    {
      "anonymous": false,
      "inputs": [
        {
          "indexed": true,
          "internalType": "address",
          "name": "advertiser",
          "type": "address"
        },
        {
          "indexed": true,
          "internalType": "uint256",
          "name": "cycle",
          "type": "uint256"
        },
        {
          "indexed": true,
          "internalType": "uint256",
          "name": "slotIndex",
          "type": "uint256"
        },
        {
          "indexed": false,
          "internalType": "enum ADS.SlotType",
          "name": "slotType",
          "type": "uint8"
        },
        {
          "indexed": false,
          "internalType": "uint256",
          "name": "bidAmount",
          "type": "uint256"
        }
      ],
      "name": "AdBidPlaced",
      "type": "event"
    },
    {
      "anonymous": false,
      "inputs": [
        {
          "indexed": true,
          "internalType": "address",
          "name": "advertiser",
          "type": "address"
        },
        {
          "indexed": true,
          "internalType": "uint256",
          "name": "cycle",
          "type": "uint256"
        },
        {
          "indexed": true,
          "internalType": "uint256",
          "name": "slotIndex",
          "type": "uint256"
        }
      ],
      "name": "AdRemoved",
      "type": "event"
    },
    {
      "anonymous": false,
      "inputs": [
        {
          "indexed": true,
          "internalType": "uint256",
          "name": "cycle",
          "type": "uint256"
        },
        {
          "indexed": true,
          "internalType": "uint256",
          "name": "slotIndex",
          "type": "uint256"
        },
        {
          "indexed": false,
          "internalType": "uint256",
          "name": "totalClicks",
          "type": "uint256"
        }
      ],
      "name": "AdSlotFinalized",
      "type": "event"
    },
    {
      "anonymous": false,
      "inputs": [
        {
          "indexed": true,
          "internalType": "address",
          "name": "advertiser",
          "type": "address"
        }
      ],
      "name": "AdvertiserBanned",
      "type": "event"
    },
    {
      "anonymous": false,
      "inputs": [
        {
          "indexed": true,
          "internalType": "address",
          "name": "advertiser",
          "type": "address"
        }
      ],
      "name": "AdvertiserUnbanned",
      "type": "event"
    },
    {
      "anonymous": false,
      "inputs": [
        {
          "indexed": true,
          "internalType": "address",
          "name": "user",
          "type": "address"
        },
        {
          "indexed": true,
          "internalType": "uint256",
          "name": "cycle",
          "type": "uint256"
        },
        {
          "indexed": true,
          "internalType": "uint256",
          "name": "slotIndex",
          "type": "uint256"
        }
      ],
      "name": "ClickRecorded",
      "type": "event"
    },
    {
      "anonymous": false,
      "inputs": [
        {
          "indexed": true,
          "internalType": "uint256",
          "name": "cycle",
          "type": "uint256"
        }
      ],
      "name": "CycleFinalized",
      "type": "event"
    },
    {
      "anonymous": false,
      "inputs": [
        {
          "indexed": true,
          "internalType": "uint256",
          "name": "cycle",
          "type": "uint256"
        },
        {
          "indexed": true,
          "internalType": "uint256",
          "name": "slotIndex",
          "type": "uint256"
        },
        {
          "indexed": false,
          "internalType": "uint256",
          "name": "amount",
          "type": "uint256"
        }
      ],
      "name": "ExpiredClaimCollected",
      "type": "event"
    },
    {
      "anonymous": false,
      "inputs": [
        {
          "indexed": true,
          "internalType": "address",
          "name": "recipient",
          "type": "address"
        },
        {
          "indexed": false,
          "internalType": "uint256",
          "name": "amount",
          "type": "uint256"
        }
      ],
      "name": "FeesWithdrawn",
      "type": "event"
    },
    {
      "anonymous": false,
      "inputs": [
        {
          "indexed": true,
          "internalType": "address",
          "name": "previousOwner",
          "type": "address"
        },
        {
          "indexed": true,
          "internalType": "address",
          "name": "newOwner",
          "type": "address"
        }
      ],
      "name": "OwnershipTransferred",
      "type": "event"
    },
    {
      "anonymous": false,
      "inputs": [
        {
          "indexed": true,
          "internalType": "address",
          "name": "user",
          "type": "address"
        },
        {
          "indexed": true,
          "internalType": "uint256",
          "name": "cycle",
          "type": "uint256"
        },
        {
          "indexed": true,
          "internalType": "uint256",
          "name": "slotIndex",
          "type": "uint256"
        },
        {
          "indexed": false,
          "internalType": "uint256",
          "name": "amount",
          "type": "uint256"
        }
      ],
      "name": "RewardClaimed",
      "type": "event"
    },
    {
      "anonymous": false,
      "inputs": [
        {
          "indexed": true,
          "internalType": "address",
          "name": "user",
          "type": "address"
        }
      ],
      "name": "UserRegistered",
      "type": "event"
    },
    {
      "inputs": [],
      "name": "AD_SLOTS_PER_CYCLE",
      "outputs": [
        {
          "internalType": "uint256",
          "name": "",
          "type": "uint256"
        }
      ],
      "stateMutability": "view",
      "type": "function"
    },
    {
      "inputs": [],
      "name": "CLAIM_DEADLINE",
      "outputs": [
        {
          "internalType": "uint256",
          "name": "",
          "type": "uint256"
        }
      ],
      "stateMutability": "view",
      "type": "function"
    },
    {
      "inputs": [],
      "name": "CYCLE_DURATION",
      "outputs": [
        {
          "internalType": "uint256",
          "name": "",
          "type": "uint256"
        }
      ],
      "stateMutability": "view",
      "type": "function"
    },
    {
      "inputs": [],
      "name": "PLATFORM_FEE_BPS",
      "outputs": [
        {
          "internalType": "uint256",
          "name": "",
          "type": "uint256"
        }
      ],
      "stateMutability": "view",
      "type": "function"
    },
    {
      "inputs": [],
      "name": "WLD",
      "outputs": [
        {
          "internalType": "contract IERC20",
          "name": "",
          "type": "address"
        }
      ],
      "stateMutability": "view",
      "type": "function"
    },
    {
      "inputs": [],
      "name": "accumulatedFees",
      "outputs": [
        {
          "internalType": "uint256",
          "name": "",
          "type": "uint256"
        }
      ],
      "stateMutability": "view",
      "type": "function"
    },
    {
      "inputs": [
        {
          "internalType": "uint256",
          "name": "",
          "type": "uint256"
        },
        {
          "internalType": "uint256",
          "name": "",
          "type": "uint256"
        }
      ],
      "name": "adSlots",
      "outputs": [
        {
          "internalType": "address",
          "name": "advertiser",
          "type": "address"
        },
        {
          "internalType": "string",
          "name": "name",
          "type": "string"
        },
        {
          "internalType": "string",
          "name": "description",
          "type": "string"
        },
        {
          "internalType": "string",
          "name": "imageUrl",
          "type": "string"
        },
        {
          "internalType": "uint256",
          "name": "bidAmount",
          "type": "uint256"
        },
        {
          "internalType": "enum ADS.SlotType",
          "name": "slotType",
          "type": "uint8"
        },
        {
          "internalType": "bool",
          "name": "finalized",
          "type": "bool"
        },
        {
          "internalType": "bool",
          "name": "removed",
          "type": "bool"
        },
        {
          "internalType": "uint256",
          "name": "totalClicks",
          "type": "uint256"
        },
        {
          "internalType": "uint256",
          "name": "claimedAmount",
          "type": "uint256"
        },
        {
          "internalType": "uint256",
          "name": "finalizedAt",
          "type": "uint256"
        }
      ],
      "stateMutability": "view",
      "type": "function"
    },
    {
      "inputs": [
        {
          "internalType": "address",
          "name": "signer",
          "type": "address"
        }
      ],
      "name": "addAuthorizedSigner",
      "outputs": [],
      "stateMutability": "nonpayable",
      "type": "function"
    },
    {
      "inputs": [
        {
          "internalType": "address",
          "name": "",
          "type": "address"
        }
      ],
      "name": "authorizedSigners",
      "outputs": [
        {
          "internalType": "bool",
          "name": "",
          "type": "bool"
        }
      ],
      "stateMutability": "view",
      "type": "function"
    },
    {
      "inputs": [
        {
          "internalType": "address",
          "name": "advertiser",
          "type": "address"
        }
      ],
      "name": "banAdvertiser",
      "outputs": [],
      "stateMutability": "nonpayable",
      "type": "function"
    },
    {
      "inputs": [
        {
          "internalType": "address",
          "name": "",
          "type": "address"
        }
      ],
      "name": "bannedAdvertisers",
      "outputs": [
        {
          "internalType": "bool",
          "name": "",
          "type": "bool"
        }
      ],
      "stateMutability": "view",
      "type": "function"
    },
    {
      "inputs": [
        {
          "internalType": "uint256",
          "name": "cycle",
          "type": "uint256"
        },
        {
          "internalType": "uint256",
          "name": "slotIndex",
          "type": "uint256"
        },
        {
          "internalType": "address",
          "name": "user",
          "type": "address"
        }
      ],
      "name": "calculateUserReward",
      "outputs": [
        {
          "internalType": "uint256",
          "name": "",
          "type": "uint256"
        }
      ],
      "stateMutability": "view",
      "type": "function"
    },
    {
      "inputs": [
        {
          "internalType": "uint256",
          "name": "cycle",
          "type": "uint256"
        },
        {
          "internalType": "uint256",
          "name": "slotIndex",
          "type": "uint256"
        }
      ],
      "name": "claimReward",
      "outputs": [],
      "stateMutability": "nonpayable",
      "type": "function"
    },
    {
      "inputs": [
        {
          "internalType": "uint256",
          "name": "cycle",
          "type": "uint256"
        },
        {
          "internalType": "uint256",
          "name": "slotIndex",
          "type": "uint256"
        }
      ],
      "name": "collectExpiredClaims",
      "outputs": [],
      "stateMutability": "nonpayable",
      "type": "function"
    },
    {
      "inputs": [
        {
          "internalType": "uint256",
          "name": "cycle",
          "type": "uint256"
        }
      ],
      "name": "finalizeCycle",
      "outputs": [],
      "stateMutability": "nonpayable",
      "type": "function"
    },
    {
      "inputs": [],
      "name": "getCurrentAds",
      "outputs": [
        {
          "components": [
            {
              "internalType": "address",
              "name": "advertiser",
              "type": "address"
            },
            {
              "internalType": "string",
              "name": "name",
              "type": "string"
            },
            {
              "internalType": "string",
              "name": "description",
              "type": "string"
            },
            {
              "internalType": "string",
              "name": "imageUrl",
              "type": "string"
            },
            {
              "internalType": "uint256",
              "name": "bidAmount",
              "type": "uint256"
            },
            {
              "internalType": "enum ADS.SlotType",
              "name": "slotType",
              "type": "uint8"
            },
            {
              "internalType": "bool",
              "name": "finalized",
              "type": "bool"
            },
            {
              "internalType": "bool",
              "name": "removed",
              "type": "bool"
            },
            {
              "internalType": "uint256",
              "name": "totalClicks",
              "type": "uint256"
            },
            {
              "internalType": "uint256",
              "name": "claimedAmount",
              "type": "uint256"
            },
            {
              "internalType": "uint256",
              "name": "finalizedAt",
              "type": "uint256"
            }
          ],
          "internalType": "struct ADS.AdSlot[]",
          "name": "",
          "type": "tuple[]"
        }
      ],
      "stateMutability": "view",
      "type": "function"
    },
    {
      "inputs": [],
      "name": "getCurrentCycle",
      "outputs": [
        {
          "internalType": "uint256",
          "name": "",
          "type": "uint256"
        }
      ],
      "stateMutability": "view",
      "type": "function"
    },
    {
      "inputs": [
        {
          "internalType": "address",
          "name": "user",
          "type": "address"
        }
      ],
      "name": "getUserClaimableRewards",
      "outputs": [
        {
          "internalType": "uint256[]",
          "name": "cycles",
          "type": "uint256[]"
        },
        {
          "internalType": "uint256[]",
          "name": "slots",
          "type": "uint256[]"
        },
        {
          "internalType": "uint256[]",
          "name": "amounts",
          "type": "uint256[]"
        }
      ],
      "stateMutability": "view",
      "type": "function"
    },
    {
      "inputs": [
        {
          "internalType": "uint256",
          "name": "",
          "type": "uint256"
        },
        {
          "internalType": "uint256",
          "name": "",
          "type": "uint256"
        },
        {
          "internalType": "address",
          "name": "",
          "type": "address"
        }
      ],
      "name": "hasClaimed",
      "outputs": [
        {
          "internalType": "bool",
          "name": "",
          "type": "bool"
        }
      ],
      "stateMutability": "view",
      "type": "function"
    },
    {
      "inputs": [
        {
          "internalType": "uint256",
          "name": "",
          "type": "uint256"
        },
        {
          "internalType": "uint256",
          "name": "",
          "type": "uint256"
        },
        {
          "internalType": "address",
          "name": "",
          "type": "address"
        }
      ],
      "name": "hasClicked",
      "outputs": [
        {
          "internalType": "bool",
          "name": "",
          "type": "bool"
        }
      ],
      "stateMutability": "view",
      "type": "function"
    },
    {
      "inputs": [],
      "name": "lastFinalizedCycle",
      "outputs": [
        {
          "internalType": "uint256",
          "name": "",
          "type": "uint256"
        }
      ],
      "stateMutability": "view",
      "type": "function"
    },
    {
      "inputs": [],
      "name": "lockedFunds",
      "outputs": [
        {
          "internalType": "uint256",
          "name": "",
          "type": "uint256"
        }
      ],
      "stateMutability": "view",
      "type": "function"
    },
    {
      "inputs": [],
      "name": "owner",
      "outputs": [
        {
          "internalType": "address",
          "name": "",
          "type": "address"
        }
      ],
      "stateMutability": "view",
      "type": "function"
    },
    {
      "inputs": [
        {
          "internalType": "uint256",
          "name": "cycle",
          "type": "uint256"
        },
        {
          "internalType": "uint256",
          "name": "slotIndex",
          "type": "uint256"
        },
        {
          "internalType": "string",
          "name": "name",
          "type": "string"
        },
        {
          "internalType": "string",
          "name": "description",
          "type": "string"
        },
        {
          "internalType": "string",
          "name": "imageUrl",
          "type": "string"
        },
        {
          "internalType": "uint256",
          "name": "bidAmount",
          "type": "uint256"
        },
        {
          "internalType": "enum ADS.SlotType",
          "name": "slotType",
          "type": "uint8"
        }
      ],
      "name": "placeAdBid",
      "outputs": [],
      "stateMutability": "nonpayable",
      "type": "function"
    },
    {
      "inputs": [
        {
          "internalType": "uint256",
          "name": "cycle",
          "type": "uint256"
        },
        {
          "internalType": "uint256",
          "name": "slotIndex",
          "type": "uint256"
        },
        {
          "internalType": "uint256",
          "name": "nonce",
          "type": "uint256"
        },
        {
          "internalType": "uint256",
          "name": "timestamp",
          "type": "uint256"
        },
        {
          "internalType": "bytes",
          "name": "signature",
          "type": "bytes"
        }
      ],
      "name": "recordClick",
      "outputs": [],
      "stateMutability": "nonpayable",
      "type": "function"
    },
    {
      "inputs": [
        {
          "internalType": "address",
          "name": "signal",
          "type": "address"
        },
        {
          "internalType": "uint256",
          "name": "root",
          "type": "uint256"
        },
        {
          "internalType": "uint256",
          "name": "nullifierHash",
          "type": "uint256"
        },
        {
          "internalType": "uint256[8]",
          "name": "proof",
          "type": "uint256[8]"
        }
      ],
      "name": "register",
      "outputs": [],
      "stateMutability": "nonpayable",
      "type": "function"
    },
    {
      "inputs": [
        {
          "internalType": "address",
          "name": "",
          "type": "address"
        }
      ],
      "name": "registered",
      "outputs": [
        {
          "internalType": "bool",
          "name": "",
          "type": "bool"
        }
      ],
      "stateMutability": "view",
      "type": "function"
    },
    {
      "inputs": [
        {
          "internalType": "uint256",
          "name": "cycle",
          "type": "uint256"
        },
        {
          "internalType": "uint256",
          "name": "slotIndex",
          "type": "uint256"
        }
      ],
      "name": "removeAd",
      "outputs": [],
      "stateMutability": "nonpayable",
      "type": "function"
    },
    {
      "inputs": [
        {
          "internalType": "address",
          "name": "signer",
          "type": "address"
        }
      ],
      "name": "removeAuthorizedSigner",
      "outputs": [],
      "stateMutability": "nonpayable",
      "type": "function"
    },
    {
      "inputs": [],
      "name": "renounceOwnership",
      "outputs": [],
      "stateMutability": "nonpayable",
      "type": "function"
    },
    {
      "inputs": [
        {
          "internalType": "address",
          "name": "newOwner",
          "type": "address"
        }
      ],
      "name": "transferOwnership",
      "outputs": [],
      "stateMutability": "nonpayable",
      "type": "function"
    },
    {
      "inputs": [
        {
          "internalType": "address",
          "name": "advertiser",
          "type": "address"
        }
      ],
      "name": "unbanAdvertiser",
      "outputs": [],
      "stateMutability": "nonpayable",
      "type": "function"
    },
    {
      "inputs": [
        {
          "internalType": "bytes32",
          "name": "",
          "type": "bytes32"
        }
      ],
      "name": "usedSignatures",
      "outputs": [
        {
          "internalType": "bool",
          "name": "",
          "type": "bool"
        }
      ],
      "stateMutability": "view",
      "type": "function"
    },
    {
      "inputs": [],
      "name": "withdrawFees",
      "outputs": [],
      "stateMutability": "nonpayable",
      "type": "function"
    },
    {
      "inputs": [],
      "name": "worldId",
      "outputs": [
        {
          "internalType": "contract IWorldID",
          "name": "",
          "type": "address"
        }
      ],
      "stateMutability": "view",
      "type": "function"
    }
  ],
  "bytecode": "0x610100604052600160e0523480156200001757600080fd5b5060405162003115380380620031158339810160408190526200003a916200024a565b33806200006157604051631e4fbdf760e01b81526000600482015260240160405180910390fd5b6200006c81620000d9565b50600180556001600160a01b03808516608052831660a052604051620000cb90620000b790620000a1908590602001620002da565b60408051601f1981840301815291905262000129565b82604051602001620000a1929190620002f8565b60c052506200032092505050565b600080546001600160a01b038381166001600160a01b0319831681178455604051919092169283917f8be0079c531659141344cd1fd0a4f28419497f9722a3daafe3b4186f6b6457e09190a35050565b6000600882604051602001620001409190620002da565b60408051601f198184030181529190528051602090910120901c92915050565b80516001600160a01b03811681146200017857600080fd5b919050565b634e487b7160e01b600052604160045260246000fd5b60005b83811015620001b057818101518382015260200162000196565b50506000910152565b600082601f830112620001cb57600080fd5b81516001600160401b0380821115620001e857620001e86200017d565b604051601f8301601f19908116603f011681019082821181831017156200021357620002136200017d565b816040528381528660208588010111156200022d57600080fd5b6200024084602083016020890162000193565b9695505050505050565b600080600080608085870312156200026157600080fd5b6200026c8562000160565b93506200027c6020860162000160565b60408601519093506001600160401b03808211156200029a57600080fd5b620002a888838901620001b9565b93506060870151915080821115620002bf57600080fd5b50620002ce87828801620001b9565b91505092959194509250565b60008251620002ee81846020870162000193565b9190910192915050565b828152600082516200031281602085016020870162000193565b919091016020019392505050565b60805160a05160c05160e051612d8a6200038b6000396000611ddb01526000611e3d0152600081816103da0152611dab0152600081816104dc0152818161087a01528181610b90015281816114370152818161161501528181611ac70152611b960152612d8a6000f3fe608060405234801561001057600080fd5b50600436106102115760003560e01c80637433142811610125578063be26ed7f116100ad578063de061d661161007c578063de061d66146104d7578063e7c21a3e146104fe578063f2fde38b14610511578063f62a4edb14610524578063f978fd611461053757600080fd5b8063be26ed7f1461049f578063c0ae6146146104a7578063cc6cd25e146104ba578063cd421fbf146104cd57600080fd5b806397090dc8116100f457806397090dc814610438578063b2dd5c071461044b578063b7c32bf01461046e578063b8afaa4814610483578063bad1a3801461048c57600080fd5b806374331428146103c2578063753e9ef0146103d557806386bb8f37146104145780638da5cb5b1461042757600080fd5b80634d63a475116101a85780635d2b6a4e116101775780635d2b6a4e14610338578063646e200b1461035b57806369547f2d1461037d5780636ecdf606146103b1578063715018a6146103ba57600080fd5b80634d63a475146102df5780635240eb3214610313578063539aa77f14610326578063587f5ed71461032f57600080fd5b806321e20e8b116101e457806321e20e8b146102b257806339aca329146102c557806342f81580146102cd578063476343ee146102d757600080fd5b8063035169a4146102165780631012be0d1461024957806311637f221461025e5780631f50fec914610291575b600080fd5b6102296102243660046125a2565b61055a565b6040516102409b9a9998979695949392919061264c565b60405180910390f35b61025c6102573660046125a2565b610764565b005b61028161026c3660046126fb565b60046020526000908152604090205460ff1681565b6040519015158152602001610240565b6102a461029f366004612716565b610990565b604051908152602001610240565b61025c6102c036600461274b565b610a9a565b6102a4600a81565b6102a46212750081565b61025c610b4a565b6102816102ed366004612716565b600760209081526000938452604080852082529284528284209052825290205460ff1681565b61025c6103213660046126fb565b610cb3565b6102a46101f481565b6102a4600a5481565b6102816103463660046126fb565b60056020526000908152604090205460ff1681565b61036e6103693660046126fb565b610cdf565b6040516102409392919061279f565b61028161038b366004612716565b600860209081526000938452604080852082529284528284209052825290205460ff1681565b6102a460025481565b61025c611188565b61025c6103d03660046126fb565b61119a565b6103fc7f000000000000000000000000000000000000000000000000000000000000000081565b6040516001600160a01b039091168152602001610240565b61025c6104223660046125a2565b6111eb565b6000546001600160a01b03166103fc565b61025c6104463660046125a2565b611521565b6102816104593660046126fb565b60036020526000908152604090205460ff1681565b6104766116e5565b60405161024091906127e2565b6102a4600b5481565b61025c61049a366004612937565b6119da565b6102a4611d0d565b61025c6104b53660046126fb565b611d1c565b61025c6104c8366004612a05565b611d70565b6102a46201518081565b6103fc7f000000000000000000000000000000000000000000000000000000000000000081565b61025c61050c366004612a53565b611eff565b61025c61051f3660046126fb565b6121f4565b61025c6105323660046126fb565b612237565b61028161054536600461274b565b60096020526000908152604090205460ff1681565b6006602090815260009283526040808420909152908252902080546001820180546001600160a01b03909216929161059190612abd565b80601f01602080910402602001604051908101604052809291908181526020018280546105bd90612abd565b801561060a5780601f106105df5761010080835404028352916020019161060a565b820191906000526020600020905b8154815290600101906020018083116105ed57829003601f168201915b50505050509080600201805461061f90612abd565b80601f016020809104026020016040519081016040528092919081815260200182805461064b90612abd565b80156106985780601f1061066d57610100808354040283529160200191610698565b820191906000526020600020905b81548152906001019060200180831161067b57829003601f168201915b5050505050908060030180546106ad90612abd565b80601f01602080910402602001604051908101604052809291908181526020018280546106d990612abd565b80156107265780601f106106fb57610100808354040283529160200191610726565b820191906000526020600020905b81548152906001019060200180831161070957829003601f168201915b5050505060048301546005840154600685015460078601546008909601549495929460ff80841695506101008404811694620100009094041692908b565b61076c612260565b600a811061078d57604051631258e44360e01b815260040160405180910390fd5b600082815260066020908152604080832084845290915290206005810154610100900460ff166107d057604051630df706ad60e11b815260040160405180910390fd5b6212750081600801546107e39190612b0d565b42116108025760405163162618a960e01b815260040160405180910390fd5b600481015460006127106108186101f484612b26565b6108229190612b3d565b905060006108308284612b5f565b905060008460070154826108449190612b5f565b9050806000036108675760405163162908e360e11b815260040160405180910390fd5b6007850182905560006001600160a01b037f00000000000000000000000000000000000000000000000000000000000000001663a9059cbb6108b16000546001600160a01b031690565b6040516001600160e01b031960e084901b1681526001600160a01b039091166004820152602481018590526044016020604051808303816000875af11580156108fe573d6000803e3d6000fd5b505050506040513d601f19601f820116820180604052508101906109229190612b72565b905080610942576040516312171d8360e31b815260040160405180910390fd5b86887fcf3b62092c7f2a3455c516c177bd1970412d1c381c960d3986e3296f9dff0e7b8460405161097591815260200190565b60405180910390a350505050505061098c60018055565b5050565b600083815260066020908152604080832085845282528083208684526007835281842086855283528184206001600160a01b038616855290925282205460ff166109de576000915050610a93565b600085815260086020908152604080832087845282528083206001600160a01b038716845290915290205460ff1615610a1b576000915050610a93565b6005810154610100900460ff16610a36576000915050610a93565b8060060154600003610a4c576000915050610a93565b60048101546000612710610a626101f484612b26565b610a6c9190612b3d565b90506000610a7a8284612b5f565b9050836006015481610a8c9190612b3d565b9450505050505b9392505050565b610aa261228a565b8110610ac157604051634dc7f5ff60e11b815260040160405180910390fd5b600254610acf906001612b0d565b8114610aee57604051634dc7f5ff60e11b815260040160405180910390fd5b60005b600a811015610b1657610b048282612299565b80610b0e81612b94565b915050610af1565b50600281905560405181907f6fbfbccdd0d107860c9bccfa723d97eba4f37886edeb01e7a438b1e0fe44e05690600090a250565b610b526123af565b610b5a612260565b600a546000819003610b7f5760405163162908e360e11b815260040160405180910390fd5b6000600a8190556001600160a01b037f00000000000000000000000000000000000000000000000000000000000000001663a9059cbb610bc76000546001600160a01b031690565b6040516001600160e01b031960e084901b1681526001600160a01b039091166004820152602481018590526044016020604051808303816000875af1158015610c14573d6000803e3d6000fd5b505050506040513d601f19601f82011682018060405250810190610c389190612b72565b905080610c58576040516312171d8360e31b815260040160405180910390fd5b6000546001600160a01b03166001600160a01b03167fc0819c13be868895eb93e40eaceb96de976442fa1d404e5c55f14bb65a8c489a83604051610c9e91815260200190565b60405180910390a25050610cb160018055565b565b610cbb6123af565b6001600160a01b03166000908152600560205260409020805460ff19166001179055565b60608060606000610cee61228a565b90506000610cfd600a83612b26565b905060008167ffffffffffffffff811115610d1a57610d1a612bad565b604051908082528060200260200182016040528015610d43578160200160208202803683370190505b50905060008267ffffffffffffffff811115610d6157610d61612bad565b604051908082528060200260200182016040528015610d8a578160200160208202803683370190505b50905060008367ffffffffffffffff811115610da857610da8612bad565b604051908082528060200260200182016040528015610dd1578160200160208202803683370190505b5090506000805b868111610fe65760005b600a811015610fd3576000600660008481526020019081526020016000206000838152602001908152602001600020905060076000848152602001908152602001600020600083815260200190815260200160002060008e6001600160a01b03166001600160a01b0316815260200190815260200160002060009054906101000a900460ff168015610ec6575060086000848152602001908152602001600020600083815260200190815260200160002060008e6001600160a01b03166001600160a01b0316815260200190815260200160002060009054906101000a900460ff16155b8015610edb57506005810154610100900460ff165b8015610ef95750621275008160080154610ef59190612b0d565b4211155b8015610f09575060008160060154115b15610fc05760048101546000612710610f246101f484612b26565b610f2e9190612b3d565b90506000610f3c8284612b5f565b90506000846006015482610f509190612b3d565b9050868b8981518110610f6557610f65612bc3565b602002602001018181525050858a8981518110610f8457610f84612bc3565b60200260200101818152505080898981518110610fa357610fa3612bc3565b602090810291909101015287610fb881612b94565b985050505050505b5080610fcb81612b94565b915050610de2565b5080610fde81612b94565b915050610dd8565b508067ffffffffffffffff81111561100057611000612bad565b604051908082528060200260200182016040528015611029578160200160208202803683370190505b5098508067ffffffffffffffff81111561104557611045612bad565b60405190808252806020026020018201604052801561106e578160200160208202803683370190505b5097508067ffffffffffffffff81111561108a5761108a612bad565b6040519080825280602002602001820160405280156110b3578160200160208202803683370190505b50965060005b8181101561117a578481815181106110d3576110d3612bc3565b60200260200101518a82815181106110ed576110ed612bc3565b60200260200101818152505083818151811061110b5761110b612bc3565b602002602001015189828151811061112557611125612bc3565b60200260200101818152505082818151811061114357611143612bc3565b602002602001015188828151811061115d5761115d612bc3565b60209081029190910101528061117281612b94565b9150506110b9565b505050505050509193909250565b6111906123af565b610cb160006123dc565b6111a26123af565b6001600160a01b038116600081815260046020526040808220805460ff19169055517f2a2f5e02b0e6aab2b998dbcae41aec9407649a38bd8d41b7b49bedee8cdeaf2e9190a250565b6111f3612260565b3360009081526003602052604090205460ff166112235760405163aba4733960e01b815260040160405180910390fd5b600a811061124457604051631258e44360e01b815260040160405180910390fd5b600082815260066020908152604080832084845290915290206005810154610100900460ff1661128757604051630df706ad60e11b815260040160405180910390fd5b600581015462010000900460ff16156112b357604051631bb428a960e21b815260040160405180910390fd5b6000838152600760209081526040808320858452825280832033845290915290205460ff166112f5576040516301327deb60e01b815260040160405180910390fd5b6000838152600860209081526040808320858452825280832033845290915290205460ff161561133857604051630c8d9eab60e31b815260040160405180910390fd5b62127500816008015461134b9190612b0d565b42111561136b5760405163320c7b7d60e21b815260040160405180910390fd5b600681015460008190036113925760405163162908e360e11b815260040160405180910390fd5b600482015460006127106113a86101f484612b26565b6113b29190612b3d565b905060006113c08284612b5f565b905060006113ce8583612b3d565b60008981526008602090815260408083208b845282528083203384529091528120805460ff191660011790556007880180549293508392909190611413908490612b0d565b909155505060405163a9059cbb60e01b8152336004820152602481018290526000907f00000000000000000000000000000000000000000000000000000000000000006001600160a01b03169063a9059cbb906044016020604051808303816000875af1158015611488573d6000803e3d6000fd5b505050506040513d601f19601f820116820180604052508101906114ac9190612b72565b9050806114cc576040516312171d8360e31b815260040160405180910390fd5b8789336001600160a01b03167f812be816db82c66cd18ca8457005cd84689642d8ac4d38599cc6af444a2dc72a8560405161150991815260200190565b60405180910390a45050505050505061098c60018055565b611529612260565b600a811061154a57604051631258e44360e01b815260040160405180910390fd5b6000828152600660209081526040808320848452909152902080546001600160a01b0316331461158d57604051632211114160e11b815260040160405180910390fd5b6005810154610100900460ff16156115b85760405163475a253560e01b815260040160405180910390fd5b60058101805462ff00001916620100001790556004810154156116ac578060040154600b60008282546115eb9190612b5f565b909155505060048181015460405163a9059cbb60e01b8152339281019290925260248201526000907f00000000000000000000000000000000000000000000000000000000000000006001600160a01b03169063a9059cbb906044016020604051808303816000875af1158015611666573d6000803e3d6000fd5b505050506040513d601f19601f8201168201806040525081019061168a9190612b72565b9050806116aa576040516312171d8360e31b815260040160405180910390fd5b505b6040518290849033907f2ddf52ad696f7475d5e714ce5c8c1c4e9b93814e40d3f4c5ab845cb2bc0579ac90600090a45061098c60018055565b606060006116f161228a565b60408051600a808252610160820190925291925060009190816020015b61171661252a565b81526020019060019003908161170e57905050905060005b600a8110156119d35760008381526006602090815260408083208484528252918290208251610160810190935280546001600160a01b03168352600181018054919284019161177c90612abd565b80601f01602080910402602001604051908101604052809291908181526020018280546117a890612abd565b80156117f55780601f106117ca576101008083540402835291602001916117f5565b820191906000526020600020905b8154815290600101906020018083116117d857829003601f168201915b5050505050815260200160028201805461180e90612abd565b80601f016020809104026020016040519081016040528092919081815260200182805461183a90612abd565b80156118875780601f1061185c57610100808354040283529160200191611887565b820191906000526020600020905b81548152906001019060200180831161186a57829003601f168201915b505050505081526020016003820180546118a090612abd565b80601f01602080910402602001604051908101604052809291908181526020018280546118cc90612abd565b80156119195780601f106118ee57610100808354040283529160200191611919565b820191906000526020600020905b8154815290600101906020018083116118fc57829003601f168201915b505050918352505060048201546020820152600582015460409091019060ff16600981111561194a5761194a612614565b600981111561195b5761195b612614565b8152600582015460ff6101008204811615156020840152620100009091041615156040820152600682015460608201526007820154608082015260089091015460a09091015282518390839081106119b5576119b5612bc3565b602002602001018190525080806119cb90612b94565b91505061172e565b5092915050565b6119e2612260565b3360009081526004602052604090205460ff1615611a135760405163299aa0a160e21b815260040160405180910390fd5b611a1b61228a565b8a14611a3a57604051634dc7f5ff60e11b815260040160405180910390fd5b600a8910611a5b57604051631258e44360e01b815260040160405180910390fd5b60008a81526006602090815260408083208c8452909152902080546001600160a01b031615801590611a91575060008160040154115b15611b7157805460048083015460405163a9059cbb60e01b81526001600160a01b039384169281019290925260248201526000917f0000000000000000000000000000000000000000000000000000000000000000169063a9059cbb906044016020604051808303816000875af1158015611b10573d6000803e3d6000fd5b505050506040513d601f19601f82011682018060405250810190611b349190612b72565b905080611b54576040516312171d8360e31b815260040160405180910390fd5b8160040154600b6000828254611b6a9190612b5f565b9091555050505b6040516323b872dd60e01b8152336004820152306024820152604481018490526000907f00000000000000000000000000000000000000000000000000000000000000006001600160a01b0316906323b872dd906064016020604051808303816000875af1158015611be7573d6000803e3d6000fd5b505050506040513d601f19601f82011682018060405250810190611c0b9190612b72565b905080611c2b576040516312171d8360e31b815260040160405180910390fd5b81546001600160a01b0319163317825560018201611c4a8a8c83612c24565b5060028201611c5a888a83612c24565b5060038201611c6a868883612c24565b506004820184905560058201805484919060ff19166001836009811115611c9357611c93612614565b021790555083600b6000828254611caa9190612b0d565b925050819055508a8c336001600160a01b03167f57fd3b672d0a576a3e359189cf66cb6f9f8928eba7c11efbe695d66b957ce76e8688604051611cee929190612ce5565b60405180910390a45050611d0160018055565b50505050505050505050565b6000611d1761228a565b905090565b611d246123af565b6001600160a01b038116600081815260046020526040808220805460ff19166001179055517f97b051fe48e86c08fca96c9bbe846678783b6999358e6d4efbaf9e40ca59b6a79190a250565b611d78612260565b3360009081526003602052604090205460ff1615611da957604051630ea075bf60e21b815260040160405180910390fd5b7f00000000000000000000000000000000000000000000000000000000000000006001600160a01b0316633bc778e3847f0000000000000000000000000000000000000000000000000000000000000000611e3a88604051602001611e26919060609190911b6bffffffffffffffffffffffff1916815260140190565b60405160208183030381529060405261242c565b867f0000000000000000000000000000000000000000000000000000000000000000876040518763ffffffff1660e01b8152600401611e7e96959493929190612d00565b60006040518083038186803b158015611e9657600080fd5b505afa158015611eaa573d6000803e3d6000fd5b505033600081815260036020526040808220805460ff19166001179055519193507f54db7a5cb4735e1aac1f53db512d3390390bb6637bd30ad4bf9fc98667d9b9b9925090a2611ef960018055565b50505050565b611f07612260565b3360009081526003602052604090205460ff16611f375760405163aba4733960e01b815260040160405180910390fd5b611f3f61228a565b8610611f5e57604051634dc7f5ff60e11b815260040160405180910390fd5b600a8510611f7f57604051631258e44360e01b815260040160405180910390fd5b600086815260066020908152604080832088845290915290206005810154610100900460ff1615611fc35760405163475a253560e01b815260040160405180910390fd5b600581015462010000900460ff1615611fef57604051631bb428a960e21b815260040160405180910390fd5b6000878152600760209081526040808320898452825280832033845290915290205460ff16156120325760405163e02cd2cb60e01b815260040160405180910390fd5b6040516bffffffffffffffffffffffff193360601b1660208201526034810188905260548101879052607481018690526094810185905260009060b4016040516020818303038152906040528051906020012090506000816040516020016120c691907f19457468657265756d205369676e6564204d6573736167653a0a3332000000008152601c810191909152603c0190565b60408051601f1981840301815291815281516020928301206000818152600990935291205490915060ff161561210f5760405163900bb2c960e01b815260040160405180910390fd5b600061211c828787612461565b6001600160a01b03811660009081526005602052604090205490915060ff166121585760405163ea8e4eb560e01b815260040160405180910390fd5b60008281526009602090815260408083208054600160ff1991821681179092558e8552600784528285208e865284528285203386529093529083208054909216179055600685018054916121ab83612b94565b909155505060405189908b9033907fdf68871eff37c21a2d5f5f4714defb013c53c6aa48ebe6eff29ca11e0651912790600090a4505050506121ec60018055565b505050505050565b6121fc6123af565b6001600160a01b03811661222b57604051631e4fbdf760e01b8152600060048201526024015b60405180910390fd5b612234816123dc565b50565b61223f6123af565b6001600160a01b03166000908152600560205260409020805460ff19169055565b60026001540361228357604051633ee5aeb560e01b815260040160405180910390fd5b6002600155565b6000611d176201518042612b3d565b6000828152600660209081526040808320848452909152902080546001600160a01b03166122d557600501805461ff0019166101001790555050565b600581015462010000900460ff16156122fc57600501805461ff0019166101001790555050565b600481015460006127106123126101f484612b26565b61231c9190612b3d565b905080600a60008282546123309190612b0d565b9250508190555081600b60008282546123499190612b5f565b909155505060058301805461ff0019166101001790554260088401556006830154604051859187917f67a59239176edc6000958291e1c679afd7b3e13a274c758a1fb33d8587d5e708916123a09190815260200190565b60405180910390a35050505050565b6000546001600160a01b03163314610cb15760405163118cdaa760e01b8152336004820152602401612222565b600080546001600160a01b038381166001600160a01b0319831681178455604051919092169283917f8be0079c531659141344cd1fd0a4f28419497f9722a3daafe3b4186f6b6457e09190a35050565b60006008826040516020016124419190612d38565b60408051601f198184030181529190528051602090910120901c92915050565b6000604182146124b35760405162461bcd60e51b815260206004820152601860248201527f496e76616c6964207369676e6174757265206c656e67746800000000000000006044820152606401612222565b60408051600080825260208083018085528890528684013590911a92820183905285356060830181905290860135608083018190529092909160019060a0016020604051602081039080840390855afa158015612514573d6000803e3d6000fd5b5050604051601f19015198975050505050505050565b60405180610160016040528060006001600160a01b03168152602001606081526020016060815260200160608152602001600081526020016000600981111561257557612575612614565b81526020016000151581526020016000151581526020016000815260200160008152602001600081525090565b600080604083850312156125b557600080fd5b50508035926020909101359150565b60005b838110156125df5781810151838201526020016125c7565b50506000910152565b600081518084526126008160208601602086016125c4565b601f01601f19169290920160200192915050565b634e487b7160e01b600052602160045260246000fd5b600a811061264857634e487b7160e01b600052602160045260246000fd5b9052565b6001600160a01b038c168152610160602082018190526000906126718382018e6125e8565b90508281036040840152612685818d6125e8565b90508281036060840152612699818c6125e8565b9150508860808301526126af60a083018961262a565b95151560c082015293151560e0850152610100840192909252610120830152610140909101529695505050505050565b80356001600160a01b03811681146126f657600080fd5b919050565b60006020828403121561270d57600080fd5b610a93826126df565b60008060006060848603121561272b57600080fd5b8335925060208401359150612742604085016126df565b90509250925092565b60006020828403121561275d57600080fd5b5035919050565b600081518084526020808501945080840160005b8381101561279457815187529582019590820190600101612778565b509495945050505050565b6060815260006127b26060830186612764565b82810360208401526127c48186612764565b905082810360408401526127d88185612764565b9695505050505050565b60006020808301818452808551808352604092508286019150828160051b87010184880160005b838110156128e057888303603f19018552815180516001600160a01b0316845261016088820151818a870152612841828701826125e8565b915050878201518582038987015261285982826125e8565b9150506060808301518683038288015261287383826125e8565b92505050608080830151818701525060a0808301516128948288018261262a565b505060c08281015115159086015260e080830151151590860152610100808301519086015261012080830151908601526101409182015191909401529386019390860190600101612809565b509098975050505050505050565b60008083601f84011261290057600080fd5b50813567ffffffffffffffff81111561291857600080fd5b60208301915083602082850101111561293057600080fd5b9250929050565b60008060008060008060008060008060e08b8d03121561295657600080fd5b8a35995060208b0135985060408b013567ffffffffffffffff8082111561297c57600080fd5b6129888e838f016128ee565b909a50985060608d01359150808211156129a157600080fd5b6129ad8e838f016128ee565b909850965060808d01359150808211156129c657600080fd5b506129d38d828e016128ee565b90955093505060a08b0135915060c08b0135600a81106129f257600080fd5b809150509295989b9194979a5092959850565b600080600080610160808688031215612a1d57600080fd5b612a26866126df565b94506020860135935060408601359250868187011115612a4557600080fd5b509295919450926060019150565b60008060008060008060a08789031215612a6c57600080fd5b86359550602087013594506040870135935060608701359250608087013567ffffffffffffffff811115612a9f57600080fd5b612aab89828a016128ee565b979a9699509497509295939492505050565b600181811c90821680612ad157607f821691505b602082108103612af157634e487b7160e01b600052602260045260246000fd5b50919050565b634e487b7160e01b600052601160045260246000fd5b80820180821115612b2057612b20612af7565b92915050565b8082028115828204841417612b2057612b20612af7565b600082612b5a57634e487b7160e01b600052601260045260246000fd5b500490565b81810381811115612b2057612b20612af7565b600060208284031215612b8457600080fd5b81518015158114610a9357600080fd5b600060018201612ba657612ba6612af7565b5060010190565b634e487b7160e01b600052604160045260246000fd5b634e487b7160e01b600052603260045260246000fd5b601f821115612c1f57600081815260208120601f850160051c81016020861015612c005750805b601f850160051c820191505b818110156121ec57828155600101612c0c565b505050565b67ffffffffffffffff831115612c3c57612c3c612bad565b612c5083612c4a8354612abd565b83612bd9565b6000601f841160018114612c845760008515612c6c5750838201355b600019600387901b1c1916600186901b178355612cde565b600083815260209020601f19861690835b82811015612cb55786850135825560209485019460019092019101612c95565b5086821015612cd25760001960f88860031b161c19848701351681555b505060018560011b0183555b5050505050565b60408101612cf3828561262a565b8260208301529392505050565b60006101a0820190508782528660208301528560408301528460608301528360808301526101008360a0840137979650505050505050565b60008251612d4a8184602087016125c4565b919091019291505056fea2646970667358221220e7bbc235e2bec9a2964eed81959b2148a5011527190d95caf24c72178c9d890464736f6c63430008140033",
  "linkReferences": {},
  "deployedLinkReferences": {}
}