{
  "_format": "hh-sol-artifact-1",
  "contractName": "ADS",
  "sourceName": "contracts/ADS.sol",
  "abi": [
    {
      "inputs": [
        {
          "internalType": "address",
          "name": "_wldToken",
          "type": "address"
        },
        {
          "internalType": "address",
          "name": "_permit2",
          "type": "address"
        },
        {
          "internalType": "address",
          "name": "_worldId",
          "type": "address"
        },
        {
          "internalType": "string",
          "name": "_appId",
          "type": "string"
        },
        {
          "internalType": "string",
          "name": "_action",
          "type": "string"
        }
      ],
      "stateMutability": "nonpayable",
      "type": "constructor"
    },
    {
      "inputs": [],
      "name": "AdWasRemoved",
      "type": "error"
    },
    {
      "inputs": [],
      "name": "AdvertiserIsBanned",
      "type": "error"
    },
    {
      "inputs": [],
      "name": "AlreadyClaimed",
      "type": "error"
    },
    {
      "inputs": [],
      "name": "AlreadyClicked",
      "type": "error"
    },
    {
      "inputs": [],
      "name": "AlreadyFinalized",
      "type": "error"
    },
    {
      "inputs": [],
      "name": "AlreadyRegistered",
      "type": "error"
    },
    {
      "inputs": [],
      "name": "ClaimDeadlineNotPassed",
      "type": "error"
    },
    {
      "inputs": [],
      "name": "ClaimDeadlinePassed",
      "type": "error"
    },
    {
      "inputs": [],
      "name": "InvalidAmount",
      "type": "error"
    },
    {
      "inputs": [],
      "name": "InvalidCycle",
      "type": "error"
    },
    {
      "inputs": [],
      "name": "InvalidSlot",
      "type": "error"
    },
    {
      "inputs": [],
      "name": "NoClickRecorded",
      "type": "error"
    },
    {
      "inputs": [],
      "name": "NotAdvertiser",
      "type": "error"
    },
    {
      "inputs": [],
      "name": "NotAuthorized",
      "type": "error"
    },
    {
      "inputs": [],
      "name": "NotFinalized",
      "type": "error"
    },
    {
      "inputs": [],
      "name": "NotRegistered",
      "type": "error"
    },
    {
      "inputs": [
        {
          "internalType": "address",
          "name": "owner",
          "type": "address"
        }
      ],
      "name": "OwnableInvalidOwner",
      "type": "error"
    },
    {
      "inputs": [
        {
          "internalType": "address",
          "name": "account",
          "type": "address"
        }
      ],
      "name": "OwnableUnauthorizedAccount",
      "type": "error"
    },
    {
      "inputs": [],
      "name": "ReentrancyGuardReentrantCall",
      "type": "error"
    },
    {
      "inputs": [],
      "name": "SignatureAlreadyUsed",
      "type": "error"
    },
    {
      "inputs": [],
      "name": "TransferFailed",
      "type": "error"
    },
    {
      "anonymous": false,
      "inputs": [
        {
          "indexed": true,
          "internalType": "address",
          "name": "advertiser",
          "type": "address"
        },
        {
          "indexed": true,
          "internalType": "uint256",
          "name": "cycle",
          "type": "uint256"
        },
        {
          "indexed": true,
          "internalType": "uint256",
          "name": "slotIndex",
          "type": "uint256"
        },
        {
          "indexed": false,
          "internalType": "enum ADS.SlotType",
          "name": "slotType",
          "type": "uint8"
        },
        {
          "indexed": false,
          "internalType": "uint256",
          "name": "bidAmount",
          "type": "uint256"
        }
      ],
      "name": "AdBidPlaced",
      "type": "event"
    },
    {
      "anonymous": false,
      "inputs": [
        {
          "indexed": true,
          "internalType": "address",
          "name": "advertiser",
          "type": "address"
        },
        {
          "indexed": true,
          "internalType": "uint256",
          "name": "cycle",
          "type": "uint256"
        },
        {
          "indexed": true,
          "internalType": "uint256",
          "name": "slotIndex",
          "type": "uint256"
        }
      ],
      "name": "AdRemoved",
      "type": "event"
    },
    {
      "anonymous": false,
      "inputs": [
        {
          "indexed": true,
          "internalType": "uint256",
          "name": "cycle",
          "type": "uint256"
        },
        {
          "indexed": true,
          "internalType": "uint256",
          "name": "slotIndex",
          "type": "uint256"
        },
        {
          "indexed": false,
          "internalType": "uint256",
          "name": "totalClicks",
          "type": "uint256"
        }
      ],
      "name": "AdSlotFinalized",
      "type": "event"
    },
    {
      "anonymous": false,
      "inputs": [
        {
          "indexed": true,
          "internalType": "address",
          "name": "advertiser",
          "type": "address"
        }
      ],
      "name": "AdvertiserBanned",
      "type": "event"
    },
    {
      "anonymous": false,
      "inputs": [
        {
          "indexed": true,
          "internalType": "address",
          "name": "advertiser",
          "type": "address"
        }
      ],
      "name": "AdvertiserUnbanned",
      "type": "event"
    },
    {
      "anonymous": false,
      "inputs": [
        {
          "indexed": true,
          "internalType": "address",
          "name": "user",
          "type": "address"
        },
        {
          "indexed": true,
          "internalType": "uint256",
          "name": "cycle",
          "type": "uint256"
        },
        {
          "indexed": true,
          "internalType": "uint256",
          "name": "slotIndex",
          "type": "uint256"
        }
      ],
      "name": "ClickRecorded",
      "type": "event"
    },
    {
      "anonymous": false,
      "inputs": [
        {
          "indexed": true,
          "internalType": "uint256",
          "name": "cycle",
          "type": "uint256"
        }
      ],
      "name": "CycleFinalized",
      "type": "event"
    },
    {
      "anonymous": false,
      "inputs": [
        {
          "indexed": true,
          "internalType": "uint256",
          "name": "cycle",
          "type": "uint256"
        },
        {
          "indexed": true,
          "internalType": "uint256",
          "name": "slotIndex",
          "type": "uint256"
        },
        {
          "indexed": false,
          "internalType": "uint256",
          "name": "amount",
          "type": "uint256"
        }
      ],
      "name": "ExpiredClaimCollected",
      "type": "event"
    },
    {
      "anonymous": false,
      "inputs": [
        {
          "indexed": true,
          "internalType": "address",
          "name": "recipient",
          "type": "address"
        },
        {
          "indexed": false,
          "internalType": "uint256",
          "name": "amount",
          "type": "uint256"
        }
      ],
      "name": "FeesWithdrawn",
      "type": "event"
    },
    {
      "anonymous": false,
      "inputs": [
        {
          "indexed": true,
          "internalType": "address",
          "name": "previousOwner",
          "type": "address"
        },
        {
          "indexed": true,
          "internalType": "address",
          "name": "newOwner",
          "type": "address"
        }
      ],
      "name": "OwnershipTransferred",
      "type": "event"
    },
    {
      "anonymous": false,
      "inputs": [
        {
          "indexed": true,
          "internalType": "address",
          "name": "user",
          "type": "address"
        },
        {
          "indexed": true,
          "internalType": "uint256",
          "name": "cycle",
          "type": "uint256"
        },
        {
          "indexed": true,
          "internalType": "uint256",
          "name": "slotIndex",
          "type": "uint256"
        },
        {
          "indexed": false,
          "internalType": "uint256",
          "name": "amount",
          "type": "uint256"
        }
      ],
      "name": "RewardClaimed",
      "type": "event"
    },
    {
      "anonymous": false,
      "inputs": [
        {
          "indexed": true,
          "internalType": "address",
          "name": "user",
          "type": "address"
        }
      ],
      "name": "UserRegistered",
      "type": "event"
    },
    {
      "inputs": [],
      "name": "AD_SLOTS_PER_CYCLE",
      "outputs": [
        {
          "internalType": "uint256",
          "name": "",
          "type": "uint256"
        }
      ],
      "stateMutability": "view",
      "type": "function"
    },
    {
      "inputs": [],
      "name": "CLAIM_DEADLINE",
      "outputs": [
        {
          "internalType": "uint256",
          "name": "",
          "type": "uint256"
        }
      ],
      "stateMutability": "view",
      "type": "function"
    },
    {
      "inputs": [],
      "name": "CYCLE_DURATION",
      "outputs": [
        {
          "internalType": "uint256",
          "name": "",
          "type": "uint256"
        }
      ],
      "stateMutability": "view",
      "type": "function"
    },
    {
      "inputs": [],
      "name": "PLATFORM_FEE_BPS",
      "outputs": [
        {
          "internalType": "uint256",
          "name": "",
          "type": "uint256"
        }
      ],
      "stateMutability": "view",
      "type": "function"
    },
    {
      "inputs": [],
      "name": "WLD",
      "outputs": [
        {
          "internalType": "contract IERC20",
          "name": "",
          "type": "address"
        }
      ],
      "stateMutability": "view",
      "type": "function"
    },
    {
      "inputs": [],
      "name": "accumulatedFees",
      "outputs": [
        {
          "internalType": "uint256",
          "name": "",
          "type": "uint256"
        }
      ],
      "stateMutability": "view",
      "type": "function"
    },
    {
      "inputs": [
        {
          "internalType": "uint256",
          "name": "",
          "type": "uint256"
        },
        {
          "internalType": "uint256",
          "name": "",
          "type": "uint256"
        }
      ],
      "name": "adSlots",
      "outputs": [
        {
          "internalType": "address",
          "name": "advertiser",
          "type": "address"
        },
        {
          "internalType": "string",
          "name": "name",
          "type": "string"
        },
        {
          "internalType": "string",
          "name": "description",
          "type": "string"
        },
        {
          "internalType": "string",
          "name": "imageUrl",
          "type": "string"
        },
        {
          "internalType": "uint256",
          "name": "bidAmount",
          "type": "uint256"
        },
        {
          "internalType": "enum ADS.SlotType",
          "name": "slotType",
          "type": "uint8"
        },
        {
          "internalType": "bool",
          "name": "finalized",
          "type": "bool"
        },
        {
          "internalType": "bool",
          "name": "removed",
          "type": "bool"
        },
        {
          "internalType": "uint256",
          "name": "totalClicks",
          "type": "uint256"
        },
        {
          "internalType": "uint256",
          "name": "claimedAmount",
          "type": "uint256"
        },
        {
          "internalType": "uint256",
          "name": "finalizedAt",
          "type": "uint256"
        }
      ],
      "stateMutability": "view",
      "type": "function"
    },
    {
      "inputs": [
        {
          "internalType": "address",
          "name": "signer",
          "type": "address"
        }
      ],
      "name": "addAuthorizedSigner",
      "outputs": [],
      "stateMutability": "nonpayable",
      "type": "function"
    },
    {
      "inputs": [
        {
          "internalType": "address",
          "name": "",
          "type": "address"
        }
      ],
      "name": "authorizedSigners",
      "outputs": [
        {
          "internalType": "bool",
          "name": "",
          "type": "bool"
        }
      ],
      "stateMutability": "view",
      "type": "function"
    },
    {
      "inputs": [
        {
          "internalType": "address",
          "name": "advertiser",
          "type": "address"
        }
      ],
      "name": "banAdvertiser",
      "outputs": [],
      "stateMutability": "nonpayable",
      "type": "function"
    },
    {
      "inputs": [
        {
          "internalType": "address",
          "name": "",
          "type": "address"
        }
      ],
      "name": "bannedAdvertisers",
      "outputs": [
        {
          "internalType": "bool",
          "name": "",
          "type": "bool"
        }
      ],
      "stateMutability": "view",
      "type": "function"
    },
    {
      "inputs": [
        {
          "internalType": "uint256",
          "name": "cycle",
          "type": "uint256"
        },
        {
          "internalType": "uint256",
          "name": "slotIndex",
          "type": "uint256"
        },
        {
          "internalType": "address",
          "name": "user",
          "type": "address"
        }
      ],
      "name": "calculateUserReward",
      "outputs": [
        {
          "internalType": "uint256",
          "name": "",
          "type": "uint256"
        }
      ],
      "stateMutability": "view",
      "type": "function"
    },
    {
      "inputs": [
        {
          "internalType": "uint256",
          "name": "cycle",
          "type": "uint256"
        },
        {
          "internalType": "uint256",
          "name": "slotIndex",
          "type": "uint256"
        }
      ],
      "name": "claimReward",
      "outputs": [],
      "stateMutability": "nonpayable",
      "type": "function"
    },
    {
      "inputs": [
        {
          "internalType": "uint256",
          "name": "cycle",
          "type": "uint256"
        },
        {
          "internalType": "uint256",
          "name": "slotIndex",
          "type": "uint256"
        }
      ],
      "name": "collectExpiredClaims",
      "outputs": [],
      "stateMutability": "nonpayable",
      "type": "function"
    },
    {
      "inputs": [
        {
          "internalType": "uint256",
          "name": "cycle",
          "type": "uint256"
        }
      ],
      "name": "finalizeCycle",
      "outputs": [],
      "stateMutability": "nonpayable",
      "type": "function"
    },
    {
      "inputs": [],
      "name": "getCurrentAds",
      "outputs": [
        {
          "components": [
            {
              "internalType": "address",
              "name": "advertiser",
              "type": "address"
            },
            {
              "internalType": "string",
              "name": "name",
              "type": "string"
            },
            {
              "internalType": "string",
              "name": "description",
              "type": "string"
            },
            {
              "internalType": "string",
              "name": "imageUrl",
              "type": "string"
            },
            {
              "internalType": "uint256",
              "name": "bidAmount",
              "type": "uint256"
            },
            {
              "internalType": "enum ADS.SlotType",
              "name": "slotType",
              "type": "uint8"
            },
            {
              "internalType": "bool",
              "name": "finalized",
              "type": "bool"
            },
            {
              "internalType": "bool",
              "name": "removed",
              "type": "bool"
            },
            {
              "internalType": "uint256",
              "name": "totalClicks",
              "type": "uint256"
            },
            {
              "internalType": "uint256",
              "name": "claimedAmount",
              "type": "uint256"
            },
            {
              "internalType": "uint256",
              "name": "finalizedAt",
              "type": "uint256"
            }
          ],
          "internalType": "struct ADS.AdSlot[]",
          "name": "",
          "type": "tuple[]"
        }
      ],
      "stateMutability": "view",
      "type": "function"
    },
    {
      "inputs": [],
      "name": "getCurrentCycle",
      "outputs": [
        {
          "internalType": "uint256",
          "name": "",
          "type": "uint256"
        }
      ],
      "stateMutability": "view",
      "type": "function"
    },
    {
      "inputs": [
        {
          "internalType": "address",
          "name": "user",
          "type": "address"
        }
      ],
      "name": "getUserClaimableRewards",
      "outputs": [
        {
          "internalType": "uint256[]",
          "name": "cycles",
          "type": "uint256[]"
        },
        {
          "internalType": "uint256[]",
          "name": "slots",
          "type": "uint256[]"
        },
        {
          "internalType": "uint256[]",
          "name": "amounts",
          "type": "uint256[]"
        }
      ],
      "stateMutability": "view",
      "type": "function"
    },
    {
      "inputs": [
        {
          "internalType": "uint256",
          "name": "",
          "type": "uint256"
        },
        {
          "internalType": "uint256",
          "name": "",
          "type": "uint256"
        },
        {
          "internalType": "address",
          "name": "",
          "type": "address"
        }
      ],
      "name": "hasClaimed",
      "outputs": [
        {
          "internalType": "bool",
          "name": "",
          "type": "bool"
        }
      ],
      "stateMutability": "view",
      "type": "function"
    },
    {
      "inputs": [
        {
          "internalType": "uint256",
          "name": "",
          "type": "uint256"
        },
        {
          "internalType": "uint256",
          "name": "",
          "type": "uint256"
        },
        {
          "internalType": "address",
          "name": "",
          "type": "address"
        }
      ],
      "name": "hasClicked",
      "outputs": [
        {
          "internalType": "bool",
          "name": "",
          "type": "bool"
        }
      ],
      "stateMutability": "view",
      "type": "function"
    },
    {
      "inputs": [],
      "name": "lastFinalizedCycle",
      "outputs": [
        {
          "internalType": "uint256",
          "name": "",
          "type": "uint256"
        }
      ],
      "stateMutability": "view",
      "type": "function"
    },
    {
      "inputs": [],
      "name": "lockedFunds",
      "outputs": [
        {
          "internalType": "uint256",
          "name": "",
          "type": "uint256"
        }
      ],
      "stateMutability": "view",
      "type": "function"
    },
    {
      "inputs": [],
      "name": "owner",
      "outputs": [
        {
          "internalType": "address",
          "name": "",
          "type": "address"
        }
      ],
      "stateMutability": "view",
      "type": "function"
    },
    {
      "inputs": [],
      "name": "permit2",
      "outputs": [
        {
          "internalType": "contract IPermit2",
          "name": "",
          "type": "address"
        }
      ],
      "stateMutability": "view",
      "type": "function"
    },
    {
      "inputs": [
        {
          "internalType": "uint256",
          "name": "cycle",
          "type": "uint256"
        },
        {
          "internalType": "uint256",
          "name": "slotIndex",
          "type": "uint256"
        },
        {
          "internalType": "string",
          "name": "name",
          "type": "string"
        },
        {
          "internalType": "string",
          "name": "description",
          "type": "string"
        },
        {
          "internalType": "string",
          "name": "imageUrl",
          "type": "string"
        },
        {
          "internalType": "uint256",
          "name": "bidAmount",
          "type": "uint256"
        },
        {
          "internalType": "enum ADS.SlotType",
          "name": "slotType",
          "type": "uint8"
        },
        {
          "components": [
            {
              "components": [
                {
                  "internalType": "address",
                  "name": "token",
                  "type": "address"
                },
                {
                  "internalType": "uint256",
                  "name": "amount",
                  "type": "uint256"
                }
              ],
              "internalType": "struct IPermit2.TokenPermissions",
              "name": "permitted",
              "type": "tuple"
            },
            {
              "internalType": "uint256",
              "name": "nonce",
              "type": "uint256"
            },
            {
              "internalType": "uint256",
              "name": "deadline",
              "type": "uint256"
            }
          ],
          "internalType": "struct IPermit2.PermitTransferFrom",
          "name": "permit",
          "type": "tuple"
        },
        {
          "internalType": "bytes",
          "name": "signature",
          "type": "bytes"
        }
      ],
      "name": "placeAdBid",
      "outputs": [],
      "stateMutability": "nonpayable",
      "type": "function"
    },
    {
      "inputs": [
        {
          "internalType": "uint256",
          "name": "cycle",
          "type": "uint256"
        },
        {
          "internalType": "uint256",
          "name": "slotIndex",
          "type": "uint256"
        },
        {
          "internalType": "uint256",
          "name": "nonce",
          "type": "uint256"
        },
        {
          "internalType": "uint256",
          "name": "timestamp",
          "type": "uint256"
        },
        {
          "internalType": "bytes",
          "name": "signature",
          "type": "bytes"
        }
      ],
      "name": "recordClick",
      "outputs": [],
      "stateMutability": "nonpayable",
      "type": "function"
    },
    {
      "inputs": [
        {
          "internalType": "address",
          "name": "signal",
          "type": "address"
        },
        {
          "internalType": "uint256",
          "name": "root",
          "type": "uint256"
        },
        {
          "internalType": "uint256",
          "name": "nullifierHash",
          "type": "uint256"
        },
        {
          "internalType": "uint256[8]",
          "name": "proof",
          "type": "uint256[8]"
        }
      ],
      "name": "register",
      "outputs": [],
      "stateMutability": "nonpayable",
      "type": "function"
    },
    {
      "inputs": [
        {
          "internalType": "address",
          "name": "",
          "type": "address"
        }
      ],
      "name": "registered",
      "outputs": [
        {
          "internalType": "bool",
          "name": "",
          "type": "bool"
        }
      ],
      "stateMutability": "view",
      "type": "function"
    },
    {
      "inputs": [
        {
          "internalType": "uint256",
          "name": "cycle",
          "type": "uint256"
        },
        {
          "internalType": "uint256",
          "name": "slotIndex",
          "type": "uint256"
        }
      ],
      "name": "removeAd",
      "outputs": [],
      "stateMutability": "nonpayable",
      "type": "function"
    },
    {
      "inputs": [
        {
          "internalType": "address",
          "name": "signer",
          "type": "address"
        }
      ],
      "name": "removeAuthorizedSigner",
      "outputs": [],
      "stateMutability": "nonpayable",
      "type": "function"
    },
    {
      "inputs": [],
      "name": "renounceOwnership",
      "outputs": [],
      "stateMutability": "nonpayable",
      "type": "function"
    },
    {
      "inputs": [
        {
          "internalType": "address",
          "name": "newOwner",
          "type": "address"
        }
      ],
      "name": "transferOwnership",
      "outputs": [],
      "stateMutability": "nonpayable",
      "type": "function"
    },
    {
      "inputs": [
        {
          "internalType": "address",
          "name": "advertiser",
          "type": "address"
        }
      ],
      "name": "unbanAdvertiser",
      "outputs": [],
      "stateMutability": "nonpayable",
      "type": "function"
    },
    {
      "inputs": [
        {
          "internalType": "bytes32",
          "name": "",
          "type": "bytes32"
        }
      ],
      "name": "usedSignatures",
      "outputs": [
        {
          "internalType": "bool",
          "name": "",
          "type": "bool"
        }
      ],
      "stateMutability": "view",
      "type": "function"
    },
    {
      "inputs": [],
      "name": "withdrawFees",
      "outputs": [],
      "stateMutability": "nonpayable",
      "type": "function"
    },
    {
      "inputs": [],
      "name": "worldId",
      "outputs": [
        {
          "internalType": "contract IWorldID",
          "name": "",
          "type": "address"
        }
      ],
      "stateMutability": "view",
      "type": "function"
    }
  ],
  "bytecode": "0x6101206040818152346200021257620029c8803803809162000022828662000217565b8439820160a08382031262000212576200003c8362000251565b926020906200004d82820162000251565b6200005a85830162000251565b60608301516001600160401b039591939190868111620002125781620000829184016200028b565b95608083015190811162000212576200009c92016200028b565b933315620001fa5760008054336001600160a01b0319821681178355885189979690958795879590946001600160a01b039485939290918416907f8be0079c531659141344cd1fd0a4f28419497f9722a3daafe3b4186f6b6457e09080a360018055816101009d60018f52166080521660a0521660c0528051908184808501920191620001299262000266565b810103808352016200013c908262000217565b6200014790620002e6565b8251938491838301528051908184868501920191620001669262000266565b8101039081018352016200017b908262000217565b6200018690620002e6565b60e052516126aa91826200031e83396080518281816105f801528181610c8d01528181610ebe0152818161155001528181611d910152611f95015260a05182818161181b015281816118e10152611e53015260c0518281816106ab0152610fdb015260e05182610775015251816107420152f35b8551631e4fbdf760e01b815260006004820152602490fd5b600080fd5b601f909101601f19168101906001600160401b038211908210176200023b57604052565b634e487b7160e01b600052604160045260246000fd5b51906001600160a01b03821682036200021257565b60005b8381106200027a5750506000910152565b818101518382015260200162000269565b81601f82011215620002125780516001600160401b0381116200023b5760405192620002c2601f8301601f19166020018562000217565b818452602082840101116200021257620002e3916020808501910162000266565b90565b604051620003146020828162000306818301968781519384920162000266565b810103808452018262000217565b51902060081c9056fe6080604052600436101561001257600080fd5b600060e08135811c908163035169a41461203e5781631012be0d14611ec157816311637f2214611e8257816312261ee714611e3d57816312d95d1d146116cf5781631f50fec9146116ad57816321e20e8b1461161557816339aca329146115f957816342f81580146115db578163476343ee146114f25781634d63a475146114aa5781635240eb3214611466578163539aa77f14611449578163587f5ed71461142b5781635d2b6a4e146113ec578163646e200b1461113057816369547f2d146110e85781636ecdf606146110ca578163715018a614611070578163743314281461100a578163753e9ef014610fc557816386bb8f3714610d505781638da5cb5b14610d2957816397090dc814610ba1578163b2dd5c0714610b62578163b7c32bf0146108d0578163b8afaa48146108b2578163be26ed7f14610892578163c0ae614614610829578163cc6cd25e14610645578163cd421fbf14610627578163de061d66146105e2578163e7c21a3e146102ae57508063f2fde38b1461021e578063f62a4edb146101dd5763f978fd61146101ac57600080fd5b346101da5760203660031901126101da5760ff60406020926004358152600984522054166040519015158152f35b80fd5b50346101da5760203660031901126101da576101f76122e9565b6101ff61238a565b6001600160a01b03168152600560205260408120805460ff1916905580f35b50346101da5760203660031901126101da576102386122e9565b61024061238a565b6001600160a01b0390811690811561029557600054826bffffffffffffffffffffffff60a01b821617600055167f8be0079c531659141344cd1fd0a4f28419497f9722a3daafe3b4186f6b6457e0600080a380f35b604051631e4fbdf760e01b815260048101849052602490fd5b9050346105de5760a03660031901126105de57600435602435916084356001600160401b03908181116105da576102e99036906004016122ff565b926102f26123b6565b3387526020916003835260ff918260408a205416156105c8576201518042048710156105b657600a8810156105a4578689526006845260408920888a52845260408920946005860154848160081c166105925760101c841661058057878a526007855260408a20898b52855260408a20336000528552836040600020541661056e57604051908582013360601b81528960348401528a6054840152604435607484015260643560948401526094835260c08301928084108385111761055857610120918460405281519020948101947f19457468657265756d205369676e6564204d6573736167653a0a333200000000865260fc820152603c84520190828210908211176105585760405251902094858952600984528260408a2054166105465760410361050157876080849283604051918983526040810135851a82840152803560408401520135606082015282805260015afa156104f65786516001600160a01b0316875260058252604087205416156104e457600692865260098152604086209060ff199160018382541617905584875260078152604087208688528152604087209033600052526001604060002091825416179055016104b68154612421565b9055337fdf68871eff37c21a2d5f5f4714defb013c53c6aa48ebe6eff29ca11e065191278480a46001805580f35b60405163ea8e4eb560e01b8152600490fd5b6040513d88823e3d90fd5b60405162461bcd60e51b815260048101849052601860248201527f496e76616c6964207369676e6174757265206c656e67746800000000000000006044820152606490fd5b60405163900bb2c960e01b8152600490fd5b634e487b7160e01b600052604160045260246000fd5b60405163e02cd2cb60e01b8152600490fd5b604051631bb428a960e21b8152600490fd5b60405163475a253560e01b8152600490fd5b604051631258e44360e01b8152600490fd5b604051634dc7f5ff60e11b8152600490fd5b60405163aba4733960e01b8152600490fd5b8580fd5b5080fd5b82346101da57806003193601126101da576040517f00000000000000000000000000000000000000000000000000000000000000006001600160a01b03168152602090f35b82346101da57806003193601126101da576020604051620151808152f35b82346101da576101603660031901126101da576106606122e9565b36610164116105de576106716123b6565b338252600360205260ff604083205416610817576040805160609290921b6bffffffffffffffffffffffff191660208301908152601483527f00000000000000000000000000000000000000000000000000000000000000006001600160a01b03169183016001600160401b038111848210176105585761071560208695610708948460405260608201958691835192839161227e565b81010380845201826121b7565b51902060081c813b156108135782906101a460405180948193633bc778e360e01b835260243560048401527f00000000000000000000000000000000000000000000000000000000000000006024840152604483015260443560648301527f00000000000000000000000000000000000000000000000000000000000000006084830152610100606460a48401375afa8015610808576107f4575b5033808252600360205260408220805460ff191660011790557f54db7a5cb4735e1aac1f53db512d3390390bb6637bd30ad4bf9fc98667d9b9b98280a26001805580f35b6107fd90612188565b6101da5780826107b0565b6040513d84823e3d90fd5b5050fd5b604051630ea075bf60e21b8152600490fd5b82346101da5760203660031901126101da576108436122e9565b61084b61238a565b6001600160a01b0316808252600460205260408220805460ff191660011790557f97b051fe48e86c08fca96c9bbe846678783b6999358e6d4efbaf9e40ca59b6a78280a280f35b82346101da57806003193601126101da5760206040516201518042048152f35b82346101da57806003193601126101da576020600b54604051908152f35b82346101da57806003193601126101da57620151804204906040516108f48161219b565b600a91828252805b6101408082101561096257604051602092916109178261219b565b8482528460609185928084860152806040860152808501528160808501528160a08501528160c0850152818b85015281610100850152816101208501528301528286010152016108fc565b5050929091835b818110610a6c57505050604051916020808401908085528351809252604085018160408460051b880101950193965b8388106109a55786860387f35b90919293948380600192603f198a8203018652885190848060a01b038251168152610a086109f56109e38585015161016080888701528501906122a1565b604085015184820360408601526122a1565b60608085015190848303908501526122a1565b9160808082015190830152610a2560a080830151908401906122c6565b60c080820151151590830152868101511515878301526101008082015190830152610120808201519083015261014080910151910152970193019701969093929193610998565b82855260066020908082526040872083885282526040872060405192610a918461219b565b81546001600160a01b03168452610aaa600183016121d8565b90840152610aba600282016121d8565b6040840152610acb600382016121d8565b60608401526004810154608084015260058101549160ff80841687811015610b4e5760a0860152600884811c8216151560c087015260109490941c1615158a85015281015461010084015260078101546101208401520154610140820152610b499190610b38828761254b565b52610b43818661254b565b50612421565b610969565b634e487b7160e01b8b52602160045260248bfd5b82346101da5760203660031901126101da5760209060ff906040906001600160a01b03610b8d6122e9565b168152600384522054166040519015158152f35b82346101da57610bb036612133565b90610bb96123b6565b600a8210156105a4578083526006602052604083208284526020526040832060018060a01b03808254163303610d1757600582019182549060ff8260081c166105925786936201000060049362ff00001916179055019081549081610c49575b50505050337f2ddf52ad696f7475d5e714ce5c8c1c4e9b93814e40d3f4c5ab845cb2bc0579ac8480a46001805580f35b602092610c5b610c8993600b546123f1565b600b555460405163a9059cbb60e01b8152336004820152602481019190915293849283919082906044820190565b03927f0000000000000000000000000000000000000000000000000000000000000000165af1908115610d0c578491610cde575b5015610ccc5782848080610c19565b6040516312171d8360e31b8152600490fd5b610cff915060203d8111610d05575b610cf781836121b7565b8101906123d9565b84610cbd565b503d610ced565b6040513d86823e3d90fd5b604051632211114160e11b8152600490fd5b82346101da57806003193601126101da57546040516001600160a01b039091168152602090f35b82346101da57610d5f36612133565b90610d686123b6565b33835260206003815260ff604085205416156105c857600a8310156105a457818452600681526040842083855281526040842090600582015460ff8160081c1615610fb35760101c60ff1661058057828552600781526040852084865281526040852033600052815260ff6040600020541615610fa157828552600881526040852084865281526040852033600052815260ff60406000205416610f8f576008820154621275008101809111610f7b574211610f695760068201548015610f575760048301546101f4808202908282041482151715610f435791610e56610e5b9261271060079504906123f1565b612430565b9284875260088352604087208688528352604087203360005283526040600020600160ff1982541617905501610e92838254612414565b905560405163a9059cbb60e01b8152336004820152602481018390528181604481896001600160a01b037f0000000000000000000000000000000000000000000000000000000000000000165af19081156104f6578691610f26575b5015610ccc577f812be816db82c66cd18ca8457005cd84689642d8ac4d38599cc6af444a2dc72a906040519283523392a46001805580f35b610f3d9150823d8411610d0557610cf781836121b7565b86610eee565b634e487b7160e01b88526011600452602488fd5b60405163162908e360e11b8152600490fd5b60405163320c7b7d60e21b8152600490fd5b634e487b7160e01b86526011600452602486fd5b604051630c8d9eab60e31b8152600490fd5b6040516301327deb60e01b8152600490fd5b604051630df706ad60e11b8152600490fd5b82346101da57806003193601126101da576040517f00000000000000000000000000000000000000000000000000000000000000006001600160a01b03168152602090f35b82346101da5760203660031901126101da576110246122e9565b61102c61238a565b6001600160a01b0316808252600460205260408220805460ff191690557f2a2f5e02b0e6aab2b998dbcae41aec9407649a38bd8d41b7b49bedee8cdeaf2e8280a280f35b82346101da57806003193601126101da5761108961238a565b600080546001600160a01b0319811682556001600160a01b03167f8be0079c531659141344cd1fd0a4f28419497f9722a3daafe3b4186f6b6457e08280a380f35b82346101da57806003193601126101da576020600254604051908152f35b82346101da5760406110f93661232c565b939182526008602052828220908252602052209060018060a01b0316600052602052602060ff604060002054166040519015158152f35b82346101da5760203660031901126101da5761114a6122e9565b90600a62015180420402906201518042048204600a146201518042041517156113d85761117682612642565b61118861118284612642565b93612642565b938290835b6201518042048111156112525750506111a581612642565b936111af82612642565b926111b983612642565b945b838110611202576111e2876111fe886111f089604051958695606087526060870190612356565b908582036020870152612356565b908382036040850152612356565b0390f35b8061121061124d928461254b565b5161121b828a61254b565b52611226818561254b565b51611231828861254b565b5261123c818a61254b565b51611247828961254b565b52612421565b6111bb565b845b600a811061126b575061126690612421565b61118d565b81869894989793929752600660205260408620818752602052604086208787526007602052604087208288526020526040872060018060a01b03841660005260205260ff806040600020541690816113a3575b81611392575b5080611377575b8061136a575b6112ec575b506112e090612421565b96929695909195611254565b60048199929901546101f481818102048114821517156113565761134f9260066113248461271061132d956112e099970204906123f1565b91015490612430565b89611338838a61254b565b528a611344838861254b565b52611247828861254b565b97906112d6565b634e487b7160e01b89526011600452602489fd5b50600681015415156112d1565b506008810154621275008101809111610f43574211156112cb565b9050600582015460081c168a6112c4565b898952600860209081526040808b20868c528252808b206001600160a01b0388166000908152925290205481161591506112be565b634e487b7160e01b81526011600452602490fd5b82346101da5760203660031901126101da5760209060ff906040906001600160a01b036114176122e9565b168152600584522054166040519015158152f35b82346101da57806003193601126101da576020600a54604051908152f35b82346101da57806003193601126101da5760206040516101f48152f35b82346101da5760203660031901126101da576114806122e9565b61148861238a565b6001600160a01b03168152600560205260408120805460ff1916600117905580f35b82346101da5760406114bb3661232c565b939182526007602052828220908252602052209060018060a01b0316600052602052602060ff604060002054166040519015158152f35b82346101da57806003193601126101da5761150b61238a565b6115136123b6565b600a548015610f5757600a829055815460405163a9059cbb60e01b81526001600160a01b03918216600482015260248101839052602081604481877f000000000000000000000000000000000000000000000000000000000000000087165af1908115610d0c5784916115bd575b5015610ccc5760207fc0819c13be868895eb93e40eaceb96de976442fa1d404e5c55f14bb65a8c489a9184541692604051908152a26001805580f35b6115d5915060203d8111610d0557610cf781836121b7565b84611581565b82346101da57806003193601126101da576020604051621275008152f35b82346101da57806003193601126101da576020604051600a8152f35b82346101da5760203660031901126101da576004356201518042048110156105b657600254600181018091116116995781036105b657815b600a81106116815750806002557f6fbfbccdd0d107860c9bccfa723d97eba4f37886edeb01e7a438b1e0fe44e0568280a280f35b8061168f6116949284612450565b612421565b61164d565b634e487b7160e01b83526011600452602483fd5b82346101da5760206116c76116c13661232c565b91612575565b604051908152f35b82346101da576101803660031901126101da576044356001600160401b0381116105de576117019036906004016122ff565b6064356001600160401b038111611e39576117209036906004016122ff565b6084929192356001600160401b0381116105da576117429036906004016122ff565b939092600a60c4351015611e355760803660e3190112611e3557610164356001600160401b038111611e315761177c9036906004016122ff565b6117879791976123b6565b338952600460205260ff60408a205416611e1f57620151804204600435036105b657600a60243510156105a45760043589526006602052604089206024358a52602052604089209760018060a01b0389541680151580611e12575b611d59575b50604051908160408101106001600160401b03604084011117611d45576040808301905230825260a43560208301528a91907f00000000000000000000000000000000000000000000000000000000000000006001600160a01b03163b15611d415760405163187945bd60e11b81529360e435906001600160a01b0382168203611d3d578061012493818896879560018060a01b03166004870152602061010491823560248901528835604489015261014435606489015260018060a01b038151166084890152015160a48701523360c487015261010060e4870152850152848401378181018301859052601f01601f19168101030181837f00000000000000000000000000000000000000000000000000000000000000006001600160a01b03165af18015611d3257611d1f575b5086546001600160a01b031916331787556001600160401b038211611d0b578190611944600189015461214e565b601f8111611cbb575b508890601f8311600114611c4f578992611c44575b50508160011b916000199060031b1c19161760018601555b6001600160401b038211611c30578190611997600287015461214e565b601f8111611be0575b508690601f8311600114611b74578792611b69575b50508160011b916000199060031b1c19161760028401555b6001600160401b038211611b55576119e8600384015461214e565b601f8111611b11575b508390601f8311600114611aa4576005939291859183611a99575b50508160011b916000199060031b1c19161760038201555b60a43560048201550160ff1981541660ff60c43516179055611a4a60a435600b54612414565b600b55604051611a5c8160c4356122c6565b60a435602082015260243590600435907f57fd3b672d0a576a3e359189cf66cb6f9f8928eba7c11efbe695d66b957ce76e60403392a46001805580f35b013590508580611a0c565b6003840185526020852091601f198416865b818110611af95750916001939185600597969410611adf575b505050811b016003820155611a24565b0135600019600384901b60f8161c19169055858080611acf565b91936020600181928787013581550195019201611ab6565b60038401855260208520601f840160051c810160208510611b4e575b601f830160051c82018110611b435750506119f1565b868155600101611b2d565b5080611b2d565b634e487b7160e01b84526041600452602484fd5b0135905086806119b5565b60028701885260208820889450915b601f1984168510611bc8576001945083601f19811610611bae575b505050811b0160028401556119cd565b0135600019600384901b60f8161c19169055868080611b9e565b81810135835560209485019460019093019201611b83565b90915060028601875260208720601f840160051c810160208510611c29575b90849392915b601f830160051c82018110611c1b5750506119a0565b898155859450600101611c05565b5080611bff565b634e487b7160e01b86526041600452602486fd5b013590508880611962565b600189018a5260208a208a9450915b601f1984168510611ca3576001945083601f19811610611c89575b505050811b01600186015561197a565b0135600019600384901b60f8161c19169055888080611c79565b81810135835560209485019460019093019201611c5e565b90915060018801895260208920601f840160051c810160208510611d04575b90849392915b601f830160051c82018110611cf657505061194d565b8b8155859450600101611ce0565b5080611cda565b634e487b7160e01b88526041600452602488fd5b611d2b90989198612188565b9688611916565b6040513d8b823e3d90fd5b8480fd5b8280fd5b634e487b7160e01b8b52604160045260248bfd5b60048a81015460405163a9059cbb60e01b81526001600160a01b039093169183019190915260248201526020818c81806044810103917f00000000000000000000000000000000000000000000000000000000000000006001600160a01b03165af1908115611e07578b91611de8575b5015610ccc57611ddf60048a0154600b546123f1565b600b558a6117e7565b611e01915060203d602011610d0557610cf781836121b7565b8b611dc9565b6040513d8d823e3d90fd5b5060048a015415156117e2565b60405163299aa0a160e21b8152600490fd5b8780fd5b8680fd5b8380fd5b82346101da57806003193601126101da576040517f00000000000000000000000000000000000000000000000000000000000000006001600160a01b03168152602090f35b82346101da5760203660031901126101da5760209060ff906040906001600160a01b03611ead6122e9565b168152600484522054166040519015158152f35b82346101da57611ed036612133565b90611ed96123b6565b600a8210156105a457808352602060068152604084208385528152604084209060ff600583015460081c1615610fb3576008820154621275008101809111610f7b5742111561202c5760048201546101f480820290828204148215171561201857600791612710611f4b9204906123f1565b920191611f598354826123f1565b928315610f575755845460405163a9059cbb60e01b81526001600160a01b03918216600482015260248101849052908290829060449082908a907f0000000000000000000000000000000000000000000000000000000000000000165af19081156104f6578691611ffb575b5015610ccc577fcf3b62092c7f2a3455c516c177bd1970412d1c381c960d3986e3296f9dff0e7b91604051908152a36001805580f35b6120129150823d8411610d0557610cf781836121b7565b86611fc5565b634e487b7160e01b87526011600452602487fd5b60405163162618a960e01b8152600490fd5b82346101da5760409061205036612133565b9082526006602052828220908252602052209060018060a01b038254169061207a600184016121d8565b92612087600282016121d8565b90612094600382016121d8565b60048201549360ff60058401546120f16006860154946120e360086007890154980154986120d56040519d8e9d8e528d6101609081602082015201906122a1565b8c810360408e0152906122a1565b908a820360608c01526122a1565b96608089015261210660a089018383166122c6565b818160081c16151560c089015260101c161515908601526101008501526101208401526101408301520390f35b6040906003190112612149576004359060243590565b600080fd5b90600182811c9216801561217e575b602083101461216857565b634e487b7160e01b600052602260045260246000fd5b91607f169161215d565b6001600160401b03811161055857604052565b61016081019081106001600160401b0382111761055857604052565b90601f801991011681019081106001600160401b0382111761055857604052565b90604051918260008254926121ec8461214e565b90818452600194858116908160001461225b5750600114612218575b5050612216925003836121b7565b565b9093915060005260209081600020936000915b81831061224357505061221693508201013880612208565b8554888401850152948501948794509183019161222b565b91505061221694506020925060ff191682840152151560051b8201013880612208565b60005b8381106122915750506000910152565b8181015183820152602001612281565b906020916122ba8151809281855285808601910161227e565b601f01601f1916010190565b90600a8210156122d35752565b634e487b7160e01b600052602160045260246000fd5b600435906001600160a01b038216820361214957565b9181601f84011215612149578235916001600160401b038311612149576020838186019501011161214957565b60609060031901126121495760043590602435906044356001600160a01b03811681036121495790565b90815180825260208080930193019160005b828110612376575050505090565b835185529381019392810192600101612368565b6000546001600160a01b0316330361239e57565b60405163118cdaa760e01b8152336004820152602490fd5b6002600154146123c7576002600155565b604051633ee5aeb560e01b8152600490fd5b90816020910312612149575180151581036121495790565b919082039182116123fe57565b634e487b7160e01b600052601160045260246000fd5b919082018092116123fe57565b60001981146123fe5760010190565b811561243a570490565b634e487b7160e01b600052601260045260246000fd5b6000818152600660205260408120838252602052604081209060018060a01b038254161561251f576005820190815460ff8160101c1661250d57506004830154906101f4908183029183830414831517156113d85750926020926124ec6006936124e16127107f67a59239176edc6000958291e1c679afd7b3e13a274c758a1fb33d8587d5e7089804600a54612414565b600a55600b546123f1565b600b55805461ff0019166101001790554260088201550154604051908152a3565b61ff0019166101001790915550505050565b50600501805461ff0019166101001790555050565b6001600160401b0381116105585760051b60200190565b805182101561255f5760209160051b010190565b634e487b7160e01b600052603260045260246000fd5b91600090838252602090600682526040918284208585528152828420948685526007825283852081865282528385209260018060a01b031692838652825260ff8486205416156126385784959660ff955260088252838620908652815282852091855252822054166126335760ff600583015460081c161561263357600682015491821561262d5760040154906101f4908183029183830414831517156113d8575061262a9291612710610e569204906123f1565b90565b50905090565b905090565b5050505091505090565b9061264c82612534565b61265960405191826121b7565b828152809261266a601f1991612534565b019060203691013756fea264697066735822122074af3cfdb07ba972c2c95c7023b947b0eb0957319b637f1fc64bb1d9f4dea41364736f6c63430008140033",
  "linkReferences": {},
  "deployedLinkReferences": {}
}