{
  "_format": "hh-sol-artifact-1",
  "contractName": "ADSDemo",
  "sourceName": "contracts/ADSDemo.sol",
  "abi": [
    {
      "inputs": [
        {
          "internalType": "address",
          "name": "_wldToken",
          "type": "address"
        },
        {
          "internalType": "address",
          "name": "_worldId",
          "type": "address"
        },
        {
          "internalType": "string",
          "name": "_appId",
          "type": "string"
        },
        {
          "internalType": "string",
          "name": "_action",
          "type": "string"
        }
      ],
      "stateMutability": "nonpayable",
      "type": "constructor"
    },
    {
      "inputs": [],
      "name": "AdWasRemoved",
      "type": "error"
    },
    {
      "inputs": [],
      "name": "AdvertiserIsBanned",
      "type": "error"
    },
    {
      "inputs": [],
      "name": "AlreadyClaimed",
      "type": "error"
    },
    {
      "inputs": [],
      "name": "AlreadyClicked",
      "type": "error"
    },
    {
      "inputs": [],
      "name": "AlreadyFinalized",
      "type": "error"
    },
    {
      "inputs": [],
      "name": "AlreadyRegistered",
      "type": "error"
    },
    {
      "inputs": [],
      "name": "ClaimDeadlineNotPassed",
      "type": "error"
    },
    {
      "inputs": [],
      "name": "ClaimDeadlinePassed",
      "type": "error"
    },
    {
      "inputs": [],
      "name": "InvalidAmount",
      "type": "error"
    },
    {
      "inputs": [],
      "name": "InvalidCycle",
      "type": "error"
    },
    {
      "inputs": [],
      "name": "InvalidSlot",
      "type": "error"
    },
    {
      "inputs": [],
      "name": "NoClickRecorded",
      "type": "error"
    },
    {
      "inputs": [],
      "name": "NotAdvertiser",
      "type": "error"
    },
    {
      "inputs": [],
      "name": "NotAuthorized",
      "type": "error"
    },
    {
      "inputs": [],
      "name": "NotFinalized",
      "type": "error"
    },
    {
      "inputs": [],
      "name": "NotRegistered",
      "type": "error"
    },
    {
      "inputs": [
        {
          "internalType": "address",
          "name": "owner",
          "type": "address"
        }
      ],
      "name": "OwnableInvalidOwner",
      "type": "error"
    },
    {
      "inputs": [
        {
          "internalType": "address",
          "name": "account",
          "type": "address"
        }
      ],
      "name": "OwnableUnauthorizedAccount",
      "type": "error"
    },
    {
      "inputs": [],
      "name": "ReentrancyGuardReentrantCall",
      "type": "error"
    },
    {
      "inputs": [],
      "name": "SignatureAlreadyUsed",
      "type": "error"
    },
    {
      "inputs": [],
      "name": "TransferFailed",
      "type": "error"
    },
    {
      "anonymous": false,
      "inputs": [
        {
          "indexed": true,
          "internalType": "address",
          "name": "advertiser",
          "type": "address"
        },
        {
          "indexed": true,
          "internalType": "uint256",
          "name": "cycle",
          "type": "uint256"
        },
        {
          "indexed": true,
          "internalType": "uint256",
          "name": "slotIndex",
          "type": "uint256"
        },
        {
          "indexed": false,
          "internalType": "enum ADSDemo.SlotType",
          "name": "slotType",
          "type": "uint8"
        },
        {
          "indexed": false,
          "internalType": "uint256",
          "name": "bidAmount",
          "type": "uint256"
        }
      ],
      "name": "AdBidPlaced",
      "type": "event"
    },
    {
      "anonymous": false,
      "inputs": [
        {
          "indexed": true,
          "internalType": "address",
          "name": "advertiser",
          "type": "address"
        },
        {
          "indexed": true,
          "internalType": "uint256",
          "name": "cycle",
          "type": "uint256"
        },
        {
          "indexed": true,
          "internalType": "uint256",
          "name": "slotIndex",
          "type": "uint256"
        }
      ],
      "name": "AdRemoved",
      "type": "event"
    },
    {
      "anonymous": false,
      "inputs": [
        {
          "indexed": true,
          "internalType": "uint256",
          "name": "cycle",
          "type": "uint256"
        },
        {
          "indexed": true,
          "internalType": "uint256",
          "name": "slotIndex",
          "type": "uint256"
        },
        {
          "indexed": false,
          "internalType": "uint256",
          "name": "totalClicks",
          "type": "uint256"
        }
      ],
      "name": "AdSlotFinalized",
      "type": "event"
    },
    {
      "anonymous": false,
      "inputs": [
        {
          "indexed": true,
          "internalType": "address",
          "name": "advertiser",
          "type": "address"
        }
      ],
      "name": "AdvertiserBanned",
      "type": "event"
    },
    {
      "anonymous": false,
      "inputs": [
        {
          "indexed": true,
          "internalType": "address",
          "name": "advertiser",
          "type": "address"
        }
      ],
      "name": "AdvertiserUnbanned",
      "type": "event"
    },
    {
      "anonymous": false,
      "inputs": [
        {
          "indexed": true,
          "internalType": "address",
          "name": "user",
          "type": "address"
        },
        {
          "indexed": true,
          "internalType": "uint256",
          "name": "cycle",
          "type": "uint256"
        },
        {
          "indexed": true,
          "internalType": "uint256",
          "name": "slotIndex",
          "type": "uint256"
        }
      ],
      "name": "ClickRecorded",
      "type": "event"
    },
    {
      "anonymous": false,
      "inputs": [
        {
          "indexed": true,
          "internalType": "uint256",
          "name": "cycle",
          "type": "uint256"
        }
      ],
      "name": "CycleFinalized",
      "type": "event"
    },
    {
      "anonymous": false,
      "inputs": [
        {
          "indexed": true,
          "internalType": "uint256",
          "name": "cycle",
          "type": "uint256"
        },
        {
          "indexed": true,
          "internalType": "uint256",
          "name": "slotIndex",
          "type": "uint256"
        },
        {
          "indexed": false,
          "internalType": "uint256",
          "name": "amount",
          "type": "uint256"
        }
      ],
      "name": "ExpiredClaimCollected",
      "type": "event"
    },
    {
      "anonymous": false,
      "inputs": [
        {
          "indexed": true,
          "internalType": "address",
          "name": "recipient",
          "type": "address"
        },
        {
          "indexed": false,
          "internalType": "uint256",
          "name": "amount",
          "type": "uint256"
        }
      ],
      "name": "FeesWithdrawn",
      "type": "event"
    },
    {
      "anonymous": false,
      "inputs": [
        {
          "indexed": true,
          "internalType": "address",
          "name": "previousOwner",
          "type": "address"
        },
        {
          "indexed": true,
          "internalType": "address",
          "name": "newOwner",
          "type": "address"
        }
      ],
      "name": "OwnershipTransferred",
      "type": "event"
    },
    {
      "anonymous": false,
      "inputs": [
        {
          "indexed": true,
          "internalType": "address",
          "name": "user",
          "type": "address"
        },
        {
          "indexed": true,
          "internalType": "uint256",
          "name": "cycle",
          "type": "uint256"
        },
        {
          "indexed": true,
          "internalType": "uint256",
          "name": "slotIndex",
          "type": "uint256"
        },
        {
          "indexed": false,
          "internalType": "uint256",
          "name": "amount",
          "type": "uint256"
        }
      ],
      "name": "RewardClaimed",
      "type": "event"
    },
    {
      "anonymous": false,
      "inputs": [
        {
          "indexed": true,
          "internalType": "address",
          "name": "user",
          "type": "address"
        }
      ],
      "name": "UserRegistered",
      "type": "event"
    },
    {
      "inputs": [],
      "name": "AD_SLOTS_PER_CYCLE",
      "outputs": [
        {
          "internalType": "uint256",
          "name": "",
          "type": "uint256"
        }
      ],
      "stateMutability": "view",
      "type": "function"
    },
    {
      "inputs": [],
      "name": "CLAIM_DEADLINE",
      "outputs": [
        {
          "internalType": "uint256",
          "name": "",
          "type": "uint256"
        }
      ],
      "stateMutability": "view",
      "type": "function"
    },
    {
      "inputs": [],
      "name": "CYCLE_DURATION",
      "outputs": [
        {
          "internalType": "uint256",
          "name": "",
          "type": "uint256"
        }
      ],
      "stateMutability": "view",
      "type": "function"
    },
    {
      "inputs": [],
      "name": "PLATFORM_FEE_BPS",
      "outputs": [
        {
          "internalType": "uint256",
          "name": "",
          "type": "uint256"
        }
      ],
      "stateMutability": "view",
      "type": "function"
    },
    {
      "inputs": [],
      "name": "WLD",
      "outputs": [
        {
          "internalType": "contract IERC20",
          "name": "",
          "type": "address"
        }
      ],
      "stateMutability": "view",
      "type": "function"
    },
    {
      "inputs": [],
      "name": "accumulatedFees",
      "outputs": [
        {
          "internalType": "uint256",
          "name": "",
          "type": "uint256"
        }
      ],
      "stateMutability": "view",
      "type": "function"
    },
    {
      "inputs": [
        {
          "internalType": "uint256",
          "name": "",
          "type": "uint256"
        },
        {
          "internalType": "uint256",
          "name": "",
          "type": "uint256"
        }
      ],
      "name": "adSlots",
      "outputs": [
        {
          "internalType": "address",
          "name": "advertiser",
          "type": "address"
        },
        {
          "internalType": "string",
          "name": "name",
          "type": "string"
        },
        {
          "internalType": "string",
          "name": "description",
          "type": "string"
        },
        {
          "internalType": "string",
          "name": "imageUrl",
          "type": "string"
        },
        {
          "internalType": "uint256",
          "name": "bidAmount",
          "type": "uint256"
        },
        {
          "internalType": "enum ADSDemo.SlotType",
          "name": "slotType",
          "type": "uint8"
        },
        {
          "internalType": "bool",
          "name": "finalized",
          "type": "bool"
        },
        {
          "internalType": "bool",
          "name": "removed",
          "type": "bool"
        },
        {
          "internalType": "uint256",
          "name": "totalClicks",
          "type": "uint256"
        },
        {
          "internalType": "uint256",
          "name": "claimedAmount",
          "type": "uint256"
        },
        {
          "internalType": "uint256",
          "name": "finalizedAt",
          "type": "uint256"
        }
      ],
      "stateMutability": "view",
      "type": "function"
    },
    {
      "inputs": [
        {
          "internalType": "address",
          "name": "signer",
          "type": "address"
        }
      ],
      "name": "addAuthorizedSigner",
      "outputs": [],
      "stateMutability": "nonpayable",
      "type": "function"
    },
    {
      "inputs": [
        {
          "internalType": "address",
          "name": "",
          "type": "address"
        }
      ],
      "name": "authorizedSigners",
      "outputs": [
        {
          "internalType": "bool",
          "name": "",
          "type": "bool"
        }
      ],
      "stateMutability": "view",
      "type": "function"
    },
    {
      "inputs": [
        {
          "internalType": "address",
          "name": "advertiser",
          "type": "address"
        }
      ],
      "name": "banAdvertiser",
      "outputs": [],
      "stateMutability": "nonpayable",
      "type": "function"
    },
    {
      "inputs": [
        {
          "internalType": "address",
          "name": "",
          "type": "address"
        }
      ],
      "name": "bannedAdvertisers",
      "outputs": [
        {
          "internalType": "bool",
          "name": "",
          "type": "bool"
        }
      ],
      "stateMutability": "view",
      "type": "function"
    },
    {
      "inputs": [
        {
          "internalType": "uint256",
          "name": "cycle",
          "type": "uint256"
        },
        {
          "internalType": "uint256",
          "name": "slotIndex",
          "type": "uint256"
        },
        {
          "internalType": "address",
          "name": "user",
          "type": "address"
        }
      ],
      "name": "calculateUserReward",
      "outputs": [
        {
          "internalType": "uint256",
          "name": "",
          "type": "uint256"
        }
      ],
      "stateMutability": "view",
      "type": "function"
    },
    {
      "inputs": [
        {
          "internalType": "uint256",
          "name": "cycle",
          "type": "uint256"
        },
        {
          "internalType": "uint256",
          "name": "slotIndex",
          "type": "uint256"
        }
      ],
      "name": "claimReward",
      "outputs": [],
      "stateMutability": "nonpayable",
      "type": "function"
    },
    {
      "inputs": [
        {
          "internalType": "uint256",
          "name": "cycle",
          "type": "uint256"
        },
        {
          "internalType": "uint256",
          "name": "slotIndex",
          "type": "uint256"
        }
      ],
      "name": "collectExpiredClaims",
      "outputs": [],
      "stateMutability": "nonpayable",
      "type": "function"
    },
    {
      "inputs": [
        {
          "internalType": "uint256",
          "name": "cycle",
          "type": "uint256"
        }
      ],
      "name": "finalizeCycle",
      "outputs": [],
      "stateMutability": "nonpayable",
      "type": "function"
    },
    {
      "inputs": [],
      "name": "forceFinalizeCycle",
      "outputs": [],
      "stateMutability": "nonpayable",
      "type": "function"
    },
    {
      "inputs": [],
      "name": "getCurrentAds",
      "outputs": [
        {
          "components": [
            {
              "internalType": "address",
              "name": "advertiser",
              "type": "address"
            },
            {
              "internalType": "string",
              "name": "name",
              "type": "string"
            },
            {
              "internalType": "string",
              "name": "description",
              "type": "string"
            },
            {
              "internalType": "string",
              "name": "imageUrl",
              "type": "string"
            },
            {
              "internalType": "uint256",
              "name": "bidAmount",
              "type": "uint256"
            },
            {
              "internalType": "enum ADSDemo.SlotType",
              "name": "slotType",
              "type": "uint8"
            },
            {
              "internalType": "bool",
              "name": "finalized",
              "type": "bool"
            },
            {
              "internalType": "bool",
              "name": "removed",
              "type": "bool"
            },
            {
              "internalType": "uint256",
              "name": "totalClicks",
              "type": "uint256"
            },
            {
              "internalType": "uint256",
              "name": "claimedAmount",
              "type": "uint256"
            },
            {
              "internalType": "uint256",
              "name": "finalizedAt",
              "type": "uint256"
            }
          ],
          "internalType": "struct ADSDemo.AdSlot[]",
          "name": "",
          "type": "tuple[]"
        }
      ],
      "stateMutability": "view",
      "type": "function"
    },
    {
      "inputs": [],
      "name": "getCurrentCycle",
      "outputs": [
        {
          "internalType": "uint256",
          "name": "",
          "type": "uint256"
        }
      ],
      "stateMutability": "view",
      "type": "function"
    },
    {
      "inputs": [
        {
          "internalType": "address",
          "name": "user",
          "type": "address"
        }
      ],
      "name": "getUserClaimableRewards",
      "outputs": [
        {
          "internalType": "uint256[]",
          "name": "cycles",
          "type": "uint256[]"
        },
        {
          "internalType": "uint256[]",
          "name": "slots",
          "type": "uint256[]"
        },
        {
          "internalType": "uint256[]",
          "name": "amounts",
          "type": "uint256[]"
        }
      ],
      "stateMutability": "view",
      "type": "function"
    },
    {
      "inputs": [
        {
          "internalType": "uint256",
          "name": "",
          "type": "uint256"
        },
        {
          "internalType": "uint256",
          "name": "",
          "type": "uint256"
        },
        {
          "internalType": "address",
          "name": "",
          "type": "address"
        }
      ],
      "name": "hasClaimed",
      "outputs": [
        {
          "internalType": "bool",
          "name": "",
          "type": "bool"
        }
      ],
      "stateMutability": "view",
      "type": "function"
    },
    {
      "inputs": [
        {
          "internalType": "uint256",
          "name": "",
          "type": "uint256"
        },
        {
          "internalType": "uint256",
          "name": "",
          "type": "uint256"
        },
        {
          "internalType": "address",
          "name": "",
          "type": "address"
        }
      ],
      "name": "hasClicked",
      "outputs": [
        {
          "internalType": "bool",
          "name": "",
          "type": "bool"
        }
      ],
      "stateMutability": "view",
      "type": "function"
    },
    {
      "inputs": [],
      "name": "lastFinalizedCycle",
      "outputs": [
        {
          "internalType": "uint256",
          "name": "",
          "type": "uint256"
        }
      ],
      "stateMutability": "view",
      "type": "function"
    },
    {
      "inputs": [],
      "name": "lockedFunds",
      "outputs": [
        {
          "internalType": "uint256",
          "name": "",
          "type": "uint256"
        }
      ],
      "stateMutability": "view",
      "type": "function"
    },
    {
      "inputs": [],
      "name": "owner",
      "outputs": [
        {
          "internalType": "address",
          "name": "",
          "type": "address"
        }
      ],
      "stateMutability": "view",
      "type": "function"
    },
    {
      "inputs": [
        {
          "internalType": "uint256",
          "name": "cycle",
          "type": "uint256"
        },
        {
          "internalType": "uint256",
          "name": "slotIndex",
          "type": "uint256"
        },
        {
          "internalType": "string",
          "name": "name",
          "type": "string"
        },
        {
          "internalType": "string",
          "name": "description",
          "type": "string"
        },
        {
          "internalType": "string",
          "name": "imageUrl",
          "type": "string"
        },
        {
          "internalType": "uint256",
          "name": "bidAmount",
          "type": "uint256"
        },
        {
          "internalType": "enum ADSDemo.SlotType",
          "name": "slotType",
          "type": "uint8"
        }
      ],
      "name": "placeAdBid",
      "outputs": [],
      "stateMutability": "nonpayable",
      "type": "function"
    },
    {
      "inputs": [
        {
          "internalType": "uint256",
          "name": "cycle",
          "type": "uint256"
        },
        {
          "internalType": "uint256",
          "name": "slotIndex",
          "type": "uint256"
        },
        {
          "internalType": "uint256",
          "name": "nonce",
          "type": "uint256"
        },
        {
          "internalType": "uint256",
          "name": "timestamp",
          "type": "uint256"
        },
        {
          "internalType": "bytes",
          "name": "signature",
          "type": "bytes"
        }
      ],
      "name": "recordClick",
      "outputs": [],
      "stateMutability": "nonpayable",
      "type": "function"
    },
    {
      "inputs": [
        {
          "internalType": "address",
          "name": "signal",
          "type": "address"
        },
        {
          "internalType": "uint256",
          "name": "root",
          "type": "uint256"
        },
        {
          "internalType": "uint256",
          "name": "nullifierHash",
          "type": "uint256"
        },
        {
          "internalType": "uint256[8]",
          "name": "proof",
          "type": "uint256[8]"
        }
      ],
      "name": "register",
      "outputs": [],
      "stateMutability": "nonpayable",
      "type": "function"
    },
    {
      "inputs": [
        {
          "internalType": "address",
          "name": "",
          "type": "address"
        }
      ],
      "name": "registered",
      "outputs": [
        {
          "internalType": "bool",
          "name": "",
          "type": "bool"
        }
      ],
      "stateMutability": "view",
      "type": "function"
    },
    {
      "inputs": [
        {
          "internalType": "uint256",
          "name": "cycle",
          "type": "uint256"
        },
        {
          "internalType": "uint256",
          "name": "slotIndex",
          "type": "uint256"
        }
      ],
      "name": "removeAd",
      "outputs": [],
      "stateMutability": "nonpayable",
      "type": "function"
    },
    {
      "inputs": [
        {
          "internalType": "address",
          "name": "signer",
          "type": "address"
        }
      ],
      "name": "removeAuthorizedSigner",
      "outputs": [],
      "stateMutability": "nonpayable",
      "type": "function"
    },
    {
      "inputs": [],
      "name": "renounceOwnership",
      "outputs": [],
      "stateMutability": "nonpayable",
      "type": "function"
    },
    {
      "inputs": [
        {
          "internalType": "address",
          "name": "newOwner",
          "type": "address"
        }
      ],
      "name": "transferOwnership",
      "outputs": [],
      "stateMutability": "nonpayable",
      "type": "function"
    },
    {
      "inputs": [
        {
          "internalType": "address",
          "name": "advertiser",
          "type": "address"
        }
      ],
      "name": "unbanAdvertiser",
      "outputs": [],
      "stateMutability": "nonpayable",
      "type": "function"
    },
    {
      "inputs": [
        {
          "internalType": "bytes32",
          "name": "",
          "type": "bytes32"
        }
      ],
      "name": "usedSignatures",
      "outputs": [
        {
          "internalType": "bool",
          "name": "",
          "type": "bool"
        }
      ],
      "stateMutability": "view",
      "type": "function"
    },
    {
      "inputs": [],
      "name": "withdrawFees",
      "outputs": [],
      "stateMutability": "nonpayable",
      "type": "function"
    },
    {
      "inputs": [],
      "name": "worldId",
      "outputs": [
        {
          "internalType": "contract IWorldID",
          "name": "",
          "type": "address"
        }
      ],
      "stateMutability": "view",
      "type": "function"
    }
  ],
  "bytecode": "0x610100604052600060e0523480156200001757600080fd5b50604051620031bb380380620031bb8339810160408190526200003a916200024a565b33806200006157604051631e4fbdf760e01b81526000600482015260240160405180910390fd5b6200006c81620000d9565b50600180556001600160a01b03808516608052831660a052604051620000cb90620000b790620000a1908590602001620002da565b60408051601f1981840301815291905262000129565b82604051602001620000a1929190620002f8565b60c052506200032092505050565b600080546001600160a01b038381166001600160a01b0319831681178455604051919092169283917f8be0079c531659141344cd1fd0a4f28419497f9722a3daafe3b4186f6b6457e09190a35050565b6000600882604051602001620001409190620002da565b60408051601f198184030181529190528051602090910120901c92915050565b80516001600160a01b03811681146200017857600080fd5b919050565b634e487b7160e01b600052604160045260246000fd5b60005b83811015620001b057818101518382015260200162000196565b50506000910152565b600082601f830112620001cb57600080fd5b81516001600160401b0380821115620001e857620001e86200017d565b604051601f8301601f19908116603f011681019082821181831017156200021357620002136200017d565b816040528381528660208588010111156200022d57600080fd5b6200024084602083016020890162000193565b9695505050505050565b600080600080608085870312156200026157600080fd5b6200026c8562000160565b93506200027c6020860162000160565b60408601519093506001600160401b03808211156200029a57600080fd5b620002a888838901620001b9565b93506060870151915080821115620002bf57600080fd5b50620002ce87828801620001b9565b91505092959194509250565b60008251620002ee81846020870162000193565b9190910192915050565b828152600082516200031281602085016020870162000193565b919091016020019392505050565b60805160a05160c05160e051612e306200038b6000396000611e8301526000611ee50152600081816103ed0152611e530152600081816104ed0152818161088b01528181610c3a015281816114df015281816116bd01528181611b6f0152611c3e0152612e306000f3fe608060405234801561001057600080fd5b506004361061021c5760003560e01c80637433142811610125578063be26ed7f116100ad578063de061d661161007c578063de061d66146104e8578063e7c21a3e1461050f578063f2fde38b14610522578063f62a4edb14610535578063f978fd611461054857600080fd5b8063be26ed7f146104b2578063c0ae6146146104ba578063cc6cd25e146104cd578063cd421fbf146104e057600080fd5b806397090dc8116100f457806397090dc81461044b578063b2dd5c071461045e578063b7c32bf014610481578063b8afaa4814610496578063bad1a3801461049f57600080fd5b806374331428146103d5578063753e9ef0146103e857806386bb8f37146104275780638da5cb5b1461043a57600080fd5b80634d63a475116101a85780635d2b6a4e116101775780635d2b6a4e1461034b578063646e200b1461036e57806369547f2d146103905780636ecdf606146103c4578063715018a6146103cd57600080fd5b80634d63a475146102f25780635240eb3214610326578063539aa77f14610339578063587f5ed71461034257600080fd5b80631f50fec9116101ef5780631f50fec9146102a457806321e20e8b146102c557806339aca329146102d857806342f81580146102e0578063476343ee146102ea57600080fd5b8063035169a4146102215780631012be0d1461025457806311637f22146102695780631cbc13ac1461029c575b600080fd5b61023461022f366004612648565b61056b565b60405161024b9b9a999897969594939291906126f2565b60405180910390f35b610267610262366004612648565b610775565b005b61028c6102773660046127a1565b60046020526000908152604090205460ff1681565b604051901515815260200161024b565b6102676109a1565b6102b76102b23660046127bc565b610a3a565b60405190815260200161024b565b6102676102d33660046127f1565b610b44565b6102b7600a81565b6102b76212750081565b610267610bf4565b61028c6103003660046127bc565b600760209081526000938452604080852082529284528284209052825290205460ff1681565b6102676103343660046127a1565b610d5b565b6102b76101f481565b6102b7600a5481565b61028c6103593660046127a1565b60056020526000908152604090205460ff1681565b61038161037c3660046127a1565b610d87565b60405161024b93929190612845565b61028c61039e3660046127bc565b600860209081526000938452604080852082529284528284209052825290205460ff1681565b6102b760025481565b610267611230565b6102676103e33660046127a1565b611242565b61040f7f000000000000000000000000000000000000000000000000000000000000000081565b6040516001600160a01b03909116815260200161024b565b610267610435366004612648565b611293565b6000546001600160a01b031661040f565b610267610459366004612648565b6115c9565b61028c61046c3660046127a1565b60036020526000908152604090205460ff1681565b61048961178d565b60405161024b9190612888565b6102b7600b5481565b6102676104ad3660046129dd565b611a82565b6102b7611db5565b6102676104c83660046127a1565b611dc4565b6102676104db366004612aab565b611e18565b6102b7603c81565b61040f7f000000000000000000000000000000000000000000000000000000000000000081565b61026761051d366004612af9565b611fa7565b6102676105303660046127a1565b61229c565b6102676105433660046127a1565b6122df565b61028c6105563660046127f1565b60096020526000908152604090205460ff1681565b6006602090815260009283526040808420909152908252902080546001820180546001600160a01b0390921692916105a290612b63565b80601f01602080910402602001604051908101604052809291908181526020018280546105ce90612b63565b801561061b5780601f106105f05761010080835404028352916020019161061b565b820191906000526020600020905b8154815290600101906020018083116105fe57829003601f168201915b50505050509080600201805461063090612b63565b80601f016020809104026020016040519081016040528092919081815260200182805461065c90612b63565b80156106a95780601f1061067e576101008083540402835291602001916106a9565b820191906000526020600020905b81548152906001019060200180831161068c57829003601f168201915b5050505050908060030180546106be90612b63565b80601f01602080910402602001604051908101604052809291908181526020018280546106ea90612b63565b80156107375780601f1061070c57610100808354040283529160200191610737565b820191906000526020600020905b81548152906001019060200180831161071a57829003601f168201915b5050505060048301546005840154600685015460078601546008909601549495929460ff80841695506101008404811694620100009094041692908b565b61077d612308565b600a811061079e57604051631258e44360e01b815260040160405180910390fd5b600082815260066020908152604080832084845290915290206005810154610100900460ff166107e157604051630df706ad60e11b815260040160405180910390fd5b6212750081600801546107f49190612bb3565b42116108135760405163162618a960e01b815260040160405180910390fd5b600481015460006127106108296101f484612bcc565b6108339190612be3565b905060006108418284612c05565b905060008460070154826108559190612c05565b9050806000036108785760405163162908e360e11b815260040160405180910390fd5b6007850182905560006001600160a01b037f00000000000000000000000000000000000000000000000000000000000000001663a9059cbb6108c26000546001600160a01b031690565b6040516001600160e01b031960e084901b1681526001600160a01b039091166004820152602481018590526044016020604051808303816000875af115801561090f573d6000803e3d6000fd5b505050506040513d601f19601f820116820180604052508101906109339190612c18565b905080610953576040516312171d8360e31b815260040160405180910390fd5b86887fcf3b62092c7f2a3455c516c177bd1970412d1c381c960d3986e3296f9dff0e7b8460405161098691815260200190565b60405180910390a350505050505061099d60018055565b5050565b6109a9612332565b60006109b361235f565b9050806000036109c05750565b60006109cd600183612c05565b905060025481036109dc575050565b60005b600a811015610a04576109f2828261236c565b806109fc81612c3a565b9150506109df565b50600281905560405181907f6fbfbccdd0d107860c9bccfa723d97eba4f37886edeb01e7a438b1e0fe44e05690600090a250505b565b600083815260066020908152604080832085845282528083208684526007835281842086855283528184206001600160a01b038616855290925282205460ff16610a88576000915050610b3d565b600085815260086020908152604080832087845282528083206001600160a01b038716845290915290205460ff1615610ac5576000915050610b3d565b6005810154610100900460ff16610ae0576000915050610b3d565b8060060154600003610af6576000915050610b3d565b60048101546000612710610b0c6101f484612bcc565b610b169190612be3565b90506000610b248284612c05565b9050836006015481610b369190612be3565b9450505050505b9392505050565b610b4c61235f565b8110610b6b57604051634dc7f5ff60e11b815260040160405180910390fd5b600254610b79906001612bb3565b8114610b9857604051634dc7f5ff60e11b815260040160405180910390fd5b60005b600a811015610bc057610bae828261236c565b80610bb881612c3a565b915050610b9b565b50600281905560405181907f6fbfbccdd0d107860c9bccfa723d97eba4f37886edeb01e7a438b1e0fe44e05690600090a250565b610bfc612332565b610c04612308565b600a546000819003610c295760405163162908e360e11b815260040160405180910390fd5b6000600a8190556001600160a01b037f00000000000000000000000000000000000000000000000000000000000000001663a9059cbb610c716000546001600160a01b031690565b6040516001600160e01b031960e084901b1681526001600160a01b039091166004820152602481018590526044016020604051808303816000875af1158015610cbe573d6000803e3d6000fd5b505050506040513d601f19601f82011682018060405250810190610ce29190612c18565b905080610d02576040516312171d8360e31b815260040160405180910390fd5b6000546001600160a01b03166001600160a01b03167fc0819c13be868895eb93e40eaceb96de976442fa1d404e5c55f14bb65a8c489a83604051610d4891815260200190565b60405180910390a25050610a3860018055565b610d63612332565b6001600160a01b03166000908152600560205260409020805460ff19166001179055565b60608060606000610d9661235f565b90506000610da5600a83612bcc565b905060008167ffffffffffffffff811115610dc257610dc2612c53565b604051908082528060200260200182016040528015610deb578160200160208202803683370190505b50905060008267ffffffffffffffff811115610e0957610e09612c53565b604051908082528060200260200182016040528015610e32578160200160208202803683370190505b50905060008367ffffffffffffffff811115610e5057610e50612c53565b604051908082528060200260200182016040528015610e79578160200160208202803683370190505b5090506000805b86811161108e5760005b600a81101561107b576000600660008481526020019081526020016000206000838152602001908152602001600020905060076000848152602001908152602001600020600083815260200190815260200160002060008e6001600160a01b03166001600160a01b0316815260200190815260200160002060009054906101000a900460ff168015610f6e575060086000848152602001908152602001600020600083815260200190815260200160002060008e6001600160a01b03166001600160a01b0316815260200190815260200160002060009054906101000a900460ff16155b8015610f8357506005810154610100900460ff165b8015610fa15750621275008160080154610f9d9190612bb3565b4211155b8015610fb1575060008160060154115b156110685760048101546000612710610fcc6101f484612bcc565b610fd69190612be3565b90506000610fe48284612c05565b90506000846006015482610ff89190612be3565b9050868b898151811061100d5761100d612c69565b602002602001018181525050858a898151811061102c5761102c612c69565b6020026020010181815250508089898151811061104b5761104b612c69565b60209081029190910101528761106081612c3a565b985050505050505b508061107381612c3a565b915050610e8a565b508061108681612c3a565b915050610e80565b508067ffffffffffffffff8111156110a8576110a8612c53565b6040519080825280602002602001820160405280156110d1578160200160208202803683370190505b5098508067ffffffffffffffff8111156110ed576110ed612c53565b604051908082528060200260200182016040528015611116578160200160208202803683370190505b5097508067ffffffffffffffff81111561113257611132612c53565b60405190808252806020026020018201604052801561115b578160200160208202803683370190505b50965060005b818110156112225784818151811061117b5761117b612c69565b60200260200101518a828151811061119557611195612c69565b6020026020010181815250508381815181106111b3576111b3612c69565b60200260200101518982815181106111cd576111cd612c69565b6020026020010181815250508281815181106111eb576111eb612c69565b602002602001015188828151811061120557611205612c69565b60209081029190910101528061121a81612c3a565b915050611161565b505050505050509193909250565b611238612332565b610a386000612482565b61124a612332565b6001600160a01b038116600081815260046020526040808220805460ff19169055517f2a2f5e02b0e6aab2b998dbcae41aec9407649a38bd8d41b7b49bedee8cdeaf2e9190a250565b61129b612308565b3360009081526003602052604090205460ff166112cb5760405163aba4733960e01b815260040160405180910390fd5b600a81106112ec57604051631258e44360e01b815260040160405180910390fd5b600082815260066020908152604080832084845290915290206005810154610100900460ff1661132f57604051630df706ad60e11b815260040160405180910390fd5b600581015462010000900460ff161561135b57604051631bb428a960e21b815260040160405180910390fd5b6000838152600760209081526040808320858452825280832033845290915290205460ff1661139d576040516301327deb60e01b815260040160405180910390fd5b6000838152600860209081526040808320858452825280832033845290915290205460ff16156113e057604051630c8d9eab60e31b815260040160405180910390fd5b6212750081600801546113f39190612bb3565b4211156114135760405163320c7b7d60e21b815260040160405180910390fd5b6006810154600081900361143a5760405163162908e360e11b815260040160405180910390fd5b600482015460006127106114506101f484612bcc565b61145a9190612be3565b905060006114688284612c05565b905060006114768583612be3565b60008981526008602090815260408083208b845282528083203384529091528120805460ff1916600117905560078801805492935083929091906114bb908490612bb3565b909155505060405163a9059cbb60e01b8152336004820152602481018290526000907f00000000000000000000000000000000000000000000000000000000000000006001600160a01b03169063a9059cbb906044016020604051808303816000875af1158015611530573d6000803e3d6000fd5b505050506040513d601f19601f820116820180604052508101906115549190612c18565b905080611574576040516312171d8360e31b815260040160405180910390fd5b8789336001600160a01b03167f812be816db82c66cd18ca8457005cd84689642d8ac4d38599cc6af444a2dc72a856040516115b191815260200190565b60405180910390a45050505050505061099d60018055565b6115d1612308565b600a81106115f257604051631258e44360e01b815260040160405180910390fd5b6000828152600660209081526040808320848452909152902080546001600160a01b0316331461163557604051632211114160e11b815260040160405180910390fd5b6005810154610100900460ff16156116605760405163475a253560e01b815260040160405180910390fd5b60058101805462ff0000191662010000179055600481015415611754578060040154600b60008282546116939190612c05565b909155505060048181015460405163a9059cbb60e01b8152339281019290925260248201526000907f00000000000000000000000000000000000000000000000000000000000000006001600160a01b03169063a9059cbb906044016020604051808303816000875af115801561170e573d6000803e3d6000fd5b505050506040513d601f19601f820116820180604052508101906117329190612c18565b905080611752576040516312171d8360e31b815260040160405180910390fd5b505b6040518290849033907f2ddf52ad696f7475d5e714ce5c8c1c4e9b93814e40d3f4c5ab845cb2bc0579ac90600090a45061099d60018055565b6060600061179961235f565b60408051600a808252610160820190925291925060009190816020015b6117be6125d0565b8152602001906001900390816117b657905050905060005b600a811015611a7b5760008381526006602090815260408083208484528252918290208251610160810190935280546001600160a01b03168352600181018054919284019161182490612b63565b80601f016020809104026020016040519081016040528092919081815260200182805461185090612b63565b801561189d5780601f106118725761010080835404028352916020019161189d565b820191906000526020600020905b81548152906001019060200180831161188057829003601f168201915b505050505081526020016002820180546118b690612b63565b80601f01602080910402602001604051908101604052809291908181526020018280546118e290612b63565b801561192f5780601f106119045761010080835404028352916020019161192f565b820191906000526020600020905b81548152906001019060200180831161191257829003601f168201915b5050505050815260200160038201805461194890612b63565b80601f016020809104026020016040519081016040528092919081815260200182805461197490612b63565b80156119c15780601f10611996576101008083540402835291602001916119c1565b820191906000526020600020905b8154815290600101906020018083116119a457829003601f168201915b505050918352505060048201546020820152600582015460409091019060ff1660098111156119f2576119f26126ba565b6009811115611a0357611a036126ba565b8152600582015460ff6101008204811615156020840152620100009091041615156040820152600682015460608201526007820154608082015260089091015460a0909101528251839083908110611a5d57611a5d612c69565b60200260200101819052508080611a7390612c3a565b9150506117d6565b5092915050565b611a8a612308565b3360009081526004602052604090205460ff1615611abb5760405163299aa0a160e21b815260040160405180910390fd5b611ac361235f565b8a14611ae257604051634dc7f5ff60e11b815260040160405180910390fd5b600a8910611b0357604051631258e44360e01b815260040160405180910390fd5b60008a81526006602090815260408083208c8452909152902080546001600160a01b031615801590611b39575060008160040154115b15611c1957805460048083015460405163a9059cbb60e01b81526001600160a01b039384169281019290925260248201526000917f0000000000000000000000000000000000000000000000000000000000000000169063a9059cbb906044016020604051808303816000875af1158015611bb8573d6000803e3d6000fd5b505050506040513d601f19601f82011682018060405250810190611bdc9190612c18565b905080611bfc576040516312171d8360e31b815260040160405180910390fd5b8160040154600b6000828254611c129190612c05565b9091555050505b6040516323b872dd60e01b8152336004820152306024820152604481018490526000907f00000000000000000000000000000000000000000000000000000000000000006001600160a01b0316906323b872dd906064016020604051808303816000875af1158015611c8f573d6000803e3d6000fd5b505050506040513d601f19601f82011682018060405250810190611cb39190612c18565b905080611cd3576040516312171d8360e31b815260040160405180910390fd5b81546001600160a01b0319163317825560018201611cf28a8c83612cca565b5060028201611d02888a83612cca565b5060038201611d12868883612cca565b506004820184905560058201805484919060ff19166001836009811115611d3b57611d3b6126ba565b021790555083600b6000828254611d529190612bb3565b925050819055508a8c336001600160a01b03167f57fd3b672d0a576a3e359189cf66cb6f9f8928eba7c11efbe695d66b957ce76e8688604051611d96929190612d8b565b60405180910390a45050611da960018055565b50505050505050505050565b6000611dbf61235f565b905090565b611dcc612332565b6001600160a01b038116600081815260046020526040808220805460ff19166001179055517f97b051fe48e86c08fca96c9bbe846678783b6999358e6d4efbaf9e40ca59b6a79190a250565b611e20612308565b3360009081526003602052604090205460ff1615611e5157604051630ea075bf60e21b815260040160405180910390fd5b7f00000000000000000000000000000000000000000000000000000000000000006001600160a01b0316633bc778e3847f0000000000000000000000000000000000000000000000000000000000000000611ee288604051602001611ece919060609190911b6bffffffffffffffffffffffff1916815260140190565b6040516020818303038152906040526124d2565b867f0000000000000000000000000000000000000000000000000000000000000000876040518763ffffffff1660e01b8152600401611f2696959493929190612da6565b60006040518083038186803b158015611f3e57600080fd5b505afa158015611f52573d6000803e3d6000fd5b505033600081815260036020526040808220805460ff19166001179055519193507f54db7a5cb4735e1aac1f53db512d3390390bb6637bd30ad4bf9fc98667d9b9b9925090a2611fa160018055565b50505050565b611faf612308565b3360009081526003602052604090205460ff16611fdf5760405163aba4733960e01b815260040160405180910390fd5b611fe761235f565b861061200657604051634dc7f5ff60e11b815260040160405180910390fd5b600a851061202757604051631258e44360e01b815260040160405180910390fd5b600086815260066020908152604080832088845290915290206005810154610100900460ff161561206b5760405163475a253560e01b815260040160405180910390fd5b600581015462010000900460ff161561209757604051631bb428a960e21b815260040160405180910390fd5b6000878152600760209081526040808320898452825280832033845290915290205460ff16156120da5760405163e02cd2cb60e01b815260040160405180910390fd5b6040516bffffffffffffffffffffffff193360601b1660208201526034810188905260548101879052607481018690526094810185905260009060b40160405160208183030381529060405280519060200120905060008160405160200161216e91907f19457468657265756d205369676e6564204d6573736167653a0a3332000000008152601c810191909152603c0190565b60408051601f1981840301815291815281516020928301206000818152600990935291205490915060ff16156121b75760405163900bb2c960e01b815260040160405180910390fd5b60006121c4828787612507565b6001600160a01b03811660009081526005602052604090205490915060ff166122005760405163ea8e4eb560e01b815260040160405180910390fd5b60008281526009602090815260408083208054600160ff1991821681179092558e8552600784528285208e8652845282852033865290935290832080549092161790556006850180549161225383612c3a565b909155505060405189908b9033907fdf68871eff37c21a2d5f5f4714defb013c53c6aa48ebe6eff29ca11e0651912790600090a45050505061229460018055565b505050505050565b6122a4612332565b6001600160a01b0381166122d357604051631e4fbdf760e01b8152600060048201526024015b60405180910390fd5b6122dc81612482565b50565b6122e7612332565b6001600160a01b03166000908152600560205260409020805460ff19169055565b60026001540361232b57604051633ee5aeb560e01b815260040160405180910390fd5b6002600155565b6000546001600160a01b03163314610a385760405163118cdaa760e01b81523360048201526024016122ca565b6000611dbf603c42612be3565b6000828152600660209081526040808320848452909152902080546001600160a01b03166123a857600501805461ff0019166101001790555050565b600581015462010000900460ff16156123cf57600501805461ff0019166101001790555050565b600481015460006127106123e56101f484612bcc565b6123ef9190612be3565b905080600a60008282546124039190612bb3565b9250508190555081600b600082825461241c9190612c05565b909155505060058301805461ff0019166101001790554260088401556006830154604051859187917f67a59239176edc6000958291e1c679afd7b3e13a274c758a1fb33d8587d5e708916124739190815260200190565b60405180910390a35050505050565b600080546001600160a01b038381166001600160a01b0319831681178455604051919092169283917f8be0079c531659141344cd1fd0a4f28419497f9722a3daafe3b4186f6b6457e09190a35050565b60006008826040516020016124e79190612dde565b60408051601f198184030181529190528051602090910120901c92915050565b6000604182146125595760405162461bcd60e51b815260206004820152601860248201527f496e76616c6964207369676e6174757265206c656e677468000000000000000060448201526064016122ca565b60408051600080825260208083018085528890528684013590911a92820183905285356060830181905290860135608083018190529092909160019060a0016020604051602081039080840390855afa1580156125ba573d6000803e3d6000fd5b5050604051601f19015198975050505050505050565b60405180610160016040528060006001600160a01b03168152602001606081526020016060815260200160608152602001600081526020016000600981111561261b5761261b6126ba565b81526020016000151581526020016000151581526020016000815260200160008152602001600081525090565b6000806040838503121561265b57600080fd5b50508035926020909101359150565b60005b8381101561268557818101518382015260200161266d565b50506000910152565b600081518084526126a681602086016020860161266a565b601f01601f19169290920160200192915050565b634e487b7160e01b600052602160045260246000fd5b600a81106126ee57634e487b7160e01b600052602160045260246000fd5b9052565b6001600160a01b038c168152610160602082018190526000906127178382018e61268e565b9050828103604084015261272b818d61268e565b9050828103606084015261273f818c61268e565b91505088608083015261275560a08301896126d0565b95151560c082015293151560e0850152610100840192909252610120830152610140909101529695505050505050565b80356001600160a01b038116811461279c57600080fd5b919050565b6000602082840312156127b357600080fd5b610b3d82612785565b6000806000606084860312156127d157600080fd5b83359250602084013591506127e860408501612785565b90509250925092565b60006020828403121561280357600080fd5b5035919050565b600081518084526020808501945080840160005b8381101561283a5781518752958201959082019060010161281e565b509495945050505050565b606081526000612858606083018661280a565b828103602084015261286a818661280a565b9050828103604084015261287e818561280a565b9695505050505050565b60006020808301818452808551808352604092508286019150828160051b87010184880160005b8381101561298657888303603f19018552815180516001600160a01b0316845261016088820151818a8701526128e78287018261268e565b91505087820151858203898701526128ff828261268e565b91505060608083015186830382880152612919838261268e565b92505050608080830151818701525060a08083015161293a828801826126d0565b505060c08281015115159086015260e0808301511515908601526101008083015190860152610120808301519086015261014091820151919094015293860193908601906001016128af565b509098975050505050505050565b60008083601f8401126129a657600080fd5b50813567ffffffffffffffff8111156129be57600080fd5b6020830191508360208285010111156129d657600080fd5b9250929050565b60008060008060008060008060008060e08b8d0312156129fc57600080fd5b8a35995060208b0135985060408b013567ffffffffffffffff80821115612a2257600080fd5b612a2e8e838f01612994565b909a50985060608d0135915080821115612a4757600080fd5b612a538e838f01612994565b909850965060808d0135915080821115612a6c57600080fd5b50612a798d828e01612994565b90955093505060a08b0135915060c08b0135600a8110612a9857600080fd5b809150509295989b9194979a5092959850565b600080600080610160808688031215612ac357600080fd5b612acc86612785565b94506020860135935060408601359250868187011115612aeb57600080fd5b509295919450926060019150565b60008060008060008060a08789031215612b1257600080fd5b86359550602087013594506040870135935060608701359250608087013567ffffffffffffffff811115612b4557600080fd5b612b5189828a01612994565b979a9699509497509295939492505050565b600181811c90821680612b7757607f821691505b602082108103612b9757634e487b7160e01b600052602260045260246000fd5b50919050565b634e487b7160e01b600052601160045260246000fd5b80820180821115612bc657612bc6612b9d565b92915050565b8082028115828204841417612bc657612bc6612b9d565b600082612c0057634e487b7160e01b600052601260045260246000fd5b500490565b81810381811115612bc657612bc6612b9d565b600060208284031215612c2a57600080fd5b81518015158114610b3d57600080fd5b600060018201612c4c57612c4c612b9d565b5060010190565b634e487b7160e01b600052604160045260246000fd5b634e487b7160e01b600052603260045260246000fd5b601f821115612cc557600081815260208120601f850160051c81016020861015612ca65750805b601f850160051c820191505b8181101561229457828155600101612cb2565b505050565b67ffffffffffffffff831115612ce257612ce2612c53565b612cf683612cf08354612b63565b83612c7f565b6000601f841160018114612d2a5760008515612d125750838201355b600019600387901b1c1916600186901b178355612d84565b600083815260209020601f19861690835b82811015612d5b5786850135825560209485019460019092019101612d3b565b5086821015612d785760001960f88860031b161c19848701351681555b505060018560011b0183555b5050505050565b60408101612d9982856126d0565b8260208301529392505050565b60006101a0820190508782528660208301528560408301528460608301528360808301526101008360a0840137979650505050505050565b60008251612df081846020870161266a565b919091019291505056fea2646970667358221220b6615efb3ff49cc443284a957c3872a041e41e6dbbfd9df7e78f5d15c67c39f364736f6c63430008140033",
  "linkReferences": {},
  "deployedLinkReferences": {}
}