{
  "_format": "hh-sol-artifact-1",
  "contractName": "ADSDemo",
  "sourceName": "contracts/ADSDemo.sol",
  "abi": [
    {
      "inputs": [
        {
          "internalType": "address",
          "name": "_wldToken",
          "type": "address"
        },
        {
          "internalType": "address",
          "name": "_permit2",
          "type": "address"
        },
        {
          "internalType": "address",
          "name": "_worldId",
          "type": "address"
        },
        {
          "internalType": "string",
          "name": "_appId",
          "type": "string"
        },
        {
          "internalType": "string",
          "name": "_action",
          "type": "string"
        }
      ],
      "stateMutability": "nonpayable",
      "type": "constructor"
    },
    {
      "inputs": [],
      "name": "AdWasRemoved",
      "type": "error"
    },
    {
      "inputs": [],
      "name": "AdvertiserIsBanned",
      "type": "error"
    },
    {
      "inputs": [],
      "name": "AlreadyClaimed",
      "type": "error"
    },
    {
      "inputs": [],
      "name": "AlreadyClicked",
      "type": "error"
    },
    {
      "inputs": [],
      "name": "AlreadyFinalized",
      "type": "error"
    },
    {
      "inputs": [],
      "name": "AlreadyRegistered",
      "type": "error"
    },
    {
      "inputs": [],
      "name": "ClaimDeadlineNotPassed",
      "type": "error"
    },
    {
      "inputs": [],
      "name": "ClaimDeadlinePassed",
      "type": "error"
    },
    {
      "inputs": [],
      "name": "InvalidAmount",
      "type": "error"
    },
    {
      "inputs": [],
      "name": "InvalidCycle",
      "type": "error"
    },
    {
      "inputs": [],
      "name": "InvalidSlot",
      "type": "error"
    },
    {
      "inputs": [],
      "name": "NoClickRecorded",
      "type": "error"
    },
    {
      "inputs": [],
      "name": "NotAdvertiser",
      "type": "error"
    },
    {
      "inputs": [],
      "name": "NotAuthorized",
      "type": "error"
    },
    {
      "inputs": [],
      "name": "NotFinalized",
      "type": "error"
    },
    {
      "inputs": [],
      "name": "NotRegistered",
      "type": "error"
    },
    {
      "inputs": [
        {
          "internalType": "address",
          "name": "owner",
          "type": "address"
        }
      ],
      "name": "OwnableInvalidOwner",
      "type": "error"
    },
    {
      "inputs": [
        {
          "internalType": "address",
          "name": "account",
          "type": "address"
        }
      ],
      "name": "OwnableUnauthorizedAccount",
      "type": "error"
    },
    {
      "inputs": [],
      "name": "ReentrancyGuardReentrantCall",
      "type": "error"
    },
    {
      "inputs": [],
      "name": "SignatureAlreadyUsed",
      "type": "error"
    },
    {
      "inputs": [],
      "name": "TransferFailed",
      "type": "error"
    },
    {
      "anonymous": false,
      "inputs": [
        {
          "indexed": true,
          "internalType": "address",
          "name": "advertiser",
          "type": "address"
        },
        {
          "indexed": true,
          "internalType": "uint256",
          "name": "cycle",
          "type": "uint256"
        },
        {
          "indexed": true,
          "internalType": "uint256",
          "name": "slotIndex",
          "type": "uint256"
        },
        {
          "indexed": false,
          "internalType": "enum ADSDemo.SlotType",
          "name": "slotType",
          "type": "uint8"
        },
        {
          "indexed": false,
          "internalType": "uint256",
          "name": "bidAmount",
          "type": "uint256"
        }
      ],
      "name": "AdBidPlaced",
      "type": "event"
    },
    {
      "anonymous": false,
      "inputs": [
        {
          "indexed": true,
          "internalType": "address",
          "name": "advertiser",
          "type": "address"
        },
        {
          "indexed": true,
          "internalType": "uint256",
          "name": "cycle",
          "type": "uint256"
        },
        {
          "indexed": true,
          "internalType": "uint256",
          "name": "slotIndex",
          "type": "uint256"
        }
      ],
      "name": "AdRemoved",
      "type": "event"
    },
    {
      "anonymous": false,
      "inputs": [
        {
          "indexed": true,
          "internalType": "uint256",
          "name": "cycle",
          "type": "uint256"
        },
        {
          "indexed": true,
          "internalType": "uint256",
          "name": "slotIndex",
          "type": "uint256"
        },
        {
          "indexed": false,
          "internalType": "uint256",
          "name": "totalClicks",
          "type": "uint256"
        }
      ],
      "name": "AdSlotFinalized",
      "type": "event"
    },
    {
      "anonymous": false,
      "inputs": [
        {
          "indexed": true,
          "internalType": "address",
          "name": "advertiser",
          "type": "address"
        }
      ],
      "name": "AdvertiserBanned",
      "type": "event"
    },
    {
      "anonymous": false,
      "inputs": [
        {
          "indexed": true,
          "internalType": "address",
          "name": "advertiser",
          "type": "address"
        }
      ],
      "name": "AdvertiserUnbanned",
      "type": "event"
    },
    {
      "anonymous": false,
      "inputs": [
        {
          "indexed": true,
          "internalType": "address",
          "name": "user",
          "type": "address"
        },
        {
          "indexed": true,
          "internalType": "uint256",
          "name": "cycle",
          "type": "uint256"
        },
        {
          "indexed": true,
          "internalType": "uint256",
          "name": "slotIndex",
          "type": "uint256"
        }
      ],
      "name": "ClickRecorded",
      "type": "event"
    },
    {
      "anonymous": false,
      "inputs": [
        {
          "indexed": true,
          "internalType": "uint256",
          "name": "cycle",
          "type": "uint256"
        }
      ],
      "name": "CycleFinalized",
      "type": "event"
    },
    {
      "anonymous": false,
      "inputs": [
        {
          "indexed": true,
          "internalType": "uint256",
          "name": "cycle",
          "type": "uint256"
        },
        {
          "indexed": true,
          "internalType": "uint256",
          "name": "slotIndex",
          "type": "uint256"
        },
        {
          "indexed": false,
          "internalType": "uint256",
          "name": "amount",
          "type": "uint256"
        }
      ],
      "name": "ExpiredClaimCollected",
      "type": "event"
    },
    {
      "anonymous": false,
      "inputs": [
        {
          "indexed": true,
          "internalType": "address",
          "name": "recipient",
          "type": "address"
        },
        {
          "indexed": false,
          "internalType": "uint256",
          "name": "amount",
          "type": "uint256"
        }
      ],
      "name": "FeesWithdrawn",
      "type": "event"
    },
    {
      "anonymous": false,
      "inputs": [
        {
          "indexed": true,
          "internalType": "address",
          "name": "previousOwner",
          "type": "address"
        },
        {
          "indexed": true,
          "internalType": "address",
          "name": "newOwner",
          "type": "address"
        }
      ],
      "name": "OwnershipTransferred",
      "type": "event"
    },
    {
      "anonymous": false,
      "inputs": [
        {
          "indexed": true,
          "internalType": "address",
          "name": "user",
          "type": "address"
        },
        {
          "indexed": true,
          "internalType": "uint256",
          "name": "cycle",
          "type": "uint256"
        },
        {
          "indexed": true,
          "internalType": "uint256",
          "name": "slotIndex",
          "type": "uint256"
        },
        {
          "indexed": false,
          "internalType": "uint256",
          "name": "amount",
          "type": "uint256"
        }
      ],
      "name": "RewardClaimed",
      "type": "event"
    },
    {
      "anonymous": false,
      "inputs": [
        {
          "indexed": true,
          "internalType": "address",
          "name": "user",
          "type": "address"
        }
      ],
      "name": "UserRegistered",
      "type": "event"
    },
    {
      "inputs": [],
      "name": "AD_SLOTS_PER_CYCLE",
      "outputs": [
        {
          "internalType": "uint256",
          "name": "",
          "type": "uint256"
        }
      ],
      "stateMutability": "view",
      "type": "function"
    },
    {
      "inputs": [],
      "name": "CLAIM_DEADLINE",
      "outputs": [
        {
          "internalType": "uint256",
          "name": "",
          "type": "uint256"
        }
      ],
      "stateMutability": "view",
      "type": "function"
    },
    {
      "inputs": [],
      "name": "CYCLE_DURATION",
      "outputs": [
        {
          "internalType": "uint256",
          "name": "",
          "type": "uint256"
        }
      ],
      "stateMutability": "view",
      "type": "function"
    },
    {
      "inputs": [],
      "name": "PLATFORM_FEE_BPS",
      "outputs": [
        {
          "internalType": "uint256",
          "name": "",
          "type": "uint256"
        }
      ],
      "stateMutability": "view",
      "type": "function"
    },
    {
      "inputs": [],
      "name": "WLD",
      "outputs": [
        {
          "internalType": "contract IERC20",
          "name": "",
          "type": "address"
        }
      ],
      "stateMutability": "view",
      "type": "function"
    },
    {
      "inputs": [],
      "name": "accumulatedFees",
      "outputs": [
        {
          "internalType": "uint256",
          "name": "",
          "type": "uint256"
        }
      ],
      "stateMutability": "view",
      "type": "function"
    },
    {
      "inputs": [
        {
          "internalType": "uint256",
          "name": "",
          "type": "uint256"
        },
        {
          "internalType": "uint256",
          "name": "",
          "type": "uint256"
        }
      ],
      "name": "adSlots",
      "outputs": [
        {
          "internalType": "address",
          "name": "advertiser",
          "type": "address"
        },
        {
          "internalType": "string",
          "name": "name",
          "type": "string"
        },
        {
          "internalType": "string",
          "name": "description",
          "type": "string"
        },
        {
          "internalType": "string",
          "name": "imageUrl",
          "type": "string"
        },
        {
          "internalType": "uint256",
          "name": "bidAmount",
          "type": "uint256"
        },
        {
          "internalType": "enum ADSDemo.SlotType",
          "name": "slotType",
          "type": "uint8"
        },
        {
          "internalType": "bool",
          "name": "finalized",
          "type": "bool"
        },
        {
          "internalType": "bool",
          "name": "removed",
          "type": "bool"
        },
        {
          "internalType": "uint256",
          "name": "totalClicks",
          "type": "uint256"
        },
        {
          "internalType": "uint256",
          "name": "claimedAmount",
          "type": "uint256"
        },
        {
          "internalType": "uint256",
          "name": "finalizedAt",
          "type": "uint256"
        }
      ],
      "stateMutability": "view",
      "type": "function"
    },
    {
      "inputs": [
        {
          "internalType": "address",
          "name": "signer",
          "type": "address"
        }
      ],
      "name": "addAuthorizedSigner",
      "outputs": [],
      "stateMutability": "nonpayable",
      "type": "function"
    },
    {
      "inputs": [
        {
          "internalType": "address",
          "name": "",
          "type": "address"
        }
      ],
      "name": "authorizedSigners",
      "outputs": [
        {
          "internalType": "bool",
          "name": "",
          "type": "bool"
        }
      ],
      "stateMutability": "view",
      "type": "function"
    },
    {
      "inputs": [
        {
          "internalType": "address",
          "name": "advertiser",
          "type": "address"
        }
      ],
      "name": "banAdvertiser",
      "outputs": [],
      "stateMutability": "nonpayable",
      "type": "function"
    },
    {
      "inputs": [
        {
          "internalType": "address",
          "name": "",
          "type": "address"
        }
      ],
      "name": "bannedAdvertisers",
      "outputs": [
        {
          "internalType": "bool",
          "name": "",
          "type": "bool"
        }
      ],
      "stateMutability": "view",
      "type": "function"
    },
    {
      "inputs": [
        {
          "internalType": "uint256",
          "name": "cycle",
          "type": "uint256"
        },
        {
          "internalType": "uint256",
          "name": "slotIndex",
          "type": "uint256"
        },
        {
          "internalType": "address",
          "name": "user",
          "type": "address"
        }
      ],
      "name": "calculateUserReward",
      "outputs": [
        {
          "internalType": "uint256",
          "name": "",
          "type": "uint256"
        }
      ],
      "stateMutability": "view",
      "type": "function"
    },
    {
      "inputs": [
        {
          "internalType": "uint256",
          "name": "cycle",
          "type": "uint256"
        },
        {
          "internalType": "uint256",
          "name": "slotIndex",
          "type": "uint256"
        }
      ],
      "name": "claimReward",
      "outputs": [],
      "stateMutability": "nonpayable",
      "type": "function"
    },
    {
      "inputs": [
        {
          "internalType": "uint256",
          "name": "cycle",
          "type": "uint256"
        },
        {
          "internalType": "uint256",
          "name": "slotIndex",
          "type": "uint256"
        }
      ],
      "name": "collectExpiredClaims",
      "outputs": [],
      "stateMutability": "nonpayable",
      "type": "function"
    },
    {
      "inputs": [
        {
          "internalType": "uint256",
          "name": "cycle",
          "type": "uint256"
        }
      ],
      "name": "finalizeCycle",
      "outputs": [],
      "stateMutability": "nonpayable",
      "type": "function"
    },
    {
      "inputs": [],
      "name": "forceFinalizeCycle",
      "outputs": [],
      "stateMutability": "nonpayable",
      "type": "function"
    },
    {
      "inputs": [],
      "name": "getCurrentAds",
      "outputs": [
        {
          "components": [
            {
              "internalType": "address",
              "name": "advertiser",
              "type": "address"
            },
            {
              "internalType": "string",
              "name": "name",
              "type": "string"
            },
            {
              "internalType": "string",
              "name": "description",
              "type": "string"
            },
            {
              "internalType": "string",
              "name": "imageUrl",
              "type": "string"
            },
            {
              "internalType": "uint256",
              "name": "bidAmount",
              "type": "uint256"
            },
            {
              "internalType": "enum ADSDemo.SlotType",
              "name": "slotType",
              "type": "uint8"
            },
            {
              "internalType": "bool",
              "name": "finalized",
              "type": "bool"
            },
            {
              "internalType": "bool",
              "name": "removed",
              "type": "bool"
            },
            {
              "internalType": "uint256",
              "name": "totalClicks",
              "type": "uint256"
            },
            {
              "internalType": "uint256",
              "name": "claimedAmount",
              "type": "uint256"
            },
            {
              "internalType": "uint256",
              "name": "finalizedAt",
              "type": "uint256"
            }
          ],
          "internalType": "struct ADSDemo.AdSlot[]",
          "name": "",
          "type": "tuple[]"
        }
      ],
      "stateMutability": "view",
      "type": "function"
    },
    {
      "inputs": [],
      "name": "getCurrentCycle",
      "outputs": [
        {
          "internalType": "uint256",
          "name": "",
          "type": "uint256"
        }
      ],
      "stateMutability": "view",
      "type": "function"
    },
    {
      "inputs": [
        {
          "internalType": "address",
          "name": "user",
          "type": "address"
        }
      ],
      "name": "getUserClaimableRewards",
      "outputs": [
        {
          "internalType": "uint256[]",
          "name": "cycles",
          "type": "uint256[]"
        },
        {
          "internalType": "uint256[]",
          "name": "slots",
          "type": "uint256[]"
        },
        {
          "internalType": "uint256[]",
          "name": "amounts",
          "type": "uint256[]"
        }
      ],
      "stateMutability": "view",
      "type": "function"
    },
    {
      "inputs": [
        {
          "internalType": "uint256",
          "name": "",
          "type": "uint256"
        },
        {
          "internalType": "uint256",
          "name": "",
          "type": "uint256"
        },
        {
          "internalType": "address",
          "name": "",
          "type": "address"
        }
      ],
      "name": "hasClaimed",
      "outputs": [
        {
          "internalType": "bool",
          "name": "",
          "type": "bool"
        }
      ],
      "stateMutability": "view",
      "type": "function"
    },
    {
      "inputs": [
        {
          "internalType": "uint256",
          "name": "",
          "type": "uint256"
        },
        {
          "internalType": "uint256",
          "name": "",
          "type": "uint256"
        },
        {
          "internalType": "address",
          "name": "",
          "type": "address"
        }
      ],
      "name": "hasClicked",
      "outputs": [
        {
          "internalType": "bool",
          "name": "",
          "type": "bool"
        }
      ],
      "stateMutability": "view",
      "type": "function"
    },
    {
      "inputs": [],
      "name": "lastFinalizedCycle",
      "outputs": [
        {
          "internalType": "uint256",
          "name": "",
          "type": "uint256"
        }
      ],
      "stateMutability": "view",
      "type": "function"
    },
    {
      "inputs": [],
      "name": "lockedFunds",
      "outputs": [
        {
          "internalType": "uint256",
          "name": "",
          "type": "uint256"
        }
      ],
      "stateMutability": "view",
      "type": "function"
    },
    {
      "inputs": [],
      "name": "owner",
      "outputs": [
        {
          "internalType": "address",
          "name": "",
          "type": "address"
        }
      ],
      "stateMutability": "view",
      "type": "function"
    },
    {
      "inputs": [],
      "name": "permit2",
      "outputs": [
        {
          "internalType": "contract IPermit2",
          "name": "",
          "type": "address"
        }
      ],
      "stateMutability": "view",
      "type": "function"
    },
    {
      "inputs": [
        {
          "internalType": "uint256",
          "name": "cycle",
          "type": "uint256"
        },
        {
          "internalType": "uint256",
          "name": "slotIndex",
          "type": "uint256"
        },
        {
          "internalType": "string",
          "name": "name",
          "type": "string"
        },
        {
          "internalType": "string",
          "name": "description",
          "type": "string"
        },
        {
          "internalType": "string",
          "name": "imageUrl",
          "type": "string"
        },
        {
          "internalType": "uint256",
          "name": "bidAmount",
          "type": "uint256"
        },
        {
          "internalType": "enum ADSDemo.SlotType",
          "name": "slotType",
          "type": "uint8"
        },
        {
          "components": [
            {
              "components": [
                {
                  "internalType": "address",
                  "name": "token",
                  "type": "address"
                },
                {
                  "internalType": "uint256",
                  "name": "amount",
                  "type": "uint256"
                }
              ],
              "internalType": "struct IPermit2.TokenPermissions",
              "name": "permitted",
              "type": "tuple"
            },
            {
              "internalType": "uint256",
              "name": "nonce",
              "type": "uint256"
            },
            {
              "internalType": "uint256",
              "name": "deadline",
              "type": "uint256"
            }
          ],
          "internalType": "struct IPermit2.PermitTransferFrom",
          "name": "permit",
          "type": "tuple"
        },
        {
          "internalType": "bytes",
          "name": "signature",
          "type": "bytes"
        }
      ],
      "name": "placeAdBid",
      "outputs": [],
      "stateMutability": "nonpayable",
      "type": "function"
    },
    {
      "inputs": [
        {
          "internalType": "uint256",
          "name": "cycle",
          "type": "uint256"
        },
        {
          "internalType": "uint256",
          "name": "slotIndex",
          "type": "uint256"
        },
        {
          "internalType": "uint256",
          "name": "nonce",
          "type": "uint256"
        },
        {
          "internalType": "uint256",
          "name": "timestamp",
          "type": "uint256"
        },
        {
          "internalType": "bytes",
          "name": "signature",
          "type": "bytes"
        }
      ],
      "name": "recordClick",
      "outputs": [],
      "stateMutability": "nonpayable",
      "type": "function"
    },
    {
      "inputs": [
        {
          "internalType": "address",
          "name": "signal",
          "type": "address"
        },
        {
          "internalType": "uint256",
          "name": "root",
          "type": "uint256"
        },
        {
          "internalType": "uint256",
          "name": "nullifierHash",
          "type": "uint256"
        },
        {
          "internalType": "uint256[8]",
          "name": "proof",
          "type": "uint256[8]"
        }
      ],
      "name": "register",
      "outputs": [],
      "stateMutability": "nonpayable",
      "type": "function"
    },
    {
      "inputs": [
        {
          "internalType": "address",
          "name": "",
          "type": "address"
        }
      ],
      "name": "registered",
      "outputs": [
        {
          "internalType": "bool",
          "name": "",
          "type": "bool"
        }
      ],
      "stateMutability": "view",
      "type": "function"
    },
    {
      "inputs": [
        {
          "internalType": "uint256",
          "name": "cycle",
          "type": "uint256"
        },
        {
          "internalType": "uint256",
          "name": "slotIndex",
          "type": "uint256"
        }
      ],
      "name": "removeAd",
      "outputs": [],
      "stateMutability": "nonpayable",
      "type": "function"
    },
    {
      "inputs": [
        {
          "internalType": "address",
          "name": "signer",
          "type": "address"
        }
      ],
      "name": "removeAuthorizedSigner",
      "outputs": [],
      "stateMutability": "nonpayable",
      "type": "function"
    },
    {
      "inputs": [],
      "name": "renounceOwnership",
      "outputs": [],
      "stateMutability": "nonpayable",
      "type": "function"
    },
    {
      "inputs": [
        {
          "internalType": "address",
          "name": "newOwner",
          "type": "address"
        }
      ],
      "name": "transferOwnership",
      "outputs": [],
      "stateMutability": "nonpayable",
      "type": "function"
    },
    {
      "inputs": [
        {
          "internalType": "address",
          "name": "advertiser",
          "type": "address"
        }
      ],
      "name": "unbanAdvertiser",
      "outputs": [],
      "stateMutability": "nonpayable",
      "type": "function"
    },
    {
      "inputs": [
        {
          "internalType": "bytes32",
          "name": "",
          "type": "bytes32"
        }
      ],
      "name": "usedSignatures",
      "outputs": [
        {
          "internalType": "bool",
          "name": "",
          "type": "bool"
        }
      ],
      "stateMutability": "view",
      "type": "function"
    },
    {
      "inputs": [],
      "name": "withdrawFees",
      "outputs": [],
      "stateMutability": "nonpayable",
      "type": "function"
    },
    {
      "inputs": [],
      "name": "worldId",
      "outputs": [
        {
          "internalType": "contract IWorldID",
          "name": "",
          "type": "address"
        }
      ],
      "stateMutability": "view",
      "type": "function"
    }
  ],
  "bytecode": "0x610120604081815234620002125762002a4f803803809162000022828662000217565b8439820160a08382031262000212576200003c8362000251565b926020906200004d82820162000251565b6200005a85830162000251565b60608301516001600160401b039591939190868111620002125781620000829184016200028b565b95608083015190811162000212576200009c92016200028b565b933315620001fa5760008054336001600160a01b0319821681178355885189979690958795879590946001600160a01b039485939290918416907f8be0079c531659141344cd1fd0a4f28419497f9722a3daafe3b4186f6b6457e09080a360018055816101009d60008f52166080521660a0521660c0528051908184808501920191620001299262000266565b810103808352016200013c908262000217565b6200014790620002e6565b8251938491838301528051908184868501920191620001669262000266565b8101039081018352016200017b908262000217565b6200018690620002e6565b60e0525161273191826200031e833960805182818161060101528181610c9001528181610ec10152818161154b01528181611dac0152611fb0015260a051828181611836015281816118fc0152611e6e015260c0518281816106b20152610fde015260e0518261077c015251816107490152f35b8551631e4fbdf760e01b815260006004820152602490fd5b600080fd5b601f909101601f19168101906001600160401b038211908210176200023b57604052565b634e487b7160e01b600052604160045260246000fd5b51906001600160a01b03821682036200021257565b60005b8381106200027a5750506000910152565b818101518382015260200162000269565b81601f82011215620002125780516001600160401b0381116200023b5760405192620002c2601f8301601f19166020018562000217565b818452602082840101116200021257620002e3916020808501910162000266565b90565b604051620003146020828162000306818301968781519384920162000266565b810103808452018262000217565b51902060081c9056fe6080604052600436101561001257600080fd5b600060e08135811c908163035169a4146120595781631012be0d14611edc57816311637f2214611e9d57816312261ee714611e5857816312d95d1d146116ec5781631cbc13ac146116c85781631f50fec9146116a657816321e20e8b1461161057816339aca329146115f457816342f81580146115d6578163476343ee146114ed5781634d63a475146114a55781635240eb3214611461578163539aa77f14611444578163587f5ed7146114265781635d2b6a4e146113e7578163646e200b1461113357816369547f2d146110eb5781636ecdf606146110cd578163715018a614611073578163743314281461100d578163753e9ef014610fc857816386bb8f3714610d535781638da5cb5b14610d2c57816397090dc814610ba4578163b2dd5c0714610b65578163b7c32bf0146108d5578163b8afaa48146108b7578163be26ed7f14610899578163c0ae614614610830578163cc6cd25e1461064c578163cd421fbf14610630578163de061d66146105eb578163e7c21a3e146102b957508063f2fde38b14610229578063f62a4edb146101e85763f978fd61146101b757600080fd5b346101e55760203660031901126101e55760ff60406020926004358152600984522054166040519015158152f35b80fd5b50346101e55760203660031901126101e557610202612304565b61020a6123a5565b6001600160a01b03168152600560205260408120805460ff1916905580f35b50346101e55760203660031901126101e557610243612304565b61024b6123a5565b6001600160a01b039081169081156102a057600054826bffffffffffffffffffffffff60a01b821617600055167f8be0079c531659141344cd1fd0a4f28419497f9722a3daafe3b4186f6b6457e0600080a380f35b604051631e4fbdf760e01b815260048101849052602490fd5b9050346105e75760a03660031901126105e757600435602435916084356001600160401b03908181116105e3576102f490369060040161231a565b926102fd6123d1565b3387526020916003835260ff918260408a205416156105d157603c42048710156105bf57600a8810156105ad578689526006845260408920888a52845260408920946005860154848160081c1661059b5760101c841661058957878a526007855260408a20898b52855260408a20336000528552836040600020541661057757604051908582013360601b81528960348401528a6054840152604435607484015260643560948401526094835260c08301928084108385111761056157610120918460405281519020948101947f19457468657265756d205369676e6564204d6573736167653a0a333200000000865260fc820152603c84520190828210908211176105615760405251902094858952600984528260408a20541661054f5760410361050a57876080849283604051918983526040810135851a82840152803560408401520135606082015282805260015afa156104ff5786516001600160a01b0316875260058252604087205416156104ed57600692865260098152604086209060ff199160018382541617905584875260078152604087208688528152604087209033600052526001604060002091825416179055016104bf815461243c565b9055337fdf68871eff37c21a2d5f5f4714defb013c53c6aa48ebe6eff29ca11e065191278480a46001805580f35b60405163ea8e4eb560e01b8152600490fd5b6040513d88823e3d90fd5b60405162461bcd60e51b815260048101849052601860248201527f496e76616c6964207369676e6174757265206c656e67746800000000000000006044820152606490fd5b60405163900bb2c960e01b8152600490fd5b634e487b7160e01b600052604160045260246000fd5b60405163e02cd2cb60e01b8152600490fd5b604051631bb428a960e21b8152600490fd5b60405163475a253560e01b8152600490fd5b604051631258e44360e01b8152600490fd5b604051634dc7f5ff60e11b8152600490fd5b60405163aba4733960e01b8152600490fd5b8580fd5b5080fd5b82346101e557806003193601126101e5576040517f00000000000000000000000000000000000000000000000000000000000000006001600160a01b03168152602090f35b82346101e557806003193601126101e5576020604051603c8152f35b82346101e5576101603660031901126101e557610667612304565b36610164116105e7576106786123d1565b338252600360205260ff60408320541661081e576040805160609290921b6bffffffffffffffffffffffff191660208301908152601483527f00000000000000000000000000000000000000000000000000000000000000006001600160a01b03169183016001600160401b038111848210176105615761071c6020869561070f9484604052606082019586918351928391612299565b81010380845201826121d2565b51902060081c813b1561081a5782906101a460405180948193633bc778e360e01b835260243560048401527f00000000000000000000000000000000000000000000000000000000000000006024840152604483015260443560648301527f00000000000000000000000000000000000000000000000000000000000000006084830152610100606460a48401375afa801561080f576107fb575b5033808252600360205260408220805460ff191660011790557f54db7a5cb4735e1aac1f53db512d3390390bb6637bd30ad4bf9fc98667d9b9b98280a26001805580f35b610804906121a3565b6101e55780826107b7565b6040513d84823e3d90fd5b5050fd5b604051630ea075bf60e21b8152600490fd5b82346101e55760203660031901126101e55761084a612304565b6108526123a5565b6001600160a01b0316808252600460205260408220805460ff191660011790557f97b051fe48e86c08fca96c9bbe846678783b6999358e6d4efbaf9e40ca59b6a78280a280f35b82346101e557806003193601126101e5576020604051603c42048152f35b82346101e557806003193601126101e5576020600b54604051908152f35b82346101e557806003193601126101e557603c4204906040516108f7816121b6565b600a91828252805b61014080821015610965576040516020929161091a826121b6565b8482528460609185928084860152806040860152808501528160808501528160a08501528160c0850152818b85015281610100850152816101208501528301528286010152016108ff565b5050929091835b818110610a6f57505050604051916020808401908085528351809252604085018160408460051b880101950193965b8388106109a85786860387f35b90919293948380600192603f198a8203018652885190848060a01b038251168152610a0b6109f86109e68585015161016080888701528501906122bc565b604085015184820360408601526122bc565b60608085015190848303908501526122bc565b9160808082015190830152610a2860a080830151908401906122e1565b60c08082015115159083015286810151151587830152610100808201519083015261012080820151908301526101408091015191015297019301970196909392919361099b565b82855260066020908082526040872083885282526040872060405192610a94846121b6565b81546001600160a01b03168452610aad600183016121f3565b90840152610abd600282016121f3565b6040840152610ace600382016121f3565b60608401526004810154608084015260058101549160ff80841687811015610b515760a0860152600884811c8216151560c087015260109490941c1615158a85015281015461010084015260078101546101208401520154610140820152610b4c9190610b3b82876125d2565b52610b4681866125d2565b5061243c565b61096c565b634e487b7160e01b8b52602160045260248bfd5b82346101e55760203660031901126101e55760209060ff906040906001600160a01b03610b90612304565b168152600384522054166040519015158152f35b82346101e557610bb33661214e565b90610bbc6123d1565b600a8210156105ad578083526006602052604083208284526020526040832060018060a01b03808254163303610d1a57600582019182549060ff8260081c1661059b5786936201000060049362ff00001916179055019081549081610c4c575b50505050337f2ddf52ad696f7475d5e714ce5c8c1c4e9b93814e40d3f4c5ab845cb2bc0579ac8480a46001805580f35b602092610c5e610c8c93600b5461240c565b600b555460405163a9059cbb60e01b8152336004820152602481019190915293849283919082906044820190565b03927f0000000000000000000000000000000000000000000000000000000000000000165af1908115610d0f578491610ce1575b5015610ccf5782848080610c1c565b6040516312171d8360e31b8152600490fd5b610d02915060203d8111610d08575b610cfa81836121d2565b8101906123f4565b84610cc0565b503d610cf0565b6040513d86823e3d90fd5b604051632211114160e11b8152600490fd5b82346101e557806003193601126101e557546040516001600160a01b039091168152602090f35b82346101e557610d623661214e565b90610d6b6123d1565b33835260206003815260ff604085205416156105d157600a8310156105ad57818452600681526040842083855281526040842090600582015460ff8160081c1615610fb65760101c60ff1661058957828552600781526040852084865281526040852033600052815260ff6040600020541615610fa457828552600881526040852084865281526040852033600052815260ff60406000205416610f92576008820154621275008101809111610f7e574211610f6c5760068201548015610f5a5760048301546101f4808202908282041482151715610f465791610e59610e5e92612710600795049061240c565b61244b565b9284875260088352604087208688528352604087203360005283526040600020600160ff1982541617905501610e9583825461242f565b905560405163a9059cbb60e01b8152336004820152602481018390528181604481896001600160a01b037f0000000000000000000000000000000000000000000000000000000000000000165af19081156104ff578691610f29575b5015610ccf577f812be816db82c66cd18ca8457005cd84689642d8ac4d38599cc6af444a2dc72a906040519283523392a46001805580f35b610f409150823d8411610d0857610cfa81836121d2565b86610ef1565b634e487b7160e01b88526011600452602488fd5b60405163162908e360e11b8152600490fd5b60405163320c7b7d60e21b8152600490fd5b634e487b7160e01b86526011600452602486fd5b604051630c8d9eab60e31b8152600490fd5b6040516301327deb60e01b8152600490fd5b604051630df706ad60e11b8152600490fd5b82346101e557806003193601126101e5576040517f00000000000000000000000000000000000000000000000000000000000000006001600160a01b03168152602090f35b82346101e55760203660031901126101e557611027612304565b61102f6123a5565b6001600160a01b0316808252600460205260408220805460ff191690557f2a2f5e02b0e6aab2b998dbcae41aec9407649a38bd8d41b7b49bedee8cdeaf2e8280a280f35b82346101e557806003193601126101e55761108c6123a5565b600080546001600160a01b0319811682556001600160a01b03167f8be0079c531659141344cd1fd0a4f28419497f9722a3daafe3b4186f6b6457e08280a380f35b82346101e557806003193601126101e5576020600254604051908152f35b82346101e55760406110fc36612347565b939182526008602052828220908252602052209060018060a01b0316600052602052602060ff604060002054166040519015158152f35b82346101e55760203660031901126101e55761114d612304565b90600a603c42040290603c42048204600a14603c42041517156113d357611173826126c9565b61118561117f846126c9565b936126c9565b938290835b603c420481111561124d5750506111a0816126c9565b936111aa826126c9565b926111b4836126c9565b945b8381106111fd576111dd876111f9886111eb89604051958695606087526060870190612371565b908582036020870152612371565b908382036040850152612371565b0390f35b8061120b61124892846125d2565b51611216828a6125d2565b5261122181856125d2565b5161122c82886125d2565b52611237818a6125d2565b5161124282896125d2565b5261243c565b6111b6565b845b600a811061126657506112619061243c565b61118a565b81869894989793929752600660205260408620818752602052604086208787526007602052604087208288526020526040872060018060a01b03841660005260205260ff8060406000205416908161139e575b8161138d575b5080611372575b80611365575b6112e7575b506112db9061243c565b9692969590919561124f565b60048199929901546101f481818102048114821517156113515761134a92600661131f84612710611328956112db999702049061240c565b9101549061244b565b89611333838a6125d2565b528a61133f83886125d2565b5261124282886125d2565b97906112d1565b634e487b7160e01b89526011600452602489fd5b50600681015415156112cc565b506008810154621275008101809111610f46574211156112c6565b9050600582015460081c168a6112bf565b898952600860209081526040808b20868c528252808b206001600160a01b0388166000908152925290205481161591506112b9565b634e487b7160e01b81526011600452602490fd5b82346101e55760203660031901126101e55760209060ff906040906001600160a01b03611412612304565b168152600584522054166040519015158152f35b82346101e557806003193601126101e5576020600a54604051908152f35b82346101e557806003193601126101e55760206040516101f48152f35b82346101e55760203660031901126101e55761147b612304565b6114836123a5565b6001600160a01b03168152600560205260408120805460ff1916600117905580f35b82346101e55760406114b636612347565b939182526007602052828220908252602052209060018060a01b0316600052602052602060ff604060002054166040519015158152f35b82346101e557806003193601126101e5576115066123a5565b61150e6123d1565b600a548015610f5a57600a829055815460405163a9059cbb60e01b81526001600160a01b03918216600482015260248101839052602081604481877f000000000000000000000000000000000000000000000000000000000000000087165af1908115610d0f5784916115b8575b5015610ccf5760207fc0819c13be868895eb93e40eaceb96de976442fa1d404e5c55f14bb65a8c489a9184541692604051908152a26001805580f35b6115d0915060203d8111610d0857610cfa81836121d2565b8461157c565b82346101e557806003193601126101e5576020604051621275008152f35b82346101e557806003193601126101e5576020604051600a8152f35b82346101e55760203660031901126101e557600435603c42048110156105bf57600254600181018091116116925781036105bf57815b600a811061167a5750806002557f6fbfbccdd0d107860c9bccfa723d97eba4f37886edeb01e7a438b1e0fe44e0568280a280f35b8061168861168d92846124d7565b61243c565b611646565b634e487b7160e01b83526011600452602483fd5b82346101e55760206116c06116ba36612347565b916125fc565b604051908152f35b82346101e557806003193601126101e5576116e16123a5565b6116e961246b565b80f35b82346101e5576101803660031901126101e5576044356001600160401b0381116105e75761171e90369060040161231a565b6064356001600160401b038111611e545761173d90369060040161231a565b6084929192356001600160401b0381116105e35761175f90369060040161231a565b939092600a60c4351015611e505760803660e3190112611e5057610164356001600160401b038111611e4c5761179990369060040161231a565b6117a49791976123d1565b338952600460205260ff60408a205416611e3a57603c4204600435036105bf57600a60243510156105ad5760043589526006602052604089206024358a52602052604089209760018060a01b0389541680151580611e2d575b611d74575b50604051908160408101106001600160401b03604084011117611d60576040808301905230825260a43560208301528a91907f00000000000000000000000000000000000000000000000000000000000000006001600160a01b03163b15611d5c5760405163187945bd60e11b81529360e435906001600160a01b0382168203611d58578061012493818896879560018060a01b03166004870152602061010491823560248901528835604489015261014435606489015260018060a01b038151166084890152015160a48701523360c487015261010060e4870152850152848401378181018301859052601f01601f19168101030181837f00000000000000000000000000000000000000000000000000000000000000006001600160a01b03165af18015611d4d57611d3a575b5086546001600160a01b031916331787556001600160401b038211611d2657819061195f6001890154612169565b601f8111611cd6575b508890601f8311600114611c6a578992611c5f575b50508160011b916000199060031b1c19161760018601555b6001600160401b038211611c4b5781906119b26002870154612169565b601f8111611bfb575b508690601f8311600114611b8f578792611b84575b50508160011b916000199060031b1c19161760028401555b6001600160401b038211611b7057611a036003840154612169565b601f8111611b2c575b508390601f8311600114611abf576005939291859183611ab4575b50508160011b916000199060031b1c19161760038201555b60a43560048201550160ff1981541660ff60c43516179055611a6560a435600b5461242f565b600b55604051611a778160c4356122e1565b60a435602082015260243590600435907f57fd3b672d0a576a3e359189cf66cb6f9f8928eba7c11efbe695d66b957ce76e60403392a46001805580f35b013590508580611a27565b6003840185526020852091601f198416865b818110611b145750916001939185600597969410611afa575b505050811b016003820155611a3f565b0135600019600384901b60f8161c19169055858080611aea565b91936020600181928787013581550195019201611ad1565b60038401855260208520601f840160051c810160208510611b69575b601f830160051c82018110611b5e575050611a0c565b868155600101611b48565b5080611b48565b634e487b7160e01b84526041600452602484fd5b0135905086806119d0565b60028701885260208820889450915b601f1984168510611be3576001945083601f19811610611bc9575b505050811b0160028401556119e8565b0135600019600384901b60f8161c19169055868080611bb9565b81810135835560209485019460019093019201611b9e565b90915060028601875260208720601f840160051c810160208510611c44575b90849392915b601f830160051c82018110611c365750506119bb565b898155859450600101611c20565b5080611c1a565b634e487b7160e01b86526041600452602486fd5b01359050888061197d565b600189018a5260208a208a9450915b601f1984168510611cbe576001945083601f19811610611ca4575b505050811b016001860155611995565b0135600019600384901b60f8161c19169055888080611c94565b81810135835560209485019460019093019201611c79565b90915060018801895260208920601f840160051c810160208510611d1f575b90849392915b601f830160051c82018110611d11575050611968565b8b8155859450600101611cfb565b5080611cf5565b634e487b7160e01b88526041600452602488fd5b611d46909891986121a3565b9688611931565b6040513d8b823e3d90fd5b8480fd5b8280fd5b634e487b7160e01b8b52604160045260248bfd5b60048a81015460405163a9059cbb60e01b81526001600160a01b039093169183019190915260248201526020818c81806044810103917f00000000000000000000000000000000000000000000000000000000000000006001600160a01b03165af1908115611e22578b91611e03575b5015610ccf57611dfa60048a0154600b5461240c565b600b558a611802565b611e1c915060203d602011610d0857610cfa81836121d2565b8b611de4565b6040513d8d823e3d90fd5b5060048a015415156117fd565b60405163299aa0a160e21b8152600490fd5b8780fd5b8680fd5b8380fd5b82346101e557806003193601126101e5576040517f00000000000000000000000000000000000000000000000000000000000000006001600160a01b03168152602090f35b82346101e55760203660031901126101e55760209060ff906040906001600160a01b03611ec8612304565b168152600484522054166040519015158152f35b82346101e557611eeb3661214e565b90611ef46123d1565b600a8210156105ad57808352602060068152604084208385528152604084209060ff600583015460081c1615610fb6576008820154621275008101809111610f7e574211156120475760048201546101f480820290828204148215171561203357600791612710611f6692049061240c565b920191611f7483548261240c565b928315610f5a5755845460405163a9059cbb60e01b81526001600160a01b03918216600482015260248101849052908290829060449082908a907f0000000000000000000000000000000000000000000000000000000000000000165af19081156104ff578691612016575b5015610ccf577fcf3b62092c7f2a3455c516c177bd1970412d1c381c960d3986e3296f9dff0e7b91604051908152a36001805580f35b61202d9150823d8411610d0857610cfa81836121d2565b86611fe0565b634e487b7160e01b87526011600452602487fd5b60405163162618a960e01b8152600490fd5b82346101e55760409061206b3661214e565b9082526006602052828220908252602052209060018060a01b0382541690612095600184016121f3565b926120a2600282016121f3565b906120af600382016121f3565b60048201549360ff600584015461210c6006860154946120fe60086007890154980154986120f06040519d8e9d8e528d6101609081602082015201906122bc565b8c810360408e0152906122bc565b908a820360608c01526122bc565b96608089015261212160a089018383166122e1565b818160081c16151560c089015260101c161515908601526101008501526101208401526101408301520390f35b6040906003190112612164576004359060243590565b600080fd5b90600182811c92168015612199575b602083101461218357565b634e487b7160e01b600052602260045260246000fd5b91607f1691612178565b6001600160401b03811161056157604052565b61016081019081106001600160401b0382111761056157604052565b90601f801991011681019081106001600160401b0382111761056157604052565b906040519182600082549261220784612169565b9081845260019485811690816000146122765750600114612233575b5050612231925003836121d2565b565b9093915060005260209081600020936000915b81831061225e57505061223193508201013880612223565b85548884018501529485019487945091830191612246565b91505061223194506020925060ff191682840152151560051b8201013880612223565b60005b8381106122ac5750506000910152565b818101518382015260200161229c565b906020916122d581518092818552858086019101612299565b601f01601f1916010190565b90600a8210156122ee5752565b634e487b7160e01b600052602160045260246000fd5b600435906001600160a01b038216820361216457565b9181601f84011215612164578235916001600160401b038311612164576020838186019501011161216457565b60609060031901126121645760043590602435906044356001600160a01b03811681036121645790565b90815180825260208080930193019160005b828110612391575050505090565b835185529381019392810192600101612383565b6000546001600160a01b031633036123b957565b60405163118cdaa760e01b8152336004820152602490fd5b6002600154146123e2576002600155565b604051633ee5aeb560e01b8152600490fd5b90816020910312612164575180151581036121645790565b9190820391821161241957565b634e487b7160e01b600052601160045260246000fd5b9190820180921161241957565b60001981146124195760010190565b8115612455570490565b634e487b7160e01b600052601260045260246000fd5b603c420480156124d45760001981019081116124195760025481146124d45760005b600a81106124c15750806002557f6fbfbccdd0d107860c9bccfa723d97eba4f37886edeb01e7a438b1e0fe44e056600080a2565b806116886124cf92846124d7565b61248d565b50565b6000818152600660205260408120838252602052604081209060018060a01b03825416156125a6576005820190815460ff8160101c1661259457506004830154906101f4908183029183830414831517156113d35750926020926125736006936125686127107f67a59239176edc6000958291e1c679afd7b3e13a274c758a1fb33d8587d5e7089804600a5461242f565b600a55600b5461240c565b600b55805461ff0019166101001790554260088201550154604051908152a3565b61ff0019166101001790915550505050565b50600501805461ff0019166101001790555050565b6001600160401b0381116105615760051b60200190565b80518210156125e65760209160051b010190565b634e487b7160e01b600052603260045260246000fd5b91600090838252602090600682526040918284208585528152828420948685526007825283852081865282528385209260018060a01b031692838652825260ff8486205416156126bf5784959660ff955260088252838620908652815282852091855252822054166126ba5760ff600583015460081c16156126ba5760068201549182156126b45760040154906101f4908183029183830414831517156113d357506126b19291612710610e5992049061240c565b90565b50905090565b905090565b5050505091505090565b906126d3826125bb565b6126e060405191826121d2565b82815280926126f1601f19916125bb565b019060203691013756fea26469706673582212203dad9e0989ae001b799ac205f9eeaa911b2a74801b312b7f755f3cc4e127bbdc64736f6c63430008140033",
  "linkReferences": {},
  "deployedLinkReferences": {}
}