{
  "_format": "hh-sol-artifact-1",
  "contractName": "ADSDemo",
  "sourceName": "contracts/ADSDemo.sol",
  "abi": [
    {
      "inputs": [
        {
          "internalType": "address",
          "name": "_wldToken",
          "type": "address"
        },
        {
          "internalType": "address",
          "name": "_permit2",
          "type": "address"
        },
        {
          "internalType": "address",
          "name": "_worldId",
          "type": "address"
        },
        {
          "internalType": "string",
          "name": "_appId",
          "type": "string"
        },
        {
          "internalType": "string",
          "name": "_action",
          "type": "string"
        }
      ],
      "stateMutability": "nonpayable",
      "type": "constructor"
    },
    {
      "inputs": [],
      "name": "AdWasRemoved",
      "type": "error"
    },
    {
      "inputs": [],
      "name": "AdvertiserIsBanned",
      "type": "error"
    },
    {
      "inputs": [],
      "name": "AlreadyClaimed",
      "type": "error"
    },
    {
      "inputs": [],
      "name": "AlreadyClicked",
      "type": "error"
    },
    {
      "inputs": [],
      "name": "AlreadyFinalized",
      "type": "error"
    },
    {
      "inputs": [],
      "name": "AlreadyRegistered",
      "type": "error"
    },
    {
      "inputs": [],
      "name": "ClaimDeadlineNotPassed",
      "type": "error"
    },
    {
      "inputs": [],
      "name": "ClaimDeadlinePassed",
      "type": "error"
    },
    {
      "inputs": [],
      "name": "InvalidAmount",
      "type": "error"
    },
    {
      "inputs": [],
      "name": "InvalidCycle",
      "type": "error"
    },
    {
      "inputs": [],
      "name": "InvalidSlot",
      "type": "error"
    },
    {
      "inputs": [],
      "name": "NoClickRecorded",
      "type": "error"
    },
    {
      "inputs": [],
      "name": "NotAdvertiser",
      "type": "error"
    },
    {
      "inputs": [],
      "name": "NotAuthorized",
      "type": "error"
    },
    {
      "inputs": [],
      "name": "NotFinalized",
      "type": "error"
    },
    {
      "inputs": [],
      "name": "NotRegistered",
      "type": "error"
    },
    {
      "inputs": [
        {
          "internalType": "address",
          "name": "owner",
          "type": "address"
        }
      ],
      "name": "OwnableInvalidOwner",
      "type": "error"
    },
    {
      "inputs": [
        {
          "internalType": "address",
          "name": "account",
          "type": "address"
        }
      ],
      "name": "OwnableUnauthorizedAccount",
      "type": "error"
    },
    {
      "inputs": [],
      "name": "ReentrancyGuardReentrantCall",
      "type": "error"
    },
    {
      "inputs": [],
      "name": "SignatureAlreadyUsed",
      "type": "error"
    },
    {
      "inputs": [],
      "name": "TransferFailed",
      "type": "error"
    },
    {
      "anonymous": false,
      "inputs": [
        {
          "indexed": true,
          "internalType": "address",
          "name": "advertiser",
          "type": "address"
        },
        {
          "indexed": true,
          "internalType": "uint256",
          "name": "cycle",
          "type": "uint256"
        },
        {
          "indexed": true,
          "internalType": "uint256",
          "name": "slotIndex",
          "type": "uint256"
        },
        {
          "indexed": false,
          "internalType": "uint256",
          "name": "bidAmount",
          "type": "uint256"
        }
      ],
      "name": "AdBidPlaced",
      "type": "event"
    },
    {
      "anonymous": false,
      "inputs": [
        {
          "indexed": true,
          "internalType": "address",
          "name": "advertiser",
          "type": "address"
        },
        {
          "indexed": true,
          "internalType": "uint256",
          "name": "cycle",
          "type": "uint256"
        },
        {
          "indexed": true,
          "internalType": "uint256",
          "name": "slotIndex",
          "type": "uint256"
        }
      ],
      "name": "AdRemoved",
      "type": "event"
    },
    {
      "anonymous": false,
      "inputs": [
        {
          "indexed": true,
          "internalType": "uint256",
          "name": "cycle",
          "type": "uint256"
        },
        {
          "indexed": true,
          "internalType": "uint256",
          "name": "slotIndex",
          "type": "uint256"
        },
        {
          "indexed": false,
          "internalType": "uint256",
          "name": "totalClicks",
          "type": "uint256"
        }
      ],
      "name": "AdSlotFinalized",
      "type": "event"
    },
    {
      "anonymous": false,
      "inputs": [
        {
          "indexed": true,
          "internalType": "address",
          "name": "advertiser",
          "type": "address"
        }
      ],
      "name": "AdvertiserBanned",
      "type": "event"
    },
    {
      "anonymous": false,
      "inputs": [
        {
          "indexed": true,
          "internalType": "address",
          "name": "advertiser",
          "type": "address"
        }
      ],
      "name": "AdvertiserUnbanned",
      "type": "event"
    },
    {
      "anonymous": false,
      "inputs": [
        {
          "indexed": true,
          "internalType": "address",
          "name": "user",
          "type": "address"
        },
        {
          "indexed": true,
          "internalType": "uint256",
          "name": "cycle",
          "type": "uint256"
        },
        {
          "indexed": true,
          "internalType": "uint256",
          "name": "slotIndex",
          "type": "uint256"
        }
      ],
      "name": "ClickRecorded",
      "type": "event"
    },
    {
      "anonymous": false,
      "inputs": [
        {
          "indexed": true,
          "internalType": "uint256",
          "name": "cycle",
          "type": "uint256"
        }
      ],
      "name": "CycleFinalized",
      "type": "event"
    },
    {
      "anonymous": false,
      "inputs": [
        {
          "indexed": true,
          "internalType": "uint256",
          "name": "cycle",
          "type": "uint256"
        },
        {
          "indexed": true,
          "internalType": "uint256",
          "name": "slotIndex",
          "type": "uint256"
        },
        {
          "indexed": false,
          "internalType": "uint256",
          "name": "amount",
          "type": "uint256"
        }
      ],
      "name": "ExpiredClaimCollected",
      "type": "event"
    },
    {
      "anonymous": false,
      "inputs": [
        {
          "indexed": true,
          "internalType": "address",
          "name": "recipient",
          "type": "address"
        },
        {
          "indexed": false,
          "internalType": "uint256",
          "name": "amount",
          "type": "uint256"
        }
      ],
      "name": "FeesWithdrawn",
      "type": "event"
    },
    {
      "anonymous": false,
      "inputs": [
        {
          "indexed": true,
          "internalType": "address",
          "name": "previousOwner",
          "type": "address"
        },
        {
          "indexed": true,
          "internalType": "address",
          "name": "newOwner",
          "type": "address"
        }
      ],
      "name": "OwnershipTransferred",
      "type": "event"
    },
    {
      "anonymous": false,
      "inputs": [
        {
          "indexed": true,
          "internalType": "address",
          "name": "user",
          "type": "address"
        },
        {
          "indexed": true,
          "internalType": "uint256",
          "name": "cycle",
          "type": "uint256"
        },
        {
          "indexed": true,
          "internalType": "uint256",
          "name": "slotIndex",
          "type": "uint256"
        },
        {
          "indexed": false,
          "internalType": "uint256",
          "name": "amount",
          "type": "uint256"
        }
      ],
      "name": "RewardClaimed",
      "type": "event"
    },
    {
      "anonymous": false,
      "inputs": [
        {
          "indexed": true,
          "internalType": "address",
          "name": "user",
          "type": "address"
        }
      ],
      "name": "UserRegistered",
      "type": "event"
    },
    {
      "inputs": [],
      "name": "AD_SLOTS_PER_CYCLE",
      "outputs": [
        {
          "internalType": "uint256",
          "name": "",
          "type": "uint256"
        }
      ],
      "stateMutability": "view",
      "type": "function"
    },
    {
      "inputs": [],
      "name": "CLAIM_DEADLINE",
      "outputs": [
        {
          "internalType": "uint256",
          "name": "",
          "type": "uint256"
        }
      ],
      "stateMutability": "view",
      "type": "function"
    },
    {
      "inputs": [],
      "name": "PLATFORM_FEE_BPS",
      "outputs": [
        {
          "internalType": "uint256",
          "name": "",
          "type": "uint256"
        }
      ],
      "stateMutability": "view",
      "type": "function"
    },
    {
      "inputs": [],
      "name": "WLD",
      "outputs": [
        {
          "internalType": "contract IERC20",
          "name": "",
          "type": "address"
        }
      ],
      "stateMutability": "view",
      "type": "function"
    },
    {
      "inputs": [],
      "name": "accumulatedFees",
      "outputs": [
        {
          "internalType": "uint256",
          "name": "",
          "type": "uint256"
        }
      ],
      "stateMutability": "view",
      "type": "function"
    },
    {
      "inputs": [
        {
          "internalType": "uint256",
          "name": "",
          "type": "uint256"
        },
        {
          "internalType": "uint256",
          "name": "",
          "type": "uint256"
        }
      ],
      "name": "adSlots",
      "outputs": [
        {
          "internalType": "address",
          "name": "advertiser",
          "type": "address"
        },
        {
          "internalType": "string",
          "name": "name",
          "type": "string"
        },
        {
          "internalType": "string",
          "name": "description",
          "type": "string"
        },
        {
          "internalType": "string",
          "name": "imageUrl",
          "type": "string"
        },
        {
          "internalType": "uint256",
          "name": "bidAmount",
          "type": "uint256"
        },
        {
          "internalType": "bool",
          "name": "finalized",
          "type": "bool"
        },
        {
          "internalType": "bool",
          "name": "removed",
          "type": "bool"
        },
        {
          "internalType": "uint256",
          "name": "totalClicks",
          "type": "uint256"
        },
        {
          "internalType": "uint256",
          "name": "claimedAmount",
          "type": "uint256"
        },
        {
          "internalType": "uint256",
          "name": "finalizedAt",
          "type": "uint256"
        }
      ],
      "stateMutability": "view",
      "type": "function"
    },
    {
      "inputs": [
        {
          "internalType": "address",
          "name": "signer",
          "type": "address"
        }
      ],
      "name": "addAuthorizedSigner",
      "outputs": [],
      "stateMutability": "nonpayable",
      "type": "function"
    },
    {
      "inputs": [
        {
          "internalType": "address",
          "name": "",
          "type": "address"
        }
      ],
      "name": "authorizedSigners",
      "outputs": [
        {
          "internalType": "bool",
          "name": "",
          "type": "bool"
        }
      ],
      "stateMutability": "view",
      "type": "function"
    },
    {
      "inputs": [
        {
          "internalType": "address",
          "name": "advertiser",
          "type": "address"
        }
      ],
      "name": "banAdvertiser",
      "outputs": [],
      "stateMutability": "nonpayable",
      "type": "function"
    },
    {
      "inputs": [
        {
          "internalType": "address",
          "name": "",
          "type": "address"
        }
      ],
      "name": "bannedAdvertisers",
      "outputs": [
        {
          "internalType": "bool",
          "name": "",
          "type": "bool"
        }
      ],
      "stateMutability": "view",
      "type": "function"
    },
    {
      "inputs": [
        {
          "internalType": "uint256",
          "name": "cycle",
          "type": "uint256"
        },
        {
          "internalType": "uint256",
          "name": "slotIndex",
          "type": "uint256"
        },
        {
          "internalType": "address",
          "name": "user",
          "type": "address"
        }
      ],
      "name": "calculateUserReward",
      "outputs": [
        {
          "internalType": "uint256",
          "name": "",
          "type": "uint256"
        }
      ],
      "stateMutability": "view",
      "type": "function"
    },
    {
      "inputs": [
        {
          "internalType": "uint256",
          "name": "cycle",
          "type": "uint256"
        },
        {
          "internalType": "uint256",
          "name": "slotIndex",
          "type": "uint256"
        }
      ],
      "name": "claimReward",
      "outputs": [],
      "stateMutability": "nonpayable",
      "type": "function"
    },
    {
      "inputs": [
        {
          "internalType": "uint256",
          "name": "cycle",
          "type": "uint256"
        },
        {
          "internalType": "uint256",
          "name": "slotIndex",
          "type": "uint256"
        }
      ],
      "name": "collectExpiredClaims",
      "outputs": [],
      "stateMutability": "nonpayable",
      "type": "function"
    },
    {
      "inputs": [],
      "name": "currentCycle",
      "outputs": [
        {
          "internalType": "uint256",
          "name": "",
          "type": "uint256"
        }
      ],
      "stateMutability": "view",
      "type": "function"
    },
    {
      "inputs": [],
      "name": "getCurrentAds",
      "outputs": [
        {
          "components": [
            {
              "internalType": "address",
              "name": "advertiser",
              "type": "address"
            },
            {
              "internalType": "string",
              "name": "name",
              "type": "string"
            },
            {
              "internalType": "string",
              "name": "description",
              "type": "string"
            },
            {
              "internalType": "string",
              "name": "imageUrl",
              "type": "string"
            },
            {
              "internalType": "uint256",
              "name": "bidAmount",
              "type": "uint256"
            },
            {
              "internalType": "bool",
              "name": "finalized",
              "type": "bool"
            },
            {
              "internalType": "bool",
              "name": "removed",
              "type": "bool"
            },
            {
              "internalType": "uint256",
              "name": "totalClicks",
              "type": "uint256"
            },
            {
              "internalType": "uint256",
              "name": "claimedAmount",
              "type": "uint256"
            },
            {
              "internalType": "uint256",
              "name": "finalizedAt",
              "type": "uint256"
            }
          ],
          "internalType": "struct ADSDemo.AdSlot[]",
          "name": "",
          "type": "tuple[]"
        }
      ],
      "stateMutability": "view",
      "type": "function"
    },
    {
      "inputs": [],
      "name": "getCurrentCycle",
      "outputs": [
        {
          "internalType": "uint256",
          "name": "",
          "type": "uint256"
        }
      ],
      "stateMutability": "view",
      "type": "function"
    },
    {
      "inputs": [
        {
          "internalType": "address",
          "name": "user",
          "type": "address"
        }
      ],
      "name": "getUserClaimableRewards",
      "outputs": [
        {
          "internalType": "uint256[]",
          "name": "cycles",
          "type": "uint256[]"
        },
        {
          "internalType": "uint256[]",
          "name": "slots",
          "type": "uint256[]"
        },
        {
          "internalType": "uint256[]",
          "name": "amounts",
          "type": "uint256[]"
        }
      ],
      "stateMutability": "view",
      "type": "function"
    },
    {
      "inputs": [
        {
          "internalType": "uint256",
          "name": "",
          "type": "uint256"
        },
        {
          "internalType": "uint256",
          "name": "",
          "type": "uint256"
        },
        {
          "internalType": "address",
          "name": "",
          "type": "address"
        }
      ],
      "name": "hasClaimed",
      "outputs": [
        {
          "internalType": "bool",
          "name": "",
          "type": "bool"
        }
      ],
      "stateMutability": "view",
      "type": "function"
    },
    {
      "inputs": [
        {
          "internalType": "uint256",
          "name": "",
          "type": "uint256"
        },
        {
          "internalType": "uint256",
          "name": "",
          "type": "uint256"
        },
        {
          "internalType": "address",
          "name": "",
          "type": "address"
        }
      ],
      "name": "hasClicked",
      "outputs": [
        {
          "internalType": "bool",
          "name": "",
          "type": "bool"
        }
      ],
      "stateMutability": "view",
      "type": "function"
    },
    {
      "inputs": [],
      "name": "lastFinalizedCycle",
      "outputs": [
        {
          "internalType": "uint256",
          "name": "",
          "type": "uint256"
        }
      ],
      "stateMutability": "view",
      "type": "function"
    },
    {
      "inputs": [],
      "name": "lockedFunds",
      "outputs": [
        {
          "internalType": "uint256",
          "name": "",
          "type": "uint256"
        }
      ],
      "stateMutability": "view",
      "type": "function"
    },
    {
      "inputs": [],
      "name": "owner",
      "outputs": [
        {
          "internalType": "address",
          "name": "",
          "type": "address"
        }
      ],
      "stateMutability": "view",
      "type": "function"
    },
    {
      "inputs": [],
      "name": "permit2",
      "outputs": [
        {
          "internalType": "contract IPermit2",
          "name": "",
          "type": "address"
        }
      ],
      "stateMutability": "view",
      "type": "function"
    },
    {
      "inputs": [
        {
          "internalType": "uint256",
          "name": "cycle",
          "type": "uint256"
        },
        {
          "internalType": "uint256",
          "name": "slotIndex",
          "type": "uint256"
        },
        {
          "internalType": "string",
          "name": "name",
          "type": "string"
        },
        {
          "internalType": "string",
          "name": "description",
          "type": "string"
        },
        {
          "internalType": "string",
          "name": "imageUrl",
          "type": "string"
        },
        {
          "internalType": "uint256",
          "name": "bidAmount",
          "type": "uint256"
        },
        {
          "components": [
            {
              "components": [
                {
                  "internalType": "address",
                  "name": "token",
                  "type": "address"
                },
                {
                  "internalType": "uint256",
                  "name": "amount",
                  "type": "uint256"
                }
              ],
              "internalType": "struct IPermit2.TokenPermissions",
              "name": "permitted",
              "type": "tuple"
            },
            {
              "internalType": "uint256",
              "name": "nonce",
              "type": "uint256"
            },
            {
              "internalType": "uint256",
              "name": "deadline",
              "type": "uint256"
            }
          ],
          "internalType": "struct IPermit2.PermitTransferFrom",
          "name": "permit",
          "type": "tuple"
        },
        {
          "internalType": "bytes",
          "name": "signature",
          "type": "bytes"
        }
      ],
      "name": "placeAdBid",
      "outputs": [],
      "stateMutability": "nonpayable",
      "type": "function"
    },
    {
      "inputs": [],
      "name": "progressCycle",
      "outputs": [],
      "stateMutability": "nonpayable",
      "type": "function"
    },
    {
      "inputs": [
        {
          "internalType": "uint256",
          "name": "cycle",
          "type": "uint256"
        },
        {
          "internalType": "uint256",
          "name": "slotIndex",
          "type": "uint256"
        },
        {
          "internalType": "uint256",
          "name": "nonce",
          "type": "uint256"
        },
        {
          "internalType": "uint256",
          "name": "timestamp",
          "type": "uint256"
        },
        {
          "internalType": "bytes",
          "name": "signature",
          "type": "bytes"
        }
      ],
      "name": "recordClick",
      "outputs": [],
      "stateMutability": "nonpayable",
      "type": "function"
    },
    {
      "inputs": [
        {
          "internalType": "address",
          "name": "signal",
          "type": "address"
        },
        {
          "internalType": "uint256",
          "name": "root",
          "type": "uint256"
        },
        {
          "internalType": "uint256",
          "name": "nullifierHash",
          "type": "uint256"
        },
        {
          "internalType": "uint256[8]",
          "name": "proof",
          "type": "uint256[8]"
        }
      ],
      "name": "register",
      "outputs": [],
      "stateMutability": "nonpayable",
      "type": "function"
    },
    {
      "inputs": [
        {
          "internalType": "address",
          "name": "",
          "type": "address"
        }
      ],
      "name": "registered",
      "outputs": [
        {
          "internalType": "bool",
          "name": "",
          "type": "bool"
        }
      ],
      "stateMutability": "view",
      "type": "function"
    },
    {
      "inputs": [
        {
          "internalType": "uint256",
          "name": "cycle",
          "type": "uint256"
        },
        {
          "internalType": "uint256",
          "name": "slotIndex",
          "type": "uint256"
        }
      ],
      "name": "removeAd",
      "outputs": [],
      "stateMutability": "nonpayable",
      "type": "function"
    },
    {
      "inputs": [
        {
          "internalType": "address",
          "name": "signer",
          "type": "address"
        }
      ],
      "name": "removeAuthorizedSigner",
      "outputs": [],
      "stateMutability": "nonpayable",
      "type": "function"
    },
    {
      "inputs": [],
      "name": "renounceOwnership",
      "outputs": [],
      "stateMutability": "nonpayable",
      "type": "function"
    },
    {
      "inputs": [
        {
          "internalType": "address",
          "name": "newOwner",
          "type": "address"
        }
      ],
      "name": "transferOwnership",
      "outputs": [],
      "stateMutability": "nonpayable",
      "type": "function"
    },
    {
      "inputs": [
        {
          "internalType": "address",
          "name": "advertiser",
          "type": "address"
        }
      ],
      "name": "unbanAdvertiser",
      "outputs": [],
      "stateMutability": "nonpayable",
      "type": "function"
    },
    {
      "inputs": [
        {
          "internalType": "bytes32",
          "name": "",
          "type": "bytes32"
        }
      ],
      "name": "usedSignatures",
      "outputs": [
        {
          "internalType": "bool",
          "name": "",
          "type": "bool"
        }
      ],
      "stateMutability": "view",
      "type": "function"
    },
    {
      "inputs": [],
      "name": "withdrawFees",
      "outputs": [],
      "stateMutability": "nonpayable",
      "type": "function"
    },
    {
      "inputs": [],
      "name": "worldId",
      "outputs": [
        {
          "internalType": "contract IWorldID",
          "name": "",
          "type": "address"
        }
      ],
      "stateMutability": "view",
      "type": "function"
    }
  ],
  "bytecode": "0x6101206040818152346200020557620027bc80380380916200002282866200020a565b8439820160a08382031262000205576200003c8362000244565b926020906200004d82820162000244565b6200005a85830162000244565b60608301516001600160401b039591939190868111620002055781620000829184016200027e565b95608083015190811162000205576200009c92016200027e565b933315620001ed5760008054336001600160a01b0319821681178355885189979690958795879590946001600160a01b039485939290918416907f8be0079c531659141344cd1fd0a4f28419497f9722a3daafe3b4186f6b6457e09080a360018055816101009d60018f52166080521660a0521660c0528051908184808501920191620001299262000259565b810103808352016200013c90826200020a565b6200014790620002d9565b8251938491838301528051908184868501920191620001669262000259565b8101039081018352016200017b90826200020a565b6200018690620002d9565b60e052516124ab9182620003118339608051828181610c8001528181610d64015281816112690152818161146f01528181611ba10152611ddd015260a051828181610715015281816107db0152611c9e015260c0518261158c015260e05182505051815050f35b8551631e4fbdf760e01b815260006004820152602490fd5b600080fd5b601f909101601f19168101906001600160401b038211908210176200022e57604052565b634e487b7160e01b600052604160045260246000fd5b51906001600160a01b03821682036200020557565b60005b8381106200026d5750506000910152565b81810151838201526020016200025c565b81601f82011215620002055780516001600160401b0381116200022e5760405192620002b5601f8301601f1916602001856200020a565b818452602082840101116200020557620002d6916020808501910162000259565b90565b6040516200030760208281620002f9818301968781519384920162000259565b81010380845201826200020a565b51902060081c9056fe6080604052600436101561001257600080fd5b600060e08135811c908163035169a414611e865781631012be0d14611d0c57816311637f2214611ccd57816312261ee714611c885781631f50fec914611c6657816339aca32914611c4a57816342f8158014611c2c578163476343ee14611b435781634d63a47514611aff5781635240eb3214611abb578163539aa77f14611a9e578163587f5ed714611a805781635d2b6a4e14611a41578163646e200b1461179057816369547f2d1461174c5781636ecdf6061461172e578163715018a6146116d457816371b3fb9a1461162157816374331428146115bb578163753e9ef01461157657816386bb8f371461130a5781638da5cb5b146112e357816397090dc814611182578163b2dd5c0714611143578163b7c32bf014610ece578163b8afaa4814610eb0578163bab2f55214610e92578163be26ed7f14610e92578163c0ae614614610e29578163cc6cd25e14610d93578163de061d6614610d4e578163e26f58be146105dc578163e7c21a3e146102ae57508063f2fde38b1461021e578063f62a4edb146101dd5763f978fd61146101ac57600080fd5b346101da5760203660031901126101da5760ff60406020926004358152600a84522054166040519015158152f35b80fd5b50346101da5760203660031901126101da576101f76120df565b6101ff612180565b6001600160a01b03168152600660205260408120805460ff1916905580f35b50346101da5760203660031901126101da576102386120df565b610240612180565b6001600160a01b0390811690811561029557600054826bffffffffffffffffffffffff60a01b821617600055167f8be0079c531659141344cd1fd0a4f28419497f9722a3daafe3b4186f6b6457e0600080a380f35b604051631e4fbdf760e01b815260048101849052602490fd5b9050346105d85760a03660031901126105d857600435602435916084356001600160401b03908181116105d4576102e9903690600401612153565b926102f26121ac565b3387526020916004835260ff918260408a205416156105c2576002548710156105b057600388101561059e578689526007845260408920888a5284526040892094600586015484811661058c5760081c841661057a57878a526008855260408a20898b52855260408a20336000528552836040600020541661056857604051908582013360601b81528960348401528a6054840152604435607484015260643560948401526094835260c08301928084108385111761055257610120918460405281519020948101947f19457468657265756d205369676e6564204d6573736167653a0a333200000000865260fc820152603c84520190828210908211176105525760405251902094858952600a84528260408a205416610540576041036104fb57876080849283604051918983526040810135851a82840152803560408401520135606082015282805260015afa156104f05786516001600160a01b0316875260068252604087205416156104de576006928652600a8152604086209060ff199160018382541617905584875260088152604087208688528152604087209033600052526001604060002091825416179055016104b08154612217565b9055337fdf68871eff37c21a2d5f5f4714defb013c53c6aa48ebe6eff29ca11e065191278480a46001805580f35b60405163ea8e4eb560e01b8152600490fd5b6040513d88823e3d90fd5b60405162461bcd60e51b815260048101849052601860248201527f496e76616c6964207369676e6174757265206c656e67746800000000000000006044820152606490fd5b60405163900bb2c960e01b8152600490fd5b634e487b7160e01b600052604160045260246000fd5b60405163e02cd2cb60e01b8152600490fd5b604051631bb428a960e21b8152600490fd5b60405163475a253560e01b8152600490fd5b604051631258e44360e01b8152600490fd5b604051634dc7f5ff60e11b8152600490fd5b60405163aba4733960e01b8152600490fd5b8580fd5b5080fd5b82346101da576101603660031901126101da576044356001600160401b0381116105d85761060e903690600401612153565b91906064356001600160401b038111610d4a5761062f903690600401612153565b6084356001600160401b038111610d465761064e903690600401612153565b929095608060c3193601126105d457610144356001600160401b038111610d425761067d903690600401612153565b95906106876121ac565b338852600560205260ff604089205416610d3057600254600435036105b0576003602435101561059e5760043588526007602052604088206024358952602052604088209660018060a01b0388541680151580610d23575b610c49575b50604051918260408101106001600160401b03604085011117610c35576040838101905230835260a43560208401527f00000000000000000000000000000000000000000000000000000000000000006001600160a01b03163b15610c315760405163187945bd60e11b81529260c4356001600160a01b0381168103610c2d57838086948e9661012495879560018060a01b0316600487015260e4356024870152602061010491823560448901528835606489015260018060a01b038151166084890152015160a48701523360c487015261010060e4870152850152848401378181018301859052601f01601f19168101030181837f00000000000000000000000000000000000000000000000000000000000000006001600160a01b03165af18015610c2257610bf3575b5085546001600160a01b031916331786556001600160401b038211610bdf57819061083e6001880154611f82565b601f8111610b8f575b508790601f8311600114610b23578892610b18575b50508160011b916000199060031b1c19161760018501555b6001600160401b038211610b045781906108916002860154611f82565b601f8111610ab4575b508590601f8311600114610a48578692610a3d575b50508160011b916000199060031b1c19161760028301555b6001600160401b038111610a29576108e26003830154611f82565b601f81116109e5575b5082601f821160011461097c57839482939492610971575b50508160011b916000199060031b1c19161760038201555b600460a43591015561093160a435600c5461220a565b600c5560405160a435815260243590600435907f9b078a1e54e0268aaf952de1cc5bbb050d90f14e2ba254958290a3d961f832c960203392a46001805580f35b013590508480610903565b601f198216946003840185526020852091855b8781106109cd5750836001959697106109b3575b505050811b01600382015561091b565b0135600019600384901b60f8161c191690558480806109a3565b9092602060018192868601358155019401910161098f565b60038301845260208420601f830160051c810160208410610a22575b601f830160051c82018110610a175750506108eb565b858155600101610a01565b5080610a01565b634e487b7160e01b83526041600452602483fd5b0135905086806108af565b60028601875260208720879450915b601f1984168510610a9c576001945083601f19811610610a82575b505050811b0160028301556108c7565b0135600019600384901b60f8161c19169055868080610a72565b81810135835560209485019460019093019201610a57565b90915060028501865260208620601f840160051c810160208510610afd575b90849392915b601f830160051c82018110610aef57505061089a565b888155859450600101610ad9565b5080610ad3565b634e487b7160e01b85526041600452602485fd5b01359050888061085c565b60018801895260208920899450915b601f1984168510610b77576001945083601f19811610610b5d575b505050811b016001850155610874565b0135600019600384901b60f8161c19169055888080610b4d565b81810135835560209485019460019093019201610b32565b90915060018701885260208820601f840160051c810160208510610bd8575b90849392915b601f830160051c82018110610bca575050610847565b8a8155859450600101610bb4565b5080610bae565b634e487b7160e01b87526041600452602487fd5b6001600160401b038198929811610c0e576040529588610810565b634e487b7160e01b82526041600452602482fd5b6040513d8a823e3d90fd5b8b80fd5b8980fd5b634e487b7160e01b8a52604160045260248afd5b60048981015460405163a9059cbb60e01b81526001600160a01b03909316918301919091526024820152602081806044810103818d7f00000000000000000000000000000000000000000000000000000000000000006001600160a01b03165af1908115610d18578a91610ce9575b5015610cd757610cce6004890154600c546121e7565b600c558a6106e4565b6040516312171d8360e31b8152600490fd5b610d0b915060203d602011610d11575b610d038183611fd8565b8101906121cf565b8b610cb8565b503d610cf9565b6040513d8c823e3d90fd5b50600489015415156106df565b60405163299aa0a160e21b8152600490fd5b8680fd5b8480fd5b8280fd5b82346101da57806003193601126101da576040517f00000000000000000000000000000000000000000000000000000000000000006001600160a01b03168152602090f35b82346101da576101603660031901126101da57610dae6120df565b5036610164116101da57610dc06121ac565b338152600460205260ff604082205416610e175733808252600460205260408220805460ff191660011790557f54db7a5cb4735e1aac1f53db512d3390390bb6637bd30ad4bf9fc98667d9b9b98280a26001805580f35b604051630ea075bf60e21b8152600490fd5b82346101da5760203660031901126101da57610e436120df565b610e4b612180565b6001600160a01b0316808252600560205260408220805460ff191660011790557f97b051fe48e86c08fca96c9bbe846678783b6999358e6d4efbaf9e40ca59b6a78280a280f35b82346101da57806003193601126101da576020600254604051908152f35b82346101da57806003193601126101da576020600c54604051908152f35b82346101da57806003193601126101da576040516080908181018181106001600160401b0382111761112f57604052600390818152835b606080821015610f625760405160209291610f1f82611fbc565b878252839080828401528060408401528083015287878301528760a08301528760c083015287898301528761010083015287610120830152828501015201610f05565b505091929081906002908154925b818110611062575050505060405192602080850191818652845180935260408601908260408560051b890101960194975b848910610fae5787870388f35b9091929394958480600192603f198b8203018752895190848060a01b038251168152611012610fff610fed85850151610140808887015285019061209f565b6040850151848203604086015261209f565b606080850151908483039085015261209f565b91878101518883015260a08082015115159083015260c080820151151590830152868101518783015261010080820151908301526101208091015191015298019401980197919094939294610fa1565b611127908486989652600760209080825260408a20838b52825260408a206040519261108d84611fbc565b81546001600160a01b031684526110a660018301611ff9565b908401526110b5878201611ff9565b60408401526110c5868201611ff9565b606084015260048101548984015260058101549160ff808416151560a0860152600893841c16151560c085015260068201548d8501528101546101008401520154610120820152611116828961234f565b52611121818861234f565b50612217565b959395610f70565b634e487b7160e01b84526041600452602484fd5b82346101da5760203660031901126101da5760209060ff906040906001600160a01b0361116e6120df565b168152600484522054166040519015158152f35b82346101da5761119136611f67565b9061119a6121ac565b600382101561059e578083526007602052604083208284526020526040832060018060a01b038082541633036112d157600582019182549060ff821661058c57869361010060049361ff001916179055019081549081611225575b50505050337f2ddf52ad696f7475d5e714ce5c8c1c4e9b93814e40d3f4c5ab845cb2bc0579ac8480a46001805580f35b60209261123761126593600c546121e7565b600c555460405163a9059cbb60e01b8152336004820152602481019190915293849283919082906044820190565b03927f0000000000000000000000000000000000000000000000000000000000000000165af19081156112c65784916112a8575b5015610cd757828480806111f5565b6112c0915060203d8111610d1157610d038183611fd8565b84611299565b6040513d86823e3d90fd5b604051632211114160e11b8152600490fd5b82346101da57806003193601126101da57546040516001600160a01b039091168152602090f35b82346101da5761131936611f67565b906113226121ac565b33835260206004815260ff604085205416156105c257600383101561059e57818452600781526040842083855281526040842090600582015460ff8116156115645760081c60ff1661057a578285526008815260408520848652815260408520338652815260ff60408620541615611552578285526009815260408520848652815260408520338652815260ff60408620541661154057600882015462127500810180911161152c57421161151a57600682015480156115085760048301546101f48082029082820414821517156114f4579161140961140e9261271060079504906121e7565b612226565b928487526009835260408720868852835260408720338852835260408720600160ff198254161790550161144383825461220a565b905560405163a9059cbb60e01b8152336004820152602481018390528181604481896001600160a01b037f0000000000000000000000000000000000000000000000000000000000000000165af19081156104f05786916114d7575b5015610cd7577f812be816db82c66cd18ca8457005cd84689642d8ac4d38599cc6af444a2dc72a906040519283523392a46001805580f35b6114ee9150823d8411610d1157610d038183611fd8565b8661149f565b634e487b7160e01b88526011600452602488fd5b60405163162908e360e11b8152600490fd5b60405163320c7b7d60e21b8152600490fd5b634e487b7160e01b86526011600452602486fd5b604051630c8d9eab60e31b8152600490fd5b6040516301327deb60e01b8152600490fd5b604051630df706ad60e11b8152600490fd5b82346101da57806003193601126101da576040517f00000000000000000000000000000000000000000000000000000000000000006001600160a01b03168152602090f35b82346101da5760203660031901126101da576115d56120df565b6115dd612180565b6001600160a01b0316808252600560205260408220805460ff191690557f2a2f5e02b0e6aab2b998dbcae41aec9407649a38bd8d41b7b49bedee8cdeaf2e8280a280f35b82346101da57806003193601126101da5761163a6121ac565b600254600380548083119081156116ba575b5061168c575b5061165e600254612217565b6002557f6fbfbccdd0d107860c9bccfa723d97eba4f37886edeb01e7a438b1e0fe44e0568280a26001805580f35b8190835b81811061169f57505582611652565b6116ad816116b29394612246565b612217565b908291611690565b83159150816116cb575b508461164c565b905015846116c4565b82346101da57806003193601126101da576116ed612180565b80546001600160a01b03198116825581906001600160a01b03167f8be0079c531659141344cd1fd0a4f28419497f9722a3daafe3b4186f6b6457e08280a380f35b82346101da57806003193601126101da576020600354604051908152f35b82346101da5760ff6040602092611762366120f5565b9183526009865283832090835285528282206001600160a01b03909116825284522054604051911615158152f35b82346101da57602090816003193601126101da576117ac6120df565b906002549160039283810293818504811482151715611a2d576117d185939293612443565b926117e46117de87612443565b96612443565b85939092906001600160a01b0316845b838111156118b6575050505061180982612443565b9461181383612443565b9361181d84612443565b955b8481106118665761184788611862896118548d8b60405196879660608852606088019061211f565b918683039087015261211f565b90838203604085015261211f565b0390f35b806118746118b1928461234f565b5161187f828b61234f565b5261188a818561234f565b51611895828961234f565b526118a0818661234f565b516118ab828a61234f565b52612217565b61181f565b875b8381106118ce57506118c990612217565b6117f4565b81895260078b5260408920818a528b5260408920828a528b600880825260408c20848d52825260408c20868d52825260ff8c816040822054169384611a01575b5050826119f3575b50816119c4575b50806119b7575b611938575b5061193390612217565b6118b8565b60048198929801546101f48082029082820414821517156119a35789611991858f888f958361198561199c9a600661197c6119339e9c61271061198b9704906121e7565b91015490612226565b9761234f565b5261234f565b526118ab828a61234f565b9690611929565b634e487b7160e01b8c52601160045260248cfd5b5060068101541515611924565b90508101546212750081018091116119df574211158d61191d565b634e487b7160e01b8b52601160045260248bfd5b60058401541691508e611916565b909193508682526009815260408220868352815287604083209252528160408d20541615918c8f61190e565b634e487b7160e01b84526011600452602484fd5b82346101da5760203660031901126101da5760209060ff906040906001600160a01b03611a6c6120df565b168152600684522054166040519015158152f35b82346101da57806003193601126101da576020600b54604051908152f35b82346101da57806003193601126101da5760206040516101f48152f35b82346101da5760203660031901126101da57611ad56120df565b611add612180565b6001600160a01b03168152600660205260408120805460ff1916600117905580f35b82346101da5760ff6040602092611b15366120f5565b9183526008865283832090835285528282206001600160a01b03909116825284522054604051911615158152f35b82346101da57806003193601126101da57611b5c612180565b611b646121ac565b600b54801561150857600b829055815460405163a9059cbb60e01b81526001600160a01b03918216600482015260248101839052602081604481877f000000000000000000000000000000000000000000000000000000000000000087165af19081156112c6578491611c0e575b5015610cd75760207fc0819c13be868895eb93e40eaceb96de976442fa1d404e5c55f14bb65a8c489a9184541692604051908152a26001805580f35b611c26915060203d8111610d1157610d038183611fd8565b84611bd2565b82346101da57806003193601126101da576020604051621275008152f35b82346101da57806003193601126101da57602060405160038152f35b82346101da576020611c80611c7a366120f5565b91612379565b604051908152f35b82346101da57806003193601126101da576040517f00000000000000000000000000000000000000000000000000000000000000006001600160a01b03168152602090f35b82346101da5760203660031901126101da5760209060ff906040906001600160a01b03611cf86120df565b168152600584522054166040519015158152f35b82346101da57611d1b36611f67565b90611d246121ac565b600382101561059e57808352602060078152604084208385528152604084209060ff6005830154161561156457600882015462127500810180911161152c57421115611e745760048201546101f4808202908282041482151715611e6057600791612710611d939204906121e7565b920191611da18354826121e7565b9283156115085755845460405163a9059cbb60e01b81526001600160a01b03918216600482015260248101849052908290829060449082908a907f0000000000000000000000000000000000000000000000000000000000000000165af19081156104f0578691611e43575b5015610cd7577fcf3b62092c7f2a3455c516c177bd1970412d1c381c960d3986e3296f9dff0e7b91604051908152a36001805580f35b611e5a9150823d8411610d1157610d038183611fd8565b86611e0d565b634e487b7160e01b87526011600452602487fd5b60405163162618a960e01b8152600490fd5b82346101da57604090611e9836611f67565b9082526007602052828220908252602052209060018060a01b0382541690611ec260018401611ff9565b92611ecf60028201611ff9565b90611edc60038201611ff9565b60048201549360ff6005840154611f39600686015494611f2b6008600789015498015498611f1d6040519d8e9d8e528d61014090816020820152019061209f565b8c810360408e01529061209f565b908a820360608c015261209f565b966080890152818116151560a089015260081c16151560c08701528501526101008401526101208301520390f35b6040906003190112611f7d576004359060243590565b600080fd5b90600182811c92168015611fb2575b6020831014611f9c57565b634e487b7160e01b600052602260045260246000fd5b91607f1691611f91565b61014081019081106001600160401b0382111761055257604052565b90601f801991011681019081106001600160401b0382111761055257604052565b906040519182600082549261200d84611f82565b90818452600194858116908160001461207c5750600114612039575b505061203792500383611fd8565b565b9093915060005260209081600020936000915b81831061206457505061203793508201013880612029565b8554888401850152948501948794509183019161204c565b91505061203794506020925060ff191682840152151560051b8201013880612029565b919082519283825260005b8481106120cb575050826000602080949584010152601f8019910116010190565b6020818301810151848301820152016120aa565b600435906001600160a01b0382168203611f7d57565b6060906003190112611f7d5760043590602435906044356001600160a01b0381168103611f7d5790565b90815180825260208080930193019160005b82811061213f575050505090565b835185529381019392810192600101612131565b9181601f84011215611f7d578235916001600160401b038311611f7d5760208381860195010111611f7d57565b6000546001600160a01b0316330361219457565b60405163118cdaa760e01b8152336004820152602490fd5b6002600154146121bd576002600155565b604051633ee5aeb560e01b8152600490fd5b90816020910312611f7d57518015158103611f7d5790565b919082039182116121f457565b634e487b7160e01b600052601160045260246000fd5b919082018092116121f457565b60001981146121f45760010190565b8115612230570490565b634e487b7160e01b600052601260045260246000fd5b6000818152600760205260408120838252602052604081209060018060a01b0382541615612325576005820190815460ff8160081c1661231557506004830154906101f4908183029183830414831517156123015750926020926122e26006936122d76127107f67a59239176edc6000958291e1c679afd7b3e13a274c758a1fb33d8587d5e7089804600b5461220a565b600b55600c546121e7565b600c55805460ff191660011790554260088201550154604051908152a3565b634e487b7160e01b81526011600452602490fd5b60ff191660011790915550505050565b50600501805460ff191660011790555050565b6001600160401b0381116105525760051b60200190565b80518210156123635760209160051b010190565b634e487b7160e01b600052603260045260246000fd5b91600090838252602090600782526040918284208585528152828420948685526008825283852081865282528385209260018060a01b031692838652825260ff8486205416156124395784959660ff955260098252838620908652815282852091855252822054166124345760ff6005830154161561243457600682015491821561242e5760040154906101f490818302918383041483151715612301575061242b92916127106114099204906121e7565b90565b50905090565b905090565b5050505091505090565b9061244d82612338565b61245a6040519182611fd8565b828152809261246b601f1991612338565b019060203691013756fea2646970667358221220aa4557b073c85d5916fac4d6c754c37d30791028c7b697932793f2368506864364736f6c63430008140033",
  "linkReferences": {},
  "deployedLinkReferences": {}
}