{"contracts/ADSDemo.sol":{"ADSDemo":{"abi":[{"inputs":[{"internalType":"address","name":"_wldToken","type":"address"},{"internalType":"address","name":"_permit2","type":"address"},{"internalType":"address","name":"_worldId","type":"address"},{"internalType":"string","name":"_appId","type":"string"},{"internalType":"string","name":"_action","type":"string"}],"stateMutability":"nonpayable","type":"constructor"},{"inputs":[],"name":"AdWasRemoved","type":"error"},{"inputs":[],"name":"AdvertiserIsBanned","type":"error"},{"inputs":[],"name":"AlreadyClaimed","type":"error"},{"inputs":[],"name":"AlreadyClicked","type":"error"},{"inputs":[],"name":"AlreadyFinalized","type":"error"},{"inputs":[],"name":"AlreadyRegistered","type":"error"},{"inputs":[],"name":"ClaimDeadlineNotPassed","type":"error"},{"inputs":[],"name":"ClaimDeadlinePassed","type":"error"},{"inputs":[],"name":"InvalidAmount","type":"error"},{"inputs":[],"name":"InvalidCycle","type":"error"},{"inputs":[],"name":"InvalidSlot","type":"error"},{"inputs":[],"name":"NoClickRecorded","type":"error"},{"inputs":[],"name":"NotAdvertiser","type":"error"},{"inputs":[],"name":"NotAuthorized","type":"error"},{"inputs":[],"name":"NotFinalized","type":"error"},{"inputs":[],"name":"NotRegistered","type":"error"},{"inputs":[{"internalType":"address","name":"owner","type":"address"}],"name":"OwnableInvalidOwner","type":"error"},{"inputs":[{"internalType":"address","name":"account","type":"address"}],"name":"OwnableUnauthorizedAccount","type":"error"},{"inputs":[],"name":"ReentrancyGuardReentrantCall","type":"error"},{"inputs":[],"name":"SignatureAlreadyUsed","type":"error"},{"inputs":[],"name":"TransferFailed","type":"error"},{"anonymous":false,"inputs":[{"indexed":true,"internalType":"address","name":"advertiser","type":"address"},{"indexed":true,"internalType":"uint256","name":"cycle","type":"uint256"},{"indexed":true,"internalType":"uint256","name":"slotIndex","type":"uint256"},{"indexed":false,"internalType":"enum ADSDemo.SlotType","name":"slotType","type":"uint8"},{"indexed":false,"internalType":"uint256","name":"bidAmount","type":"uint256"}],"name":"AdBidPlaced","type":"event"},{"anonymous":false,"inputs":[{"indexed":true,"internalType":"address","name":"advertiser","type":"address"},{"indexed":true,"internalType":"uint256","name":"cycle","type":"uint256"},{"indexed":true,"internalType":"uint256","name":"slotIndex","type":"uint256"}],"name":"AdRemoved","type":"event"},{"anonymous":false,"inputs":[{"indexed":true,"internalType":"uint256","name":"cycle","type":"uint256"},{"indexed":true,"internalType":"uint256","name":"slotIndex","type":"uint256"},{"indexed":false,"internalType":"uint256","name":"totalClicks","type":"uint256"}],"name":"AdSlotFinalized","type":"event"},{"anonymous":false,"inputs":[{"indexed":true,"internalType":"address","name":"advertiser","type":"address"}],"name":"AdvertiserBanned","type":"event"},{"anonymous":false,"inputs":[{"indexed":true,"internalType":"address","name":"advertiser","type":"address"}],"name":"AdvertiserUnbanned","type":"event"},{"anonymous":false,"inputs":[{"indexed":true,"internalType":"address","name":"user","type":"address"},{"indexed":true,"internalType":"uint256","name":"cycle","type":"uint256"},{"indexed":true,"internalType":"uint256","name":"slotIndex","type":"uint256"}],"name":"ClickRecorded","type":"event"},{"anonymous":false,"inputs":[{"indexed":true,"internalType":"uint256","name":"cycle","type":"uint256"}],"name":"CycleFinalized","type":"event"},{"anonymous":false,"inputs":[{"indexed":true,"internalType":"uint256","name":"cycle","type":"uint256"},{"indexed":true,"internalType":"uint256","name":"slotIndex","type":"uint256"},{"indexed":false,"internalType":"uint256","name":"amount","type":"uint256"}],"name":"ExpiredClaimCollected","type":"event"},{"anonymous":false,"inputs":[{"indexed":true,"internalType":"address","name":"recipient","type":"address"},{"indexed":false,"internalType":"uint256","name":"amount","type":"uint256"}],"name":"FeesWithdrawn","type":"event"},{"anonymous":false,"inputs":[{"indexed":true,"internalType":"address","name":"previousOwner","type":"address"},{"indexed":true,"internalType":"address","name":"newOwner","type":"address"}],"name":"OwnershipTransferred","type":"event"},{"anonymous":false,"inputs":[{"indexed":true,"internalType":"address","name":"user","type":"address"},{"indexed":true,"internalType":"uint256","name":"cycle","type":"uint256"},{"indexed":true,"internalType":"uint256","name":"slotIndex","type":"uint256"},{"indexed":false,"internalType":"uint256","name":"amount","type":"uint256"}],"name":"RewardClaimed","type":"event"},{"anonymous":false,"inputs":[{"indexed":true,"internalType":"address","name":"user","type":"address"}],"name":"UserRegistered","type":"event"},{"inputs":[],"name":"AD_SLOTS_PER_CYCLE","outputs":[{"internalType":"uint256","name":"","type":"uint256"}],"stateMutability":"view","type":"function"},{"inputs":[],"name":"CLAIM_DEADLINE","outputs":[{"internalType":"uint256","name":"","type":"uint256"}],"stateMutability":"view","type":"function"},{"inputs":[],"name":"PLATFORM_FEE_BPS","outputs":[{"internalType":"uint256","name":"","type":"uint256"}],"stateMutability":"view","type":"function"},{"inputs":[],"name":"WLD","outputs":[{"internalType":"contract IERC20","name":"","type":"address"}],"stateMutability":"view","type":"function"},{"inputs":[],"name":"accumulatedFees","outputs":[{"internalType":"uint256","name":"","type":"uint256"}],"stateMutability":"view","type":"function"},{"inputs":[{"internalType":"uint256","name":"","type":"uint256"},{"internalType":"uint256","name":"","type":"uint256"}],"name":"adSlots","outputs":[{"internalType":"address","name":"advertiser","type":"address"},{"internalType":"string","name":"name","type":"string"},{"internalType":"string","name":"description","type":"string"},{"internalType":"string","name":"imageUrl","type":"string"},{"internalType":"uint256","name":"bidAmount","type":"uint256"},{"internalType":"enum ADSDemo.SlotType","name":"slotType","type":"uint8"},{"internalType":"bool","name":"finalized","type":"bool"},{"internalType":"bool","name":"removed","type":"bool"},{"internalType":"uint256","name":"totalClicks","type":"uint256"},{"internalType":"uint256","name":"claimedAmount","type":"uint256"},{"internalType":"uint256","name":"finalizedAt","type":"uint256"}],"stateMutability":"view","type":"function"},{"inputs":[{"internalType":"address","name":"signer","type":"address"}],"name":"addAuthorizedSigner","outputs":[],"stateMutability":"nonpayable","type":"function"},{"inputs":[{"internalType":"address","name":"","type":"address"}],"name":"authorizedSigners","outputs":[{"internalType":"bool","name":"","type":"bool"}],"stateMutability":"view","type":"function"},{"inputs":[{"internalType":"address","name":"advertiser","type":"address"}],"name":"banAdvertiser","outputs":[],"stateMutability":"nonpayable","type":"function"},{"inputs":[{"internalType":"address","name":"","type":"address"}],"name":"bannedAdvertisers","outputs":[{"internalType":"bool","name":"","type":"bool"}],"stateMutability":"view","type":"function"},{"inputs":[{"internalType":"uint256","name":"cycle","type":"uint256"},{"internalType":"uint256","name":"slotIndex","type":"uint256"},{"internalType":"address","name":"user","type":"address"}],"name":"calculateUserReward","outputs":[{"internalType":"uint256","name":"","type":"uint256"}],"stateMutability":"view","type":"function"},{"inputs":[{"internalType":"uint256","name":"cycle","type":"uint256"},{"internalType":"uint256","name":"slotIndex","type":"uint256"}],"name":"claimReward","outputs":[],"stateMutability":"nonpayable","type":"function"},{"inputs":[{"internalType":"uint256","name":"cycle","type":"uint256"},{"internalType":"uint256","name":"slotIndex","type":"uint256"}],"name":"collectExpiredClaims","outputs":[],"stateMutability":"nonpayable","type":"function"},{"inputs":[],"name":"currentCycle","outputs":[{"internalType":"uint256","name":"","type":"uint256"}],"stateMutability":"view","type":"function"},{"inputs":[],"name":"getCurrentAds","outputs":[{"components":[{"internalType":"address","name":"advertiser","type":"address"},{"internalType":"string","name":"name","type":"string"},{"internalType":"string","name":"description","type":"string"},{"internalType":"string","name":"imageUrl","type":"string"},{"internalType":"uint256","name":"bidAmount","type":"uint256"},{"internalType":"enum ADSDemo.SlotType","name":"slotType","type":"uint8"},{"internalType":"bool","name":"finalized","type":"bool"},{"internalType":"bool","name":"removed","type":"bool"},{"internalType":"uint256","name":"totalClicks","type":"uint256"},{"internalType":"uint256","name":"claimedAmount","type":"uint256"},{"internalType":"uint256","name":"finalizedAt","type":"uint256"}],"internalType":"struct ADSDemo.AdSlot[]","name":"","type":"tuple[]"}],"stateMutability":"view","type":"function"},{"inputs":[],"name":"getCurrentCycle","outputs":[{"internalType":"uint256","name":"","type":"uint256"}],"stateMutability":"view","type":"function"},{"inputs":[{"internalType":"address","name":"user","type":"address"}],"name":"getUserClaimableRewards","outputs":[{"internalType":"uint256[]","name":"cycles","type":"uint256[]"},{"internalType":"uint256[]","name":"slots","type":"uint256[]"},{"internalType":"uint256[]","name":"amounts","type":"uint256[]"}],"stateMutability":"view","type":"function"},{"inputs":[{"internalType":"uint256","name":"","type":"uint256"},{"internalType":"uint256","name":"","type":"uint256"},{"internalType":"address","name":"","type":"address"}],"name":"hasClaimed","outputs":[{"internalType":"bool","name":"","type":"bool"}],"stateMutability":"view","type":"function"},{"inputs":[{"internalType":"uint256","name":"","type":"uint256"},{"internalType":"uint256","name":"","type":"uint256"},{"internalType":"address","name":"","type":"address"}],"name":"hasClicked","outputs":[{"internalType":"bool","name":"","type":"bool"}],"stateMutability":"view","type":"function"},{"inputs":[],"name":"lastFinalizedCycle","outputs":[{"internalType":"uint256","name":"","type":"uint256"}],"stateMutability":"view","type":"function"},{"inputs":[],"name":"lockedFunds","outputs":[{"internalType":"uint256","name":"","type":"uint256"}],"stateMutability":"view","type":"function"},{"inputs":[],"name":"owner","outputs":[{"internalType":"address","name":"","type":"address"}],"stateMutability":"view","type":"function"},{"inputs":[],"name":"permit2","outputs":[{"internalType":"contract IPermit2","name":"","type":"address"}],"stateMutability":"view","type":"function"},{"inputs":[{"internalType":"uint256","name":"cycle","type":"uint256"},{"internalType":"uint256","name":"slotIndex","type":"uint256"},{"internalType":"string","name":"name","type":"string"},{"internalType":"string","name":"description","type":"string"},{"internalType":"string","name":"imageUrl","type":"string"},{"internalType":"uint256","name":"bidAmount","type":"uint256"},{"internalType":"enum ADSDemo.SlotType","name":"slotType","type":"uint8"},{"components":[{"components":[{"internalType":"address","name":"token","type":"address"},{"internalType":"uint256","name":"amount","type":"uint256"}],"internalType":"struct IPermit2.TokenPermissions","name":"permitted","type":"tuple"},{"internalType":"uint256","name":"nonce","type":"uint256"},{"internalType":"uint256","name":"deadline","type":"uint256"}],"internalType":"struct IPermit2.PermitTransferFrom","name":"permit","type":"tuple"},{"internalType":"bytes","name":"signature","type":"bytes"}],"name":"placeAdBid","outputs":[],"stateMutability":"nonpayable","type":"function"},{"inputs":[],"name":"progressCycle","outputs":[],"stateMutability":"nonpayable","type":"function"},{"inputs":[{"internalType":"uint256","name":"cycle","type":"uint256"},{"internalType":"uint256","name":"slotIndex","type":"uint256"},{"internalType":"uint256","name":"nonce","type":"uint256"},{"internalType":"uint256","name":"timestamp","type":"uint256"},{"internalType":"bytes","name":"signature","type":"bytes"}],"name":"recordClick","outputs":[],"stateMutability":"nonpayable","type":"function"},{"inputs":[],"name":"register","outputs":[],"stateMutability":"nonpayable","type":"function"},{"inputs":[{"internalType":"address","name":"","type":"address"}],"name":"registered","outputs":[{"internalType":"bool","name":"","type":"bool"}],"stateMutability":"view","type":"function"},{"inputs":[{"internalType":"uint256","name":"cycle","type":"uint256"},{"internalType":"uint256","name":"slotIndex","type":"uint256"}],"name":"removeAd","outputs":[],"stateMutability":"nonpayable","type":"function"},{"inputs":[{"internalType":"address","name":"signer","type":"address"}],"name":"removeAuthorizedSigner","outputs":[],"stateMutability":"nonpayable","type":"function"},{"inputs":[],"name":"renounceOwnership","outputs":[],"stateMutability":"nonpayable","type":"function"},{"inputs":[{"internalType":"address","name":"newOwner","type":"address"}],"name":"transferOwnership","outputs":[],"stateMutability":"nonpayable","type":"function"},{"inputs":[{"internalType":"address","name":"advertiser","type":"address"}],"name":"unbanAdvertiser","outputs":[],"stateMutability":"nonpayable","type":"function"},{"inputs":[{"internalType":"bytes32","name":"","type":"bytes32"}],"name":"usedSignatures","outputs":[{"internalType":"bool","name":"","type":"bool"}],"stateMutability":"view","type":"function"},{"inputs":[],"name":"withdrawFees","outputs":[],"stateMutability":"nonpayable","type":"function"},{"inputs":[],"name":"worldId","outputs":[{"internalType":"contract IWorldID","name":"","type":"address"}],"stateMutability":"view","type":"function"}],"evm":{"bytecode":{"linkReferences":{},"object":"61012060408181523462000205576200287e80380380916200002282866200020a565b8439820160a08382031262000205576200003c8362000244565b926020906200004d82820162000244565b6200005a85830162000244565b60608301516001600160401b039591939190868111620002055781620000829184016200027e565b95608083015190811162000205576200009c92016200027e565b933315620001ed5760008054336001600160a01b0319821681178355885189979690958795879590946001600160a01b039485939290918416907f8be0079c531659141344cd1fd0a4f28419497f9722a3daafe3b4186f6b6457e09080a360018055816101009d60008f52166080521660a0521660c0528051908184808501920191620001299262000259565b810103808352016200013c90826200020a565b6200014790620002d9565b8251938491838301528051908184868501920191620001669262000259565b8101039081018352016200017b90826200020a565b6200018690620002d9565b60e0525161256d91826200031183396080518281816105f501528181610a8301528181610cb40152818161136a01528181611bab0152611daf015260a05182818161161c015281816116dc0152611c6d015260c05182610dd1015260e05182505051815050f35b8551631e4fbdf760e01b815260006004820152602490fd5b600080fd5b601f909101601f19168101906001600160401b038211908210176200022e57604052565b634e487b7160e01b600052604160045260246000fd5b51906001600160a01b03821682036200020557565b60005b8381106200026d5750506000910152565b81810151838201526020016200025c565b81601f82011215620002055780516001600160401b0381116200022e5760405192620002b5601f8301601f1916602001856200020a565b818452602082840101116200020557620002d6916020808501910162000259565b90565b6040516200030760208281620002f9818301968781519384920162000259565b81010380845201826200020a565b51902060081c9056fe6080604052600436101561001257600080fd5b600060e08135811c908163035169a414611e585781631012be0d14611cdb57816311637f2214611c9c57816312261ee714611c5757816312d95d1d146114d35781631aa3a008146114515781631f50fec91461142f57816339aca3291461141357816342f81580146113f5578163476343ee1461130c5781634d63a475146112c45781635240eb3214611280578163539aa77f14611263578163587f5ed7146112455781635d2b6a4e14611206578163646e200b14610f4e57816369547f2d14610f065781636ecdf60614610ee8578163715018a614610e8e57816371b3fb9a14610e665781637433142814610e00578163753e9ef014610dbb57816386bb8f3714610b465781638da5cb5b14610b1f57816397090dc814610997578163b2dd5c0714610958578163b7c32bf0146106c9578163b8afaa48146106ab578163bab2f5521461068d578163be26ed7f1461068d578163c0ae614614610624578163de061d66146105df578163e7c21a3e146102ae57508063f2fde38b1461021e578063f62a4edb146101dd5763f978fd61146101ac57600080fd5b346101da5760203660031901126101da5760ff60406020926004358152600a84522054166040519015158152f35b80fd5b50346101da5760203660031901126101da576101f76120e8565b6101ff612189565b6001600160a01b03168152600660205260408120805460ff1916905580f35b50346101da5760203660031901126101da576102386120e8565b610240612189565b6001600160a01b0390811690811561029557600054826bffffffffffffffffffffffff60a01b821617600055167f8be0079c531659141344cd1fd0a4f28419497f9722a3daafe3b4186f6b6457e0600080a380f35b604051631e4fbdf760e01b815260048101849052602490fd5b9050346105db5760a03660031901126105db57600435602435916084356001600160401b03908181116105d7576102e99036906004016120fe565b926102f26121b5565b3387526020916004835260ff918260408a205416156105c5576002548710156105b357600a8810156105a1578689526007845260408920888a52845260408920946005860154848160081c1661058f5760101c841661057d57878a526008855260408a20898b52855260408a20336000528552836040600020541661056b57604051908582013360601b81528960348401528a6054840152604435607484015260643560948401526094835260c08301928084108385111761055557610120918460405281519020948101947f19457468657265756d205369676e6564204d6573736167653a0a333200000000865260fc820152603c84520190828210908211176105555760405251902094858952600a84528260408a205416610543576041036104fe57876080849283604051918983526040810135851a82840152803560408401520135606082015282805260015afa156104f35786516001600160a01b0316875260068252604087205416156104e1576006928652600a8152604086209060ff199160018382541617905584875260088152604087208688528152604087209033600052526001604060002091825416179055016104b38154612220565b9055337fdf68871eff37c21a2d5f5f4714defb013c53c6aa48ebe6eff29ca11e065191278480a46001805580f35b60405163ea8e4eb560e01b8152600490fd5b6040513d88823e3d90fd5b60405162461bcd60e51b815260048101849052601860248201527f496e76616c6964207369676e6174757265206c656e67746800000000000000006044820152606490fd5b60405163900bb2c960e01b8152600490fd5b634e487b7160e01b600052604160045260246000fd5b60405163e02cd2cb60e01b8152600490fd5b604051631bb428a960e21b8152600490fd5b60405163475a253560e01b8152600490fd5b604051631258e44360e01b8152600490fd5b604051634dc7f5ff60e11b8152600490fd5b60405163aba4733960e01b8152600490fd5b8580fd5b5080fd5b82346101da57806003193601126101da576040517f00000000000000000000000000000000000000000000000000000000000000006001600160a01b03168152602090f35b82346101da5760203660031901126101da5761063e6120e8565b610646612189565b6001600160a01b0316808252600560205260408220805460ff191660011790557f97b051fe48e86c08fca96c9bbe846678783b6999358e6d4efbaf9e40ca59b6a78280a280f35b82346101da57806003193601126101da576020600254604051908152f35b82346101da57806003193601126101da576020600c54604051908152f35b82346101da57806003193601126101da576040516106e681611fa2565b600a90818152825b61014080821015610754576040516020929161070982611fa2565b8682528660609185928084860152806040860152808501528160808501528160a08501528160c0850152818a85015281610100850152816101208501528301528285010152016106ee565b505090829060028054925b8281106108635750505050604051916020808401908085528351809252604085018160408460051b880101950193965b83881061079c5786860387f35b90919293948380600192603f198a8203018652885190848060a01b0382511681526107ff6107ec6107da858501516101608088870152850190612085565b60408501518482036040860152612085565b6060808501519084830390850152612085565b916080808201519083015261081c60a080830151908401906120c5565b60c08082015115159083015286810151151587830152610100808201519083015261012080820151908301526101408091015191015297019301970196909392919361078f565b8386526007602090808252604088208389528252604088206040519261088884611fa2565b81546001600160a01b031684526108a160018301611fdf565b908401526108b0858201611fdf565b60408401526108c160038201611fdf565b60608401526004810154608084015260058101549160ff808416888110156109445760a0860152600884811c8216151560c087015260109490941c1615158b8501526006820154610100850152810154610120840152015461014082015261093f919061092e828861240e565b52610939818761240e565b50612220565b61075f565b634e487b7160e01b8c52602160045260248cfd5b82346101da5760203660031901126101da5760209060ff906040906001600160a01b036109836120e8565b168152600484522054166040519015158152f35b82346101da576109a636611f4d565b906109af6121b5565b600a8210156105a1578083526007602052604083208284526020526040832060018060a01b03808254163303610b0d57600582019182549060ff8260081c1661058f5786936201000060049362ff00001916179055019081549081610a3f575b50505050337f2ddf52ad696f7475d5e714ce5c8c1c4e9b93814e40d3f4c5ab845cb2bc0579ac8480a46001805580f35b602092610a51610a7f93600c546121f0565b600c555460405163a9059cbb60e01b8152336004820152602481019190915293849283919082906044820190565b03927f0000000000000000000000000000000000000000000000000000000000000000165af1908115610b02578491610ad4575b5015610ac25782848080610a0f565b6040516312171d8360e31b8152600490fd5b610af5915060203d8111610afb575b610aed8183611fbe565b8101906121d8565b84610ab3565b503d610ae3565b6040513d86823e3d90fd5b604051632211114160e11b8152600490fd5b82346101da57806003193601126101da57546040516001600160a01b039091168152602090f35b82346101da57610b5536611f4d565b90610b5e6121b5565b33835260206004815260ff604085205416156105c557600a8310156105a157818452600781526040842083855281526040842090600582015460ff8160081c1615610da95760101c60ff1661057d57828552600881526040852084865281526040852033600052815260ff6040600020541615610d9757828552600981526040852084865281526040852033600052815260ff60406000205416610d85576008820154621275008101809111610d71574211610d5f5760068201548015610d4d5760048301546101f4808202908282041482151715610d395791610c4c610c519261271060079504906121f0565b61222f565b9284875260098352604087208688528352604087203360005283526040600020600160ff1982541617905501610c88838254612213565b905560405163a9059cbb60e01b8152336004820152602481018390528181604481896001600160a01b037f0000000000000000000000000000000000000000000000000000000000000000165af19081156104f3578691610d1c575b5015610ac2577f812be816db82c66cd18ca8457005cd84689642d8ac4d38599cc6af444a2dc72a906040519283523392a46001805580f35b610d339150823d8411610afb57610aed8183611fbe565b86610ce4565b634e487b7160e01b88526011600452602488fd5b60405163162908e360e11b8152600490fd5b60405163320c7b7d60e21b8152600490fd5b634e487b7160e01b86526011600452602486fd5b604051630c8d9eab60e31b8152600490fd5b6040516301327deb60e01b8152600490fd5b604051630df706ad60e11b8152600490fd5b82346101da57806003193601126101da576040517f00000000000000000000000000000000000000000000000000000000000000006001600160a01b03168152602090f35b82346101da5760203660031901126101da57610e1a6120e8565b610e22612189565b6001600160a01b0316808252600560205260408220805460ff191690557f2a2f5e02b0e6aab2b998dbcae41aec9407649a38bd8d41b7b49bedee8cdeaf2e8280a280f35b82346101da57806003193601126101da57610e7f6121b5565b610e8761224f565b6001805580f35b82346101da57806003193601126101da57610ea7612189565b600080546001600160a01b0319811682556001600160a01b03167f8be0079c531659141344cd1fd0a4f28419497f9722a3daafe3b4186f6b6457e08280a380f35b82346101da57806003193601126101da576020600354604051908152f35b82346101da576040610f173661212b565b939182526009602052828220908252602052209060018060a01b0316600052602052602060ff604060002054166040519015158152f35b82346101da57602090816003193601126101da57610f6a6120e8565b9060025491600a92838102938185048114821517156111f257610f8f85939293612505565b92610fa2610f9c87612505565b96612505565b85939092906001600160a01b0316845b838111156110745750505050610fc782612505565b94610fd183612505565b93610fdb84612505565b955b8481106110245761100588611020896110128d8b604051968796606088526060880190612155565b9186830390870152612155565b908382036040850152612155565b0390f35b8061103261106f928461240e565b5161103d828b61240e565b52611048818561240e565b51611053828961240e565b5261105e818661240e565b51611069828a61240e565b52612220565b610fdd565b875b83811061108c575061108790612220565b610fb2565b81895260078b5260408920818a528b5260408920828a528b600880825260408c20848d52825260408c2086600052825260ff8c816040600020541693846111c3575b5050826111b3575b5081611184575b5080611177575b6110f8575b506110f390612220565b611076565b60048198929801546101f48082029082820414821517156111635789611151858f888f958361114561115c9a600661113c6110f39e9c61271061114b9704906121f0565b9101549061222f565b9761240e565b5261240e565b52611069828a61240e565b96906110e9565b634e487b7160e01b8c52601160045260248cfd5b50600681015415156110e4565b905081015462127500810180911161119f574211158d6110dd565b634e487b7160e01b8b52601160045260248bfd5b6005840154821c1691508e6110d6565b909193508682526009815285604083209252528d60408d20908760005252816040600020541615918c8f6110ce565b634e487b7160e01b84526011600452602484fd5b82346101da5760203660031901126101da5760209060ff906040906001600160a01b036112316120e8565b168152600684522054166040519015158152f35b82346101da57806003193601126101da576020600b54604051908152f35b82346101da57806003193601126101da5760206040516101f48152f35b82346101da5760203660031901126101da5761129a6120e8565b6112a2612189565b6001600160a01b03168152600660205260408120805460ff1916600117905580f35b82346101da5760406112d53661212b565b939182526008602052828220908252602052209060018060a01b0316600052602052602060ff604060002054166040519015158152f35b82346101da57806003193601126101da57611325612189565b61132d6121b5565b600b548015610d4d57600b829055815460405163a9059cbb60e01b81526001600160a01b03918216600482015260248101839052602081604481877f000000000000000000000000000000000000000000000000000000000000000087165af1908115610b025784916113d7575b5015610ac25760207fc0819c13be868895eb93e40eaceb96de976442fa1d404e5c55f14bb65a8c489a9184541692604051908152a26001805580f35b6113ef915060203d8111610afb57610aed8183611fbe565b8461139b565b82346101da57806003193601126101da576020604051621275008152f35b82346101da57806003193601126101da576020604051600a8152f35b82346101da5760206114496114433661212b565b91612438565b604051908152f35b82346101da57806003193601126101da5761146a6121b5565b338152600460205260ff6040822054166114c15733808252600460205260408220805460ff191660011790557f54db7a5cb4735e1aac1f53db512d3390390bb6637bd30ad4bf9fc98667d9b9b98280a26001805580f35b604051630ea075bf60e21b8152600490fd5b82346101da576101803660031901126101da576044356001600160401b0381116105db576115059036906004016120fe565b6064356001600160401b038111611c53576115249036906004016120fe565b6084929192356001600160401b0381116105d7576115469036906004016120fe565b939092600a60c4351015611c4f5760803660e3190112611c4f57610164356001600160401b038111611c4b576115809036906004016120fe565b61158b9791976121b5565b338952600560205260ff60408a205416611c3957600254600435036105b357600a60243510156105a15760043589526007602052604089206024358a52602052604089209760018060a01b0389541680151580611c2c575b611b73575b50604051908160408101106001600160401b03604084011117611b5f576040808301905230825260a43560208301528a91907f00000000000000000000000000000000000000000000000000000000000000006001600160a01b03163b15611b5b5760405163187945bd60e11b81529360e4356001600160a01b0381169190829003611b5757806101249381889687956004870152602061010491823560248901528835604489015261014435606489015260018060a01b038151166084890152015160a48701523360c487015261010060e4870152850152848401378181018301859052601f01601f19168101030181837f00000000000000000000000000000000000000000000000000000000000000006001600160a01b03165af18015611b4c57611b1d575b5086546001600160a01b031916331787556001600160401b038211611b0957819061173f6001890154611f68565b601f8111611ab9575b508890601f8311600114611a4d578992611a42575b50508160011b916000199060031b1c19161760018601555b6001600160401b038211611a2e5781906117926002870154611f68565b601f81116119de575b508690601f8311600114611972578792611967575b50508160011b916000199060031b1c19161760028401555b6001600160401b038211611953576117e36003840154611f68565b601f811161190f575b508390601f831160011461189f576005939291859183611894575b50508160011b916000199060031b1c19161760038201555b60a43560048201550160ff1981541660ff60c4351617905561184560a435600c54612213565b600c556040516118578160c4356120c5565b60a435602082015260243590600435907f57fd3b672d0a576a3e359189cf66cb6f9f8928eba7c11efbe695d66b957ce76e60403392a46001805580f35b013590508580611807565b6003840185526020852091855b601f19851681106118f7575091839160019360059695601f198116106118dd575b505050811b01600382015561181f565b0135600019600384901b60f8161c191690558580806118cd565b909260206001819286860135815501940191016118ac565b60038401855260208520601f840160051c81016020851061194c575b601f830160051c820181106119415750506117ec565b86815560010161192b565b508061192b565b634e487b7160e01b84526041600452602484fd5b0135905086806117b0565b60028701885260208820889450915b601f19841685106119c6576001945083601f198116106119ac575b505050811b0160028401556117c8565b0135600019600384901b60f8161c1916905586808061199c565b81810135835560209485019460019093019201611981565b90915060028601875260208720601f840160051c810160208510611a27575b90849392915b601f830160051c82018110611a1957505061179b565b898155859450600101611a03565b50806119fd565b634e487b7160e01b86526041600452602486fd5b01359050888061175d565b600189018a5260208a208a9450915b601f1984168510611aa1576001945083601f19811610611a87575b505050811b016001860155611775565b0135600019600384901b60f8161c19169055888080611a77565b81810135835560209485019460019093019201611a5c565b90915060018801895260208920601f840160051c810160208510611b02575b90849392915b601f830160051c82018110611af4575050611748565b8b8155859450600101611ade565b5080611ad8565b634e487b7160e01b88526041600452602488fd5b6001600160401b038199929911611b38576040529688611711565b634e487b7160e01b82526041600452602482fd5b6040513d8b823e3d90fd5b8480fd5b8280fd5b634e487b7160e01b8b52604160045260248bfd5b60048a81015460405163a9059cbb60e01b81526001600160a01b039093169183019190915260248201526020818c81806044810103917f00000000000000000000000000000000000000000000000000000000000000006001600160a01b03165af1908115611c21578b91611c02575b5015610ac257611bf960048a0154600c546121f0565b600c558a6115e8565b611c1b915060203d602011610afb57610aed8183611fbe565b8b611be3565b6040513d8d823e3d90fd5b5060048a015415156115e3565b60405163299aa0a160e21b8152600490fd5b8780fd5b8680fd5b8380fd5b82346101da57806003193601126101da576040517f00000000000000000000000000000000000000000000000000000000000000006001600160a01b03168152602090f35b82346101da5760203660031901126101da5760209060ff906040906001600160a01b03611cc76120e8565b168152600584522054166040519015158152f35b82346101da57611cea36611f4d565b90611cf36121b5565b600a8210156105a157808352602060078152604084208385528152604084209060ff600583015460081c1615610da9576008820154621275008101809111610d7157421115611e465760048201546101f4808202908282041482151715611e3257600791612710611d659204906121f0565b920191611d738354826121f0565b928315610d4d5755845460405163a9059cbb60e01b81526001600160a01b03918216600482015260248101849052908290829060449082908a907f0000000000000000000000000000000000000000000000000000000000000000165af19081156104f3578691611e15575b5015610ac2577fcf3b62092c7f2a3455c516c177bd1970412d1c381c960d3986e3296f9dff0e7b91604051908152a36001805580f35b611e2c9150823d8411610afb57610aed8183611fbe565b86611ddf565b634e487b7160e01b87526011600452602487fd5b60405163162618a960e01b8152600490fd5b82346101da57604090611e6a36611f4d565b9082526007602052828220908252602052209060018060a01b0382541690611e9460018401611fdf565b92611ea160028201611fdf565b90611eae60038201611fdf565b60048201549360ff6005840154611f0b600686015494611efd6008600789015498015498611eef6040519d8e9d8e528d610160908160208201520190612085565b8c810360408e015290612085565b908a820360608c0152612085565b966080890152611f2060a089018383166120c5565b818160081c16151560c089015260101c161515908601526101008501526101208401526101408301520390f35b6040906003190112611f63576004359060243590565b600080fd5b90600182811c92168015611f98575b6020831014611f8257565b634e487b7160e01b600052602260045260246000fd5b91607f1691611f77565b61016081019081106001600160401b0382111761055557604052565b90601f801991011681019081106001600160401b0382111761055557604052565b9060405191826000825492611ff384611f68565b908184526001948581169081600014612062575060011461201f575b505061201d92500383611fbe565b565b9093915060005260209081600020936000915b81831061204a57505061201d9350820101388061200f565b85548884018501529485019487945091830191612032565b91505061201d94506020925060ff191682840152151560051b820101388061200f565b919082519283825260005b8481106120b1575050826000602080949584010152601f8019910116010190565b602081830181015184830182015201612090565b90600a8210156120d25752565b634e487b7160e01b600052602160045260246000fd5b600435906001600160a01b0382168203611f6357565b9181601f84011215611f63578235916001600160401b038311611f635760208381860195010111611f6357565b6060906003190112611f635760043590602435906044356001600160a01b0381168103611f635790565b90815180825260208080930193019160005b828110612175575050505090565b835185529381019392810192600101612167565b6000546001600160a01b0316330361219d57565b60405163118cdaa760e01b8152336004820152602490fd5b6002600154146121c6576002600155565b604051633ee5aeb560e01b8152600490fd5b90816020910312611f6357518015158103611f635790565b919082039182116121fd57565b634e487b7160e01b600052601160045260246000fd5b919082018092116121fd57565b60001981146121fd5760010190565b8115612239570490565b634e487b7160e01b600052601260045260246000fd5b600254156122d25760025460001981019081116121fd5760035481116122a5575b61227b600254612220565b6002557f6fbfbccdd0d107860c9bccfa723d97eba4f37886edeb01e7a438b1e0fe44e056600080a2565b60005b600a81106122ba575080600355612270565b806122c86122cd92846122ff565b612220565b6122a8565b600160025560007f6fbfbccdd0d107860c9bccfa723d97eba4f37886edeb01e7a438b1e0fe44e0568180a2565b6000818152600760205260408120838252602052604081209060018060a01b03825416156123e2576005820190815460ff8160101c166123d057506004830154906101f4908183029183830414831517156123bc57509260209261239b6006936123906127107f67a59239176edc6000958291e1c679afd7b3e13a274c758a1fb33d8587d5e7089804600b54612213565b600b55600c546121f0565b600c55805461ff0019166101001790554260088201550154604051908152a3565b634e487b7160e01b81526011600452602490fd5b61ff0019166101001790915550505050565b50600501805461ff0019166101001790555050565b6001600160401b0381116105555760051b60200190565b80518210156124225760209160051b010190565b634e487b7160e01b600052603260045260246000fd5b91600090838252602090600782526040918284208585528152828420948685526008825283852081865282528385209260018060a01b031692838652825260ff8486205416156124fb5784959660ff955260098252838620908652815282852091855252822054166124f65760ff600583015460081c16156124f65760068201549182156124f05760040154906101f4908183029183830414831517156123bc57506124ed9291612710610c4c9204906121f0565b90565b50905090565b905090565b5050505091505090565b9061250f826123f7565b61251c6040519182611fbe565b828152809261252d601f19916123f7565b019060203691013756fea2646970667358221220ad3498a9189de73bf628600d1fb30690bc4a66528d697b23d361e4bf8935056d64736f6c63430008140033","opcodes":"PUSH2 0x120 PUSH1 0x40 DUP2 DUP2 MSTORE CALLVALUE PUSH3 0x205 JUMPI PUSH3 0x287E DUP1 CODESIZE SUB DUP1 SWAP2 PUSH3 0x22 DUP3 DUP7 PUSH3 0x20A JUMP JUMPDEST DUP5 CODECOPY DUP3 ADD PUSH1 0xA0 DUP4 DUP3 SUB SLT PUSH3 0x205 JUMPI PUSH3 0x3C DUP4 PUSH3 0x244 JUMP JUMPDEST SWAP3 PUSH1 0x20 SWAP1 PUSH3 0x4D DUP3 DUP3 ADD PUSH3 0x244 JUMP JUMPDEST PUSH3 0x5A DUP6 DUP4 ADD PUSH3 0x244 JUMP JUMPDEST PUSH1 0x60 DUP4 ADD MLOAD PUSH1 0x1 PUSH1 0x1 PUSH1 0x40 SHL SUB SWAP6 SWAP2 SWAP4 SWAP2 SWAP1 DUP7 DUP2 GT PUSH3 0x205 JUMPI DUP2 PUSH3 0x82 SWAP2 DUP5 ADD PUSH3 0x27E JUMP JUMPDEST SWAP6 PUSH1 0x80 DUP4 ADD MLOAD SWAP1 DUP2 GT PUSH3 0x205 JUMPI PUSH3 0x9C SWAP3 ADD PUSH3 0x27E JUMP JUMPDEST SWAP4 CALLER ISZERO PUSH3 0x1ED JUMPI PUSH1 0x0 DUP1 SLOAD CALLER PUSH1 0x1 PUSH1 0x1 PUSH1 0xA0 SHL SUB NOT DUP3 AND DUP2 OR DUP4 SSTORE DUP9 MLOAD DUP10 SWAP8 SWAP7 SWAP1 SWAP6 DUP8 SWAP6 DUP8 SWAP6 SWAP1 SWAP5 PUSH1 0x1 PUSH1 0x1 PUSH1 0xA0 SHL SUB SWAP5 DUP6 SWAP4 SWAP3 SWAP1 SWAP2 DUP5 AND SWAP1 PUSH32 0x8BE0079C531659141344CD1FD0A4F28419497F9722A3DAAFE3B4186F6B6457E0 SWAP1 DUP1 LOG3 PUSH1 0x1 DUP1 SSTORE DUP2 PUSH2 0x100 SWAP14 PUSH1 0x0 DUP16 MSTORE AND PUSH1 0x80 MSTORE AND PUSH1 0xA0 MSTORE AND PUSH1 0xC0 MSTORE DUP1 MLOAD SWAP1 DUP2 DUP5 DUP1 DUP6 ADD SWAP3 ADD SWAP2 PUSH3 0x129 SWAP3 PUSH3 0x259 JUMP JUMPDEST DUP2 ADD SUB DUP1 DUP4 MSTORE ADD PUSH3 0x13C SWAP1 DUP3 PUSH3 0x20A JUMP JUMPDEST PUSH3 0x147 SWAP1 PUSH3 0x2D9 JUMP JUMPDEST DUP3 MLOAD SWAP4 DUP5 SWAP2 DUP4 DUP4 ADD MSTORE DUP1 MLOAD SWAP1 DUP2 DUP5 DUP7 DUP6 ADD SWAP3 ADD SWAP2 PUSH3 0x166 SWAP3 PUSH3 0x259 JUMP JUMPDEST DUP2 ADD SUB SWAP1 DUP2 ADD DUP4 MSTORE ADD PUSH3 0x17B SWAP1 DUP3 PUSH3 0x20A JUMP JUMPDEST PUSH3 0x186 SWAP1 PUSH3 0x2D9 JUMP JUMPDEST PUSH1 0xE0 MSTORE MLOAD PUSH2 0x256D SWAP2 DUP3 PUSH3 0x311 DUP4 CODECOPY PUSH1 0x80 MLOAD DUP3 DUP2 DUP2 PUSH2 0x5F5 ADD MSTORE DUP2 DUP2 PUSH2 0xA83 ADD MSTORE DUP2 DUP2 PUSH2 0xCB4 ADD MSTORE DUP2 DUP2 PUSH2 0x136A ADD MSTORE DUP2 DUP2 PUSH2 0x1BAB ADD MSTORE PUSH2 0x1DAF ADD MSTORE PUSH1 0xA0 MLOAD DUP3 DUP2 DUP2 PUSH2 0x161C ADD MSTORE DUP2 DUP2 PUSH2 0x16DC ADD MSTORE PUSH2 0x1C6D ADD MSTORE PUSH1 0xC0 MLOAD DUP3 PUSH2 0xDD1 ADD MSTORE PUSH1 0xE0 MLOAD DUP3 POP POP MLOAD DUP2 POP POP RETURN JUMPDEST DUP6 MLOAD PUSH4 0x1E4FBDF7 PUSH1 0xE0 SHL DUP2 MSTORE PUSH1 0x0 PUSH1 0x4 DUP3 ADD MSTORE PUSH1 0x24 SWAP1 REVERT JUMPDEST PUSH1 0x0 DUP1 REVERT JUMPDEST PUSH1 0x1F SWAP1 SWAP2 ADD PUSH1 0x1F NOT AND DUP2 ADD SWAP1 PUSH1 0x1 PUSH1 0x1 PUSH1 0x40 SHL SUB DUP3 GT SWAP1 DUP3 LT OR PUSH3 0x22E JUMPI PUSH1 0x40 MSTORE JUMP JUMPDEST PUSH4 0x4E487B71 PUSH1 0xE0 SHL PUSH1 0x0 MSTORE PUSH1 0x41 PUSH1 0x4 MSTORE PUSH1 0x24 PUSH1 0x0 REVERT JUMPDEST MLOAD SWAP1 PUSH1 0x1 PUSH1 0x1 PUSH1 0xA0 SHL SUB DUP3 AND DUP3 SUB PUSH3 0x205 JUMPI JUMP JUMPDEST PUSH1 0x0 JUMPDEST DUP4 DUP2 LT PUSH3 0x26D JUMPI POP POP PUSH1 0x0 SWAP2 ADD MSTORE JUMP JUMPDEST DUP2 DUP2 ADD MLOAD DUP4 DUP3 ADD MSTORE PUSH1 0x20 ADD PUSH3 0x25C JUMP JUMPDEST DUP2 PUSH1 0x1F DUP3 ADD SLT ISZERO PUSH3 0x205 JUMPI DUP1 MLOAD PUSH1 0x1 PUSH1 0x1 PUSH1 0x40 SHL SUB DUP2 GT PUSH3 0x22E JUMPI PUSH1 0x40 MLOAD SWAP3 PUSH3 0x2B5 PUSH1 0x1F DUP4 ADD PUSH1 0x1F NOT AND PUSH1 0x20 ADD DUP6 PUSH3 0x20A JUMP JUMPDEST DUP2 DUP5 MSTORE PUSH1 0x20 DUP3 DUP5 ADD ADD GT PUSH3 0x205 JUMPI PUSH3 0x2D6 SWAP2 PUSH1 0x20 DUP1 DUP6 ADD SWAP2 ADD PUSH3 0x259 JUMP JUMPDEST SWAP1 JUMP JUMPDEST PUSH1 0x40 MLOAD PUSH3 0x307 PUSH1 0x20 DUP3 DUP2 PUSH3 0x2F9 DUP2 DUP4 ADD SWAP7 DUP8 DUP2 MLOAD SWAP4 DUP5 SWAP3 ADD PUSH3 0x259 JUMP JUMPDEST DUP2 ADD SUB DUP1 DUP5 MSTORE ADD DUP3 PUSH3 0x20A JUMP JUMPDEST MLOAD SWAP1 KECCAK256 PUSH1 0x8 SHR SWAP1 JUMP INVALID PUSH1 0x80 PUSH1 0x40 MSTORE PUSH1 0x4 CALLDATASIZE LT ISZERO PUSH2 0x12 JUMPI PUSH1 0x0 DUP1 REVERT JUMPDEST PUSH1 0x0 PUSH1 0xE0 DUP2 CALLDATALOAD DUP2 SHR SWAP1 DUP2 PUSH4 0x35169A4 EQ PUSH2 0x1E58 JUMPI DUP2 PUSH4 0x1012BE0D EQ PUSH2 0x1CDB JUMPI DUP2 PUSH4 0x11637F22 EQ PUSH2 0x1C9C JUMPI DUP2 PUSH4 0x12261EE7 EQ PUSH2 0x1C57 JUMPI DUP2 PUSH4 0x12D95D1D EQ PUSH2 0x14D3 JUMPI DUP2 PUSH4 0x1AA3A008 EQ PUSH2 0x1451 JUMPI DUP2 PUSH4 0x1F50FEC9 EQ PUSH2 0x142F JUMPI DUP2 PUSH4 0x39ACA329 EQ PUSH2 0x1413 JUMPI DUP2 PUSH4 0x42F81580 EQ PUSH2 0x13F5 JUMPI DUP2 PUSH4 0x476343EE EQ PUSH2 0x130C JUMPI DUP2 PUSH4 0x4D63A475 EQ PUSH2 0x12C4 JUMPI DUP2 PUSH4 0x5240EB32 EQ PUSH2 0x1280 JUMPI DUP2 PUSH4 0x539AA77F EQ PUSH2 0x1263 JUMPI DUP2 PUSH4 0x587F5ED7 EQ PUSH2 0x1245 JUMPI DUP2 PUSH4 0x5D2B6A4E EQ PUSH2 0x1206 JUMPI DUP2 PUSH4 0x646E200B EQ PUSH2 0xF4E JUMPI DUP2 PUSH4 0x69547F2D EQ PUSH2 0xF06 JUMPI DUP2 PUSH4 0x6ECDF606 EQ PUSH2 0xEE8 JUMPI DUP2 PUSH4 0x715018A6 EQ PUSH2 0xE8E JUMPI DUP2 PUSH4 0x71B3FB9A EQ PUSH2 0xE66 JUMPI DUP2 PUSH4 0x74331428 EQ PUSH2 0xE00 JUMPI DUP2 PUSH4 0x753E9EF0 EQ PUSH2 0xDBB JUMPI DUP2 PUSH4 0x86BB8F37 EQ PUSH2 0xB46 JUMPI DUP2 PUSH4 0x8DA5CB5B EQ PUSH2 0xB1F JUMPI DUP2 PUSH4 0x97090DC8 EQ PUSH2 0x997 JUMPI DUP2 PUSH4 0xB2DD5C07 EQ PUSH2 0x958 JUMPI DUP2 PUSH4 0xB7C32BF0 EQ PUSH2 0x6C9 JUMPI DUP2 PUSH4 0xB8AFAA48 EQ PUSH2 0x6AB JUMPI DUP2 PUSH4 0xBAB2F552 EQ PUSH2 0x68D JUMPI DUP2 PUSH4 0xBE26ED7F EQ PUSH2 0x68D JUMPI DUP2 PUSH4 0xC0AE6146 EQ PUSH2 0x624 JUMPI DUP2 PUSH4 0xDE061D66 EQ PUSH2 0x5DF JUMPI DUP2 PUSH4 0xE7C21A3E EQ PUSH2 0x2AE JUMPI POP DUP1 PUSH4 0xF2FDE38B EQ PUSH2 0x21E JUMPI DUP1 PUSH4 0xF62A4EDB EQ PUSH2 0x1DD JUMPI PUSH4 0xF978FD61 EQ PUSH2 0x1AC JUMPI PUSH1 0x0 DUP1 REVERT JUMPDEST CALLVALUE PUSH2 0x1DA JUMPI PUSH1 0x20 CALLDATASIZE PUSH1 0x3 NOT ADD SLT PUSH2 0x1DA JUMPI PUSH1 0xFF PUSH1 0x40 PUSH1 0x20 SWAP3 PUSH1 0x4 CALLDATALOAD DUP2 MSTORE PUSH1 0xA DUP5 MSTORE KECCAK256 SLOAD AND PUSH1 0x40 MLOAD SWAP1 ISZERO ISZERO DUP2 MSTORE RETURN JUMPDEST DUP1 REVERT JUMPDEST POP CALLVALUE PUSH2 0x1DA JUMPI PUSH1 0x20 CALLDATASIZE PUSH1 0x3 NOT ADD SLT PUSH2 0x1DA JUMPI PUSH2 0x1F7 PUSH2 0x20E8 JUMP JUMPDEST PUSH2 0x1FF PUSH2 0x2189 JUMP JUMPDEST PUSH1 0x1 PUSH1 0x1 PUSH1 0xA0 SHL SUB AND DUP2 MSTORE PUSH1 0x6 PUSH1 0x20 MSTORE PUSH1 0x40 DUP2 KECCAK256 DUP1 SLOAD PUSH1 0xFF NOT AND SWAP1 SSTORE DUP1 RETURN JUMPDEST POP CALLVALUE PUSH2 0x1DA JUMPI PUSH1 0x20 CALLDATASIZE PUSH1 0x3 NOT ADD SLT PUSH2 0x1DA JUMPI PUSH2 0x238 PUSH2 0x20E8 JUMP JUMPDEST PUSH2 0x240 PUSH2 0x2189 JUMP JUMPDEST PUSH1 0x1 PUSH1 0x1 PUSH1 0xA0 SHL SUB SWAP1 DUP2 AND SWAP1 DUP2 ISZERO PUSH2 0x295 JUMPI PUSH1 0x0 SLOAD DUP3 PUSH12 0xFFFFFFFFFFFFFFFFFFFFFFFF PUSH1 0xA0 SHL DUP3 AND OR PUSH1 0x0 SSTORE AND PUSH32 0x8BE0079C531659141344CD1FD0A4F28419497F9722A3DAAFE3B4186F6B6457E0 PUSH1 0x0 DUP1 LOG3 DUP1 RETURN JUMPDEST PUSH1 0x40 MLOAD PUSH4 0x1E4FBDF7 PUSH1 0xE0 SHL DUP2 MSTORE PUSH1 0x4 DUP2 ADD DUP5 SWAP1 MSTORE PUSH1 0x24 SWAP1 REVERT JUMPDEST SWAP1 POP CALLVALUE PUSH2 0x5DB JUMPI PUSH1 0xA0 CALLDATASIZE PUSH1 0x3 NOT ADD SLT PUSH2 0x5DB JUMPI PUSH1 0x4 CALLDATALOAD PUSH1 0x24 CALLDATALOAD SWAP2 PUSH1 0x84 CALLDATALOAD PUSH1 0x1 PUSH1 0x1 PUSH1 0x40 SHL SUB SWAP1 DUP2 DUP2 GT PUSH2 0x5D7 JUMPI PUSH2 0x2E9 SWAP1 CALLDATASIZE SWAP1 PUSH1 0x4 ADD PUSH2 0x20FE JUMP JUMPDEST SWAP3 PUSH2 0x2F2 PUSH2 0x21B5 JUMP JUMPDEST CALLER DUP8 MSTORE PUSH1 0x20 SWAP2 PUSH1 0x4 DUP4 MSTORE PUSH1 0xFF SWAP2 DUP3 PUSH1 0x40 DUP11 KECCAK256 SLOAD AND ISZERO PUSH2 0x5C5 JUMPI PUSH1 0x2 SLOAD DUP8 LT ISZERO PUSH2 0x5B3 JUMPI PUSH1 0xA DUP9 LT ISZERO PUSH2 0x5A1 JUMPI DUP7 DUP10 MSTORE PUSH1 0x7 DUP5 MSTORE PUSH1 0x40 DUP10 KECCAK256 DUP9 DUP11 MSTORE DUP5 MSTORE PUSH1 0x40 DUP10 KECCAK256 SWAP5 PUSH1 0x5 DUP7 ADD SLOAD DUP5 DUP2 PUSH1 0x8 SHR AND PUSH2 0x58F JUMPI PUSH1 0x10 SHR DUP5 AND PUSH2 0x57D JUMPI DUP8 DUP11 MSTORE PUSH1 0x8 DUP6 MSTORE PUSH1 0x40 DUP11 KECCAK256 DUP10 DUP12 MSTORE DUP6 MSTORE PUSH1 0x40 DUP11 KECCAK256 CALLER PUSH1 0x0 MSTORE DUP6 MSTORE DUP4 PUSH1 0x40 PUSH1 0x0 KECCAK256 SLOAD AND PUSH2 0x56B JUMPI PUSH1 0x40 MLOAD SWAP1 DUP6 DUP3 ADD CALLER PUSH1 0x60 SHL DUP2 MSTORE DUP10 PUSH1 0x34 DUP5 ADD MSTORE DUP11 PUSH1 0x54 DUP5 ADD MSTORE PUSH1 0x44 CALLDATALOAD PUSH1 0x74 DUP5 ADD MSTORE PUSH1 0x64 CALLDATALOAD PUSH1 0x94 DUP5 ADD MSTORE PUSH1 0x94 DUP4 MSTORE PUSH1 0xC0 DUP4 ADD SWAP3 DUP1 DUP5 LT DUP4 DUP6 GT OR PUSH2 0x555 JUMPI PUSH2 0x120 SWAP2 DUP5 PUSH1 0x40 MSTORE DUP2 MLOAD SWAP1 KECCAK256 SWAP5 DUP2 ADD SWAP5 PUSH32 0x19457468657265756D205369676E6564204D6573736167653A0A333200000000 DUP7 MSTORE PUSH1 0xFC DUP3 ADD MSTORE PUSH1 0x3C DUP5 MSTORE ADD SWAP1 DUP3 DUP3 LT SWAP1 DUP3 GT OR PUSH2 0x555 JUMPI PUSH1 0x40 MSTORE MLOAD SWAP1 KECCAK256 SWAP5 DUP6 DUP10 MSTORE PUSH1 0xA DUP5 MSTORE DUP3 PUSH1 0x40 DUP11 KECCAK256 SLOAD AND PUSH2 0x543 JUMPI PUSH1 0x41 SUB PUSH2 0x4FE JUMPI DUP8 PUSH1 0x80 DUP5 SWAP3 DUP4 PUSH1 0x40 MLOAD SWAP2 DUP10 DUP4 MSTORE PUSH1 0x40 DUP2 ADD CALLDATALOAD DUP6 BYTE DUP3 DUP5 ADD MSTORE DUP1 CALLDATALOAD PUSH1 0x40 DUP5 ADD MSTORE ADD CALLDATALOAD PUSH1 0x60 DUP3 ADD MSTORE DUP3 DUP1 MSTORE PUSH1 0x1 GAS STATICCALL ISZERO PUSH2 0x4F3 JUMPI DUP7 MLOAD PUSH1 0x1 PUSH1 0x1 PUSH1 0xA0 SHL SUB AND DUP8 MSTORE PUSH1 0x6 DUP3 MSTORE PUSH1 0x40 DUP8 KECCAK256 SLOAD AND ISZERO PUSH2 0x4E1 JUMPI PUSH1 0x6 SWAP3 DUP7 MSTORE PUSH1 0xA DUP2 MSTORE PUSH1 0x40 DUP7 KECCAK256 SWAP1 PUSH1 0xFF NOT SWAP2 PUSH1 0x1 DUP4 DUP3 SLOAD AND OR SWAP1 SSTORE DUP5 DUP8 MSTORE PUSH1 0x8 DUP2 MSTORE PUSH1 0x40 DUP8 KECCAK256 DUP7 DUP9 MSTORE DUP2 MSTORE PUSH1 0x40 DUP8 KECCAK256 SWAP1 CALLER PUSH1 0x0 MSTORE MSTORE PUSH1 0x1 PUSH1 0x40 PUSH1 0x0 KECCAK256 SWAP2 DUP3 SLOAD AND OR SWAP1 SSTORE ADD PUSH2 0x4B3 DUP2 SLOAD PUSH2 0x2220 JUMP JUMPDEST SWAP1 SSTORE CALLER PUSH32 0xDF68871EFF37C21A2D5F5F4714DEFB013C53C6AA48EBE6EFF29CA11E06519127 DUP5 DUP1 LOG4 PUSH1 0x1 DUP1 SSTORE DUP1 RETURN JUMPDEST PUSH1 0x40 MLOAD PUSH4 0xEA8E4EB5 PUSH1 0xE0 SHL DUP2 MSTORE PUSH1 0x4 SWAP1 REVERT JUMPDEST PUSH1 0x40 MLOAD RETURNDATASIZE DUP9 DUP3 RETURNDATACOPY RETURNDATASIZE SWAP1 REVERT JUMPDEST PUSH1 0x40 MLOAD PUSH3 0x461BCD PUSH1 0xE5 SHL DUP2 MSTORE PUSH1 0x4 DUP2 ADD DUP5 SWAP1 MSTORE PUSH1 0x18 PUSH1 0x24 DUP3 ADD MSTORE PUSH32 0x496E76616C6964207369676E6174757265206C656E6774680000000000000000 PUSH1 0x44 DUP3 ADD MSTORE PUSH1 0x64 SWAP1 REVERT JUMPDEST PUSH1 0x40 MLOAD PUSH4 0x900BB2C9 PUSH1 0xE0 SHL DUP2 MSTORE PUSH1 0x4 SWAP1 REVERT JUMPDEST PUSH4 0x4E487B71 PUSH1 0xE0 SHL PUSH1 0x0 MSTORE PUSH1 0x41 PUSH1 0x4 MSTORE PUSH1 0x24 PUSH1 0x0 REVERT JUMPDEST PUSH1 0x40 MLOAD PUSH4 0xE02CD2CB PUSH1 0xE0 SHL DUP2 MSTORE PUSH1 0x4 SWAP1 REVERT JUMPDEST PUSH1 0x40 MLOAD PUSH4 0x1BB428A9 PUSH1 0xE2 SHL DUP2 MSTORE PUSH1 0x4 SWAP1 REVERT JUMPDEST PUSH1 0x40 MLOAD PUSH4 0x475A2535 PUSH1 0xE0 SHL DUP2 MSTORE PUSH1 0x4 SWAP1 REVERT JUMPDEST PUSH1 0x40 MLOAD PUSH4 0x1258E443 PUSH1 0xE0 SHL DUP2 MSTORE PUSH1 0x4 SWAP1 REVERT JUMPDEST PUSH1 0x40 MLOAD PUSH4 0x4DC7F5FF PUSH1 0xE1 SHL DUP2 MSTORE PUSH1 0x4 SWAP1 REVERT JUMPDEST PUSH1 0x40 MLOAD PUSH4 0xABA47339 PUSH1 0xE0 SHL DUP2 MSTORE PUSH1 0x4 SWAP1 REVERT JUMPDEST DUP6 DUP1 REVERT JUMPDEST POP DUP1 REVERT JUMPDEST DUP3 CALLVALUE PUSH2 0x1DA JUMPI DUP1 PUSH1 0x3 NOT CALLDATASIZE ADD SLT PUSH2 0x1DA JUMPI PUSH1 0x40 MLOAD PUSH32 0x0 PUSH1 0x1 PUSH1 0x1 PUSH1 0xA0 SHL SUB AND DUP2 MSTORE PUSH1 0x20 SWAP1 RETURN JUMPDEST DUP3 CALLVALUE PUSH2 0x1DA JUMPI PUSH1 0x20 CALLDATASIZE PUSH1 0x3 NOT ADD SLT PUSH2 0x1DA JUMPI PUSH2 0x63E PUSH2 0x20E8 JUMP JUMPDEST PUSH2 0x646 PUSH2 0x2189 JUMP JUMPDEST PUSH1 0x1 PUSH1 0x1 PUSH1 0xA0 SHL SUB AND DUP1 DUP3 MSTORE PUSH1 0x5 PUSH1 0x20 MSTORE PUSH1 0x40 DUP3 KECCAK256 DUP1 SLOAD PUSH1 0xFF NOT AND PUSH1 0x1 OR SWAP1 SSTORE PUSH32 0x97B051FE48E86C08FCA96C9BBE846678783B6999358E6D4EFBAF9E40CA59B6A7 DUP3 DUP1 LOG2 DUP1 RETURN JUMPDEST DUP3 CALLVALUE PUSH2 0x1DA JUMPI DUP1 PUSH1 0x3 NOT CALLDATASIZE ADD SLT PUSH2 0x1DA JUMPI PUSH1 0x20 PUSH1 0x2 SLOAD PUSH1 0x40 MLOAD SWAP1 DUP2 MSTORE RETURN JUMPDEST DUP3 CALLVALUE PUSH2 0x1DA JUMPI DUP1 PUSH1 0x3 NOT CALLDATASIZE ADD SLT PUSH2 0x1DA JUMPI PUSH1 0x20 PUSH1 0xC SLOAD PUSH1 0x40 MLOAD SWAP1 DUP2 MSTORE RETURN JUMPDEST DUP3 CALLVALUE PUSH2 0x1DA JUMPI DUP1 PUSH1 0x3 NOT CALLDATASIZE ADD SLT PUSH2 0x1DA JUMPI PUSH1 0x40 MLOAD PUSH2 0x6E6 DUP2 PUSH2 0x1FA2 JUMP JUMPDEST PUSH1 0xA SWAP1 DUP2 DUP2 MSTORE DUP3 JUMPDEST PUSH2 0x140 DUP1 DUP3 LT ISZERO PUSH2 0x754 JUMPI PUSH1 0x40 MLOAD PUSH1 0x20 SWAP3 SWAP2 PUSH2 0x709 DUP3 PUSH2 0x1FA2 JUMP JUMPDEST DUP7 DUP3 MSTORE DUP7 PUSH1 0x60 SWAP2 DUP6 SWAP3 DUP1 DUP5 DUP7 ADD MSTORE DUP1 PUSH1 0x40 DUP7 ADD MSTORE DUP1 DUP6 ADD MSTORE DUP2 PUSH1 0x80 DUP6 ADD MSTORE DUP2 PUSH1 0xA0 DUP6 ADD MSTORE DUP2 PUSH1 0xC0 DUP6 ADD MSTORE DUP2 DUP11 DUP6 ADD MSTORE DUP2 PUSH2 0x100 DUP6 ADD MSTORE DUP2 PUSH2 0x120 DUP6 ADD MSTORE DUP4 ADD MSTORE DUP3 DUP6 ADD ADD MSTORE ADD PUSH2 0x6EE JUMP JUMPDEST POP POP SWAP1 DUP3 SWAP1 PUSH1 0x2 DUP1 SLOAD SWAP3 JUMPDEST DUP3 DUP2 LT PUSH2 0x863 JUMPI POP POP POP POP PUSH1 0x40 MLOAD SWAP2 PUSH1 0x20 DUP1 DUP5 ADD SWAP1 DUP1 DUP6 MSTORE DUP4 MLOAD DUP1 SWAP3 MSTORE PUSH1 0x40 DUP6 ADD DUP2 PUSH1 0x40 DUP5 PUSH1 0x5 SHL DUP9 ADD ADD SWAP6 ADD SWAP4 SWAP7 JUMPDEST DUP4 DUP9 LT PUSH2 0x79C JUMPI DUP7 DUP7 SUB DUP8 RETURN JUMPDEST SWAP1 SWAP2 SWAP3 SWAP4 SWAP5 DUP4 DUP1 PUSH1 0x1 SWAP3 PUSH1 0x3F NOT DUP11 DUP3 SUB ADD DUP7 MSTORE DUP9 MLOAD SWAP1 DUP5 DUP1 PUSH1 0xA0 SHL SUB DUP3 MLOAD AND DUP2 MSTORE PUSH2 0x7FF PUSH2 0x7EC PUSH2 0x7DA DUP6 DUP6 ADD MLOAD PUSH2 0x160 DUP1 DUP9 DUP8 ADD MSTORE DUP6 ADD SWAP1 PUSH2 0x2085 JUMP JUMPDEST PUSH1 0x40 DUP6 ADD MLOAD DUP5 DUP3 SUB PUSH1 0x40 DUP7 ADD MSTORE PUSH2 0x2085 JUMP JUMPDEST PUSH1 0x60 DUP1 DUP6 ADD MLOAD SWAP1 DUP5 DUP4 SUB SWAP1 DUP6 ADD MSTORE PUSH2 0x2085 JUMP JUMPDEST SWAP2 PUSH1 0x80 DUP1 DUP3 ADD MLOAD SWAP1 DUP4 ADD MSTORE PUSH2 0x81C PUSH1 0xA0 DUP1 DUP4 ADD MLOAD SWAP1 DUP5 ADD SWAP1 PUSH2 0x20C5 JUMP JUMPDEST PUSH1 0xC0 DUP1 DUP3 ADD MLOAD ISZERO ISZERO SWAP1 DUP4 ADD MSTORE DUP7 DUP2 ADD MLOAD ISZERO ISZERO DUP8 DUP4 ADD MSTORE PUSH2 0x100 DUP1 DUP3 ADD MLOAD SWAP1 DUP4 ADD MSTORE PUSH2 0x120 DUP1 DUP3 ADD MLOAD SWAP1 DUP4 ADD MSTORE PUSH2 0x140 DUP1 SWAP2 ADD MLOAD SWAP2 ADD MSTORE SWAP8 ADD SWAP4 ADD SWAP8 ADD SWAP7 SWAP1 SWAP4 SWAP3 SWAP2 SWAP4 PUSH2 0x78F JUMP JUMPDEST DUP4 DUP7 MSTORE PUSH1 0x7 PUSH1 0x20 SWAP1 DUP1 DUP3 MSTORE PUSH1 0x40 DUP9 KECCAK256 DUP4 DUP10 MSTORE DUP3 MSTORE PUSH1 0x40 DUP9 KECCAK256 PUSH1 0x40 MLOAD SWAP3 PUSH2 0x888 DUP5 PUSH2 0x1FA2 JUMP JUMPDEST DUP2 SLOAD PUSH1 0x1 PUSH1 0x1 PUSH1 0xA0 SHL SUB AND DUP5 MSTORE PUSH2 0x8A1 PUSH1 0x1 DUP4 ADD PUSH2 0x1FDF JUMP JUMPDEST SWAP1 DUP5 ADD MSTORE PUSH2 0x8B0 DUP6 DUP3 ADD PUSH2 0x1FDF JUMP JUMPDEST PUSH1 0x40 DUP5 ADD MSTORE PUSH2 0x8C1 PUSH1 0x3 DUP3 ADD PUSH2 0x1FDF JUMP JUMPDEST PUSH1 0x60 DUP5 ADD MSTORE PUSH1 0x4 DUP2 ADD SLOAD PUSH1 0x80 DUP5 ADD MSTORE PUSH1 0x5 DUP2 ADD SLOAD SWAP2 PUSH1 0xFF DUP1 DUP5 AND DUP9 DUP2 LT ISZERO PUSH2 0x944 JUMPI PUSH1 0xA0 DUP7 ADD MSTORE PUSH1 0x8 DUP5 DUP2 SHR DUP3 AND ISZERO ISZERO PUSH1 0xC0 DUP8 ADD MSTORE PUSH1 0x10 SWAP5 SWAP1 SWAP5 SHR AND ISZERO ISZERO DUP12 DUP6 ADD MSTORE PUSH1 0x6 DUP3 ADD SLOAD PUSH2 0x100 DUP6 ADD MSTORE DUP2 ADD SLOAD PUSH2 0x120 DUP5 ADD MSTORE ADD SLOAD PUSH2 0x140 DUP3 ADD MSTORE PUSH2 0x93F SWAP2 SWAP1 PUSH2 0x92E DUP3 DUP9 PUSH2 0x240E JUMP JUMPDEST MSTORE PUSH2 0x939 DUP2 DUP8 PUSH2 0x240E JUMP JUMPDEST POP PUSH2 0x2220 JUMP JUMPDEST PUSH2 0x75F JUMP JUMPDEST PUSH4 0x4E487B71 PUSH1 0xE0 SHL DUP13 MSTORE PUSH1 0x21 PUSH1 0x4 MSTORE PUSH1 0x24 DUP13 REVERT JUMPDEST DUP3 CALLVALUE PUSH2 0x1DA JUMPI PUSH1 0x20 CALLDATASIZE PUSH1 0x3 NOT ADD SLT PUSH2 0x1DA JUMPI PUSH1 0x20 SWAP1 PUSH1 0xFF SWAP1 PUSH1 0x40 SWAP1 PUSH1 0x1 PUSH1 0x1 PUSH1 0xA0 SHL SUB PUSH2 0x983 PUSH2 0x20E8 JUMP JUMPDEST AND DUP2 MSTORE PUSH1 0x4 DUP5 MSTORE KECCAK256 SLOAD AND PUSH1 0x40 MLOAD SWAP1 ISZERO ISZERO DUP2 MSTORE RETURN JUMPDEST DUP3 CALLVALUE PUSH2 0x1DA JUMPI PUSH2 0x9A6 CALLDATASIZE PUSH2 0x1F4D JUMP JUMPDEST SWAP1 PUSH2 0x9AF PUSH2 0x21B5 JUMP JUMPDEST PUSH1 0xA DUP3 LT ISZERO PUSH2 0x5A1 JUMPI DUP1 DUP4 MSTORE PUSH1 0x7 PUSH1 0x20 MSTORE PUSH1 0x40 DUP4 KECCAK256 DUP3 DUP5 MSTORE PUSH1 0x20 MSTORE PUSH1 0x40 DUP4 KECCAK256 PUSH1 0x1 DUP1 PUSH1 0xA0 SHL SUB DUP1 DUP3 SLOAD AND CALLER SUB PUSH2 0xB0D JUMPI PUSH1 0x5 DUP3 ADD SWAP2 DUP3 SLOAD SWAP1 PUSH1 0xFF DUP3 PUSH1 0x8 SHR AND PUSH2 0x58F JUMPI DUP7 SWAP4 PUSH3 0x10000 PUSH1 0x4 SWAP4 PUSH3 0xFF0000 NOT AND OR SWAP1 SSTORE ADD SWAP1 DUP2 SLOAD SWAP1 DUP2 PUSH2 0xA3F JUMPI JUMPDEST POP POP POP POP CALLER PUSH32 0x2DDF52AD696F7475D5E714CE5C8C1C4E9B93814E40D3F4C5AB845CB2BC0579AC DUP5 DUP1 LOG4 PUSH1 0x1 DUP1 SSTORE DUP1 RETURN JUMPDEST PUSH1 0x20 SWAP3 PUSH2 0xA51 PUSH2 0xA7F SWAP4 PUSH1 0xC SLOAD PUSH2 0x21F0 JUMP JUMPDEST PUSH1 0xC SSTORE SLOAD PUSH1 0x40 MLOAD PUSH4 0xA9059CBB PUSH1 0xE0 SHL DUP2 MSTORE CALLER PUSH1 0x4 DUP3 ADD MSTORE PUSH1 0x24 DUP2 ADD SWAP2 SWAP1 SWAP2 MSTORE SWAP4 DUP5 SWAP3 DUP4 SWAP2 SWAP1 DUP3 SWAP1 PUSH1 0x44 DUP3 ADD SWAP1 JUMP JUMPDEST SUB SWAP3 PUSH32 0x0 AND GAS CALL SWAP1 DUP2 ISZERO PUSH2 0xB02 JUMPI DUP5 SWAP2 PUSH2 0xAD4 JUMPI JUMPDEST POP ISZERO PUSH2 0xAC2 JUMPI DUP3 DUP5 DUP1 DUP1 PUSH2 0xA0F JUMP JUMPDEST PUSH1 0x40 MLOAD PUSH4 0x12171D83 PUSH1 0xE3 SHL DUP2 MSTORE PUSH1 0x4 SWAP1 REVERT JUMPDEST PUSH2 0xAF5 SWAP2 POP PUSH1 0x20 RETURNDATASIZE DUP2 GT PUSH2 0xAFB JUMPI JUMPDEST PUSH2 0xAED DUP2 DUP4 PUSH2 0x1FBE JUMP JUMPDEST DUP2 ADD SWAP1 PUSH2 0x21D8 JUMP JUMPDEST DUP5 PUSH2 0xAB3 JUMP JUMPDEST POP RETURNDATASIZE PUSH2 0xAE3 JUMP JUMPDEST PUSH1 0x40 MLOAD RETURNDATASIZE DUP7 DUP3 RETURNDATACOPY RETURNDATASIZE SWAP1 REVERT JUMPDEST PUSH1 0x40 MLOAD PUSH4 0x22111141 PUSH1 0xE1 SHL DUP2 MSTORE PUSH1 0x4 SWAP1 REVERT JUMPDEST DUP3 CALLVALUE PUSH2 0x1DA JUMPI DUP1 PUSH1 0x3 NOT CALLDATASIZE ADD SLT PUSH2 0x1DA JUMPI SLOAD PUSH1 0x40 MLOAD PUSH1 0x1 PUSH1 0x1 PUSH1 0xA0 SHL SUB SWAP1 SWAP2 AND DUP2 MSTORE PUSH1 0x20 SWAP1 RETURN JUMPDEST DUP3 CALLVALUE PUSH2 0x1DA JUMPI PUSH2 0xB55 CALLDATASIZE PUSH2 0x1F4D JUMP JUMPDEST SWAP1 PUSH2 0xB5E PUSH2 0x21B5 JUMP JUMPDEST CALLER DUP4 MSTORE PUSH1 0x20 PUSH1 0x4 DUP2 MSTORE PUSH1 0xFF PUSH1 0x40 DUP6 KECCAK256 SLOAD AND ISZERO PUSH2 0x5C5 JUMPI PUSH1 0xA DUP4 LT ISZERO PUSH2 0x5A1 JUMPI DUP2 DUP5 MSTORE PUSH1 0x7 DUP2 MSTORE PUSH1 0x40 DUP5 KECCAK256 DUP4 DUP6 MSTORE DUP2 MSTORE PUSH1 0x40 DUP5 KECCAK256 SWAP1 PUSH1 0x5 DUP3 ADD SLOAD PUSH1 0xFF DUP2 PUSH1 0x8 SHR AND ISZERO PUSH2 0xDA9 JUMPI PUSH1 0x10 SHR PUSH1 0xFF AND PUSH2 0x57D JUMPI DUP3 DUP6 MSTORE PUSH1 0x8 DUP2 MSTORE PUSH1 0x40 DUP6 KECCAK256 DUP5 DUP7 MSTORE DUP2 MSTORE PUSH1 0x40 DUP6 KECCAK256 CALLER PUSH1 0x0 MSTORE DUP2 MSTORE PUSH1 0xFF PUSH1 0x40 PUSH1 0x0 KECCAK256 SLOAD AND ISZERO PUSH2 0xD97 JUMPI DUP3 DUP6 MSTORE PUSH1 0x9 DUP2 MSTORE PUSH1 0x40 DUP6 KECCAK256 DUP5 DUP7 MSTORE DUP2 MSTORE PUSH1 0x40 DUP6 KECCAK256 CALLER PUSH1 0x0 MSTORE DUP2 MSTORE PUSH1 0xFF PUSH1 0x40 PUSH1 0x0 KECCAK256 SLOAD AND PUSH2 0xD85 JUMPI PUSH1 0x8 DUP3 ADD SLOAD PUSH3 0x127500 DUP2 ADD DUP1 SWAP2 GT PUSH2 0xD71 JUMPI TIMESTAMP GT PUSH2 0xD5F JUMPI PUSH1 0x6 DUP3 ADD SLOAD DUP1 ISZERO PUSH2 0xD4D JUMPI PUSH1 0x4 DUP4 ADD SLOAD PUSH2 0x1F4 DUP1 DUP3 MUL SWAP1 DUP3 DUP3 DIV EQ DUP3 ISZERO OR ISZERO PUSH2 0xD39 JUMPI SWAP2 PUSH2 0xC4C PUSH2 0xC51 SWAP3 PUSH2 0x2710 PUSH1 0x7 SWAP6 DIV SWAP1 PUSH2 0x21F0 JUMP JUMPDEST PUSH2 0x222F JUMP JUMPDEST SWAP3 DUP5 DUP8 MSTORE PUSH1 0x9 DUP4 MSTORE PUSH1 0x40 DUP8 KECCAK256 DUP7 DUP9 MSTORE DUP4 MSTORE PUSH1 0x40 DUP8 KECCAK256 CALLER PUSH1 0x0 MSTORE DUP4 MSTORE PUSH1 0x40 PUSH1 0x0 KECCAK256 PUSH1 0x1 PUSH1 0xFF NOT DUP3 SLOAD AND OR SWAP1 SSTORE ADD PUSH2 0xC88 DUP4 DUP3 SLOAD PUSH2 0x2213 JUMP JUMPDEST SWAP1 SSTORE PUSH1 0x40 MLOAD PUSH4 0xA9059CBB PUSH1 0xE0 SHL DUP2 MSTORE CALLER PUSH1 0x4 DUP3 ADD MSTORE PUSH1 0x24 DUP2 ADD DUP4 SWAP1 MSTORE DUP2 DUP2 PUSH1 0x44 DUP2 DUP10 PUSH1 0x1 PUSH1 0x1 PUSH1 0xA0 SHL SUB PUSH32 0x0 AND GAS CALL SWAP1 DUP2 ISZERO PUSH2 0x4F3 JUMPI DUP7 SWAP2 PUSH2 0xD1C JUMPI JUMPDEST POP ISZERO PUSH2 0xAC2 JUMPI PUSH32 0x812BE816DB82C66CD18CA8457005CD84689642D8AC4D38599CC6AF444A2DC72A SWAP1 PUSH1 0x40 MLOAD SWAP3 DUP4 MSTORE CALLER SWAP3 LOG4 PUSH1 0x1 DUP1 SSTORE DUP1 RETURN JUMPDEST PUSH2 0xD33 SWAP2 POP DUP3 RETURNDATASIZE DUP5 GT PUSH2 0xAFB JUMPI PUSH2 0xAED DUP2 DUP4 PUSH2 0x1FBE JUMP JUMPDEST DUP7 PUSH2 0xCE4 JUMP JUMPDEST PUSH4 0x4E487B71 PUSH1 0xE0 SHL DUP9 MSTORE PUSH1 0x11 PUSH1 0x4 MSTORE PUSH1 0x24 DUP9 REVERT JUMPDEST PUSH1 0x40 MLOAD PUSH4 0x162908E3 PUSH1 0xE1 SHL DUP2 MSTORE PUSH1 0x4 SWAP1 REVERT JUMPDEST PUSH1 0x40 MLOAD PUSH4 0x320C7B7D PUSH1 0xE2 SHL DUP2 MSTORE PUSH1 0x4 SWAP1 REVERT JUMPDEST PUSH4 0x4E487B71 PUSH1 0xE0 SHL DUP7 MSTORE PUSH1 0x11 PUSH1 0x4 MSTORE PUSH1 0x24 DUP7 REVERT JUMPDEST PUSH1 0x40 MLOAD PUSH4 0xC8D9EAB PUSH1 0xE3 SHL DUP2 MSTORE PUSH1 0x4 SWAP1 REVERT JUMPDEST PUSH1 0x40 MLOAD PUSH4 0x1327DEB PUSH1 0xE0 SHL DUP2 MSTORE PUSH1 0x4 SWAP1 REVERT JUMPDEST PUSH1 0x40 MLOAD PUSH4 0xDF706AD PUSH1 0xE1 SHL DUP2 MSTORE PUSH1 0x4 SWAP1 REVERT JUMPDEST DUP3 CALLVALUE PUSH2 0x1DA JUMPI DUP1 PUSH1 0x3 NOT CALLDATASIZE ADD SLT PUSH2 0x1DA JUMPI PUSH1 0x40 MLOAD PUSH32 0x0 PUSH1 0x1 PUSH1 0x1 PUSH1 0xA0 SHL SUB AND DUP2 MSTORE PUSH1 0x20 SWAP1 RETURN JUMPDEST DUP3 CALLVALUE PUSH2 0x1DA JUMPI PUSH1 0x20 CALLDATASIZE PUSH1 0x3 NOT ADD SLT PUSH2 0x1DA JUMPI PUSH2 0xE1A PUSH2 0x20E8 JUMP JUMPDEST PUSH2 0xE22 PUSH2 0x2189 JUMP JUMPDEST PUSH1 0x1 PUSH1 0x1 PUSH1 0xA0 SHL SUB AND DUP1 DUP3 MSTORE PUSH1 0x5 PUSH1 0x20 MSTORE PUSH1 0x40 DUP3 KECCAK256 DUP1 SLOAD PUSH1 0xFF NOT AND SWAP1 SSTORE PUSH32 0x2A2F5E02B0E6AAB2B998DBCAE41AEC9407649A38BD8D41B7B49BEDEE8CDEAF2E DUP3 DUP1 LOG2 DUP1 RETURN JUMPDEST DUP3 CALLVALUE PUSH2 0x1DA JUMPI DUP1 PUSH1 0x3 NOT CALLDATASIZE ADD SLT PUSH2 0x1DA JUMPI PUSH2 0xE7F PUSH2 0x21B5 JUMP JUMPDEST PUSH2 0xE87 PUSH2 0x224F JUMP JUMPDEST PUSH1 0x1 DUP1 SSTORE DUP1 RETURN JUMPDEST DUP3 CALLVALUE PUSH2 0x1DA JUMPI DUP1 PUSH1 0x3 NOT CALLDATASIZE ADD SLT PUSH2 0x1DA JUMPI PUSH2 0xEA7 PUSH2 0x2189 JUMP JUMPDEST PUSH1 0x0 DUP1 SLOAD PUSH1 0x1 PUSH1 0x1 PUSH1 0xA0 SHL SUB NOT DUP2 AND DUP3 SSTORE PUSH1 0x1 PUSH1 0x1 PUSH1 0xA0 SHL SUB AND PUSH32 0x8BE0079C531659141344CD1FD0A4F28419497F9722A3DAAFE3B4186F6B6457E0 DUP3 DUP1 LOG3 DUP1 RETURN JUMPDEST DUP3 CALLVALUE PUSH2 0x1DA JUMPI DUP1 PUSH1 0x3 NOT CALLDATASIZE ADD SLT PUSH2 0x1DA JUMPI PUSH1 0x20 PUSH1 0x3 SLOAD PUSH1 0x40 MLOAD SWAP1 DUP2 MSTORE RETURN JUMPDEST DUP3 CALLVALUE PUSH2 0x1DA JUMPI PUSH1 0x40 PUSH2 0xF17 CALLDATASIZE PUSH2 0x212B JUMP JUMPDEST SWAP4 SWAP2 DUP3 MSTORE PUSH1 0x9 PUSH1 0x20 MSTORE DUP3 DUP3 KECCAK256 SWAP1 DUP3 MSTORE PUSH1 0x20 MSTORE KECCAK256 SWAP1 PUSH1 0x1 DUP1 PUSH1 0xA0 SHL SUB AND PUSH1 0x0 MSTORE PUSH1 0x20 MSTORE PUSH1 0x20 PUSH1 0xFF PUSH1 0x40 PUSH1 0x0 KECCAK256 SLOAD AND PUSH1 0x40 MLOAD SWAP1 ISZERO ISZERO DUP2 MSTORE RETURN JUMPDEST DUP3 CALLVALUE PUSH2 0x1DA JUMPI PUSH1 0x20 SWAP1 DUP2 PUSH1 0x3 NOT CALLDATASIZE ADD SLT PUSH2 0x1DA JUMPI PUSH2 0xF6A PUSH2 0x20E8 JUMP JUMPDEST SWAP1 PUSH1 0x2 SLOAD SWAP2 PUSH1 0xA SWAP3 DUP4 DUP2 MUL SWAP4 DUP2 DUP6 DIV DUP2 EQ DUP3 ISZERO OR ISZERO PUSH2 0x11F2 JUMPI PUSH2 0xF8F DUP6 SWAP4 SWAP3 SWAP4 PUSH2 0x2505 JUMP JUMPDEST SWAP3 PUSH2 0xFA2 PUSH2 0xF9C DUP8 PUSH2 0x2505 JUMP JUMPDEST SWAP7 PUSH2 0x2505 JUMP JUMPDEST DUP6 SWAP4 SWAP1 SWAP3 SWAP1 PUSH1 0x1 PUSH1 0x1 PUSH1 0xA0 SHL SUB AND DUP5 JUMPDEST DUP4 DUP2 GT ISZERO PUSH2 0x1074 JUMPI POP POP POP POP PUSH2 0xFC7 DUP3 PUSH2 0x2505 JUMP JUMPDEST SWAP5 PUSH2 0xFD1 DUP4 PUSH2 0x2505 JUMP JUMPDEST SWAP4 PUSH2 0xFDB DUP5 PUSH2 0x2505 JUMP JUMPDEST SWAP6 JUMPDEST DUP5 DUP2 LT PUSH2 0x1024 JUMPI PUSH2 0x1005 DUP9 PUSH2 0x1020 DUP10 PUSH2 0x1012 DUP14 DUP12 PUSH1 0x40 MLOAD SWAP7 DUP8 SWAP7 PUSH1 0x60 DUP9 MSTORE PUSH1 0x60 DUP9 ADD SWAP1 PUSH2 0x2155 JUMP JUMPDEST SWAP2 DUP7 DUP4 SUB SWAP1 DUP8 ADD MSTORE PUSH2 0x2155 JUMP JUMPDEST SWAP1 DUP4 DUP3 SUB PUSH1 0x40 DUP6 ADD MSTORE PUSH2 0x2155 JUMP JUMPDEST SUB SWAP1 RETURN JUMPDEST DUP1 PUSH2 0x1032 PUSH2 0x106F SWAP3 DUP5 PUSH2 0x240E JUMP JUMPDEST MLOAD PUSH2 0x103D DUP3 DUP12 PUSH2 0x240E JUMP JUMPDEST MSTORE PUSH2 0x1048 DUP2 DUP6 PUSH2 0x240E JUMP JUMPDEST MLOAD PUSH2 0x1053 DUP3 DUP10 PUSH2 0x240E JUMP JUMPDEST MSTORE PUSH2 0x105E DUP2 DUP7 PUSH2 0x240E JUMP JUMPDEST MLOAD PUSH2 0x1069 DUP3 DUP11 PUSH2 0x240E JUMP JUMPDEST MSTORE PUSH2 0x2220 JUMP JUMPDEST PUSH2 0xFDD JUMP JUMPDEST DUP8 JUMPDEST DUP4 DUP2 LT PUSH2 0x108C JUMPI POP PUSH2 0x1087 SWAP1 PUSH2 0x2220 JUMP JUMPDEST PUSH2 0xFB2 JUMP JUMPDEST DUP2 DUP10 MSTORE PUSH1 0x7 DUP12 MSTORE PUSH1 0x40 DUP10 KECCAK256 DUP2 DUP11 MSTORE DUP12 MSTORE PUSH1 0x40 DUP10 KECCAK256 DUP3 DUP11 MSTORE DUP12 PUSH1 0x8 DUP1 DUP3 MSTORE PUSH1 0x40 DUP13 KECCAK256 DUP5 DUP14 MSTORE DUP3 MSTORE PUSH1 0x40 DUP13 KECCAK256 DUP7 PUSH1 0x0 MSTORE DUP3 MSTORE PUSH1 0xFF DUP13 DUP2 PUSH1 0x40 PUSH1 0x0 KECCAK256 SLOAD AND SWAP4 DUP5 PUSH2 0x11C3 JUMPI JUMPDEST POP POP DUP3 PUSH2 0x11B3 JUMPI JUMPDEST POP DUP2 PUSH2 0x1184 JUMPI JUMPDEST POP DUP1 PUSH2 0x1177 JUMPI JUMPDEST PUSH2 0x10F8 JUMPI JUMPDEST POP PUSH2 0x10F3 SWAP1 PUSH2 0x2220 JUMP JUMPDEST PUSH2 0x1076 JUMP JUMPDEST PUSH1 0x4 DUP2 SWAP9 SWAP3 SWAP9 ADD SLOAD PUSH2 0x1F4 DUP1 DUP3 MUL SWAP1 DUP3 DUP3 DIV EQ DUP3 ISZERO OR ISZERO PUSH2 0x1163 JUMPI DUP10 PUSH2 0x1151 DUP6 DUP16 DUP9 DUP16 SWAP6 DUP4 PUSH2 0x1145 PUSH2 0x115C SWAP11 PUSH1 0x6 PUSH2 0x113C PUSH2 0x10F3 SWAP15 SWAP13 PUSH2 0x2710 PUSH2 0x114B SWAP8 DIV SWAP1 PUSH2 0x21F0 JUMP JUMPDEST SWAP2 ADD SLOAD SWAP1 PUSH2 0x222F JUMP JUMPDEST SWAP8 PUSH2 0x240E JUMP JUMPDEST MSTORE PUSH2 0x240E JUMP JUMPDEST MSTORE PUSH2 0x1069 DUP3 DUP11 PUSH2 0x240E JUMP JUMPDEST SWAP7 SWAP1 PUSH2 0x10E9 JUMP JUMPDEST PUSH4 0x4E487B71 PUSH1 0xE0 SHL DUP13 MSTORE PUSH1 0x11 PUSH1 0x4 MSTORE PUSH1 0x24 DUP13 REVERT JUMPDEST POP PUSH1 0x6 DUP2 ADD SLOAD ISZERO ISZERO PUSH2 0x10E4 JUMP JUMPDEST SWAP1 POP DUP2 ADD SLOAD PUSH3 0x127500 DUP2 ADD DUP1 SWAP2 GT PUSH2 0x119F JUMPI TIMESTAMP GT ISZERO DUP14 PUSH2 0x10DD JUMP JUMPDEST PUSH4 0x4E487B71 PUSH1 0xE0 SHL DUP12 MSTORE PUSH1 0x11 PUSH1 0x4 MSTORE PUSH1 0x24 DUP12 REVERT JUMPDEST PUSH1 0x5 DUP5 ADD SLOAD DUP3 SHR AND SWAP2 POP DUP15 PUSH2 0x10D6 JUMP JUMPDEST SWAP1 SWAP2 SWAP4 POP DUP7 DUP3 MSTORE PUSH1 0x9 DUP2 MSTORE DUP6 PUSH1 0x40 DUP4 KECCAK256 SWAP3 MSTORE MSTORE DUP14 PUSH1 0x40 DUP14 KECCAK256 SWAP1 DUP8 PUSH1 0x0 MSTORE MSTORE DUP2 PUSH1 0x40 PUSH1 0x0 KECCAK256 SLOAD AND ISZERO SWAP2 DUP13 DUP16 PUSH2 0x10CE JUMP JUMPDEST PUSH4 0x4E487B71 PUSH1 0xE0 SHL DUP5 MSTORE PUSH1 0x11 PUSH1 0x4 MSTORE PUSH1 0x24 DUP5 REVERT JUMPDEST DUP3 CALLVALUE PUSH2 0x1DA JUMPI PUSH1 0x20 CALLDATASIZE PUSH1 0x3 NOT ADD SLT PUSH2 0x1DA JUMPI PUSH1 0x20 SWAP1 PUSH1 0xFF SWAP1 PUSH1 0x40 SWAP1 PUSH1 0x1 PUSH1 0x1 PUSH1 0xA0 SHL SUB PUSH2 0x1231 PUSH2 0x20E8 JUMP JUMPDEST AND DUP2 MSTORE PUSH1 0x6 DUP5 MSTORE KECCAK256 SLOAD AND PUSH1 0x40 MLOAD SWAP1 ISZERO ISZERO DUP2 MSTORE RETURN JUMPDEST DUP3 CALLVALUE PUSH2 0x1DA JUMPI DUP1 PUSH1 0x3 NOT CALLDATASIZE ADD SLT PUSH2 0x1DA JUMPI PUSH1 0x20 PUSH1 0xB SLOAD PUSH1 0x40 MLOAD SWAP1 DUP2 MSTORE RETURN JUMPDEST DUP3 CALLVALUE PUSH2 0x1DA JUMPI DUP1 PUSH1 0x3 NOT CALLDATASIZE ADD SLT PUSH2 0x1DA JUMPI PUSH1 0x20 PUSH1 0x40 MLOAD PUSH2 0x1F4 DUP2 MSTORE RETURN JUMPDEST DUP3 CALLVALUE PUSH2 0x1DA JUMPI PUSH1 0x20 CALLDATASIZE PUSH1 0x3 NOT ADD SLT PUSH2 0x1DA JUMPI PUSH2 0x129A PUSH2 0x20E8 JUMP JUMPDEST PUSH2 0x12A2 PUSH2 0x2189 JUMP JUMPDEST PUSH1 0x1 PUSH1 0x1 PUSH1 0xA0 SHL SUB AND DUP2 MSTORE PUSH1 0x6 PUSH1 0x20 MSTORE PUSH1 0x40 DUP2 KECCAK256 DUP1 SLOAD PUSH1 0xFF NOT AND PUSH1 0x1 OR SWAP1 SSTORE DUP1 RETURN JUMPDEST DUP3 CALLVALUE PUSH2 0x1DA JUMPI PUSH1 0x40 PUSH2 0x12D5 CALLDATASIZE PUSH2 0x212B JUMP JUMPDEST SWAP4 SWAP2 DUP3 MSTORE PUSH1 0x8 PUSH1 0x20 MSTORE DUP3 DUP3 KECCAK256 SWAP1 DUP3 MSTORE PUSH1 0x20 MSTORE KECCAK256 SWAP1 PUSH1 0x1 DUP1 PUSH1 0xA0 SHL SUB AND PUSH1 0x0 MSTORE PUSH1 0x20 MSTORE PUSH1 0x20 PUSH1 0xFF PUSH1 0x40 PUSH1 0x0 KECCAK256 SLOAD AND PUSH1 0x40 MLOAD SWAP1 ISZERO ISZERO DUP2 MSTORE RETURN JUMPDEST DUP3 CALLVALUE PUSH2 0x1DA JUMPI DUP1 PUSH1 0x3 NOT CALLDATASIZE ADD SLT PUSH2 0x1DA JUMPI PUSH2 0x1325 PUSH2 0x2189 JUMP JUMPDEST PUSH2 0x132D PUSH2 0x21B5 JUMP JUMPDEST PUSH1 0xB SLOAD DUP1 ISZERO PUSH2 0xD4D JUMPI PUSH1 0xB DUP3 SWAP1 SSTORE DUP2 SLOAD PUSH1 0x40 MLOAD PUSH4 0xA9059CBB PUSH1 0xE0 SHL DUP2 MSTORE PUSH1 0x1 PUSH1 0x1 PUSH1 0xA0 SHL SUB SWAP2 DUP3 AND PUSH1 0x4 DUP3 ADD MSTORE PUSH1 0x24 DUP2 ADD DUP4 SWAP1 MSTORE PUSH1 0x20 DUP2 PUSH1 0x44 DUP2 DUP8 PUSH32 0x0 DUP8 AND GAS CALL SWAP1 DUP2 ISZERO PUSH2 0xB02 JUMPI DUP5 SWAP2 PUSH2 0x13D7 JUMPI JUMPDEST POP ISZERO PUSH2 0xAC2 JUMPI PUSH1 0x20 PUSH32 0xC0819C13BE868895EB93E40EACEB96DE976442FA1D404E5C55F14BB65A8C489A SWAP2 DUP5 SLOAD AND SWAP3 PUSH1 0x40 MLOAD SWAP1 DUP2 MSTORE LOG2 PUSH1 0x1 DUP1 SSTORE DUP1 RETURN JUMPDEST PUSH2 0x13EF SWAP2 POP PUSH1 0x20 RETURNDATASIZE DUP2 GT PUSH2 0xAFB JUMPI PUSH2 0xAED DUP2 DUP4 PUSH2 0x1FBE JUMP JUMPDEST DUP5 PUSH2 0x139B JUMP JUMPDEST DUP3 CALLVALUE PUSH2 0x1DA JUMPI DUP1 PUSH1 0x3 NOT CALLDATASIZE ADD SLT PUSH2 0x1DA JUMPI PUSH1 0x20 PUSH1 0x40 MLOAD PUSH3 0x127500 DUP2 MSTORE RETURN JUMPDEST DUP3 CALLVALUE PUSH2 0x1DA JUMPI DUP1 PUSH1 0x3 NOT CALLDATASIZE ADD SLT PUSH2 0x1DA JUMPI PUSH1 0x20 PUSH1 0x40 MLOAD PUSH1 0xA DUP2 MSTORE RETURN JUMPDEST DUP3 CALLVALUE PUSH2 0x1DA JUMPI PUSH1 0x20 PUSH2 0x1449 PUSH2 0x1443 CALLDATASIZE PUSH2 0x212B JUMP JUMPDEST SWAP2 PUSH2 0x2438 JUMP JUMPDEST PUSH1 0x40 MLOAD SWAP1 DUP2 MSTORE RETURN JUMPDEST DUP3 CALLVALUE PUSH2 0x1DA JUMPI DUP1 PUSH1 0x3 NOT CALLDATASIZE ADD SLT PUSH2 0x1DA JUMPI PUSH2 0x146A PUSH2 0x21B5 JUMP JUMPDEST CALLER DUP2 MSTORE PUSH1 0x4 PUSH1 0x20 MSTORE PUSH1 0xFF PUSH1 0x40 DUP3 KECCAK256 SLOAD AND PUSH2 0x14C1 JUMPI CALLER DUP1 DUP3 MSTORE PUSH1 0x4 PUSH1 0x20 MSTORE PUSH1 0x40 DUP3 KECCAK256 DUP1 SLOAD PUSH1 0xFF NOT AND PUSH1 0x1 OR SWAP1 SSTORE PUSH32 0x54DB7A5CB4735E1AAC1F53DB512D3390390BB6637BD30AD4BF9FC98667D9B9B9 DUP3 DUP1 LOG2 PUSH1 0x1 DUP1 SSTORE DUP1 RETURN JUMPDEST PUSH1 0x40 MLOAD PUSH4 0xEA075BF PUSH1 0xE2 SHL DUP2 MSTORE PUSH1 0x4 SWAP1 REVERT JUMPDEST DUP3 CALLVALUE PUSH2 0x1DA JUMPI PUSH2 0x180 CALLDATASIZE PUSH1 0x3 NOT ADD SLT PUSH2 0x1DA JUMPI PUSH1 0x44 CALLDATALOAD PUSH1 0x1 PUSH1 0x1 PUSH1 0x40 SHL SUB DUP2 GT PUSH2 0x5DB JUMPI PUSH2 0x1505 SWAP1 CALLDATASIZE SWAP1 PUSH1 0x4 ADD PUSH2 0x20FE JUMP JUMPDEST PUSH1 0x64 CALLDATALOAD PUSH1 0x1 PUSH1 0x1 PUSH1 0x40 SHL SUB DUP2 GT PUSH2 0x1C53 JUMPI PUSH2 0x1524 SWAP1 CALLDATASIZE SWAP1 PUSH1 0x4 ADD PUSH2 0x20FE JUMP JUMPDEST PUSH1 0x84 SWAP3 SWAP2 SWAP3 CALLDATALOAD PUSH1 0x1 PUSH1 0x1 PUSH1 0x40 SHL SUB DUP2 GT PUSH2 0x5D7 JUMPI PUSH2 0x1546 SWAP1 CALLDATASIZE SWAP1 PUSH1 0x4 ADD PUSH2 0x20FE JUMP JUMPDEST SWAP4 SWAP1 SWAP3 PUSH1 0xA PUSH1 0xC4 CALLDATALOAD LT ISZERO PUSH2 0x1C4F JUMPI PUSH1 0x80 CALLDATASIZE PUSH1 0xE3 NOT ADD SLT PUSH2 0x1C4F JUMPI PUSH2 0x164 CALLDATALOAD PUSH1 0x1 PUSH1 0x1 PUSH1 0x40 SHL SUB DUP2 GT PUSH2 0x1C4B JUMPI PUSH2 0x1580 SWAP1 CALLDATASIZE SWAP1 PUSH1 0x4 ADD PUSH2 0x20FE JUMP JUMPDEST PUSH2 0x158B SWAP8 SWAP2 SWAP8 PUSH2 0x21B5 JUMP JUMPDEST CALLER DUP10 MSTORE PUSH1 0x5 PUSH1 0x20 MSTORE PUSH1 0xFF PUSH1 0x40 DUP11 KECCAK256 SLOAD AND PUSH2 0x1C39 JUMPI PUSH1 0x2 SLOAD PUSH1 0x4 CALLDATALOAD SUB PUSH2 0x5B3 JUMPI PUSH1 0xA PUSH1 0x24 CALLDATALOAD LT ISZERO PUSH2 0x5A1 JUMPI PUSH1 0x4 CALLDATALOAD DUP10 MSTORE PUSH1 0x7 PUSH1 0x20 MSTORE PUSH1 0x40 DUP10 KECCAK256 PUSH1 0x24 CALLDATALOAD DUP11 MSTORE PUSH1 0x20 MSTORE PUSH1 0x40 DUP10 KECCAK256 SWAP8 PUSH1 0x1 DUP1 PUSH1 0xA0 SHL SUB DUP10 SLOAD AND DUP1 ISZERO ISZERO DUP1 PUSH2 0x1C2C JUMPI JUMPDEST PUSH2 0x1B73 JUMPI JUMPDEST POP PUSH1 0x40 MLOAD SWAP1 DUP2 PUSH1 0x40 DUP2 ADD LT PUSH1 0x1 PUSH1 0x1 PUSH1 0x40 SHL SUB PUSH1 0x40 DUP5 ADD GT OR PUSH2 0x1B5F JUMPI PUSH1 0x40 DUP1 DUP4 ADD SWAP1 MSTORE ADDRESS DUP3 MSTORE PUSH1 0xA4 CALLDATALOAD PUSH1 0x20 DUP4 ADD MSTORE DUP11 SWAP2 SWAP1 PUSH32 0x0 PUSH1 0x1 PUSH1 0x1 PUSH1 0xA0 SHL SUB AND EXTCODESIZE ISZERO PUSH2 0x1B5B JUMPI PUSH1 0x40 MLOAD PUSH4 0x187945BD PUSH1 0xE1 SHL DUP2 MSTORE SWAP4 PUSH1 0xE4 CALLDATALOAD PUSH1 0x1 PUSH1 0x1 PUSH1 0xA0 SHL SUB DUP2 AND SWAP2 SWAP1 DUP3 SWAP1 SUB PUSH2 0x1B57 JUMPI DUP1 PUSH2 0x124 SWAP4 DUP2 DUP9 SWAP7 DUP8 SWAP6 PUSH1 0x4 DUP8 ADD MSTORE PUSH1 0x20 PUSH2 0x104 SWAP2 DUP3 CALLDATALOAD PUSH1 0x24 DUP10 ADD MSTORE DUP9 CALLDATALOAD PUSH1 0x44 DUP10 ADD MSTORE PUSH2 0x144 CALLDATALOAD PUSH1 0x64 DUP10 ADD MSTORE PUSH1 0x1 DUP1 PUSH1 0xA0 SHL SUB DUP2 MLOAD AND PUSH1 0x84 DUP10 ADD MSTORE ADD MLOAD PUSH1 0xA4 DUP8 ADD MSTORE CALLER PUSH1 0xC4 DUP8 ADD MSTORE PUSH2 0x100 PUSH1 0xE4 DUP8 ADD MSTORE DUP6 ADD MSTORE DUP5 DUP5 ADD CALLDATACOPY DUP2 DUP2 ADD DUP4 ADD DUP6 SWAP1 MSTORE PUSH1 0x1F ADD PUSH1 0x1F NOT AND DUP2 ADD SUB ADD DUP2 DUP4 PUSH32 0x0 PUSH1 0x1 PUSH1 0x1 PUSH1 0xA0 SHL SUB AND GAS CALL DUP1 ISZERO PUSH2 0x1B4C JUMPI PUSH2 0x1B1D JUMPI JUMPDEST POP DUP7 SLOAD PUSH1 0x1 PUSH1 0x1 PUSH1 0xA0 SHL SUB NOT AND CALLER OR DUP8 SSTORE PUSH1 0x1 PUSH1 0x1 PUSH1 0x40 SHL SUB DUP3 GT PUSH2 0x1B09 JUMPI DUP2 SWAP1 PUSH2 0x173F PUSH1 0x1 DUP10 ADD SLOAD PUSH2 0x1F68 JUMP JUMPDEST PUSH1 0x1F DUP2 GT PUSH2 0x1AB9 JUMPI JUMPDEST POP DUP9 SWAP1 PUSH1 0x1F DUP4 GT PUSH1 0x1 EQ PUSH2 0x1A4D JUMPI DUP10 SWAP3 PUSH2 0x1A42 JUMPI JUMPDEST POP POP DUP2 PUSH1 0x1 SHL SWAP2 PUSH1 0x0 NOT SWAP1 PUSH1 0x3 SHL SHR NOT AND OR PUSH1 0x1 DUP7 ADD SSTORE JUMPDEST PUSH1 0x1 PUSH1 0x1 PUSH1 0x40 SHL SUB DUP3 GT PUSH2 0x1A2E JUMPI DUP2 SWAP1 PUSH2 0x1792 PUSH1 0x2 DUP8 ADD SLOAD PUSH2 0x1F68 JUMP JUMPDEST PUSH1 0x1F DUP2 GT PUSH2 0x19DE JUMPI JUMPDEST POP DUP7 SWAP1 PUSH1 0x1F DUP4 GT PUSH1 0x1 EQ PUSH2 0x1972 JUMPI DUP8 SWAP3 PUSH2 0x1967 JUMPI JUMPDEST POP POP DUP2 PUSH1 0x1 SHL SWAP2 PUSH1 0x0 NOT SWAP1 PUSH1 0x3 SHL SHR NOT AND OR PUSH1 0x2 DUP5 ADD SSTORE JUMPDEST PUSH1 0x1 PUSH1 0x1 PUSH1 0x40 SHL SUB DUP3 GT PUSH2 0x1953 JUMPI PUSH2 0x17E3 PUSH1 0x3 DUP5 ADD SLOAD PUSH2 0x1F68 JUMP JUMPDEST PUSH1 0x1F DUP2 GT PUSH2 0x190F JUMPI JUMPDEST POP DUP4 SWAP1 PUSH1 0x1F DUP4 GT PUSH1 0x1 EQ PUSH2 0x189F JUMPI PUSH1 0x5 SWAP4 SWAP3 SWAP2 DUP6 SWAP2 DUP4 PUSH2 0x1894 JUMPI JUMPDEST POP POP DUP2 PUSH1 0x1 SHL SWAP2 PUSH1 0x0 NOT SWAP1 PUSH1 0x3 SHL SHR NOT AND OR PUSH1 0x3 DUP3 ADD SSTORE JUMPDEST PUSH1 0xA4 CALLDATALOAD PUSH1 0x4 DUP3 ADD SSTORE ADD PUSH1 0xFF NOT DUP2 SLOAD AND PUSH1 0xFF PUSH1 0xC4 CALLDATALOAD AND OR SWAP1 SSTORE PUSH2 0x1845 PUSH1 0xA4 CALLDATALOAD PUSH1 0xC SLOAD PUSH2 0x2213 JUMP JUMPDEST PUSH1 0xC SSTORE PUSH1 0x40 MLOAD PUSH2 0x1857 DUP2 PUSH1 0xC4 CALLDATALOAD PUSH2 0x20C5 JUMP JUMPDEST PUSH1 0xA4 CALLDATALOAD PUSH1 0x20 DUP3 ADD MSTORE PUSH1 0x24 CALLDATALOAD SWAP1 PUSH1 0x4 CALLDATALOAD SWAP1 PUSH32 0x57FD3B672D0A576A3E359189CF66CB6F9F8928EBA7C11EFBE695D66B957CE76E PUSH1 0x40 CALLER SWAP3 LOG4 PUSH1 0x1 DUP1 SSTORE DUP1 RETURN JUMPDEST ADD CALLDATALOAD SWAP1 POP DUP6 DUP1 PUSH2 0x1807 JUMP JUMPDEST PUSH1 0x3 DUP5 ADD DUP6 MSTORE PUSH1 0x20 DUP6 KECCAK256 SWAP2 DUP6 JUMPDEST PUSH1 0x1F NOT DUP6 AND DUP2 LT PUSH2 0x18F7 JUMPI POP SWAP2 DUP4 SWAP2 PUSH1 0x1 SWAP4 PUSH1 0x5 SWAP7 SWAP6 PUSH1 0x1F NOT DUP2 AND LT PUSH2 0x18DD JUMPI JUMPDEST POP POP POP DUP2 SHL ADD PUSH1 0x3 DUP3 ADD SSTORE PUSH2 0x181F JUMP JUMPDEST ADD CALLDATALOAD PUSH1 0x0 NOT PUSH1 0x3 DUP5 SWAP1 SHL PUSH1 0xF8 AND SHR NOT AND SWAP1 SSTORE DUP6 DUP1 DUP1 PUSH2 0x18CD JUMP JUMPDEST SWAP1 SWAP3 PUSH1 0x20 PUSH1 0x1 DUP2 SWAP3 DUP7 DUP7 ADD CALLDATALOAD DUP2 SSTORE ADD SWAP5 ADD SWAP2 ADD PUSH2 0x18AC JUMP JUMPDEST PUSH1 0x3 DUP5 ADD DUP6 MSTORE PUSH1 0x20 DUP6 KECCAK256 PUSH1 0x1F DUP5 ADD PUSH1 0x5 SHR DUP2 ADD PUSH1 0x20 DUP6 LT PUSH2 0x194C JUMPI JUMPDEST PUSH1 0x1F DUP4 ADD PUSH1 0x5 SHR DUP3 ADD DUP2 LT PUSH2 0x1941 JUMPI POP POP PUSH2 0x17EC JUMP JUMPDEST DUP7 DUP2 SSTORE PUSH1 0x1 ADD PUSH2 0x192B JUMP JUMPDEST POP DUP1 PUSH2 0x192B JUMP JUMPDEST PUSH4 0x4E487B71 PUSH1 0xE0 SHL DUP5 MSTORE PUSH1 0x41 PUSH1 0x4 MSTORE PUSH1 0x24 DUP5 REVERT JUMPDEST ADD CALLDATALOAD SWAP1 POP DUP7 DUP1 PUSH2 0x17B0 JUMP JUMPDEST PUSH1 0x2 DUP8 ADD DUP9 MSTORE PUSH1 0x20 DUP9 KECCAK256 DUP9 SWAP5 POP SWAP2 JUMPDEST PUSH1 0x1F NOT DUP5 AND DUP6 LT PUSH2 0x19C6 JUMPI PUSH1 0x1 SWAP5 POP DUP4 PUSH1 0x1F NOT DUP2 AND LT PUSH2 0x19AC JUMPI JUMPDEST POP POP POP DUP2 SHL ADD PUSH1 0x2 DUP5 ADD SSTORE PUSH2 0x17C8 JUMP JUMPDEST ADD CALLDATALOAD PUSH1 0x0 NOT PUSH1 0x3 DUP5 SWAP1 SHL PUSH1 0xF8 AND SHR NOT AND SWAP1 SSTORE DUP7 DUP1 DUP1 PUSH2 0x199C JUMP JUMPDEST DUP2 DUP2 ADD CALLDATALOAD DUP4 SSTORE PUSH1 0x20 SWAP5 DUP6 ADD SWAP5 PUSH1 0x1 SWAP1 SWAP4 ADD SWAP3 ADD PUSH2 0x1981 JUMP JUMPDEST SWAP1 SWAP2 POP PUSH1 0x2 DUP7 ADD DUP8 MSTORE PUSH1 0x20 DUP8 KECCAK256 PUSH1 0x1F DUP5 ADD PUSH1 0x5 SHR DUP2 ADD PUSH1 0x20 DUP6 LT PUSH2 0x1A27 JUMPI JUMPDEST SWAP1 DUP5 SWAP4 SWAP3 SWAP2 JUMPDEST PUSH1 0x1F DUP4 ADD PUSH1 0x5 SHR DUP3 ADD DUP2 LT PUSH2 0x1A19 JUMPI POP POP PUSH2 0x179B JUMP JUMPDEST DUP10 DUP2 SSTORE DUP6 SWAP5 POP PUSH1 0x1 ADD PUSH2 0x1A03 JUMP JUMPDEST POP DUP1 PUSH2 0x19FD JUMP JUMPDEST PUSH4 0x4E487B71 PUSH1 0xE0 SHL DUP7 MSTORE PUSH1 0x41 PUSH1 0x4 MSTORE PUSH1 0x24 DUP7 REVERT JUMPDEST ADD CALLDATALOAD SWAP1 POP DUP9 DUP1 PUSH2 0x175D JUMP JUMPDEST PUSH1 0x1 DUP10 ADD DUP11 MSTORE PUSH1 0x20 DUP11 KECCAK256 DUP11 SWAP5 POP SWAP2 JUMPDEST PUSH1 0x1F NOT DUP5 AND DUP6 LT PUSH2 0x1AA1 JUMPI PUSH1 0x1 SWAP5 POP DUP4 PUSH1 0x1F NOT DUP2 AND LT PUSH2 0x1A87 JUMPI JUMPDEST POP POP POP DUP2 SHL ADD PUSH1 0x1 DUP7 ADD SSTORE PUSH2 0x1775 JUMP JUMPDEST ADD CALLDATALOAD PUSH1 0x0 NOT PUSH1 0x3 DUP5 SWAP1 SHL PUSH1 0xF8 AND SHR NOT AND SWAP1 SSTORE DUP9 DUP1 DUP1 PUSH2 0x1A77 JUMP JUMPDEST DUP2 DUP2 ADD CALLDATALOAD DUP4 SSTORE PUSH1 0x20 SWAP5 DUP6 ADD SWAP5 PUSH1 0x1 SWAP1 SWAP4 ADD SWAP3 ADD PUSH2 0x1A5C JUMP JUMPDEST SWAP1 SWAP2 POP PUSH1 0x1 DUP9 ADD DUP10 MSTORE PUSH1 0x20 DUP10 KECCAK256 PUSH1 0x1F DUP5 ADD PUSH1 0x5 SHR DUP2 ADD PUSH1 0x20 DUP6 LT PUSH2 0x1B02 JUMPI JUMPDEST SWAP1 DUP5 SWAP4 SWAP3 SWAP2 JUMPDEST PUSH1 0x1F DUP4 ADD PUSH1 0x5 SHR DUP3 ADD DUP2 LT PUSH2 0x1AF4 JUMPI POP POP PUSH2 0x1748 JUMP JUMPDEST DUP12 DUP2 SSTORE DUP6 SWAP5 POP PUSH1 0x1 ADD PUSH2 0x1ADE JUMP JUMPDEST POP DUP1 PUSH2 0x1AD8 JUMP JUMPDEST PUSH4 0x4E487B71 PUSH1 0xE0 SHL DUP9 MSTORE PUSH1 0x41 PUSH1 0x4 MSTORE PUSH1 0x24 DUP9 REVERT JUMPDEST PUSH1 0x1 PUSH1 0x1 PUSH1 0x40 SHL SUB DUP2 SWAP10 SWAP3 SWAP10 GT PUSH2 0x1B38 JUMPI PUSH1 0x40 MSTORE SWAP7 DUP9 PUSH2 0x1711 JUMP JUMPDEST PUSH4 0x4E487B71 PUSH1 0xE0 SHL DUP3 MSTORE PUSH1 0x41 PUSH1 0x4 MSTORE PUSH1 0x24 DUP3 REVERT JUMPDEST PUSH1 0x40 MLOAD RETURNDATASIZE DUP12 DUP3 RETURNDATACOPY RETURNDATASIZE SWAP1 REVERT JUMPDEST DUP5 DUP1 REVERT JUMPDEST DUP3 DUP1 REVERT JUMPDEST PUSH4 0x4E487B71 PUSH1 0xE0 SHL DUP12 MSTORE PUSH1 0x41 PUSH1 0x4 MSTORE PUSH1 0x24 DUP12 REVERT JUMPDEST PUSH1 0x4 DUP11 DUP2 ADD SLOAD PUSH1 0x40 MLOAD PUSH4 0xA9059CBB PUSH1 0xE0 SHL DUP2 MSTORE PUSH1 0x1 PUSH1 0x1 PUSH1 0xA0 SHL SUB SWAP1 SWAP4 AND SWAP2 DUP4 ADD SWAP2 SWAP1 SWAP2 MSTORE PUSH1 0x24 DUP3 ADD MSTORE PUSH1 0x20 DUP2 DUP13 DUP2 DUP1 PUSH1 0x44 DUP2 ADD SUB SWAP2 PUSH32 0x0 PUSH1 0x1 PUSH1 0x1 PUSH1 0xA0 SHL SUB AND GAS CALL SWAP1 DUP2 ISZERO PUSH2 0x1C21 JUMPI DUP12 SWAP2 PUSH2 0x1C02 JUMPI JUMPDEST POP ISZERO PUSH2 0xAC2 JUMPI PUSH2 0x1BF9 PUSH1 0x4 DUP11 ADD SLOAD PUSH1 0xC SLOAD PUSH2 0x21F0 JUMP JUMPDEST PUSH1 0xC SSTORE DUP11 PUSH2 0x15E8 JUMP JUMPDEST PUSH2 0x1C1B SWAP2 POP PUSH1 0x20 RETURNDATASIZE PUSH1 0x20 GT PUSH2 0xAFB JUMPI PUSH2 0xAED DUP2 DUP4 PUSH2 0x1FBE JUMP JUMPDEST DUP12 PUSH2 0x1BE3 JUMP JUMPDEST PUSH1 0x40 MLOAD RETURNDATASIZE DUP14 DUP3 RETURNDATACOPY RETURNDATASIZE SWAP1 REVERT JUMPDEST POP PUSH1 0x4 DUP11 ADD SLOAD ISZERO ISZERO PUSH2 0x15E3 JUMP JUMPDEST PUSH1 0x40 MLOAD PUSH4 0x299AA0A1 PUSH1 0xE2 SHL DUP2 MSTORE PUSH1 0x4 SWAP1 REVERT JUMPDEST DUP8 DUP1 REVERT JUMPDEST DUP7 DUP1 REVERT JUMPDEST DUP4 DUP1 REVERT JUMPDEST DUP3 CALLVALUE PUSH2 0x1DA JUMPI DUP1 PUSH1 0x3 NOT CALLDATASIZE ADD SLT PUSH2 0x1DA JUMPI PUSH1 0x40 MLOAD PUSH32 0x0 PUSH1 0x1 PUSH1 0x1 PUSH1 0xA0 SHL SUB AND DUP2 MSTORE PUSH1 0x20 SWAP1 RETURN JUMPDEST DUP3 CALLVALUE PUSH2 0x1DA JUMPI PUSH1 0x20 CALLDATASIZE PUSH1 0x3 NOT ADD SLT PUSH2 0x1DA JUMPI PUSH1 0x20 SWAP1 PUSH1 0xFF SWAP1 PUSH1 0x40 SWAP1 PUSH1 0x1 PUSH1 0x1 PUSH1 0xA0 SHL SUB PUSH2 0x1CC7 PUSH2 0x20E8 JUMP JUMPDEST AND DUP2 MSTORE PUSH1 0x5 DUP5 MSTORE KECCAK256 SLOAD AND PUSH1 0x40 MLOAD SWAP1 ISZERO ISZERO DUP2 MSTORE RETURN JUMPDEST DUP3 CALLVALUE PUSH2 0x1DA JUMPI PUSH2 0x1CEA CALLDATASIZE PUSH2 0x1F4D JUMP JUMPDEST SWAP1 PUSH2 0x1CF3 PUSH2 0x21B5 JUMP JUMPDEST PUSH1 0xA DUP3 LT ISZERO PUSH2 0x5A1 JUMPI DUP1 DUP4 MSTORE PUSH1 0x20 PUSH1 0x7 DUP2 MSTORE PUSH1 0x40 DUP5 KECCAK256 DUP4 DUP6 MSTORE DUP2 MSTORE PUSH1 0x40 DUP5 KECCAK256 SWAP1 PUSH1 0xFF PUSH1 0x5 DUP4 ADD SLOAD PUSH1 0x8 SHR AND ISZERO PUSH2 0xDA9 JUMPI PUSH1 0x8 DUP3 ADD SLOAD PUSH3 0x127500 DUP2 ADD DUP1 SWAP2 GT PUSH2 0xD71 JUMPI TIMESTAMP GT ISZERO PUSH2 0x1E46 JUMPI PUSH1 0x4 DUP3 ADD SLOAD PUSH2 0x1F4 DUP1 DUP3 MUL SWAP1 DUP3 DUP3 DIV EQ DUP3 ISZERO OR ISZERO PUSH2 0x1E32 JUMPI PUSH1 0x7 SWAP2 PUSH2 0x2710 PUSH2 0x1D65 SWAP3 DIV SWAP1 PUSH2 0x21F0 JUMP JUMPDEST SWAP3 ADD SWAP2 PUSH2 0x1D73 DUP4 SLOAD DUP3 PUSH2 0x21F0 JUMP JUMPDEST SWAP3 DUP4 ISZERO PUSH2 0xD4D JUMPI SSTORE DUP5 SLOAD PUSH1 0x40 MLOAD PUSH4 0xA9059CBB PUSH1 0xE0 SHL DUP2 MSTORE PUSH1 0x1 PUSH1 0x1 PUSH1 0xA0 SHL SUB SWAP2 DUP3 AND PUSH1 0x4 DUP3 ADD MSTORE PUSH1 0x24 DUP2 ADD DUP5 SWAP1 MSTORE SWAP1 DUP3 SWAP1 DUP3 SWAP1 PUSH1 0x44 SWAP1 DUP3 SWAP1 DUP11 SWAP1 PUSH32 0x0 AND GAS CALL SWAP1 DUP2 ISZERO PUSH2 0x4F3 JUMPI DUP7 SWAP2 PUSH2 0x1E15 JUMPI JUMPDEST POP ISZERO PUSH2 0xAC2 JUMPI PUSH32 0xCF3B62092C7F2A3455C516C177BD1970412D1C381C960D3986E3296F9DFF0E7B SWAP2 PUSH1 0x40 MLOAD SWAP1 DUP2 MSTORE LOG3 PUSH1 0x1 DUP1 SSTORE DUP1 RETURN JUMPDEST PUSH2 0x1E2C SWAP2 POP DUP3 RETURNDATASIZE DUP5 GT PUSH2 0xAFB JUMPI PUSH2 0xAED DUP2 DUP4 PUSH2 0x1FBE JUMP JUMPDEST DUP7 PUSH2 0x1DDF JUMP JUMPDEST PUSH4 0x4E487B71 PUSH1 0xE0 SHL DUP8 MSTORE PUSH1 0x11 PUSH1 0x4 MSTORE PUSH1 0x24 DUP8 REVERT JUMPDEST PUSH1 0x40 MLOAD PUSH4 0x162618A9 PUSH1 0xE0 SHL DUP2 MSTORE PUSH1 0x4 SWAP1 REVERT JUMPDEST DUP3 CALLVALUE PUSH2 0x1DA JUMPI PUSH1 0x40 SWAP1 PUSH2 0x1E6A CALLDATASIZE PUSH2 0x1F4D JUMP JUMPDEST SWAP1 DUP3 MSTORE PUSH1 0x7 PUSH1 0x20 MSTORE DUP3 DUP3 KECCAK256 SWAP1 DUP3 MSTORE PUSH1 0x20 MSTORE KECCAK256 SWAP1 PUSH1 0x1 DUP1 PUSH1 0xA0 SHL SUB DUP3 SLOAD AND SWAP1 PUSH2 0x1E94 PUSH1 0x1 DUP5 ADD PUSH2 0x1FDF JUMP JUMPDEST SWAP3 PUSH2 0x1EA1 PUSH1 0x2 DUP3 ADD PUSH2 0x1FDF JUMP JUMPDEST SWAP1 PUSH2 0x1EAE PUSH1 0x3 DUP3 ADD PUSH2 0x1FDF JUMP JUMPDEST PUSH1 0x4 DUP3 ADD SLOAD SWAP4 PUSH1 0xFF PUSH1 0x5 DUP5 ADD SLOAD PUSH2 0x1F0B PUSH1 0x6 DUP7 ADD SLOAD SWAP5 PUSH2 0x1EFD PUSH1 0x8 PUSH1 0x7 DUP10 ADD SLOAD SWAP9 ADD SLOAD SWAP9 PUSH2 0x1EEF PUSH1 0x40 MLOAD SWAP14 DUP15 SWAP14 DUP15 MSTORE DUP14 PUSH2 0x160 SWAP1 DUP2 PUSH1 0x20 DUP3 ADD MSTORE ADD SWAP1 PUSH2 0x2085 JUMP JUMPDEST DUP13 DUP2 SUB PUSH1 0x40 DUP15 ADD MSTORE SWAP1 PUSH2 0x2085 JUMP JUMPDEST SWAP1 DUP11 DUP3 SUB PUSH1 0x60 DUP13 ADD MSTORE PUSH2 0x2085 JUMP JUMPDEST SWAP7 PUSH1 0x80 DUP10 ADD MSTORE PUSH2 0x1F20 PUSH1 0xA0 DUP10 ADD DUP4 DUP4 AND PUSH2 0x20C5 JUMP JUMPDEST DUP2 DUP2 PUSH1 0x8 SHR AND ISZERO ISZERO PUSH1 0xC0 DUP10 ADD MSTORE PUSH1 0x10 SHR AND ISZERO ISZERO SWAP1 DUP7 ADD MSTORE PUSH2 0x100 DUP6 ADD MSTORE PUSH2 0x120 DUP5 ADD MSTORE PUSH2 0x140 DUP4 ADD MSTORE SUB SWAP1 RETURN JUMPDEST PUSH1 0x40 SWAP1 PUSH1 0x3 NOT ADD SLT PUSH2 0x1F63 JUMPI PUSH1 0x4 CALLDATALOAD SWAP1 PUSH1 0x24 CALLDATALOAD SWAP1 JUMP JUMPDEST PUSH1 0x0 DUP1 REVERT JUMPDEST SWAP1 PUSH1 0x1 DUP3 DUP2 SHR SWAP3 AND DUP1 ISZERO PUSH2 0x1F98 JUMPI JUMPDEST PUSH1 0x20 DUP4 LT EQ PUSH2 0x1F82 JUMPI JUMP JUMPDEST PUSH4 0x4E487B71 PUSH1 0xE0 SHL PUSH1 0x0 MSTORE PUSH1 0x22 PUSH1 0x4 MSTORE PUSH1 0x24 PUSH1 0x0 REVERT JUMPDEST SWAP2 PUSH1 0x7F AND SWAP2 PUSH2 0x1F77 JUMP JUMPDEST PUSH2 0x160 DUP2 ADD SWAP1 DUP2 LT PUSH1 0x1 PUSH1 0x1 PUSH1 0x40 SHL SUB DUP3 GT OR PUSH2 0x555 JUMPI PUSH1 0x40 MSTORE JUMP JUMPDEST SWAP1 PUSH1 0x1F DUP1 NOT SWAP2 ADD AND DUP2 ADD SWAP1 DUP2 LT PUSH1 0x1 PUSH1 0x1 PUSH1 0x40 SHL SUB DUP3 GT OR PUSH2 0x555 JUMPI PUSH1 0x40 MSTORE JUMP JUMPDEST SWAP1 PUSH1 0x40 MLOAD SWAP2 DUP3 PUSH1 0x0 DUP3 SLOAD SWAP3 PUSH2 0x1FF3 DUP5 PUSH2 0x1F68 JUMP JUMPDEST SWAP1 DUP2 DUP5 MSTORE PUSH1 0x1 SWAP5 DUP6 DUP2 AND SWAP1 DUP2 PUSH1 0x0 EQ PUSH2 0x2062 JUMPI POP PUSH1 0x1 EQ PUSH2 0x201F JUMPI JUMPDEST POP POP PUSH2 0x201D SWAP3 POP SUB DUP4 PUSH2 0x1FBE JUMP JUMPDEST JUMP JUMPDEST SWAP1 SWAP4 SWAP2 POP PUSH1 0x0 MSTORE PUSH1 0x20 SWAP1 DUP2 PUSH1 0x0 KECCAK256 SWAP4 PUSH1 0x0 SWAP2 JUMPDEST DUP2 DUP4 LT PUSH2 0x204A JUMPI POP POP PUSH2 0x201D SWAP4 POP DUP3 ADD ADD CODESIZE DUP1 PUSH2 0x200F JUMP JUMPDEST DUP6 SLOAD DUP9 DUP5 ADD DUP6 ADD MSTORE SWAP5 DUP6 ADD SWAP5 DUP8 SWAP5 POP SWAP2 DUP4 ADD SWAP2 PUSH2 0x2032 JUMP JUMPDEST SWAP2 POP POP PUSH2 0x201D SWAP5 POP PUSH1 0x20 SWAP3 POP PUSH1 0xFF NOT AND DUP3 DUP5 ADD MSTORE ISZERO ISZERO PUSH1 0x5 SHL DUP3 ADD ADD CODESIZE DUP1 PUSH2 0x200F JUMP JUMPDEST SWAP2 SWAP1 DUP3 MLOAD SWAP3 DUP4 DUP3 MSTORE PUSH1 0x0 JUMPDEST DUP5 DUP2 LT PUSH2 0x20B1 JUMPI POP POP DUP3 PUSH1 0x0 PUSH1 0x20 DUP1 SWAP5 SWAP6 DUP5 ADD ADD MSTORE PUSH1 0x1F DUP1 NOT SWAP2 ADD AND ADD ADD SWAP1 JUMP JUMPDEST PUSH1 0x20 DUP2 DUP4 ADD DUP2 ADD MLOAD DUP5 DUP4 ADD DUP3 ADD MSTORE ADD PUSH2 0x2090 JUMP JUMPDEST SWAP1 PUSH1 0xA DUP3 LT ISZERO PUSH2 0x20D2 JUMPI MSTORE JUMP JUMPDEST PUSH4 0x4E487B71 PUSH1 0xE0 SHL PUSH1 0x0 MSTORE PUSH1 0x21 PUSH1 0x4 MSTORE PUSH1 0x24 PUSH1 0x0 REVERT JUMPDEST PUSH1 0x4 CALLDATALOAD SWAP1 PUSH1 0x1 PUSH1 0x1 PUSH1 0xA0 SHL SUB DUP3 AND DUP3 SUB PUSH2 0x1F63 JUMPI JUMP JUMPDEST SWAP2 DUP2 PUSH1 0x1F DUP5 ADD SLT ISZERO PUSH2 0x1F63 JUMPI DUP3 CALLDATALOAD SWAP2 PUSH1 0x1 PUSH1 0x1 PUSH1 0x40 SHL SUB DUP4 GT PUSH2 0x1F63 JUMPI PUSH1 0x20 DUP4 DUP2 DUP7 ADD SWAP6 ADD ADD GT PUSH2 0x1F63 JUMPI JUMP JUMPDEST PUSH1 0x60 SWAP1 PUSH1 0x3 NOT ADD SLT PUSH2 0x1F63 JUMPI PUSH1 0x4 CALLDATALOAD SWAP1 PUSH1 0x24 CALLDATALOAD SWAP1 PUSH1 0x44 CALLDATALOAD PUSH1 0x1 PUSH1 0x1 PUSH1 0xA0 SHL SUB DUP2 AND DUP2 SUB PUSH2 0x1F63 JUMPI SWAP1 JUMP JUMPDEST SWAP1 DUP2 MLOAD DUP1 DUP3 MSTORE PUSH1 0x20 DUP1 DUP1 SWAP4 ADD SWAP4 ADD SWAP2 PUSH1 0x0 JUMPDEST DUP3 DUP2 LT PUSH2 0x2175 JUMPI POP POP POP POP SWAP1 JUMP JUMPDEST DUP4 MLOAD DUP6 MSTORE SWAP4 DUP2 ADD SWAP4 SWAP3 DUP2 ADD SWAP3 PUSH1 0x1 ADD PUSH2 0x2167 JUMP JUMPDEST PUSH1 0x0 SLOAD PUSH1 0x1 PUSH1 0x1 PUSH1 0xA0 SHL SUB AND CALLER SUB PUSH2 0x219D JUMPI JUMP JUMPDEST PUSH1 0x40 MLOAD PUSH4 0x118CDAA7 PUSH1 0xE0 SHL DUP2 MSTORE CALLER PUSH1 0x4 DUP3 ADD MSTORE PUSH1 0x24 SWAP1 REVERT JUMPDEST PUSH1 0x2 PUSH1 0x1 SLOAD EQ PUSH2 0x21C6 JUMPI PUSH1 0x2 PUSH1 0x1 SSTORE JUMP JUMPDEST PUSH1 0x40 MLOAD PUSH4 0x3EE5AEB5 PUSH1 0xE0 SHL DUP2 MSTORE PUSH1 0x4 SWAP1 REVERT JUMPDEST SWAP1 DUP2 PUSH1 0x20 SWAP2 SUB SLT PUSH2 0x1F63 JUMPI MLOAD DUP1 ISZERO ISZERO DUP2 SUB PUSH2 0x1F63 JUMPI SWAP1 JUMP JUMPDEST SWAP2 SWAP1 DUP3 SUB SWAP2 DUP3 GT PUSH2 0x21FD JUMPI JUMP JUMPDEST PUSH4 0x4E487B71 PUSH1 0xE0 SHL PUSH1 0x0 MSTORE PUSH1 0x11 PUSH1 0x4 MSTORE PUSH1 0x24 PUSH1 0x0 REVERT JUMPDEST SWAP2 SWAP1 DUP3 ADD DUP1 SWAP3 GT PUSH2 0x21FD JUMPI JUMP JUMPDEST PUSH1 0x0 NOT DUP2 EQ PUSH2 0x21FD JUMPI PUSH1 0x1 ADD SWAP1 JUMP JUMPDEST DUP2 ISZERO PUSH2 0x2239 JUMPI DIV SWAP1 JUMP JUMPDEST PUSH4 0x4E487B71 PUSH1 0xE0 SHL PUSH1 0x0 MSTORE PUSH1 0x12 PUSH1 0x4 MSTORE PUSH1 0x24 PUSH1 0x0 REVERT JUMPDEST PUSH1 0x2 SLOAD ISZERO PUSH2 0x22D2 JUMPI PUSH1 0x2 SLOAD PUSH1 0x0 NOT DUP2 ADD SWAP1 DUP2 GT PUSH2 0x21FD JUMPI PUSH1 0x3 SLOAD DUP2 GT PUSH2 0x22A5 JUMPI JUMPDEST PUSH2 0x227B PUSH1 0x2 SLOAD PUSH2 0x2220 JUMP JUMPDEST PUSH1 0x2 SSTORE PUSH32 0x6FBFBCCDD0D107860C9BCCFA723D97EBA4F37886EDEB01E7A438B1E0FE44E056 PUSH1 0x0 DUP1 LOG2 JUMP JUMPDEST PUSH1 0x0 JUMPDEST PUSH1 0xA DUP2 LT PUSH2 0x22BA JUMPI POP DUP1 PUSH1 0x3 SSTORE PUSH2 0x2270 JUMP JUMPDEST DUP1 PUSH2 0x22C8 PUSH2 0x22CD SWAP3 DUP5 PUSH2 0x22FF JUMP JUMPDEST PUSH2 0x2220 JUMP JUMPDEST PUSH2 0x22A8 JUMP JUMPDEST PUSH1 0x1 PUSH1 0x2 SSTORE PUSH1 0x0 PUSH32 0x6FBFBCCDD0D107860C9BCCFA723D97EBA4F37886EDEB01E7A438B1E0FE44E056 DUP2 DUP1 LOG2 JUMP JUMPDEST PUSH1 0x0 DUP2 DUP2 MSTORE PUSH1 0x7 PUSH1 0x20 MSTORE PUSH1 0x40 DUP2 KECCAK256 DUP4 DUP3 MSTORE PUSH1 0x20 MSTORE PUSH1 0x40 DUP2 KECCAK256 SWAP1 PUSH1 0x1 DUP1 PUSH1 0xA0 SHL SUB DUP3 SLOAD AND ISZERO PUSH2 0x23E2 JUMPI PUSH1 0x5 DUP3 ADD SWAP1 DUP2 SLOAD PUSH1 0xFF DUP2 PUSH1 0x10 SHR AND PUSH2 0x23D0 JUMPI POP PUSH1 0x4 DUP4 ADD SLOAD SWAP1 PUSH2 0x1F4 SWAP1 DUP2 DUP4 MUL SWAP2 DUP4 DUP4 DIV EQ DUP4 ISZERO OR ISZERO PUSH2 0x23BC JUMPI POP SWAP3 PUSH1 0x20 SWAP3 PUSH2 0x239B PUSH1 0x6 SWAP4 PUSH2 0x2390 PUSH2 0x2710 PUSH32 0x67A59239176EDC6000958291E1C679AFD7B3E13A274C758A1FB33D8587D5E708 SWAP9 DIV PUSH1 0xB SLOAD PUSH2 0x2213 JUMP JUMPDEST PUSH1 0xB SSTORE PUSH1 0xC SLOAD PUSH2 0x21F0 JUMP JUMPDEST PUSH1 0xC SSTORE DUP1 SLOAD PUSH2 0xFF00 NOT AND PUSH2 0x100 OR SWAP1 SSTORE TIMESTAMP PUSH1 0x8 DUP3 ADD SSTORE ADD SLOAD PUSH1 0x40 MLOAD SWAP1 DUP2 MSTORE LOG3 JUMP JUMPDEST PUSH4 0x4E487B71 PUSH1 0xE0 SHL DUP2 MSTORE PUSH1 0x11 PUSH1 0x4 MSTORE PUSH1 0x24 SWAP1 REVERT JUMPDEST PUSH2 0xFF00 NOT AND PUSH2 0x100 OR SWAP1 SWAP2 SSTORE POP POP POP POP JUMP JUMPDEST POP PUSH1 0x5 ADD DUP1 SLOAD PUSH2 0xFF00 NOT AND PUSH2 0x100 OR SWAP1 SSTORE POP POP JUMP JUMPDEST PUSH1 0x1 PUSH1 0x1 PUSH1 0x40 SHL SUB DUP2 GT PUSH2 0x555 JUMPI PUSH1 0x5 SHL PUSH1 0x20 ADD SWAP1 JUMP JUMPDEST DUP1 MLOAD DUP3 LT ISZERO PUSH2 0x2422 JUMPI PUSH1 0x20 SWAP2 PUSH1 0x5 SHL ADD ADD SWAP1 JUMP JUMPDEST PUSH4 0x4E487B71 PUSH1 0xE0 SHL PUSH1 0x0 MSTORE PUSH1 0x32 PUSH1 0x4 MSTORE PUSH1 0x24 PUSH1 0x0 REVERT JUMPDEST SWAP2 PUSH1 0x0 SWAP1 DUP4 DUP3 MSTORE PUSH1 0x20 SWAP1 PUSH1 0x7 DUP3 MSTORE PUSH1 0x40 SWAP2 DUP3 DUP5 KECCAK256 DUP6 DUP6 MSTORE DUP2 MSTORE DUP3 DUP5 KECCAK256 SWAP5 DUP7 DUP6 MSTORE PUSH1 0x8 DUP3 MSTORE DUP4 DUP6 KECCAK256 DUP2 DUP7 MSTORE DUP3 MSTORE DUP4 DUP6 KECCAK256 SWAP3 PUSH1 0x1 DUP1 PUSH1 0xA0 SHL SUB AND SWAP3 DUP4 DUP7 MSTORE DUP3 MSTORE PUSH1 0xFF DUP5 DUP7 KECCAK256 SLOAD AND ISZERO PUSH2 0x24FB JUMPI DUP5 SWAP6 SWAP7 PUSH1 0xFF SWAP6 MSTORE PUSH1 0x9 DUP3 MSTORE DUP4 DUP7 KECCAK256 SWAP1 DUP7 MSTORE DUP2 MSTORE DUP3 DUP6 KECCAK256 SWAP2 DUP6 MSTORE MSTORE DUP3 KECCAK256 SLOAD AND PUSH2 0x24F6 JUMPI PUSH1 0xFF PUSH1 0x5 DUP4 ADD SLOAD PUSH1 0x8 SHR AND ISZERO PUSH2 0x24F6 JUMPI PUSH1 0x6 DUP3 ADD SLOAD SWAP2 DUP3 ISZERO PUSH2 0x24F0 JUMPI PUSH1 0x4 ADD SLOAD SWAP1 PUSH2 0x1F4 SWAP1 DUP2 DUP4 MUL SWAP2 DUP4 DUP4 DIV EQ DUP4 ISZERO OR ISZERO PUSH2 0x23BC JUMPI POP PUSH2 0x24ED SWAP3 SWAP2 PUSH2 0x2710 PUSH2 0xC4C SWAP3 DIV SWAP1 PUSH2 0x21F0 JUMP JUMPDEST SWAP1 JUMP JUMPDEST POP SWAP1 POP SWAP1 JUMP JUMPDEST SWAP1 POP SWAP1 JUMP JUMPDEST POP POP POP POP SWAP2 POP POP SWAP1 JUMP JUMPDEST SWAP1 PUSH2 0x250F DUP3 PUSH2 0x23F7 JUMP JUMPDEST PUSH2 0x251C PUSH1 0x40 MLOAD SWAP2 DUP3 PUSH2 0x1FBE JUMP JUMPDEST DUP3 DUP2 MSTORE DUP1 SWAP3 PUSH2 0x252D PUSH1 0x1F NOT SWAP2 PUSH2 0x23F7 JUMP JUMPDEST ADD SWAP1 PUSH1 0x20 CALLDATASIZE SWAP2 ADD CALLDATACOPY JUMP INVALID LOG2 PUSH5 0x6970667358 0x22 SLT KECCAK256 0xAD CALLVALUE SWAP9 0xA9 XOR SWAP14 0xE7 EXTCODESIZE 0xF6 0x28 PUSH1 0xD 0x1F 0xB3 MOD SWAP1 0xBC 0x4A PUSH7 0x528D697B23D361 0xE4 0xBF DUP10 CALLDATALOAD SDIV PUSH14 0x64736F6C63430008140033000000 "},"methodIdentifiers":{"AD_SLOTS_PER_CYCLE()":"39aca329","CLAIM_DEADLINE()":"42f81580","PLATFORM_FEE_BPS()":"539aa77f","WLD()":"de061d66","accumulatedFees()":"587f5ed7","adSlots(uint256,uint256)":"035169a4","addAuthorizedSigner(address)":"5240eb32","authorizedSigners(address)":"5d2b6a4e","banAdvertiser(address)":"c0ae6146","bannedAdvertisers(address)":"11637f22","calculateUserReward(uint256,uint256,address)":"1f50fec9","claimReward(uint256,uint256)":"86bb8f37","collectExpiredClaims(uint256,uint256)":"1012be0d","currentCycle()":"bab2f552","getCurrentAds()":"b7c32bf0","getCurrentCycle()":"be26ed7f","getUserClaimableRewards(address)":"646e200b","hasClaimed(uint256,uint256,address)":"69547f2d","hasClicked(uint256,uint256,address)":"4d63a475","lastFinalizedCycle()":"6ecdf606","lockedFunds()":"b8afaa48","owner()":"8da5cb5b","permit2()":"12261ee7","placeAdBid(uint256,uint256,string,string,string,uint256,uint8,((address,uint256),uint256,uint256),bytes)":"12d95d1d","progressCycle()":"71b3fb9a","recordClick(uint256,uint256,uint256,uint256,bytes)":"e7c21a3e","register()":"1aa3a008","registered(address)":"b2dd5c07","removeAd(uint256,uint256)":"97090dc8","removeAuthorizedSigner(address)":"f62a4edb","renounceOwnership()":"715018a6","transferOwnership(address)":"f2fde38b","unbanAdvertiser(address)":"74331428","usedSignatures(bytes32)":"f978fd61","withdrawFees()":"476343ee","worldId()":"753e9ef0"}}}}}