{"contracts/ADSDemo.sol":{"ADSDemo":{"abi":[{"inputs":[{"internalType":"address","name":"_wldToken","type":"address"},{"internalType":"address","name":"_permit2","type":"address"},{"internalType":"address","name":"_worldId","type":"address"},{"internalType":"string","name":"_appId","type":"string"},{"internalType":"string","name":"_action","type":"string"}],"stateMutability":"nonpayable","type":"constructor"},{"inputs":[],"name":"AdWasRemoved","type":"error"},{"inputs":[],"name":"AdvertiserIsBanned","type":"error"},{"inputs":[],"name":"AlreadyClaimed","type":"error"},{"inputs":[],"name":"AlreadyClicked","type":"error"},{"inputs":[],"name":"AlreadyFinalized","type":"error"},{"inputs":[],"name":"AlreadyRegistered","type":"error"},{"inputs":[],"name":"ClaimDeadlineNotPassed","type":"error"},{"inputs":[],"name":"ClaimDeadlinePassed","type":"error"},{"inputs":[],"name":"InvalidAmount","type":"error"},{"inputs":[],"name":"InvalidCycle","type":"error"},{"inputs":[],"name":"InvalidSlot","type":"error"},{"inputs":[],"name":"NoClickRecorded","type":"error"},{"inputs":[],"name":"NotAdvertiser","type":"error"},{"inputs":[],"name":"NotAuthorized","type":"error"},{"inputs":[],"name":"NotFinalized","type":"error"},{"inputs":[],"name":"NotRegistered","type":"error"},{"inputs":[{"internalType":"address","name":"owner","type":"address"}],"name":"OwnableInvalidOwner","type":"error"},{"inputs":[{"internalType":"address","name":"account","type":"address"}],"name":"OwnableUnauthorizedAccount","type":"error"},{"inputs":[],"name":"ReentrancyGuardReentrantCall","type":"error"},{"inputs":[],"name":"SignatureAlreadyUsed","type":"error"},{"inputs":[],"name":"TransferFailed","type":"error"},{"anonymous":false,"inputs":[{"indexed":true,"internalType":"address","name":"advertiser","type":"address"},{"indexed":true,"internalType":"uint256","name":"cycle","type":"uint256"},{"indexed":true,"internalType":"uint256","name":"slotIndex","type":"uint256"},{"indexed":false,"internalType":"enum ADSDemo.SlotType","name":"slotType","type":"uint8"},{"indexed":false,"internalType":"uint256","name":"bidAmount","type":"uint256"}],"name":"AdBidPlaced","type":"event"},{"anonymous":false,"inputs":[{"indexed":true,"internalType":"address","name":"advertiser","type":"address"},{"indexed":true,"internalType":"uint256","name":"cycle","type":"uint256"},{"indexed":true,"internalType":"uint256","name":"slotIndex","type":"uint256"}],"name":"AdRemoved","type":"event"},{"anonymous":false,"inputs":[{"indexed":true,"internalType":"uint256","name":"cycle","type":"uint256"},{"indexed":true,"internalType":"uint256","name":"slotIndex","type":"uint256"},{"indexed":false,"internalType":"uint256","name":"totalClicks","type":"uint256"}],"name":"AdSlotFinalized","type":"event"},{"anonymous":false,"inputs":[{"indexed":true,"internalType":"address","name":"advertiser","type":"address"}],"name":"AdvertiserBanned","type":"event"},{"anonymous":false,"inputs":[{"indexed":true,"internalType":"address","name":"advertiser","type":"address"}],"name":"AdvertiserUnbanned","type":"event"},{"anonymous":false,"inputs":[{"indexed":true,"internalType":"address","name":"user","type":"address"},{"indexed":true,"internalType":"uint256","name":"cycle","type":"uint256"},{"indexed":true,"internalType":"uint256","name":"slotIndex","type":"uint256"}],"name":"ClickRecorded","type":"event"},{"anonymous":false,"inputs":[{"indexed":true,"internalType":"uint256","name":"cycle","type":"uint256"}],"name":"CycleFinalized","type":"event"},{"anonymous":false,"inputs":[{"indexed":true,"internalType":"uint256","name":"cycle","type":"uint256"},{"indexed":true,"internalType":"uint256","name":"slotIndex","type":"uint256"},{"indexed":false,"internalType":"uint256","name":"amount","type":"uint256"}],"name":"ExpiredClaimCollected","type":"event"},{"anonymous":false,"inputs":[{"indexed":true,"internalType":"address","name":"recipient","type":"address"},{"indexed":false,"internalType":"uint256","name":"amount","type":"uint256"}],"name":"FeesWithdrawn","type":"event"},{"anonymous":false,"inputs":[{"indexed":true,"internalType":"address","name":"previousOwner","type":"address"},{"indexed":true,"internalType":"address","name":"newOwner","type":"address"}],"name":"OwnershipTransferred","type":"event"},{"anonymous":false,"inputs":[{"indexed":true,"internalType":"address","name":"user","type":"address"},{"indexed":true,"internalType":"uint256","name":"cycle","type":"uint256"},{"indexed":true,"internalType":"uint256","name":"slotIndex","type":"uint256"},{"indexed":false,"internalType":"uint256","name":"amount","type":"uint256"}],"name":"RewardClaimed","type":"event"},{"anonymous":false,"inputs":[{"indexed":true,"internalType":"address","name":"user","type":"address"}],"name":"UserRegistered","type":"event"},{"inputs":[],"name":"AD_SLOTS_PER_CYCLE","outputs":[{"internalType":"uint256","name":"","type":"uint256"}],"stateMutability":"view","type":"function"},{"inputs":[],"name":"CLAIM_DEADLINE","outputs":[{"internalType":"uint256","name":"","type":"uint256"}],"stateMutability":"view","type":"function"},{"inputs":[],"name":"PLATFORM_FEE_BPS","outputs":[{"internalType":"uint256","name":"","type":"uint256"}],"stateMutability":"view","type":"function"},{"inputs":[],"name":"WLD","outputs":[{"internalType":"contract IERC20","name":"","type":"address"}],"stateMutability":"view","type":"function"},{"inputs":[],"name":"accumulatedFees","outputs":[{"internalType":"uint256","name":"","type":"uint256"}],"stateMutability":"view","type":"function"},{"inputs":[{"internalType":"uint256","name":"","type":"uint256"},{"internalType":"uint256","name":"","type":"uint256"}],"name":"adSlots","outputs":[{"internalType":"address","name":"advertiser","type":"address"},{"internalType":"string","name":"name","type":"string"},{"internalType":"string","name":"description","type":"string"},{"internalType":"string","name":"imageUrl","type":"string"},{"internalType":"uint256","name":"bidAmount","type":"uint256"},{"internalType":"enum ADSDemo.SlotType","name":"slotType","type":"uint8"},{"internalType":"bool","name":"finalized","type":"bool"},{"internalType":"bool","name":"removed","type":"bool"},{"internalType":"uint256","name":"totalClicks","type":"uint256"},{"internalType":"uint256","name":"claimedAmount","type":"uint256"},{"internalType":"uint256","name":"finalizedAt","type":"uint256"}],"stateMutability":"view","type":"function"},{"inputs":[{"internalType":"address","name":"signer","type":"address"}],"name":"addAuthorizedSigner","outputs":[],"stateMutability":"nonpayable","type":"function"},{"inputs":[{"internalType":"address","name":"","type":"address"}],"name":"authorizedSigners","outputs":[{"internalType":"bool","name":"","type":"bool"}],"stateMutability":"view","type":"function"},{"inputs":[{"internalType":"address","name":"advertiser","type":"address"}],"name":"banAdvertiser","outputs":[],"stateMutability":"nonpayable","type":"function"},{"inputs":[{"internalType":"address","name":"","type":"address"}],"name":"bannedAdvertisers","outputs":[{"internalType":"bool","name":"","type":"bool"}],"stateMutability":"view","type":"function"},{"inputs":[{"internalType":"uint256","name":"cycle","type":"uint256"},{"internalType":"uint256","name":"slotIndex","type":"uint256"},{"internalType":"address","name":"user","type":"address"}],"name":"calculateUserReward","outputs":[{"internalType":"uint256","name":"","type":"uint256"}],"stateMutability":"view","type":"function"},{"inputs":[{"internalType":"uint256","name":"cycle","type":"uint256"},{"internalType":"uint256","name":"slotIndex","type":"uint256"}],"name":"claimReward","outputs":[],"stateMutability":"nonpayable","type":"function"},{"inputs":[{"internalType":"uint256","name":"cycle","type":"uint256"},{"internalType":"uint256","name":"slotIndex","type":"uint256"}],"name":"collectExpiredClaims","outputs":[],"stateMutability":"nonpayable","type":"function"},{"inputs":[],"name":"currentCycle","outputs":[{"internalType":"uint256","name":"","type":"uint256"}],"stateMutability":"view","type":"function"},{"inputs":[],"name":"getCurrentAds","outputs":[{"components":[{"internalType":"address","name":"advertiser","type":"address"},{"internalType":"string","name":"name","type":"string"},{"internalType":"string","name":"description","type":"string"},{"internalType":"string","name":"imageUrl","type":"string"},{"internalType":"uint256","name":"bidAmount","type":"uint256"},{"internalType":"enum ADSDemo.SlotType","name":"slotType","type":"uint8"},{"internalType":"bool","name":"finalized","type":"bool"},{"internalType":"bool","name":"removed","type":"bool"},{"internalType":"uint256","name":"totalClicks","type":"uint256"},{"internalType":"uint256","name":"claimedAmount","type":"uint256"},{"internalType":"uint256","name":"finalizedAt","type":"uint256"}],"internalType":"struct ADSDemo.AdSlot[]","name":"","type":"tuple[]"}],"stateMutability":"view","type":"function"},{"inputs":[],"name":"getCurrentCycle","outputs":[{"internalType":"uint256","name":"","type":"uint256"}],"stateMutability":"view","type":"function"},{"inputs":[{"internalType":"address","name":"user","type":"address"}],"name":"getUserClaimableRewards","outputs":[{"internalType":"uint256[]","name":"cycles","type":"uint256[]"},{"internalType":"uint256[]","name":"slots","type":"uint256[]"},{"internalType":"uint256[]","name":"amounts","type":"uint256[]"}],"stateMutability":"view","type":"function"},{"inputs":[{"internalType":"uint256","name":"","type":"uint256"},{"internalType":"uint256","name":"","type":"uint256"},{"internalType":"address","name":"","type":"address"}],"name":"hasClaimed","outputs":[{"internalType":"bool","name":"","type":"bool"}],"stateMutability":"view","type":"function"},{"inputs":[{"internalType":"uint256","name":"","type":"uint256"},{"internalType":"uint256","name":"","type":"uint256"},{"internalType":"address","name":"","type":"address"}],"name":"hasClicked","outputs":[{"internalType":"bool","name":"","type":"bool"}],"stateMutability":"view","type":"function"},{"inputs":[],"name":"lastFinalizedCycle","outputs":[{"internalType":"uint256","name":"","type":"uint256"}],"stateMutability":"view","type":"function"},{"inputs":[],"name":"lockedFunds","outputs":[{"internalType":"uint256","name":"","type":"uint256"}],"stateMutability":"view","type":"function"},{"inputs":[],"name":"owner","outputs":[{"internalType":"address","name":"","type":"address"}],"stateMutability":"view","type":"function"},{"inputs":[],"name":"permit2","outputs":[{"internalType":"contract IPermit2","name":"","type":"address"}],"stateMutability":"view","type":"function"},{"inputs":[{"internalType":"uint256","name":"cycle","type":"uint256"},{"internalType":"uint256","name":"slotIndex","type":"uint256"},{"internalType":"string","name":"name","type":"string"},{"internalType":"string","name":"description","type":"string"},{"internalType":"string","name":"imageUrl","type":"string"},{"internalType":"uint256","name":"bidAmount","type":"uint256"},{"internalType":"enum ADSDemo.SlotType","name":"slotType","type":"uint8"},{"components":[{"components":[{"internalType":"address","name":"token","type":"address"},{"internalType":"uint256","name":"amount","type":"uint256"}],"internalType":"struct IPermit2.TokenPermissions","name":"permitted","type":"tuple"},{"internalType":"uint256","name":"nonce","type":"uint256"},{"internalType":"uint256","name":"deadline","type":"uint256"}],"internalType":"struct IPermit2.PermitTransferFrom","name":"permit","type":"tuple"},{"internalType":"bytes","name":"signature","type":"bytes"}],"name":"placeAdBid","outputs":[],"stateMutability":"nonpayable","type":"function"},{"inputs":[],"name":"progressCycle","outputs":[],"stateMutability":"nonpayable","type":"function"},{"inputs":[{"internalType":"uint256","name":"cycle","type":"uint256"},{"internalType":"uint256","name":"slotIndex","type":"uint256"},{"internalType":"uint256","name":"nonce","type":"uint256"},{"internalType":"uint256","name":"timestamp","type":"uint256"},{"internalType":"bytes","name":"signature","type":"bytes"}],"name":"recordClick","outputs":[],"stateMutability":"nonpayable","type":"function"},{"inputs":[{"internalType":"address","name":"signal","type":"address"},{"internalType":"uint256","name":"root","type":"uint256"},{"internalType":"uint256","name":"nullifierHash","type":"uint256"},{"internalType":"uint256[8]","name":"proof","type":"uint256[8]"}],"name":"register","outputs":[],"stateMutability":"nonpayable","type":"function"},{"inputs":[{"internalType":"address","name":"","type":"address"}],"name":"registered","outputs":[{"internalType":"bool","name":"","type":"bool"}],"stateMutability":"view","type":"function"},{"inputs":[{"internalType":"uint256","name":"cycle","type":"uint256"},{"internalType":"uint256","name":"slotIndex","type":"uint256"}],"name":"removeAd","outputs":[],"stateMutability":"nonpayable","type":"function"},{"inputs":[{"internalType":"address","name":"signer","type":"address"}],"name":"removeAuthorizedSigner","outputs":[],"stateMutability":"nonpayable","type":"function"},{"inputs":[],"name":"renounceOwnership","outputs":[],"stateMutability":"nonpayable","type":"function"},{"inputs":[{"internalType":"address","name":"newOwner","type":"address"}],"name":"transferOwnership","outputs":[],"stateMutability":"nonpayable","type":"function"},{"inputs":[{"internalType":"address","name":"advertiser","type":"address"}],"name":"unbanAdvertiser","outputs":[],"stateMutability":"nonpayable","type":"function"},{"inputs":[{"internalType":"bytes32","name":"","type":"bytes32"}],"name":"usedSignatures","outputs":[{"internalType":"bool","name":"","type":"bool"}],"stateMutability":"view","type":"function"},{"inputs":[],"name":"withdrawFees","outputs":[],"stateMutability":"nonpayable","type":"function"},{"inputs":[],"name":"worldId","outputs":[{"internalType":"contract IWorldID","name":"","type":"address"}],"stateMutability":"view","type":"function"}],"evm":{"bytecode":{"linkReferences":{},"object":"6101206040818152346200021257620029ec803803809162000022828662000217565b8439820160a08382031262000212576200003c8362000251565b926020906200004d82820162000251565b6200005a85830162000251565b60608301516001600160401b039591939190868111620002125781620000829184016200028b565b95608083015190811162000212576200009c92016200028b565b933315620001fa5760008054336001600160a01b0319821681178355885189979690958795879590946001600160a01b039485939290918416907f8be0079c531659141344cd1fd0a4f28419497f9722a3daafe3b4186f6b6457e09080a360018055816101009d60008f52166080521660a0521660c0528051908184808501920191620001299262000266565b810103808352016200013c908262000217565b6200014790620002e6565b8251938491838301528051908184868501920191620001669262000266565b8101039081018352016200017b908262000217565b6200018690620002e6565b60e052516126ce91826200031e83396080518281816105f501528181610c6701528181610e980152818161154e01528181611cf10152611ef5015260a05182818161177e0152818161183e0152611db3015260c05182818161068a0152610fb5015260e05182610754015251816107210152f35b8551631e4fbdf760e01b815260006004820152602490fd5b600080fd5b601f909101601f19168101906001600160401b038211908210176200023b57604052565b634e487b7160e01b600052604160045260246000fd5b51906001600160a01b03821682036200021257565b60005b8381106200027a5750506000910152565b818101518382015260200162000269565b81601f82011215620002125780516001600160401b0381116200023b5760405192620002c2601f8301601f19166020018562000217565b818452602082840101116200021257620002e3916020808501910162000266565b90565b604051620003146020828162000306818301968781519384920162000266565b810103808452018262000217565b51902060081c9056fe6080604052600436101561001257600080fd5b600060e08135811c908163035169a414611f9e5781631012be0d14611e2157816311637f2214611de257816312261ee714611d9d57816312d95d1d146116355781631f50fec91461161357816339aca329146115f757816342f81580146115d9578163476343ee146114f05781634d63a475146114a85781635240eb3214611464578163539aa77f14611447578163587f5ed7146114295781635d2b6a4e146113ea578163646e200b1461113257816369547f2d146110ea5781636ecdf606146110cc578163715018a61461107257816371b3fb9a1461104a5781637433142814610fe4578163753e9ef014610f9f57816386bb8f3714610d2a5781638da5cb5b14610d0357816397090dc814610b7b578163b2dd5c0714610b3c578163b7c32bf0146108ad578163b8afaa481461088f578163bab2f55214610871578163be26ed7f14610871578163c0ae614614610808578163cc6cd25e14610624578163de061d66146105df578163e7c21a3e146102ae57508063f2fde38b1461021e578063f62a4edb146101dd5763f978fd61146101ac57600080fd5b346101da5760203660031901126101da5760ff60406020926004358152600a84522054166040519015158152f35b80fd5b50346101da5760203660031901126101da576101f7612249565b6101ff6122ea565b6001600160a01b03168152600660205260408120805460ff1916905580f35b50346101da5760203660031901126101da57610238612249565b6102406122ea565b6001600160a01b0390811690811561029557600054826bffffffffffffffffffffffff60a01b821617600055167f8be0079c531659141344cd1fd0a4f28419497f9722a3daafe3b4186f6b6457e0600080a380f35b604051631e4fbdf760e01b815260048101849052602490fd5b9050346105db5760a03660031901126105db57600435602435916084356001600160401b03908181116105d7576102e990369060040161225f565b926102f2612316565b3387526020916004835260ff918260408a205416156105c5576002548710156105b357600a8810156105a1578689526007845260408920888a52845260408920946005860154848160081c1661058f5760101c841661057d57878a526008855260408a20898b52855260408a20336000528552836040600020541661056b57604051908582013360601b81528960348401528a6054840152604435607484015260643560948401526094835260c08301928084108385111761055557610120918460405281519020948101947f19457468657265756d205369676e6564204d6573736167653a0a333200000000865260fc820152603c84520190828210908211176105555760405251902094858952600a84528260408a205416610543576041036104fe57876080849283604051918983526040810135851a82840152803560408401520135606082015282805260015afa156104f35786516001600160a01b0316875260068252604087205416156104e1576006928652600a8152604086209060ff199160018382541617905584875260088152604087208688528152604087209033600052526001604060002091825416179055016104b38154612381565b9055337fdf68871eff37c21a2d5f5f4714defb013c53c6aa48ebe6eff29ca11e065191278480a46001805580f35b60405163ea8e4eb560e01b8152600490fd5b6040513d88823e3d90fd5b60405162461bcd60e51b815260048101849052601860248201527f496e76616c6964207369676e6174757265206c656e67746800000000000000006044820152606490fd5b60405163900bb2c960e01b8152600490fd5b634e487b7160e01b600052604160045260246000fd5b60405163e02cd2cb60e01b8152600490fd5b604051631bb428a960e21b8152600490fd5b60405163475a253560e01b8152600490fd5b604051631258e44360e01b8152600490fd5b604051634dc7f5ff60e11b8152600490fd5b60405163aba4733960e01b8152600490fd5b8580fd5b5080fd5b82346101da57806003193601126101da576040517f00000000000000000000000000000000000000000000000000000000000000006001600160a01b03168152602090f35b82346101da576101603660031901126101da5761063f612249565b36610164116105db57610650612316565b338252600460205260ff6040832054166107f6576040805160609290921b6bffffffffffffffffffffffff191660208301908152601483527f00000000000000000000000000000000000000000000000000000000000000006001600160a01b03169183016001600160401b03811184821017610555576106f4602086956106e794846040526060820195869183519283916121de565b8101038084520182612117565b51902060081c813b156107f25782906101a460405180948193633bc778e360e01b835260243560048401527f00000000000000000000000000000000000000000000000000000000000000006024840152604483015260443560648301527f00000000000000000000000000000000000000000000000000000000000000006084830152610100606460a48401375afa80156107e7576107d3575b5033808252600460205260408220805460ff191660011790557f54db7a5cb4735e1aac1f53db512d3390390bb6637bd30ad4bf9fc98667d9b9b98280a26001805580f35b6107dc906120e8565b6101da57808261078f565b6040513d84823e3d90fd5b5050fd5b604051630ea075bf60e21b8152600490fd5b82346101da5760203660031901126101da57610822612249565b61082a6122ea565b6001600160a01b0316808252600560205260408220805460ff191660011790557f97b051fe48e86c08fca96c9bbe846678783b6999358e6d4efbaf9e40ca59b6a78280a280f35b82346101da57806003193601126101da576020600254604051908152f35b82346101da57806003193601126101da576020600c54604051908152f35b82346101da57806003193601126101da576040516108ca816120fb565b600a90818152825b6101408082101561093857604051602092916108ed826120fb565b8682528660609185928084860152806040860152808501528160808501528160a08501528160c0850152818a85015281610100850152816101208501528301528285010152016108d2565b505090829060028054925b828110610a475750505050604051916020808401908085528351809252604085018160408460051b880101950193965b8388106109805786860387f35b90919293948380600192603f198a8203018652885190848060a01b0382511681526109e36109d06109be858501516101608088870152850190612201565b60408501518482036040860152612201565b6060808501519084830390850152612201565b9160808082015190830152610a0060a08083015190840190612226565b60c080820151151590830152868101511515878301526101008082015190830152610120808201519083015261014080910151910152970193019701969093929193610973565b83865260076020908082526040882083895282526040882060405192610a6c846120fb565b81546001600160a01b03168452610a8560018301612138565b90840152610a94858201612138565b6040840152610aa560038201612138565b60608401526004810154608084015260058101549160ff80841688811015610b285760a0860152600884811c8216151560c087015260109490941c1615158b85015260068201546101008501528101546101208401520154610140820152610b239190610b12828861256f565b52610b1d818761256f565b50612381565b610943565b634e487b7160e01b8c52602160045260248cfd5b82346101da5760203660031901126101da5760209060ff906040906001600160a01b03610b67612249565b168152600484522054166040519015158152f35b82346101da57610b8a36612093565b90610b93612316565b600a8210156105a1578083526007602052604083208284526020526040832060018060a01b03808254163303610cf157600582019182549060ff8260081c1661058f5786936201000060049362ff00001916179055019081549081610c23575b50505050337f2ddf52ad696f7475d5e714ce5c8c1c4e9b93814e40d3f4c5ab845cb2bc0579ac8480a46001805580f35b602092610c35610c6393600c54612351565b600c555460405163a9059cbb60e01b8152336004820152602481019190915293849283919082906044820190565b03927f0000000000000000000000000000000000000000000000000000000000000000165af1908115610ce6578491610cb8575b5015610ca65782848080610bf3565b6040516312171d8360e31b8152600490fd5b610cd9915060203d8111610cdf575b610cd18183612117565b810190612339565b84610c97565b503d610cc7565b6040513d86823e3d90fd5b604051632211114160e11b8152600490fd5b82346101da57806003193601126101da57546040516001600160a01b039091168152602090f35b82346101da57610d3936612093565b90610d42612316565b33835260206004815260ff604085205416156105c557600a8310156105a157818452600781526040842083855281526040842090600582015460ff8160081c1615610f8d5760101c60ff1661057d57828552600881526040852084865281526040852033600052815260ff6040600020541615610f7b57828552600981526040852084865281526040852033600052815260ff60406000205416610f69576008820154621275008101809111610f55574211610f435760068201548015610f315760048301546101f4808202908282041482151715610f1d5791610e30610e35926127106007950490612351565b612390565b9284875260098352604087208688528352604087203360005283526040600020600160ff1982541617905501610e6c838254612374565b905560405163a9059cbb60e01b8152336004820152602481018390528181604481896001600160a01b037f0000000000000000000000000000000000000000000000000000000000000000165af19081156104f3578691610f00575b5015610ca6577f812be816db82c66cd18ca8457005cd84689642d8ac4d38599cc6af444a2dc72a906040519283523392a46001805580f35b610f179150823d8411610cdf57610cd18183612117565b86610ec8565b634e487b7160e01b88526011600452602488fd5b60405163162908e360e11b8152600490fd5b60405163320c7b7d60e21b8152600490fd5b634e487b7160e01b86526011600452602486fd5b604051630c8d9eab60e31b8152600490fd5b6040516301327deb60e01b8152600490fd5b604051630df706ad60e11b8152600490fd5b82346101da57806003193601126101da576040517f00000000000000000000000000000000000000000000000000000000000000006001600160a01b03168152602090f35b82346101da5760203660031901126101da57610ffe612249565b6110066122ea565b6001600160a01b0316808252600560205260408220805460ff191690557f2a2f5e02b0e6aab2b998dbcae41aec9407649a38bd8d41b7b49bedee8cdeaf2e8280a280f35b82346101da57806003193601126101da57611063612316565b61106b6123b0565b6001805580f35b82346101da57806003193601126101da5761108b6122ea565b600080546001600160a01b0319811682556001600160a01b03167f8be0079c531659141344cd1fd0a4f28419497f9722a3daafe3b4186f6b6457e08280a380f35b82346101da57806003193601126101da576020600354604051908152f35b82346101da5760406110fb3661228c565b939182526009602052828220908252602052209060018060a01b0316600052602052602060ff604060002054166040519015158152f35b82346101da57602090816003193601126101da5761114e612249565b9060025491600a92838102938185048114821517156113d65761117385939293612666565b9261118661118087612666565b96612666565b85939092906001600160a01b0316845b8381111561125857505050506111ab82612666565b946111b583612666565b936111bf84612666565b955b848110611208576111e988611204896111f68d8b6040519687966060885260608801906122b6565b91868303908701526122b6565b9083820360408501526122b6565b0390f35b80611216611253928461256f565b51611221828b61256f565b5261122c818561256f565b51611237828961256f565b52611242818661256f565b5161124d828a61256f565b52612381565b6111c1565b875b838110611270575061126b90612381565b611196565b81895260078b5260408920818a528b5260408920828a528b600880825260408c20848d52825260408c2086600052825260ff8c816040600020541693846113a7575b505082611397575b5081611368575b508061135b575b6112dc575b506112d790612381565b61125a565b60048198929801546101f48082029082820414821517156113475789611335858f888f95836113296113409a60066113206112d79e9c61271061132f970490612351565b91015490612390565b9761256f565b5261256f565b5261124d828a61256f565b96906112cd565b634e487b7160e01b8c52601160045260248cfd5b50600681015415156112c8565b9050810154621275008101809111611383574211158d6112c1565b634e487b7160e01b8b52601160045260248bfd5b6005840154821c1691508e6112ba565b909193508682526009815285604083209252528d60408d20908760005252816040600020541615918c8f6112b2565b634e487b7160e01b84526011600452602484fd5b82346101da5760203660031901126101da5760209060ff906040906001600160a01b03611415612249565b168152600684522054166040519015158152f35b82346101da57806003193601126101da576020600b54604051908152f35b82346101da57806003193601126101da5760206040516101f48152f35b82346101da5760203660031901126101da5761147e612249565b6114866122ea565b6001600160a01b03168152600660205260408120805460ff1916600117905580f35b82346101da5760406114b93661228c565b939182526008602052828220908252602052209060018060a01b0316600052602052602060ff604060002054166040519015158152f35b82346101da57806003193601126101da576115096122ea565b611511612316565b600b548015610f3157600b829055815460405163a9059cbb60e01b81526001600160a01b03918216600482015260248101839052602081604481877f000000000000000000000000000000000000000000000000000000000000000087165af1908115610ce65784916115bb575b5015610ca65760207fc0819c13be868895eb93e40eaceb96de976442fa1d404e5c55f14bb65a8c489a9184541692604051908152a26001805580f35b6115d3915060203d8111610cdf57610cd18183612117565b8461157f565b82346101da57806003193601126101da576020604051621275008152f35b82346101da57806003193601126101da576020604051600a8152f35b82346101da57602061162d6116273661228c565b91612599565b604051908152f35b82346101da576101803660031901126101da576044356001600160401b0381116105db5761166790369060040161225f565b6064356001600160401b038111611d995761168690369060040161225f565b6084929192356001600160401b0381116105d7576116a890369060040161225f565b939092600a60c4351015611d955760803660e3190112611d9557610164356001600160401b038111611d91576116e290369060040161225f565b6116ed979197612316565b338952600560205260ff60408a205416611d7f57600254600435036105b357600a60243510156105a15760043589526007602052604089206024358a52602052604089209760018060a01b0389541680151580611d72575b611cb9575b50604051908160408101106001600160401b03604084011117611ca5576040808301905230825260a43560208301528a91907f00000000000000000000000000000000000000000000000000000000000000006001600160a01b03163b15611ca15760405163187945bd60e11b81529360e4356001600160a01b0381169190829003611c9d57806101249381889687956004870152602061010491823560248901528835604489015261014435606489015260018060a01b038151166084890152015160a48701523360c487015261010060e4870152850152848401378181018301859052601f01601f19168101030181837f00000000000000000000000000000000000000000000000000000000000000006001600160a01b03165af18015611c9257611c7f575b5086546001600160a01b031916331787556001600160401b038211611c6b5781906118a160018901546120ae565b601f8111611c1b575b508890601f8311600114611baf578992611ba4575b50508160011b916000199060031b1c19161760018601555b6001600160401b038211611b905781906118f460028701546120ae565b601f8111611b40575b508690601f8311600114611ad4578792611ac9575b50508160011b916000199060031b1c19161760028401555b6001600160401b038211611ab55761194560038401546120ae565b601f8111611a71575b508390601f8311600114611a015760059392918591836119f6575b50508160011b916000199060031b1c19161760038201555b60a43560048201550160ff1981541660ff60c435161790556119a760a435600c54612374565b600c556040516119b98160c435612226565b60a435602082015260243590600435907f57fd3b672d0a576a3e359189cf66cb6f9f8928eba7c11efbe695d66b957ce76e60403392a46001805580f35b013590508580611969565b6003840185526020852091855b601f1985168110611a59575091839160019360059695601f19811610611a3f575b505050811b016003820155611981565b0135600019600384901b60f8161c19169055858080611a2f565b90926020600181928686013581550194019101611a0e565b60038401855260208520601f840160051c810160208510611aae575b601f830160051c82018110611aa357505061194e565b868155600101611a8d565b5080611a8d565b634e487b7160e01b84526041600452602484fd5b013590508680611912565b60028701885260208820889450915b601f1984168510611b28576001945083601f19811610611b0e575b505050811b01600284015561192a565b0135600019600384901b60f8161c19169055868080611afe565b81810135835560209485019460019093019201611ae3565b90915060028601875260208720601f840160051c810160208510611b89575b90849392915b601f830160051c82018110611b7b5750506118fd565b898155859450600101611b65565b5080611b5f565b634e487b7160e01b86526041600452602486fd5b0135905088806118bf565b600189018a5260208a208a9450915b601f1984168510611c03576001945083601f19811610611be9575b505050811b0160018601556118d7565b0135600019600384901b60f8161c19169055888080611bd9565b81810135835560209485019460019093019201611bbe565b90915060018801895260208920601f840160051c810160208510611c64575b90849392915b601f830160051c82018110611c565750506118aa565b8b8155859450600101611c40565b5080611c3a565b634e487b7160e01b88526041600452602488fd5b611c8b909891986120e8565b9688611873565b6040513d8b823e3d90fd5b8480fd5b8280fd5b634e487b7160e01b8b52604160045260248bfd5b60048a81015460405163a9059cbb60e01b81526001600160a01b039093169183019190915260248201526020818c81806044810103917f00000000000000000000000000000000000000000000000000000000000000006001600160a01b03165af1908115611d67578b91611d48575b5015610ca657611d3f60048a0154600c54612351565b600c558a61174a565b611d61915060203d602011610cdf57610cd18183612117565b8b611d29565b6040513d8d823e3d90fd5b5060048a01541515611745565b60405163299aa0a160e21b8152600490fd5b8780fd5b8680fd5b8380fd5b82346101da57806003193601126101da576040517f00000000000000000000000000000000000000000000000000000000000000006001600160a01b03168152602090f35b82346101da5760203660031901126101da5760209060ff906040906001600160a01b03611e0d612249565b168152600584522054166040519015158152f35b82346101da57611e3036612093565b90611e39612316565b600a8210156105a157808352602060078152604084208385528152604084209060ff600583015460081c1615610f8d576008820154621275008101809111610f5557421115611f8c5760048201546101f4808202908282041482151715611f7857600791612710611eab920490612351565b920191611eb9835482612351565b928315610f315755845460405163a9059cbb60e01b81526001600160a01b03918216600482015260248101849052908290829060449082908a907f0000000000000000000000000000000000000000000000000000000000000000165af19081156104f3578691611f5b575b5015610ca6577fcf3b62092c7f2a3455c516c177bd1970412d1c381c960d3986e3296f9dff0e7b91604051908152a36001805580f35b611f729150823d8411610cdf57610cd18183612117565b86611f25565b634e487b7160e01b87526011600452602487fd5b60405163162618a960e01b8152600490fd5b82346101da57604090611fb036612093565b9082526007602052828220908252602052209060018060a01b0382541690611fda60018401612138565b92611fe760028201612138565b90611ff460038201612138565b60048201549360ff600584015461205160068601549461204360086007890154980154986120356040519d8e9d8e528d610160908160208201520190612201565b8c810360408e015290612201565b908a820360608c0152612201565b96608089015261206660a08901838316612226565b818160081c16151560c089015260101c161515908601526101008501526101208401526101408301520390f35b60409060031901126120a9576004359060243590565b600080fd5b90600182811c921680156120de575b60208310146120c857565b634e487b7160e01b600052602260045260246000fd5b91607f16916120bd565b6001600160401b03811161055557604052565b61016081019081106001600160401b0382111761055557604052565b90601f801991011681019081106001600160401b0382111761055557604052565b906040519182600082549261214c846120ae565b9081845260019485811690816000146121bb5750600114612178575b505061217692500383612117565b565b9093915060005260209081600020936000915b8183106121a357505061217693508201013880612168565b8554888401850152948501948794509183019161218b565b91505061217694506020925060ff191682840152151560051b8201013880612168565b60005b8381106121f15750506000910152565b81810151838201526020016121e1565b9060209161221a815180928185528580860191016121de565b601f01601f1916010190565b90600a8210156122335752565b634e487b7160e01b600052602160045260246000fd5b600435906001600160a01b03821682036120a957565b9181601f840112156120a9578235916001600160401b0383116120a957602083818601950101116120a957565b60609060031901126120a95760043590602435906044356001600160a01b03811681036120a95790565b90815180825260208080930193019160005b8281106122d6575050505090565b8351855293810193928101926001016122c8565b6000546001600160a01b031633036122fe57565b60405163118cdaa760e01b8152336004820152602490fd5b600260015414612327576002600155565b604051633ee5aeb560e01b8152600490fd5b908160209103126120a9575180151581036120a95790565b9190820391821161235e57565b634e487b7160e01b600052601160045260246000fd5b9190820180921161235e57565b600019811461235e5760010190565b811561239a570490565b634e487b7160e01b600052601260045260246000fd5b6002541561243357600254600019810190811161235e576003548111612406575b6123dc600254612381565b6002557f6fbfbccdd0d107860c9bccfa723d97eba4f37886edeb01e7a438b1e0fe44e056600080a2565b60005b600a811061241b5750806003556123d1565b8061242961242e9284612460565b612381565b612409565b600160025560007f6fbfbccdd0d107860c9bccfa723d97eba4f37886edeb01e7a438b1e0fe44e0568180a2565b6000818152600760205260408120838252602052604081209060018060a01b0382541615612543576005820190815460ff8160101c1661253157506004830154906101f49081830291838304148315171561251d5750926020926124fc6006936124f16127107f67a59239176edc6000958291e1c679afd7b3e13a274c758a1fb33d8587d5e7089804600b54612374565b600b55600c54612351565b600c55805461ff0019166101001790554260088201550154604051908152a3565b634e487b7160e01b81526011600452602490fd5b61ff0019166101001790915550505050565b50600501805461ff0019166101001790555050565b6001600160401b0381116105555760051b60200190565b80518210156125835760209160051b010190565b634e487b7160e01b600052603260045260246000fd5b91600090838252602090600782526040918284208585528152828420948685526008825283852081865282528385209260018060a01b031692838652825260ff84862054161561265c5784959660ff955260098252838620908652815282852091855252822054166126575760ff600583015460081c16156126575760068201549182156126515760040154906101f49081830291838304148315171561251d575061264e9291612710610e30920490612351565b90565b50905090565b905090565b5050505091505090565b9061267082612558565b61267d6040519182612117565b828152809261268e601f1991612558565b019060203691013756fea26469706673582212203232b35d548c9db3cd58bbce1c33f289f161288c21330c1c38d49f08372972fa64736f6c63430008140033","opcodes":"PUSH2 0x120 PUSH1 0x40 DUP2 DUP2 MSTORE CALLVALUE PUSH3 0x212 JUMPI PUSH3 0x29EC DUP1 CODESIZE SUB DUP1 SWAP2 PUSH3 0x22 DUP3 DUP7 PUSH3 0x217 JUMP JUMPDEST DUP5 CODECOPY DUP3 ADD PUSH1 0xA0 DUP4 DUP3 SUB SLT PUSH3 0x212 JUMPI PUSH3 0x3C DUP4 PUSH3 0x251 JUMP JUMPDEST SWAP3 PUSH1 0x20 SWAP1 PUSH3 0x4D DUP3 DUP3 ADD PUSH3 0x251 JUMP JUMPDEST PUSH3 0x5A DUP6 DUP4 ADD PUSH3 0x251 JUMP JUMPDEST PUSH1 0x60 DUP4 ADD MLOAD PUSH1 0x1 PUSH1 0x1 PUSH1 0x40 SHL SUB SWAP6 SWAP2 SWAP4 SWAP2 SWAP1 DUP7 DUP2 GT PUSH3 0x212 JUMPI DUP2 PUSH3 0x82 SWAP2 DUP5 ADD PUSH3 0x28B JUMP JUMPDEST SWAP6 PUSH1 0x80 DUP4 ADD MLOAD SWAP1 DUP2 GT PUSH3 0x212 JUMPI PUSH3 0x9C SWAP3 ADD PUSH3 0x28B JUMP JUMPDEST SWAP4 CALLER ISZERO PUSH3 0x1FA JUMPI PUSH1 0x0 DUP1 SLOAD CALLER PUSH1 0x1 PUSH1 0x1 PUSH1 0xA0 SHL SUB NOT DUP3 AND DUP2 OR DUP4 SSTORE DUP9 MLOAD DUP10 SWAP8 SWAP7 SWAP1 SWAP6 DUP8 SWAP6 DUP8 SWAP6 SWAP1 SWAP5 PUSH1 0x1 PUSH1 0x1 PUSH1 0xA0 SHL SUB SWAP5 DUP6 SWAP4 SWAP3 SWAP1 SWAP2 DUP5 AND SWAP1 PUSH32 0x8BE0079C531659141344CD1FD0A4F28419497F9722A3DAAFE3B4186F6B6457E0 SWAP1 DUP1 LOG3 PUSH1 0x1 DUP1 SSTORE DUP2 PUSH2 0x100 SWAP14 PUSH1 0x0 DUP16 MSTORE AND PUSH1 0x80 MSTORE AND PUSH1 0xA0 MSTORE AND PUSH1 0xC0 MSTORE DUP1 MLOAD SWAP1 DUP2 DUP5 DUP1 DUP6 ADD SWAP3 ADD SWAP2 PUSH3 0x129 SWAP3 PUSH3 0x266 JUMP JUMPDEST DUP2 ADD SUB DUP1 DUP4 MSTORE ADD PUSH3 0x13C SWAP1 DUP3 PUSH3 0x217 JUMP JUMPDEST PUSH3 0x147 SWAP1 PUSH3 0x2E6 JUMP JUMPDEST DUP3 MLOAD SWAP4 DUP5 SWAP2 DUP4 DUP4 ADD MSTORE DUP1 MLOAD SWAP1 DUP2 DUP5 DUP7 DUP6 ADD SWAP3 ADD SWAP2 PUSH3 0x166 SWAP3 PUSH3 0x266 JUMP JUMPDEST DUP2 ADD SUB SWAP1 DUP2 ADD DUP4 MSTORE ADD PUSH3 0x17B SWAP1 DUP3 PUSH3 0x217 JUMP JUMPDEST PUSH3 0x186 SWAP1 PUSH3 0x2E6 JUMP JUMPDEST PUSH1 0xE0 MSTORE MLOAD PUSH2 0x26CE SWAP2 DUP3 PUSH3 0x31E DUP4 CODECOPY PUSH1 0x80 MLOAD DUP3 DUP2 DUP2 PUSH2 0x5F5 ADD MSTORE DUP2 DUP2 PUSH2 0xC67 ADD MSTORE DUP2 DUP2 PUSH2 0xE98 ADD MSTORE DUP2 DUP2 PUSH2 0x154E ADD MSTORE DUP2 DUP2 PUSH2 0x1CF1 ADD MSTORE PUSH2 0x1EF5 ADD MSTORE PUSH1 0xA0 MLOAD DUP3 DUP2 DUP2 PUSH2 0x177E ADD MSTORE DUP2 DUP2 PUSH2 0x183E ADD MSTORE PUSH2 0x1DB3 ADD MSTORE PUSH1 0xC0 MLOAD DUP3 DUP2 DUP2 PUSH2 0x68A ADD MSTORE PUSH2 0xFB5 ADD MSTORE PUSH1 0xE0 MLOAD DUP3 PUSH2 0x754 ADD MSTORE MLOAD DUP2 PUSH2 0x721 ADD MSTORE RETURN JUMPDEST DUP6 MLOAD PUSH4 0x1E4FBDF7 PUSH1 0xE0 SHL DUP2 MSTORE PUSH1 0x0 PUSH1 0x4 DUP3 ADD MSTORE PUSH1 0x24 SWAP1 REVERT JUMPDEST PUSH1 0x0 DUP1 REVERT JUMPDEST PUSH1 0x1F SWAP1 SWAP2 ADD PUSH1 0x1F NOT AND DUP2 ADD SWAP1 PUSH1 0x1 PUSH1 0x1 PUSH1 0x40 SHL SUB DUP3 GT SWAP1 DUP3 LT OR PUSH3 0x23B JUMPI PUSH1 0x40 MSTORE JUMP JUMPDEST PUSH4 0x4E487B71 PUSH1 0xE0 SHL PUSH1 0x0 MSTORE PUSH1 0x41 PUSH1 0x4 MSTORE PUSH1 0x24 PUSH1 0x0 REVERT JUMPDEST MLOAD SWAP1 PUSH1 0x1 PUSH1 0x1 PUSH1 0xA0 SHL SUB DUP3 AND DUP3 SUB PUSH3 0x212 JUMPI JUMP JUMPDEST PUSH1 0x0 JUMPDEST DUP4 DUP2 LT PUSH3 0x27A JUMPI POP POP PUSH1 0x0 SWAP2 ADD MSTORE JUMP JUMPDEST DUP2 DUP2 ADD MLOAD DUP4 DUP3 ADD MSTORE PUSH1 0x20 ADD PUSH3 0x269 JUMP JUMPDEST DUP2 PUSH1 0x1F DUP3 ADD SLT ISZERO PUSH3 0x212 JUMPI DUP1 MLOAD PUSH1 0x1 PUSH1 0x1 PUSH1 0x40 SHL SUB DUP2 GT PUSH3 0x23B JUMPI PUSH1 0x40 MLOAD SWAP3 PUSH3 0x2C2 PUSH1 0x1F DUP4 ADD PUSH1 0x1F NOT AND PUSH1 0x20 ADD DUP6 PUSH3 0x217 JUMP JUMPDEST DUP2 DUP5 MSTORE PUSH1 0x20 DUP3 DUP5 ADD ADD GT PUSH3 0x212 JUMPI PUSH3 0x2E3 SWAP2 PUSH1 0x20 DUP1 DUP6 ADD SWAP2 ADD PUSH3 0x266 JUMP JUMPDEST SWAP1 JUMP JUMPDEST PUSH1 0x40 MLOAD PUSH3 0x314 PUSH1 0x20 DUP3 DUP2 PUSH3 0x306 DUP2 DUP4 ADD SWAP7 DUP8 DUP2 MLOAD SWAP4 DUP5 SWAP3 ADD PUSH3 0x266 JUMP JUMPDEST DUP2 ADD SUB DUP1 DUP5 MSTORE ADD DUP3 PUSH3 0x217 JUMP JUMPDEST MLOAD SWAP1 KECCAK256 PUSH1 0x8 SHR SWAP1 JUMP INVALID PUSH1 0x80 PUSH1 0x40 MSTORE PUSH1 0x4 CALLDATASIZE LT ISZERO PUSH2 0x12 JUMPI PUSH1 0x0 DUP1 REVERT JUMPDEST PUSH1 0x0 PUSH1 0xE0 DUP2 CALLDATALOAD DUP2 SHR SWAP1 DUP2 PUSH4 0x35169A4 EQ PUSH2 0x1F9E JUMPI DUP2 PUSH4 0x1012BE0D EQ PUSH2 0x1E21 JUMPI DUP2 PUSH4 0x11637F22 EQ PUSH2 0x1DE2 JUMPI DUP2 PUSH4 0x12261EE7 EQ PUSH2 0x1D9D JUMPI DUP2 PUSH4 0x12D95D1D EQ PUSH2 0x1635 JUMPI DUP2 PUSH4 0x1F50FEC9 EQ PUSH2 0x1613 JUMPI DUP2 PUSH4 0x39ACA329 EQ PUSH2 0x15F7 JUMPI DUP2 PUSH4 0x42F81580 EQ PUSH2 0x15D9 JUMPI DUP2 PUSH4 0x476343EE EQ PUSH2 0x14F0 JUMPI DUP2 PUSH4 0x4D63A475 EQ PUSH2 0x14A8 JUMPI DUP2 PUSH4 0x5240EB32 EQ PUSH2 0x1464 JUMPI DUP2 PUSH4 0x539AA77F EQ PUSH2 0x1447 JUMPI DUP2 PUSH4 0x587F5ED7 EQ PUSH2 0x1429 JUMPI DUP2 PUSH4 0x5D2B6A4E EQ PUSH2 0x13EA JUMPI DUP2 PUSH4 0x646E200B EQ PUSH2 0x1132 JUMPI DUP2 PUSH4 0x69547F2D EQ PUSH2 0x10EA JUMPI DUP2 PUSH4 0x6ECDF606 EQ PUSH2 0x10CC JUMPI DUP2 PUSH4 0x715018A6 EQ PUSH2 0x1072 JUMPI DUP2 PUSH4 0x71B3FB9A EQ PUSH2 0x104A JUMPI DUP2 PUSH4 0x74331428 EQ PUSH2 0xFE4 JUMPI DUP2 PUSH4 0x753E9EF0 EQ PUSH2 0xF9F JUMPI DUP2 PUSH4 0x86BB8F37 EQ PUSH2 0xD2A JUMPI DUP2 PUSH4 0x8DA5CB5B EQ PUSH2 0xD03 JUMPI DUP2 PUSH4 0x97090DC8 EQ PUSH2 0xB7B JUMPI DUP2 PUSH4 0xB2DD5C07 EQ PUSH2 0xB3C JUMPI DUP2 PUSH4 0xB7C32BF0 EQ PUSH2 0x8AD JUMPI DUP2 PUSH4 0xB8AFAA48 EQ PUSH2 0x88F JUMPI DUP2 PUSH4 0xBAB2F552 EQ PUSH2 0x871 JUMPI DUP2 PUSH4 0xBE26ED7F EQ PUSH2 0x871 JUMPI DUP2 PUSH4 0xC0AE6146 EQ PUSH2 0x808 JUMPI DUP2 PUSH4 0xCC6CD25E EQ PUSH2 0x624 JUMPI DUP2 PUSH4 0xDE061D66 EQ PUSH2 0x5DF JUMPI DUP2 PUSH4 0xE7C21A3E EQ PUSH2 0x2AE JUMPI POP DUP1 PUSH4 0xF2FDE38B EQ PUSH2 0x21E JUMPI DUP1 PUSH4 0xF62A4EDB EQ PUSH2 0x1DD JUMPI PUSH4 0xF978FD61 EQ PUSH2 0x1AC JUMPI PUSH1 0x0 DUP1 REVERT JUMPDEST CALLVALUE PUSH2 0x1DA JUMPI PUSH1 0x20 CALLDATASIZE PUSH1 0x3 NOT ADD SLT PUSH2 0x1DA JUMPI PUSH1 0xFF PUSH1 0x40 PUSH1 0x20 SWAP3 PUSH1 0x4 CALLDATALOAD DUP2 MSTORE PUSH1 0xA DUP5 MSTORE KECCAK256 SLOAD AND PUSH1 0x40 MLOAD SWAP1 ISZERO ISZERO DUP2 MSTORE RETURN JUMPDEST DUP1 REVERT JUMPDEST POP CALLVALUE PUSH2 0x1DA JUMPI PUSH1 0x20 CALLDATASIZE PUSH1 0x3 NOT ADD SLT PUSH2 0x1DA JUMPI PUSH2 0x1F7 PUSH2 0x2249 JUMP JUMPDEST PUSH2 0x1FF PUSH2 0x22EA JUMP JUMPDEST PUSH1 0x1 PUSH1 0x1 PUSH1 0xA0 SHL SUB AND DUP2 MSTORE PUSH1 0x6 PUSH1 0x20 MSTORE PUSH1 0x40 DUP2 KECCAK256 DUP1 SLOAD PUSH1 0xFF NOT AND SWAP1 SSTORE DUP1 RETURN JUMPDEST POP CALLVALUE PUSH2 0x1DA JUMPI PUSH1 0x20 CALLDATASIZE PUSH1 0x3 NOT ADD SLT PUSH2 0x1DA JUMPI PUSH2 0x238 PUSH2 0x2249 JUMP JUMPDEST PUSH2 0x240 PUSH2 0x22EA JUMP JUMPDEST PUSH1 0x1 PUSH1 0x1 PUSH1 0xA0 SHL SUB SWAP1 DUP2 AND SWAP1 DUP2 ISZERO PUSH2 0x295 JUMPI PUSH1 0x0 SLOAD DUP3 PUSH12 0xFFFFFFFFFFFFFFFFFFFFFFFF PUSH1 0xA0 SHL DUP3 AND OR PUSH1 0x0 SSTORE AND PUSH32 0x8BE0079C531659141344CD1FD0A4F28419497F9722A3DAAFE3B4186F6B6457E0 PUSH1 0x0 DUP1 LOG3 DUP1 RETURN JUMPDEST PUSH1 0x40 MLOAD PUSH4 0x1E4FBDF7 PUSH1 0xE0 SHL DUP2 MSTORE PUSH1 0x4 DUP2 ADD DUP5 SWAP1 MSTORE PUSH1 0x24 SWAP1 REVERT JUMPDEST SWAP1 POP CALLVALUE PUSH2 0x5DB JUMPI PUSH1 0xA0 CALLDATASIZE PUSH1 0x3 NOT ADD SLT PUSH2 0x5DB JUMPI PUSH1 0x4 CALLDATALOAD PUSH1 0x24 CALLDATALOAD SWAP2 PUSH1 0x84 CALLDATALOAD PUSH1 0x1 PUSH1 0x1 PUSH1 0x40 SHL SUB SWAP1 DUP2 DUP2 GT PUSH2 0x5D7 JUMPI PUSH2 0x2E9 SWAP1 CALLDATASIZE SWAP1 PUSH1 0x4 ADD PUSH2 0x225F JUMP JUMPDEST SWAP3 PUSH2 0x2F2 PUSH2 0x2316 JUMP JUMPDEST CALLER DUP8 MSTORE PUSH1 0x20 SWAP2 PUSH1 0x4 DUP4 MSTORE PUSH1 0xFF SWAP2 DUP3 PUSH1 0x40 DUP11 KECCAK256 SLOAD AND ISZERO PUSH2 0x5C5 JUMPI PUSH1 0x2 SLOAD DUP8 LT ISZERO PUSH2 0x5B3 JUMPI PUSH1 0xA DUP9 LT ISZERO PUSH2 0x5A1 JUMPI DUP7 DUP10 MSTORE PUSH1 0x7 DUP5 MSTORE PUSH1 0x40 DUP10 KECCAK256 DUP9 DUP11 MSTORE DUP5 MSTORE PUSH1 0x40 DUP10 KECCAK256 SWAP5 PUSH1 0x5 DUP7 ADD SLOAD DUP5 DUP2 PUSH1 0x8 SHR AND PUSH2 0x58F JUMPI PUSH1 0x10 SHR DUP5 AND PUSH2 0x57D JUMPI DUP8 DUP11 MSTORE PUSH1 0x8 DUP6 MSTORE PUSH1 0x40 DUP11 KECCAK256 DUP10 DUP12 MSTORE DUP6 MSTORE PUSH1 0x40 DUP11 KECCAK256 CALLER PUSH1 0x0 MSTORE DUP6 MSTORE DUP4 PUSH1 0x40 PUSH1 0x0 KECCAK256 SLOAD AND PUSH2 0x56B JUMPI PUSH1 0x40 MLOAD SWAP1 DUP6 DUP3 ADD CALLER PUSH1 0x60 SHL DUP2 MSTORE DUP10 PUSH1 0x34 DUP5 ADD MSTORE DUP11 PUSH1 0x54 DUP5 ADD MSTORE PUSH1 0x44 CALLDATALOAD PUSH1 0x74 DUP5 ADD MSTORE PUSH1 0x64 CALLDATALOAD PUSH1 0x94 DUP5 ADD MSTORE PUSH1 0x94 DUP4 MSTORE PUSH1 0xC0 DUP4 ADD SWAP3 DUP1 DUP5 LT DUP4 DUP6 GT OR PUSH2 0x555 JUMPI PUSH2 0x120 SWAP2 DUP5 PUSH1 0x40 MSTORE DUP2 MLOAD SWAP1 KECCAK256 SWAP5 DUP2 ADD SWAP5 PUSH32 0x19457468657265756D205369676E6564204D6573736167653A0A333200000000 DUP7 MSTORE PUSH1 0xFC DUP3 ADD MSTORE PUSH1 0x3C DUP5 MSTORE ADD SWAP1 DUP3 DUP3 LT SWAP1 DUP3 GT OR PUSH2 0x555 JUMPI PUSH1 0x40 MSTORE MLOAD SWAP1 KECCAK256 SWAP5 DUP6 DUP10 MSTORE PUSH1 0xA DUP5 MSTORE DUP3 PUSH1 0x40 DUP11 KECCAK256 SLOAD AND PUSH2 0x543 JUMPI PUSH1 0x41 SUB PUSH2 0x4FE JUMPI DUP8 PUSH1 0x80 DUP5 SWAP3 DUP4 PUSH1 0x40 MLOAD SWAP2 DUP10 DUP4 MSTORE PUSH1 0x40 DUP2 ADD CALLDATALOAD DUP6 BYTE DUP3 DUP5 ADD MSTORE DUP1 CALLDATALOAD PUSH1 0x40 DUP5 ADD MSTORE ADD CALLDATALOAD PUSH1 0x60 DUP3 ADD MSTORE DUP3 DUP1 MSTORE PUSH1 0x1 GAS STATICCALL ISZERO PUSH2 0x4F3 JUMPI DUP7 MLOAD PUSH1 0x1 PUSH1 0x1 PUSH1 0xA0 SHL SUB AND DUP8 MSTORE PUSH1 0x6 DUP3 MSTORE PUSH1 0x40 DUP8 KECCAK256 SLOAD AND ISZERO PUSH2 0x4E1 JUMPI PUSH1 0x6 SWAP3 DUP7 MSTORE PUSH1 0xA DUP2 MSTORE PUSH1 0x40 DUP7 KECCAK256 SWAP1 PUSH1 0xFF NOT SWAP2 PUSH1 0x1 DUP4 DUP3 SLOAD AND OR SWAP1 SSTORE DUP5 DUP8 MSTORE PUSH1 0x8 DUP2 MSTORE PUSH1 0x40 DUP8 KECCAK256 DUP7 DUP9 MSTORE DUP2 MSTORE PUSH1 0x40 DUP8 KECCAK256 SWAP1 CALLER PUSH1 0x0 MSTORE MSTORE PUSH1 0x1 PUSH1 0x40 PUSH1 0x0 KECCAK256 SWAP2 DUP3 SLOAD AND OR SWAP1 SSTORE ADD PUSH2 0x4B3 DUP2 SLOAD PUSH2 0x2381 JUMP JUMPDEST SWAP1 SSTORE CALLER PUSH32 0xDF68871EFF37C21A2D5F5F4714DEFB013C53C6AA48EBE6EFF29CA11E06519127 DUP5 DUP1 LOG4 PUSH1 0x1 DUP1 SSTORE DUP1 RETURN JUMPDEST PUSH1 0x40 MLOAD PUSH4 0xEA8E4EB5 PUSH1 0xE0 SHL DUP2 MSTORE PUSH1 0x4 SWAP1 REVERT JUMPDEST PUSH1 0x40 MLOAD RETURNDATASIZE DUP9 DUP3 RETURNDATACOPY RETURNDATASIZE SWAP1 REVERT JUMPDEST PUSH1 0x40 MLOAD PUSH3 0x461BCD PUSH1 0xE5 SHL DUP2 MSTORE PUSH1 0x4 DUP2 ADD DUP5 SWAP1 MSTORE PUSH1 0x18 PUSH1 0x24 DUP3 ADD MSTORE PUSH32 0x496E76616C6964207369676E6174757265206C656E6774680000000000000000 PUSH1 0x44 DUP3 ADD MSTORE PUSH1 0x64 SWAP1 REVERT JUMPDEST PUSH1 0x40 MLOAD PUSH4 0x900BB2C9 PUSH1 0xE0 SHL DUP2 MSTORE PUSH1 0x4 SWAP1 REVERT JUMPDEST PUSH4 0x4E487B71 PUSH1 0xE0 SHL PUSH1 0x0 MSTORE PUSH1 0x41 PUSH1 0x4 MSTORE PUSH1 0x24 PUSH1 0x0 REVERT JUMPDEST PUSH1 0x40 MLOAD PUSH4 0xE02CD2CB PUSH1 0xE0 SHL DUP2 MSTORE PUSH1 0x4 SWAP1 REVERT JUMPDEST PUSH1 0x40 MLOAD PUSH4 0x1BB428A9 PUSH1 0xE2 SHL DUP2 MSTORE PUSH1 0x4 SWAP1 REVERT JUMPDEST PUSH1 0x40 MLOAD PUSH4 0x475A2535 PUSH1 0xE0 SHL DUP2 MSTORE PUSH1 0x4 SWAP1 REVERT JUMPDEST PUSH1 0x40 MLOAD PUSH4 0x1258E443 PUSH1 0xE0 SHL DUP2 MSTORE PUSH1 0x4 SWAP1 REVERT JUMPDEST PUSH1 0x40 MLOAD PUSH4 0x4DC7F5FF PUSH1 0xE1 SHL DUP2 MSTORE PUSH1 0x4 SWAP1 REVERT JUMPDEST PUSH1 0x40 MLOAD PUSH4 0xABA47339 PUSH1 0xE0 SHL DUP2 MSTORE PUSH1 0x4 SWAP1 REVERT JUMPDEST DUP6 DUP1 REVERT JUMPDEST POP DUP1 REVERT JUMPDEST DUP3 CALLVALUE PUSH2 0x1DA JUMPI DUP1 PUSH1 0x3 NOT CALLDATASIZE ADD SLT PUSH2 0x1DA JUMPI PUSH1 0x40 MLOAD PUSH32 0x0 PUSH1 0x1 PUSH1 0x1 PUSH1 0xA0 SHL SUB AND DUP2 MSTORE PUSH1 0x20 SWAP1 RETURN JUMPDEST DUP3 CALLVALUE PUSH2 0x1DA JUMPI PUSH2 0x160 CALLDATASIZE PUSH1 0x3 NOT ADD SLT PUSH2 0x1DA JUMPI PUSH2 0x63F PUSH2 0x2249 JUMP JUMPDEST CALLDATASIZE PUSH2 0x164 GT PUSH2 0x5DB JUMPI PUSH2 0x650 PUSH2 0x2316 JUMP JUMPDEST CALLER DUP3 MSTORE PUSH1 0x4 PUSH1 0x20 MSTORE PUSH1 0xFF PUSH1 0x40 DUP4 KECCAK256 SLOAD AND PUSH2 0x7F6 JUMPI PUSH1 0x40 DUP1 MLOAD PUSH1 0x60 SWAP3 SWAP1 SWAP3 SHL PUSH12 0xFFFFFFFFFFFFFFFFFFFFFFFF NOT AND PUSH1 0x20 DUP4 ADD SWAP1 DUP2 MSTORE PUSH1 0x14 DUP4 MSTORE PUSH32 0x0 PUSH1 0x1 PUSH1 0x1 PUSH1 0xA0 SHL SUB AND SWAP2 DUP4 ADD PUSH1 0x1 PUSH1 0x1 PUSH1 0x40 SHL SUB DUP2 GT DUP5 DUP3 LT OR PUSH2 0x555 JUMPI PUSH2 0x6F4 PUSH1 0x20 DUP7 SWAP6 PUSH2 0x6E7 SWAP5 DUP5 PUSH1 0x40 MSTORE PUSH1 0x60 DUP3 ADD SWAP6 DUP7 SWAP2 DUP4 MLOAD SWAP3 DUP4 SWAP2 PUSH2 0x21DE JUMP JUMPDEST DUP2 ADD SUB DUP1 DUP5 MSTORE ADD DUP3 PUSH2 0x2117 JUMP JUMPDEST MLOAD SWAP1 KECCAK256 PUSH1 0x8 SHR DUP2 EXTCODESIZE ISZERO PUSH2 0x7F2 JUMPI DUP3 SWAP1 PUSH2 0x1A4 PUSH1 0x40 MLOAD DUP1 SWAP5 DUP2 SWAP4 PUSH4 0x3BC778E3 PUSH1 0xE0 SHL DUP4 MSTORE PUSH1 0x24 CALLDATALOAD PUSH1 0x4 DUP5 ADD MSTORE PUSH32 0x0 PUSH1 0x24 DUP5 ADD MSTORE PUSH1 0x44 DUP4 ADD MSTORE PUSH1 0x44 CALLDATALOAD PUSH1 0x64 DUP4 ADD MSTORE PUSH32 0x0 PUSH1 0x84 DUP4 ADD MSTORE PUSH2 0x100 PUSH1 0x64 PUSH1 0xA4 DUP5 ADD CALLDATACOPY GAS STATICCALL DUP1 ISZERO PUSH2 0x7E7 JUMPI PUSH2 0x7D3 JUMPI JUMPDEST POP CALLER DUP1 DUP3 MSTORE PUSH1 0x4 PUSH1 0x20 MSTORE PUSH1 0x40 DUP3 KECCAK256 DUP1 SLOAD PUSH1 0xFF NOT AND PUSH1 0x1 OR SWAP1 SSTORE PUSH32 0x54DB7A5CB4735E1AAC1F53DB512D3390390BB6637BD30AD4BF9FC98667D9B9B9 DUP3 DUP1 LOG2 PUSH1 0x1 DUP1 SSTORE DUP1 RETURN JUMPDEST PUSH2 0x7DC SWAP1 PUSH2 0x20E8 JUMP JUMPDEST PUSH2 0x1DA JUMPI DUP1 DUP3 PUSH2 0x78F JUMP JUMPDEST PUSH1 0x40 MLOAD RETURNDATASIZE DUP5 DUP3 RETURNDATACOPY RETURNDATASIZE SWAP1 REVERT JUMPDEST POP POP REVERT JUMPDEST PUSH1 0x40 MLOAD PUSH4 0xEA075BF PUSH1 0xE2 SHL DUP2 MSTORE PUSH1 0x4 SWAP1 REVERT JUMPDEST DUP3 CALLVALUE PUSH2 0x1DA JUMPI PUSH1 0x20 CALLDATASIZE PUSH1 0x3 NOT ADD SLT PUSH2 0x1DA JUMPI PUSH2 0x822 PUSH2 0x2249 JUMP JUMPDEST PUSH2 0x82A PUSH2 0x22EA JUMP JUMPDEST PUSH1 0x1 PUSH1 0x1 PUSH1 0xA0 SHL SUB AND DUP1 DUP3 MSTORE PUSH1 0x5 PUSH1 0x20 MSTORE PUSH1 0x40 DUP3 KECCAK256 DUP1 SLOAD PUSH1 0xFF NOT AND PUSH1 0x1 OR SWAP1 SSTORE PUSH32 0x97B051FE48E86C08FCA96C9BBE846678783B6999358E6D4EFBAF9E40CA59B6A7 DUP3 DUP1 LOG2 DUP1 RETURN JUMPDEST DUP3 CALLVALUE PUSH2 0x1DA JUMPI DUP1 PUSH1 0x3 NOT CALLDATASIZE ADD SLT PUSH2 0x1DA JUMPI PUSH1 0x20 PUSH1 0x2 SLOAD PUSH1 0x40 MLOAD SWAP1 DUP2 MSTORE RETURN JUMPDEST DUP3 CALLVALUE PUSH2 0x1DA JUMPI DUP1 PUSH1 0x3 NOT CALLDATASIZE ADD SLT PUSH2 0x1DA JUMPI PUSH1 0x20 PUSH1 0xC SLOAD PUSH1 0x40 MLOAD SWAP1 DUP2 MSTORE RETURN JUMPDEST DUP3 CALLVALUE PUSH2 0x1DA JUMPI DUP1 PUSH1 0x3 NOT CALLDATASIZE ADD SLT PUSH2 0x1DA JUMPI PUSH1 0x40 MLOAD PUSH2 0x8CA DUP2 PUSH2 0x20FB JUMP JUMPDEST PUSH1 0xA SWAP1 DUP2 DUP2 MSTORE DUP3 JUMPDEST PUSH2 0x140 DUP1 DUP3 LT ISZERO PUSH2 0x938 JUMPI PUSH1 0x40 MLOAD PUSH1 0x20 SWAP3 SWAP2 PUSH2 0x8ED DUP3 PUSH2 0x20FB JUMP JUMPDEST DUP7 DUP3 MSTORE DUP7 PUSH1 0x60 SWAP2 DUP6 SWAP3 DUP1 DUP5 DUP7 ADD MSTORE DUP1 PUSH1 0x40 DUP7 ADD MSTORE DUP1 DUP6 ADD MSTORE DUP2 PUSH1 0x80 DUP6 ADD MSTORE DUP2 PUSH1 0xA0 DUP6 ADD MSTORE DUP2 PUSH1 0xC0 DUP6 ADD MSTORE DUP2 DUP11 DUP6 ADD MSTORE DUP2 PUSH2 0x100 DUP6 ADD MSTORE DUP2 PUSH2 0x120 DUP6 ADD MSTORE DUP4 ADD MSTORE DUP3 DUP6 ADD ADD MSTORE ADD PUSH2 0x8D2 JUMP JUMPDEST POP POP SWAP1 DUP3 SWAP1 PUSH1 0x2 DUP1 SLOAD SWAP3 JUMPDEST DUP3 DUP2 LT PUSH2 0xA47 JUMPI POP POP POP POP PUSH1 0x40 MLOAD SWAP2 PUSH1 0x20 DUP1 DUP5 ADD SWAP1 DUP1 DUP6 MSTORE DUP4 MLOAD DUP1 SWAP3 MSTORE PUSH1 0x40 DUP6 ADD DUP2 PUSH1 0x40 DUP5 PUSH1 0x5 SHL DUP9 ADD ADD SWAP6 ADD SWAP4 SWAP7 JUMPDEST DUP4 DUP9 LT PUSH2 0x980 JUMPI DUP7 DUP7 SUB DUP8 RETURN JUMPDEST SWAP1 SWAP2 SWAP3 SWAP4 SWAP5 DUP4 DUP1 PUSH1 0x1 SWAP3 PUSH1 0x3F NOT DUP11 DUP3 SUB ADD DUP7 MSTORE DUP9 MLOAD SWAP1 DUP5 DUP1 PUSH1 0xA0 SHL SUB DUP3 MLOAD AND DUP2 MSTORE PUSH2 0x9E3 PUSH2 0x9D0 PUSH2 0x9BE DUP6 DUP6 ADD MLOAD PUSH2 0x160 DUP1 DUP9 DUP8 ADD MSTORE DUP6 ADD SWAP1 PUSH2 0x2201 JUMP JUMPDEST PUSH1 0x40 DUP6 ADD MLOAD DUP5 DUP3 SUB PUSH1 0x40 DUP7 ADD MSTORE PUSH2 0x2201 JUMP JUMPDEST PUSH1 0x60 DUP1 DUP6 ADD MLOAD SWAP1 DUP5 DUP4 SUB SWAP1 DUP6 ADD MSTORE PUSH2 0x2201 JUMP JUMPDEST SWAP2 PUSH1 0x80 DUP1 DUP3 ADD MLOAD SWAP1 DUP4 ADD MSTORE PUSH2 0xA00 PUSH1 0xA0 DUP1 DUP4 ADD MLOAD SWAP1 DUP5 ADD SWAP1 PUSH2 0x2226 JUMP JUMPDEST PUSH1 0xC0 DUP1 DUP3 ADD MLOAD ISZERO ISZERO SWAP1 DUP4 ADD MSTORE DUP7 DUP2 ADD MLOAD ISZERO ISZERO DUP8 DUP4 ADD MSTORE PUSH2 0x100 DUP1 DUP3 ADD MLOAD SWAP1 DUP4 ADD MSTORE PUSH2 0x120 DUP1 DUP3 ADD MLOAD SWAP1 DUP4 ADD MSTORE PUSH2 0x140 DUP1 SWAP2 ADD MLOAD SWAP2 ADD MSTORE SWAP8 ADD SWAP4 ADD SWAP8 ADD SWAP7 SWAP1 SWAP4 SWAP3 SWAP2 SWAP4 PUSH2 0x973 JUMP JUMPDEST DUP4 DUP7 MSTORE PUSH1 0x7 PUSH1 0x20 SWAP1 DUP1 DUP3 MSTORE PUSH1 0x40 DUP9 KECCAK256 DUP4 DUP10 MSTORE DUP3 MSTORE PUSH1 0x40 DUP9 KECCAK256 PUSH1 0x40 MLOAD SWAP3 PUSH2 0xA6C DUP5 PUSH2 0x20FB JUMP JUMPDEST DUP2 SLOAD PUSH1 0x1 PUSH1 0x1 PUSH1 0xA0 SHL SUB AND DUP5 MSTORE PUSH2 0xA85 PUSH1 0x1 DUP4 ADD PUSH2 0x2138 JUMP JUMPDEST SWAP1 DUP5 ADD MSTORE PUSH2 0xA94 DUP6 DUP3 ADD PUSH2 0x2138 JUMP JUMPDEST PUSH1 0x40 DUP5 ADD MSTORE PUSH2 0xAA5 PUSH1 0x3 DUP3 ADD PUSH2 0x2138 JUMP JUMPDEST PUSH1 0x60 DUP5 ADD MSTORE PUSH1 0x4 DUP2 ADD SLOAD PUSH1 0x80 DUP5 ADD MSTORE PUSH1 0x5 DUP2 ADD SLOAD SWAP2 PUSH1 0xFF DUP1 DUP5 AND DUP9 DUP2 LT ISZERO PUSH2 0xB28 JUMPI PUSH1 0xA0 DUP7 ADD MSTORE PUSH1 0x8 DUP5 DUP2 SHR DUP3 AND ISZERO ISZERO PUSH1 0xC0 DUP8 ADD MSTORE PUSH1 0x10 SWAP5 SWAP1 SWAP5 SHR AND ISZERO ISZERO DUP12 DUP6 ADD MSTORE PUSH1 0x6 DUP3 ADD SLOAD PUSH2 0x100 DUP6 ADD MSTORE DUP2 ADD SLOAD PUSH2 0x120 DUP5 ADD MSTORE ADD SLOAD PUSH2 0x140 DUP3 ADD MSTORE PUSH2 0xB23 SWAP2 SWAP1 PUSH2 0xB12 DUP3 DUP9 PUSH2 0x256F JUMP JUMPDEST MSTORE PUSH2 0xB1D DUP2 DUP8 PUSH2 0x256F JUMP JUMPDEST POP PUSH2 0x2381 JUMP JUMPDEST PUSH2 0x943 JUMP JUMPDEST PUSH4 0x4E487B71 PUSH1 0xE0 SHL DUP13 MSTORE PUSH1 0x21 PUSH1 0x4 MSTORE PUSH1 0x24 DUP13 REVERT JUMPDEST DUP3 CALLVALUE PUSH2 0x1DA JUMPI PUSH1 0x20 CALLDATASIZE PUSH1 0x3 NOT ADD SLT PUSH2 0x1DA JUMPI PUSH1 0x20 SWAP1 PUSH1 0xFF SWAP1 PUSH1 0x40 SWAP1 PUSH1 0x1 PUSH1 0x1 PUSH1 0xA0 SHL SUB PUSH2 0xB67 PUSH2 0x2249 JUMP JUMPDEST AND DUP2 MSTORE PUSH1 0x4 DUP5 MSTORE KECCAK256 SLOAD AND PUSH1 0x40 MLOAD SWAP1 ISZERO ISZERO DUP2 MSTORE RETURN JUMPDEST DUP3 CALLVALUE PUSH2 0x1DA JUMPI PUSH2 0xB8A CALLDATASIZE PUSH2 0x2093 JUMP JUMPDEST SWAP1 PUSH2 0xB93 PUSH2 0x2316 JUMP JUMPDEST PUSH1 0xA DUP3 LT ISZERO PUSH2 0x5A1 JUMPI DUP1 DUP4 MSTORE PUSH1 0x7 PUSH1 0x20 MSTORE PUSH1 0x40 DUP4 KECCAK256 DUP3 DUP5 MSTORE PUSH1 0x20 MSTORE PUSH1 0x40 DUP4 KECCAK256 PUSH1 0x1 DUP1 PUSH1 0xA0 SHL SUB DUP1 DUP3 SLOAD AND CALLER SUB PUSH2 0xCF1 JUMPI PUSH1 0x5 DUP3 ADD SWAP2 DUP3 SLOAD SWAP1 PUSH1 0xFF DUP3 PUSH1 0x8 SHR AND PUSH2 0x58F JUMPI DUP7 SWAP4 PUSH3 0x10000 PUSH1 0x4 SWAP4 PUSH3 0xFF0000 NOT AND OR SWAP1 SSTORE ADD SWAP1 DUP2 SLOAD SWAP1 DUP2 PUSH2 0xC23 JUMPI JUMPDEST POP POP POP POP CALLER PUSH32 0x2DDF52AD696F7475D5E714CE5C8C1C4E9B93814E40D3F4C5AB845CB2BC0579AC DUP5 DUP1 LOG4 PUSH1 0x1 DUP1 SSTORE DUP1 RETURN JUMPDEST PUSH1 0x20 SWAP3 PUSH2 0xC35 PUSH2 0xC63 SWAP4 PUSH1 0xC SLOAD PUSH2 0x2351 JUMP JUMPDEST PUSH1 0xC SSTORE SLOAD PUSH1 0x40 MLOAD PUSH4 0xA9059CBB PUSH1 0xE0 SHL DUP2 MSTORE CALLER PUSH1 0x4 DUP3 ADD MSTORE PUSH1 0x24 DUP2 ADD SWAP2 SWAP1 SWAP2 MSTORE SWAP4 DUP5 SWAP3 DUP4 SWAP2 SWAP1 DUP3 SWAP1 PUSH1 0x44 DUP3 ADD SWAP1 JUMP JUMPDEST SUB SWAP3 PUSH32 0x0 AND GAS CALL SWAP1 DUP2 ISZERO PUSH2 0xCE6 JUMPI DUP5 SWAP2 PUSH2 0xCB8 JUMPI JUMPDEST POP ISZERO PUSH2 0xCA6 JUMPI DUP3 DUP5 DUP1 DUP1 PUSH2 0xBF3 JUMP JUMPDEST PUSH1 0x40 MLOAD PUSH4 0x12171D83 PUSH1 0xE3 SHL DUP2 MSTORE PUSH1 0x4 SWAP1 REVERT JUMPDEST PUSH2 0xCD9 SWAP2 POP PUSH1 0x20 RETURNDATASIZE DUP2 GT PUSH2 0xCDF JUMPI JUMPDEST PUSH2 0xCD1 DUP2 DUP4 PUSH2 0x2117 JUMP JUMPDEST DUP2 ADD SWAP1 PUSH2 0x2339 JUMP JUMPDEST DUP5 PUSH2 0xC97 JUMP JUMPDEST POP RETURNDATASIZE PUSH2 0xCC7 JUMP JUMPDEST PUSH1 0x40 MLOAD RETURNDATASIZE DUP7 DUP3 RETURNDATACOPY RETURNDATASIZE SWAP1 REVERT JUMPDEST PUSH1 0x40 MLOAD PUSH4 0x22111141 PUSH1 0xE1 SHL DUP2 MSTORE PUSH1 0x4 SWAP1 REVERT JUMPDEST DUP3 CALLVALUE PUSH2 0x1DA JUMPI DUP1 PUSH1 0x3 NOT CALLDATASIZE ADD SLT PUSH2 0x1DA JUMPI SLOAD PUSH1 0x40 MLOAD PUSH1 0x1 PUSH1 0x1 PUSH1 0xA0 SHL SUB SWAP1 SWAP2 AND DUP2 MSTORE PUSH1 0x20 SWAP1 RETURN JUMPDEST DUP3 CALLVALUE PUSH2 0x1DA JUMPI PUSH2 0xD39 CALLDATASIZE PUSH2 0x2093 JUMP JUMPDEST SWAP1 PUSH2 0xD42 PUSH2 0x2316 JUMP JUMPDEST CALLER DUP4 MSTORE PUSH1 0x20 PUSH1 0x4 DUP2 MSTORE PUSH1 0xFF PUSH1 0x40 DUP6 KECCAK256 SLOAD AND ISZERO PUSH2 0x5C5 JUMPI PUSH1 0xA DUP4 LT ISZERO PUSH2 0x5A1 JUMPI DUP2 DUP5 MSTORE PUSH1 0x7 DUP2 MSTORE PUSH1 0x40 DUP5 KECCAK256 DUP4 DUP6 MSTORE DUP2 MSTORE PUSH1 0x40 DUP5 KECCAK256 SWAP1 PUSH1 0x5 DUP3 ADD SLOAD PUSH1 0xFF DUP2 PUSH1 0x8 SHR AND ISZERO PUSH2 0xF8D JUMPI PUSH1 0x10 SHR PUSH1 0xFF AND PUSH2 0x57D JUMPI DUP3 DUP6 MSTORE PUSH1 0x8 DUP2 MSTORE PUSH1 0x40 DUP6 KECCAK256 DUP5 DUP7 MSTORE DUP2 MSTORE PUSH1 0x40 DUP6 KECCAK256 CALLER PUSH1 0x0 MSTORE DUP2 MSTORE PUSH1 0xFF PUSH1 0x40 PUSH1 0x0 KECCAK256 SLOAD AND ISZERO PUSH2 0xF7B JUMPI DUP3 DUP6 MSTORE PUSH1 0x9 DUP2 MSTORE PUSH1 0x40 DUP6 KECCAK256 DUP5 DUP7 MSTORE DUP2 MSTORE PUSH1 0x40 DUP6 KECCAK256 CALLER PUSH1 0x0 MSTORE DUP2 MSTORE PUSH1 0xFF PUSH1 0x40 PUSH1 0x0 KECCAK256 SLOAD AND PUSH2 0xF69 JUMPI PUSH1 0x8 DUP3 ADD SLOAD PUSH3 0x127500 DUP2 ADD DUP1 SWAP2 GT PUSH2 0xF55 JUMPI TIMESTAMP GT PUSH2 0xF43 JUMPI PUSH1 0x6 DUP3 ADD SLOAD DUP1 ISZERO PUSH2 0xF31 JUMPI PUSH1 0x4 DUP4 ADD SLOAD PUSH2 0x1F4 DUP1 DUP3 MUL SWAP1 DUP3 DUP3 DIV EQ DUP3 ISZERO OR ISZERO PUSH2 0xF1D JUMPI SWAP2 PUSH2 0xE30 PUSH2 0xE35 SWAP3 PUSH2 0x2710 PUSH1 0x7 SWAP6 DIV SWAP1 PUSH2 0x2351 JUMP JUMPDEST PUSH2 0x2390 JUMP JUMPDEST SWAP3 DUP5 DUP8 MSTORE PUSH1 0x9 DUP4 MSTORE PUSH1 0x40 DUP8 KECCAK256 DUP7 DUP9 MSTORE DUP4 MSTORE PUSH1 0x40 DUP8 KECCAK256 CALLER PUSH1 0x0 MSTORE DUP4 MSTORE PUSH1 0x40 PUSH1 0x0 KECCAK256 PUSH1 0x1 PUSH1 0xFF NOT DUP3 SLOAD AND OR SWAP1 SSTORE ADD PUSH2 0xE6C DUP4 DUP3 SLOAD PUSH2 0x2374 JUMP JUMPDEST SWAP1 SSTORE PUSH1 0x40 MLOAD PUSH4 0xA9059CBB PUSH1 0xE0 SHL DUP2 MSTORE CALLER PUSH1 0x4 DUP3 ADD MSTORE PUSH1 0x24 DUP2 ADD DUP4 SWAP1 MSTORE DUP2 DUP2 PUSH1 0x44 DUP2 DUP10 PUSH1 0x1 PUSH1 0x1 PUSH1 0xA0 SHL SUB PUSH32 0x0 AND GAS CALL SWAP1 DUP2 ISZERO PUSH2 0x4F3 JUMPI DUP7 SWAP2 PUSH2 0xF00 JUMPI JUMPDEST POP ISZERO PUSH2 0xCA6 JUMPI PUSH32 0x812BE816DB82C66CD18CA8457005CD84689642D8AC4D38599CC6AF444A2DC72A SWAP1 PUSH1 0x40 MLOAD SWAP3 DUP4 MSTORE CALLER SWAP3 LOG4 PUSH1 0x1 DUP1 SSTORE DUP1 RETURN JUMPDEST PUSH2 0xF17 SWAP2 POP DUP3 RETURNDATASIZE DUP5 GT PUSH2 0xCDF JUMPI PUSH2 0xCD1 DUP2 DUP4 PUSH2 0x2117 JUMP JUMPDEST DUP7 PUSH2 0xEC8 JUMP JUMPDEST PUSH4 0x4E487B71 PUSH1 0xE0 SHL DUP9 MSTORE PUSH1 0x11 PUSH1 0x4 MSTORE PUSH1 0x24 DUP9 REVERT JUMPDEST PUSH1 0x40 MLOAD PUSH4 0x162908E3 PUSH1 0xE1 SHL DUP2 MSTORE PUSH1 0x4 SWAP1 REVERT JUMPDEST PUSH1 0x40 MLOAD PUSH4 0x320C7B7D PUSH1 0xE2 SHL DUP2 MSTORE PUSH1 0x4 SWAP1 REVERT JUMPDEST PUSH4 0x4E487B71 PUSH1 0xE0 SHL DUP7 MSTORE PUSH1 0x11 PUSH1 0x4 MSTORE PUSH1 0x24 DUP7 REVERT JUMPDEST PUSH1 0x40 MLOAD PUSH4 0xC8D9EAB PUSH1 0xE3 SHL DUP2 MSTORE PUSH1 0x4 SWAP1 REVERT JUMPDEST PUSH1 0x40 MLOAD PUSH4 0x1327DEB PUSH1 0xE0 SHL DUP2 MSTORE PUSH1 0x4 SWAP1 REVERT JUMPDEST PUSH1 0x40 MLOAD PUSH4 0xDF706AD PUSH1 0xE1 SHL DUP2 MSTORE PUSH1 0x4 SWAP1 REVERT JUMPDEST DUP3 CALLVALUE PUSH2 0x1DA JUMPI DUP1 PUSH1 0x3 NOT CALLDATASIZE ADD SLT PUSH2 0x1DA JUMPI PUSH1 0x40 MLOAD PUSH32 0x0 PUSH1 0x1 PUSH1 0x1 PUSH1 0xA0 SHL SUB AND DUP2 MSTORE PUSH1 0x20 SWAP1 RETURN JUMPDEST DUP3 CALLVALUE PUSH2 0x1DA JUMPI PUSH1 0x20 CALLDATASIZE PUSH1 0x3 NOT ADD SLT PUSH2 0x1DA JUMPI PUSH2 0xFFE PUSH2 0x2249 JUMP JUMPDEST PUSH2 0x1006 PUSH2 0x22EA JUMP JUMPDEST PUSH1 0x1 PUSH1 0x1 PUSH1 0xA0 SHL SUB AND DUP1 DUP3 MSTORE PUSH1 0x5 PUSH1 0x20 MSTORE PUSH1 0x40 DUP3 KECCAK256 DUP1 SLOAD PUSH1 0xFF NOT AND SWAP1 SSTORE PUSH32 0x2A2F5E02B0E6AAB2B998DBCAE41AEC9407649A38BD8D41B7B49BEDEE8CDEAF2E DUP3 DUP1 LOG2 DUP1 RETURN JUMPDEST DUP3 CALLVALUE PUSH2 0x1DA JUMPI DUP1 PUSH1 0x3 NOT CALLDATASIZE ADD SLT PUSH2 0x1DA JUMPI PUSH2 0x1063 PUSH2 0x2316 JUMP JUMPDEST PUSH2 0x106B PUSH2 0x23B0 JUMP JUMPDEST PUSH1 0x1 DUP1 SSTORE DUP1 RETURN JUMPDEST DUP3 CALLVALUE PUSH2 0x1DA JUMPI DUP1 PUSH1 0x3 NOT CALLDATASIZE ADD SLT PUSH2 0x1DA JUMPI PUSH2 0x108B PUSH2 0x22EA JUMP JUMPDEST PUSH1 0x0 DUP1 SLOAD PUSH1 0x1 PUSH1 0x1 PUSH1 0xA0 SHL SUB NOT DUP2 AND DUP3 SSTORE PUSH1 0x1 PUSH1 0x1 PUSH1 0xA0 SHL SUB AND PUSH32 0x8BE0079C531659141344CD1FD0A4F28419497F9722A3DAAFE3B4186F6B6457E0 DUP3 DUP1 LOG3 DUP1 RETURN JUMPDEST DUP3 CALLVALUE PUSH2 0x1DA JUMPI DUP1 PUSH1 0x3 NOT CALLDATASIZE ADD SLT PUSH2 0x1DA JUMPI PUSH1 0x20 PUSH1 0x3 SLOAD PUSH1 0x40 MLOAD SWAP1 DUP2 MSTORE RETURN JUMPDEST DUP3 CALLVALUE PUSH2 0x1DA JUMPI PUSH1 0x40 PUSH2 0x10FB CALLDATASIZE PUSH2 0x228C JUMP JUMPDEST SWAP4 SWAP2 DUP3 MSTORE PUSH1 0x9 PUSH1 0x20 MSTORE DUP3 DUP3 KECCAK256 SWAP1 DUP3 MSTORE PUSH1 0x20 MSTORE KECCAK256 SWAP1 PUSH1 0x1 DUP1 PUSH1 0xA0 SHL SUB AND PUSH1 0x0 MSTORE PUSH1 0x20 MSTORE PUSH1 0x20 PUSH1 0xFF PUSH1 0x40 PUSH1 0x0 KECCAK256 SLOAD AND PUSH1 0x40 MLOAD SWAP1 ISZERO ISZERO DUP2 MSTORE RETURN JUMPDEST DUP3 CALLVALUE PUSH2 0x1DA JUMPI PUSH1 0x20 SWAP1 DUP2 PUSH1 0x3 NOT CALLDATASIZE ADD SLT PUSH2 0x1DA JUMPI PUSH2 0x114E PUSH2 0x2249 JUMP JUMPDEST SWAP1 PUSH1 0x2 SLOAD SWAP2 PUSH1 0xA SWAP3 DUP4 DUP2 MUL SWAP4 DUP2 DUP6 DIV DUP2 EQ DUP3 ISZERO OR ISZERO PUSH2 0x13D6 JUMPI PUSH2 0x1173 DUP6 SWAP4 SWAP3 SWAP4 PUSH2 0x2666 JUMP JUMPDEST SWAP3 PUSH2 0x1186 PUSH2 0x1180 DUP8 PUSH2 0x2666 JUMP JUMPDEST SWAP7 PUSH2 0x2666 JUMP JUMPDEST DUP6 SWAP4 SWAP1 SWAP3 SWAP1 PUSH1 0x1 PUSH1 0x1 PUSH1 0xA0 SHL SUB AND DUP5 JUMPDEST DUP4 DUP2 GT ISZERO PUSH2 0x1258 JUMPI POP POP POP POP PUSH2 0x11AB DUP3 PUSH2 0x2666 JUMP JUMPDEST SWAP5 PUSH2 0x11B5 DUP4 PUSH2 0x2666 JUMP JUMPDEST SWAP4 PUSH2 0x11BF DUP5 PUSH2 0x2666 JUMP JUMPDEST SWAP6 JUMPDEST DUP5 DUP2 LT PUSH2 0x1208 JUMPI PUSH2 0x11E9 DUP9 PUSH2 0x1204 DUP10 PUSH2 0x11F6 DUP14 DUP12 PUSH1 0x40 MLOAD SWAP7 DUP8 SWAP7 PUSH1 0x60 DUP9 MSTORE PUSH1 0x60 DUP9 ADD SWAP1 PUSH2 0x22B6 JUMP JUMPDEST SWAP2 DUP7 DUP4 SUB SWAP1 DUP8 ADD MSTORE PUSH2 0x22B6 JUMP JUMPDEST SWAP1 DUP4 DUP3 SUB PUSH1 0x40 DUP6 ADD MSTORE PUSH2 0x22B6 JUMP JUMPDEST SUB SWAP1 RETURN JUMPDEST DUP1 PUSH2 0x1216 PUSH2 0x1253 SWAP3 DUP5 PUSH2 0x256F JUMP JUMPDEST MLOAD PUSH2 0x1221 DUP3 DUP12 PUSH2 0x256F JUMP JUMPDEST MSTORE PUSH2 0x122C DUP2 DUP6 PUSH2 0x256F JUMP JUMPDEST MLOAD PUSH2 0x1237 DUP3 DUP10 PUSH2 0x256F JUMP JUMPDEST MSTORE PUSH2 0x1242 DUP2 DUP7 PUSH2 0x256F JUMP JUMPDEST MLOAD PUSH2 0x124D DUP3 DUP11 PUSH2 0x256F JUMP JUMPDEST MSTORE PUSH2 0x2381 JUMP JUMPDEST PUSH2 0x11C1 JUMP JUMPDEST DUP8 JUMPDEST DUP4 DUP2 LT PUSH2 0x1270 JUMPI POP PUSH2 0x126B SWAP1 PUSH2 0x2381 JUMP JUMPDEST PUSH2 0x1196 JUMP JUMPDEST DUP2 DUP10 MSTORE PUSH1 0x7 DUP12 MSTORE PUSH1 0x40 DUP10 KECCAK256 DUP2 DUP11 MSTORE DUP12 MSTORE PUSH1 0x40 DUP10 KECCAK256 DUP3 DUP11 MSTORE DUP12 PUSH1 0x8 DUP1 DUP3 MSTORE PUSH1 0x40 DUP13 KECCAK256 DUP5 DUP14 MSTORE DUP3 MSTORE PUSH1 0x40 DUP13 KECCAK256 DUP7 PUSH1 0x0 MSTORE DUP3 MSTORE PUSH1 0xFF DUP13 DUP2 PUSH1 0x40 PUSH1 0x0 KECCAK256 SLOAD AND SWAP4 DUP5 PUSH2 0x13A7 JUMPI JUMPDEST POP POP DUP3 PUSH2 0x1397 JUMPI JUMPDEST POP DUP2 PUSH2 0x1368 JUMPI JUMPDEST POP DUP1 PUSH2 0x135B JUMPI JUMPDEST PUSH2 0x12DC JUMPI JUMPDEST POP PUSH2 0x12D7 SWAP1 PUSH2 0x2381 JUMP JUMPDEST PUSH2 0x125A JUMP JUMPDEST PUSH1 0x4 DUP2 SWAP9 SWAP3 SWAP9 ADD SLOAD PUSH2 0x1F4 DUP1 DUP3 MUL SWAP1 DUP3 DUP3 DIV EQ DUP3 ISZERO OR ISZERO PUSH2 0x1347 JUMPI DUP10 PUSH2 0x1335 DUP6 DUP16 DUP9 DUP16 SWAP6 DUP4 PUSH2 0x1329 PUSH2 0x1340 SWAP11 PUSH1 0x6 PUSH2 0x1320 PUSH2 0x12D7 SWAP15 SWAP13 PUSH2 0x2710 PUSH2 0x132F SWAP8 DIV SWAP1 PUSH2 0x2351 JUMP JUMPDEST SWAP2 ADD SLOAD SWAP1 PUSH2 0x2390 JUMP JUMPDEST SWAP8 PUSH2 0x256F JUMP JUMPDEST MSTORE PUSH2 0x256F JUMP JUMPDEST MSTORE PUSH2 0x124D DUP3 DUP11 PUSH2 0x256F JUMP JUMPDEST SWAP7 SWAP1 PUSH2 0x12CD JUMP JUMPDEST PUSH4 0x4E487B71 PUSH1 0xE0 SHL DUP13 MSTORE PUSH1 0x11 PUSH1 0x4 MSTORE PUSH1 0x24 DUP13 REVERT JUMPDEST POP PUSH1 0x6 DUP2 ADD SLOAD ISZERO ISZERO PUSH2 0x12C8 JUMP JUMPDEST SWAP1 POP DUP2 ADD SLOAD PUSH3 0x127500 DUP2 ADD DUP1 SWAP2 GT PUSH2 0x1383 JUMPI TIMESTAMP GT ISZERO DUP14 PUSH2 0x12C1 JUMP JUMPDEST PUSH4 0x4E487B71 PUSH1 0xE0 SHL DUP12 MSTORE PUSH1 0x11 PUSH1 0x4 MSTORE PUSH1 0x24 DUP12 REVERT JUMPDEST PUSH1 0x5 DUP5 ADD SLOAD DUP3 SHR AND SWAP2 POP DUP15 PUSH2 0x12BA JUMP JUMPDEST SWAP1 SWAP2 SWAP4 POP DUP7 DUP3 MSTORE PUSH1 0x9 DUP2 MSTORE DUP6 PUSH1 0x40 DUP4 KECCAK256 SWAP3 MSTORE MSTORE DUP14 PUSH1 0x40 DUP14 KECCAK256 SWAP1 DUP8 PUSH1 0x0 MSTORE MSTORE DUP2 PUSH1 0x40 PUSH1 0x0 KECCAK256 SLOAD AND ISZERO SWAP2 DUP13 DUP16 PUSH2 0x12B2 JUMP JUMPDEST PUSH4 0x4E487B71 PUSH1 0xE0 SHL DUP5 MSTORE PUSH1 0x11 PUSH1 0x4 MSTORE PUSH1 0x24 DUP5 REVERT JUMPDEST DUP3 CALLVALUE PUSH2 0x1DA JUMPI PUSH1 0x20 CALLDATASIZE PUSH1 0x3 NOT ADD SLT PUSH2 0x1DA JUMPI PUSH1 0x20 SWAP1 PUSH1 0xFF SWAP1 PUSH1 0x40 SWAP1 PUSH1 0x1 PUSH1 0x1 PUSH1 0xA0 SHL SUB PUSH2 0x1415 PUSH2 0x2249 JUMP JUMPDEST AND DUP2 MSTORE PUSH1 0x6 DUP5 MSTORE KECCAK256 SLOAD AND PUSH1 0x40 MLOAD SWAP1 ISZERO ISZERO DUP2 MSTORE RETURN JUMPDEST DUP3 CALLVALUE PUSH2 0x1DA JUMPI DUP1 PUSH1 0x3 NOT CALLDATASIZE ADD SLT PUSH2 0x1DA JUMPI PUSH1 0x20 PUSH1 0xB SLOAD PUSH1 0x40 MLOAD SWAP1 DUP2 MSTORE RETURN JUMPDEST DUP3 CALLVALUE PUSH2 0x1DA JUMPI DUP1 PUSH1 0x3 NOT CALLDATASIZE ADD SLT PUSH2 0x1DA JUMPI PUSH1 0x20 PUSH1 0x40 MLOAD PUSH2 0x1F4 DUP2 MSTORE RETURN JUMPDEST DUP3 CALLVALUE PUSH2 0x1DA JUMPI PUSH1 0x20 CALLDATASIZE PUSH1 0x3 NOT ADD SLT PUSH2 0x1DA JUMPI PUSH2 0x147E PUSH2 0x2249 JUMP JUMPDEST PUSH2 0x1486 PUSH2 0x22EA JUMP JUMPDEST PUSH1 0x1 PUSH1 0x1 PUSH1 0xA0 SHL SUB AND DUP2 MSTORE PUSH1 0x6 PUSH1 0x20 MSTORE PUSH1 0x40 DUP2 KECCAK256 DUP1 SLOAD PUSH1 0xFF NOT AND PUSH1 0x1 OR SWAP1 SSTORE DUP1 RETURN JUMPDEST DUP3 CALLVALUE PUSH2 0x1DA JUMPI PUSH1 0x40 PUSH2 0x14B9 CALLDATASIZE PUSH2 0x228C JUMP JUMPDEST SWAP4 SWAP2 DUP3 MSTORE PUSH1 0x8 PUSH1 0x20 MSTORE DUP3 DUP3 KECCAK256 SWAP1 DUP3 MSTORE PUSH1 0x20 MSTORE KECCAK256 SWAP1 PUSH1 0x1 DUP1 PUSH1 0xA0 SHL SUB AND PUSH1 0x0 MSTORE PUSH1 0x20 MSTORE PUSH1 0x20 PUSH1 0xFF PUSH1 0x40 PUSH1 0x0 KECCAK256 SLOAD AND PUSH1 0x40 MLOAD SWAP1 ISZERO ISZERO DUP2 MSTORE RETURN JUMPDEST DUP3 CALLVALUE PUSH2 0x1DA JUMPI DUP1 PUSH1 0x3 NOT CALLDATASIZE ADD SLT PUSH2 0x1DA JUMPI PUSH2 0x1509 PUSH2 0x22EA JUMP JUMPDEST PUSH2 0x1511 PUSH2 0x2316 JUMP JUMPDEST PUSH1 0xB SLOAD DUP1 ISZERO PUSH2 0xF31 JUMPI PUSH1 0xB DUP3 SWAP1 SSTORE DUP2 SLOAD PUSH1 0x40 MLOAD PUSH4 0xA9059CBB PUSH1 0xE0 SHL DUP2 MSTORE PUSH1 0x1 PUSH1 0x1 PUSH1 0xA0 SHL SUB SWAP2 DUP3 AND PUSH1 0x4 DUP3 ADD MSTORE PUSH1 0x24 DUP2 ADD DUP4 SWAP1 MSTORE PUSH1 0x20 DUP2 PUSH1 0x44 DUP2 DUP8 PUSH32 0x0 DUP8 AND GAS CALL SWAP1 DUP2 ISZERO PUSH2 0xCE6 JUMPI DUP5 SWAP2 PUSH2 0x15BB JUMPI JUMPDEST POP ISZERO PUSH2 0xCA6 JUMPI PUSH1 0x20 PUSH32 0xC0819C13BE868895EB93E40EACEB96DE976442FA1D404E5C55F14BB65A8C489A SWAP2 DUP5 SLOAD AND SWAP3 PUSH1 0x40 MLOAD SWAP1 DUP2 MSTORE LOG2 PUSH1 0x1 DUP1 SSTORE DUP1 RETURN JUMPDEST PUSH2 0x15D3 SWAP2 POP PUSH1 0x20 RETURNDATASIZE DUP2 GT PUSH2 0xCDF JUMPI PUSH2 0xCD1 DUP2 DUP4 PUSH2 0x2117 JUMP JUMPDEST DUP5 PUSH2 0x157F JUMP JUMPDEST DUP3 CALLVALUE PUSH2 0x1DA JUMPI DUP1 PUSH1 0x3 NOT CALLDATASIZE ADD SLT PUSH2 0x1DA JUMPI PUSH1 0x20 PUSH1 0x40 MLOAD PUSH3 0x127500 DUP2 MSTORE RETURN JUMPDEST DUP3 CALLVALUE PUSH2 0x1DA JUMPI DUP1 PUSH1 0x3 NOT CALLDATASIZE ADD SLT PUSH2 0x1DA JUMPI PUSH1 0x20 PUSH1 0x40 MLOAD PUSH1 0xA DUP2 MSTORE RETURN JUMPDEST DUP3 CALLVALUE PUSH2 0x1DA JUMPI PUSH1 0x20 PUSH2 0x162D PUSH2 0x1627 CALLDATASIZE PUSH2 0x228C JUMP JUMPDEST SWAP2 PUSH2 0x2599 JUMP JUMPDEST PUSH1 0x40 MLOAD SWAP1 DUP2 MSTORE RETURN JUMPDEST DUP3 CALLVALUE PUSH2 0x1DA JUMPI PUSH2 0x180 CALLDATASIZE PUSH1 0x3 NOT ADD SLT PUSH2 0x1DA JUMPI PUSH1 0x44 CALLDATALOAD PUSH1 0x1 PUSH1 0x1 PUSH1 0x40 SHL SUB DUP2 GT PUSH2 0x5DB JUMPI PUSH2 0x1667 SWAP1 CALLDATASIZE SWAP1 PUSH1 0x4 ADD PUSH2 0x225F JUMP JUMPDEST PUSH1 0x64 CALLDATALOAD PUSH1 0x1 PUSH1 0x1 PUSH1 0x40 SHL SUB DUP2 GT PUSH2 0x1D99 JUMPI PUSH2 0x1686 SWAP1 CALLDATASIZE SWAP1 PUSH1 0x4 ADD PUSH2 0x225F JUMP JUMPDEST PUSH1 0x84 SWAP3 SWAP2 SWAP3 CALLDATALOAD PUSH1 0x1 PUSH1 0x1 PUSH1 0x40 SHL SUB DUP2 GT PUSH2 0x5D7 JUMPI PUSH2 0x16A8 SWAP1 CALLDATASIZE SWAP1 PUSH1 0x4 ADD PUSH2 0x225F JUMP JUMPDEST SWAP4 SWAP1 SWAP3 PUSH1 0xA PUSH1 0xC4 CALLDATALOAD LT ISZERO PUSH2 0x1D95 JUMPI PUSH1 0x80 CALLDATASIZE PUSH1 0xE3 NOT ADD SLT PUSH2 0x1D95 JUMPI PUSH2 0x164 CALLDATALOAD PUSH1 0x1 PUSH1 0x1 PUSH1 0x40 SHL SUB DUP2 GT PUSH2 0x1D91 JUMPI PUSH2 0x16E2 SWAP1 CALLDATASIZE SWAP1 PUSH1 0x4 ADD PUSH2 0x225F JUMP JUMPDEST PUSH2 0x16ED SWAP8 SWAP2 SWAP8 PUSH2 0x2316 JUMP JUMPDEST CALLER DUP10 MSTORE PUSH1 0x5 PUSH1 0x20 MSTORE PUSH1 0xFF PUSH1 0x40 DUP11 KECCAK256 SLOAD AND PUSH2 0x1D7F JUMPI PUSH1 0x2 SLOAD PUSH1 0x4 CALLDATALOAD SUB PUSH2 0x5B3 JUMPI PUSH1 0xA PUSH1 0x24 CALLDATALOAD LT ISZERO PUSH2 0x5A1 JUMPI PUSH1 0x4 CALLDATALOAD DUP10 MSTORE PUSH1 0x7 PUSH1 0x20 MSTORE PUSH1 0x40 DUP10 KECCAK256 PUSH1 0x24 CALLDATALOAD DUP11 MSTORE PUSH1 0x20 MSTORE PUSH1 0x40 DUP10 KECCAK256 SWAP8 PUSH1 0x1 DUP1 PUSH1 0xA0 SHL SUB DUP10 SLOAD AND DUP1 ISZERO ISZERO DUP1 PUSH2 0x1D72 JUMPI JUMPDEST PUSH2 0x1CB9 JUMPI JUMPDEST POP PUSH1 0x40 MLOAD SWAP1 DUP2 PUSH1 0x40 DUP2 ADD LT PUSH1 0x1 PUSH1 0x1 PUSH1 0x40 SHL SUB PUSH1 0x40 DUP5 ADD GT OR PUSH2 0x1CA5 JUMPI PUSH1 0x40 DUP1 DUP4 ADD SWAP1 MSTORE ADDRESS DUP3 MSTORE PUSH1 0xA4 CALLDATALOAD PUSH1 0x20 DUP4 ADD MSTORE DUP11 SWAP2 SWAP1 PUSH32 0x0 PUSH1 0x1 PUSH1 0x1 PUSH1 0xA0 SHL SUB AND EXTCODESIZE ISZERO PUSH2 0x1CA1 JUMPI PUSH1 0x40 MLOAD PUSH4 0x187945BD PUSH1 0xE1 SHL DUP2 MSTORE SWAP4 PUSH1 0xE4 CALLDATALOAD PUSH1 0x1 PUSH1 0x1 PUSH1 0xA0 SHL SUB DUP2 AND SWAP2 SWAP1 DUP3 SWAP1 SUB PUSH2 0x1C9D JUMPI DUP1 PUSH2 0x124 SWAP4 DUP2 DUP9 SWAP7 DUP8 SWAP6 PUSH1 0x4 DUP8 ADD MSTORE PUSH1 0x20 PUSH2 0x104 SWAP2 DUP3 CALLDATALOAD PUSH1 0x24 DUP10 ADD MSTORE DUP9 CALLDATALOAD PUSH1 0x44 DUP10 ADD MSTORE PUSH2 0x144 CALLDATALOAD PUSH1 0x64 DUP10 ADD MSTORE PUSH1 0x1 DUP1 PUSH1 0xA0 SHL SUB DUP2 MLOAD AND PUSH1 0x84 DUP10 ADD MSTORE ADD MLOAD PUSH1 0xA4 DUP8 ADD MSTORE CALLER PUSH1 0xC4 DUP8 ADD MSTORE PUSH2 0x100 PUSH1 0xE4 DUP8 ADD MSTORE DUP6 ADD MSTORE DUP5 DUP5 ADD CALLDATACOPY DUP2 DUP2 ADD DUP4 ADD DUP6 SWAP1 MSTORE PUSH1 0x1F ADD PUSH1 0x1F NOT AND DUP2 ADD SUB ADD DUP2 DUP4 PUSH32 0x0 PUSH1 0x1 PUSH1 0x1 PUSH1 0xA0 SHL SUB AND GAS CALL DUP1 ISZERO PUSH2 0x1C92 JUMPI PUSH2 0x1C7F JUMPI JUMPDEST POP DUP7 SLOAD PUSH1 0x1 PUSH1 0x1 PUSH1 0xA0 SHL SUB NOT AND CALLER OR DUP8 SSTORE PUSH1 0x1 PUSH1 0x1 PUSH1 0x40 SHL SUB DUP3 GT PUSH2 0x1C6B JUMPI DUP2 SWAP1 PUSH2 0x18A1 PUSH1 0x1 DUP10 ADD SLOAD PUSH2 0x20AE JUMP JUMPDEST PUSH1 0x1F DUP2 GT PUSH2 0x1C1B JUMPI JUMPDEST POP DUP9 SWAP1 PUSH1 0x1F DUP4 GT PUSH1 0x1 EQ PUSH2 0x1BAF JUMPI DUP10 SWAP3 PUSH2 0x1BA4 JUMPI JUMPDEST POP POP DUP2 PUSH1 0x1 SHL SWAP2 PUSH1 0x0 NOT SWAP1 PUSH1 0x3 SHL SHR NOT AND OR PUSH1 0x1 DUP7 ADD SSTORE JUMPDEST PUSH1 0x1 PUSH1 0x1 PUSH1 0x40 SHL SUB DUP3 GT PUSH2 0x1B90 JUMPI DUP2 SWAP1 PUSH2 0x18F4 PUSH1 0x2 DUP8 ADD SLOAD PUSH2 0x20AE JUMP JUMPDEST PUSH1 0x1F DUP2 GT PUSH2 0x1B40 JUMPI JUMPDEST POP DUP7 SWAP1 PUSH1 0x1F DUP4 GT PUSH1 0x1 EQ PUSH2 0x1AD4 JUMPI DUP8 SWAP3 PUSH2 0x1AC9 JUMPI JUMPDEST POP POP DUP2 PUSH1 0x1 SHL SWAP2 PUSH1 0x0 NOT SWAP1 PUSH1 0x3 SHL SHR NOT AND OR PUSH1 0x2 DUP5 ADD SSTORE JUMPDEST PUSH1 0x1 PUSH1 0x1 PUSH1 0x40 SHL SUB DUP3 GT PUSH2 0x1AB5 JUMPI PUSH2 0x1945 PUSH1 0x3 DUP5 ADD SLOAD PUSH2 0x20AE JUMP JUMPDEST PUSH1 0x1F DUP2 GT PUSH2 0x1A71 JUMPI JUMPDEST POP DUP4 SWAP1 PUSH1 0x1F DUP4 GT PUSH1 0x1 EQ PUSH2 0x1A01 JUMPI PUSH1 0x5 SWAP4 SWAP3 SWAP2 DUP6 SWAP2 DUP4 PUSH2 0x19F6 JUMPI JUMPDEST POP POP DUP2 PUSH1 0x1 SHL SWAP2 PUSH1 0x0 NOT SWAP1 PUSH1 0x3 SHL SHR NOT AND OR PUSH1 0x3 DUP3 ADD SSTORE JUMPDEST PUSH1 0xA4 CALLDATALOAD PUSH1 0x4 DUP3 ADD SSTORE ADD PUSH1 0xFF NOT DUP2 SLOAD AND PUSH1 0xFF PUSH1 0xC4 CALLDATALOAD AND OR SWAP1 SSTORE PUSH2 0x19A7 PUSH1 0xA4 CALLDATALOAD PUSH1 0xC SLOAD PUSH2 0x2374 JUMP JUMPDEST PUSH1 0xC SSTORE PUSH1 0x40 MLOAD PUSH2 0x19B9 DUP2 PUSH1 0xC4 CALLDATALOAD PUSH2 0x2226 JUMP JUMPDEST PUSH1 0xA4 CALLDATALOAD PUSH1 0x20 DUP3 ADD MSTORE PUSH1 0x24 CALLDATALOAD SWAP1 PUSH1 0x4 CALLDATALOAD SWAP1 PUSH32 0x57FD3B672D0A576A3E359189CF66CB6F9F8928EBA7C11EFBE695D66B957CE76E PUSH1 0x40 CALLER SWAP3 LOG4 PUSH1 0x1 DUP1 SSTORE DUP1 RETURN JUMPDEST ADD CALLDATALOAD SWAP1 POP DUP6 DUP1 PUSH2 0x1969 JUMP JUMPDEST PUSH1 0x3 DUP5 ADD DUP6 MSTORE PUSH1 0x20 DUP6 KECCAK256 SWAP2 DUP6 JUMPDEST PUSH1 0x1F NOT DUP6 AND DUP2 LT PUSH2 0x1A59 JUMPI POP SWAP2 DUP4 SWAP2 PUSH1 0x1 SWAP4 PUSH1 0x5 SWAP7 SWAP6 PUSH1 0x1F NOT DUP2 AND LT PUSH2 0x1A3F JUMPI JUMPDEST POP POP POP DUP2 SHL ADD PUSH1 0x3 DUP3 ADD SSTORE PUSH2 0x1981 JUMP JUMPDEST ADD CALLDATALOAD PUSH1 0x0 NOT PUSH1 0x3 DUP5 SWAP1 SHL PUSH1 0xF8 AND SHR NOT AND SWAP1 SSTORE DUP6 DUP1 DUP1 PUSH2 0x1A2F JUMP JUMPDEST SWAP1 SWAP3 PUSH1 0x20 PUSH1 0x1 DUP2 SWAP3 DUP7 DUP7 ADD CALLDATALOAD DUP2 SSTORE ADD SWAP5 ADD SWAP2 ADD PUSH2 0x1A0E JUMP JUMPDEST PUSH1 0x3 DUP5 ADD DUP6 MSTORE PUSH1 0x20 DUP6 KECCAK256 PUSH1 0x1F DUP5 ADD PUSH1 0x5 SHR DUP2 ADD PUSH1 0x20 DUP6 LT PUSH2 0x1AAE JUMPI JUMPDEST PUSH1 0x1F DUP4 ADD PUSH1 0x5 SHR DUP3 ADD DUP2 LT PUSH2 0x1AA3 JUMPI POP POP PUSH2 0x194E JUMP JUMPDEST DUP7 DUP2 SSTORE PUSH1 0x1 ADD PUSH2 0x1A8D JUMP JUMPDEST POP DUP1 PUSH2 0x1A8D JUMP JUMPDEST PUSH4 0x4E487B71 PUSH1 0xE0 SHL DUP5 MSTORE PUSH1 0x41 PUSH1 0x4 MSTORE PUSH1 0x24 DUP5 REVERT JUMPDEST ADD CALLDATALOAD SWAP1 POP DUP7 DUP1 PUSH2 0x1912 JUMP JUMPDEST PUSH1 0x2 DUP8 ADD DUP9 MSTORE PUSH1 0x20 DUP9 KECCAK256 DUP9 SWAP5 POP SWAP2 JUMPDEST PUSH1 0x1F NOT DUP5 AND DUP6 LT PUSH2 0x1B28 JUMPI PUSH1 0x1 SWAP5 POP DUP4 PUSH1 0x1F NOT DUP2 AND LT PUSH2 0x1B0E JUMPI JUMPDEST POP POP POP DUP2 SHL ADD PUSH1 0x2 DUP5 ADD SSTORE PUSH2 0x192A JUMP JUMPDEST ADD CALLDATALOAD PUSH1 0x0 NOT PUSH1 0x3 DUP5 SWAP1 SHL PUSH1 0xF8 AND SHR NOT AND SWAP1 SSTORE DUP7 DUP1 DUP1 PUSH2 0x1AFE JUMP JUMPDEST DUP2 DUP2 ADD CALLDATALOAD DUP4 SSTORE PUSH1 0x20 SWAP5 DUP6 ADD SWAP5 PUSH1 0x1 SWAP1 SWAP4 ADD SWAP3 ADD PUSH2 0x1AE3 JUMP JUMPDEST SWAP1 SWAP2 POP PUSH1 0x2 DUP7 ADD DUP8 MSTORE PUSH1 0x20 DUP8 KECCAK256 PUSH1 0x1F DUP5 ADD PUSH1 0x5 SHR DUP2 ADD PUSH1 0x20 DUP6 LT PUSH2 0x1B89 JUMPI JUMPDEST SWAP1 DUP5 SWAP4 SWAP3 SWAP2 JUMPDEST PUSH1 0x1F DUP4 ADD PUSH1 0x5 SHR DUP3 ADD DUP2 LT PUSH2 0x1B7B JUMPI POP POP PUSH2 0x18FD JUMP JUMPDEST DUP10 DUP2 SSTORE DUP6 SWAP5 POP PUSH1 0x1 ADD PUSH2 0x1B65 JUMP JUMPDEST POP DUP1 PUSH2 0x1B5F JUMP JUMPDEST PUSH4 0x4E487B71 PUSH1 0xE0 SHL DUP7 MSTORE PUSH1 0x41 PUSH1 0x4 MSTORE PUSH1 0x24 DUP7 REVERT JUMPDEST ADD CALLDATALOAD SWAP1 POP DUP9 DUP1 PUSH2 0x18BF JUMP JUMPDEST PUSH1 0x1 DUP10 ADD DUP11 MSTORE PUSH1 0x20 DUP11 KECCAK256 DUP11 SWAP5 POP SWAP2 JUMPDEST PUSH1 0x1F NOT DUP5 AND DUP6 LT PUSH2 0x1C03 JUMPI PUSH1 0x1 SWAP5 POP DUP4 PUSH1 0x1F NOT DUP2 AND LT PUSH2 0x1BE9 JUMPI JUMPDEST POP POP POP DUP2 SHL ADD PUSH1 0x1 DUP7 ADD SSTORE PUSH2 0x18D7 JUMP JUMPDEST ADD CALLDATALOAD PUSH1 0x0 NOT PUSH1 0x3 DUP5 SWAP1 SHL PUSH1 0xF8 AND SHR NOT AND SWAP1 SSTORE DUP9 DUP1 DUP1 PUSH2 0x1BD9 JUMP JUMPDEST DUP2 DUP2 ADD CALLDATALOAD DUP4 SSTORE PUSH1 0x20 SWAP5 DUP6 ADD SWAP5 PUSH1 0x1 SWAP1 SWAP4 ADD SWAP3 ADD PUSH2 0x1BBE JUMP JUMPDEST SWAP1 SWAP2 POP PUSH1 0x1 DUP9 ADD DUP10 MSTORE PUSH1 0x20 DUP10 KECCAK256 PUSH1 0x1F DUP5 ADD PUSH1 0x5 SHR DUP2 ADD PUSH1 0x20 DUP6 LT PUSH2 0x1C64 JUMPI JUMPDEST SWAP1 DUP5 SWAP4 SWAP3 SWAP2 JUMPDEST PUSH1 0x1F DUP4 ADD PUSH1 0x5 SHR DUP3 ADD DUP2 LT PUSH2 0x1C56 JUMPI POP POP PUSH2 0x18AA JUMP JUMPDEST DUP12 DUP2 SSTORE DUP6 SWAP5 POP PUSH1 0x1 ADD PUSH2 0x1C40 JUMP JUMPDEST POP DUP1 PUSH2 0x1C3A JUMP JUMPDEST PUSH4 0x4E487B71 PUSH1 0xE0 SHL DUP9 MSTORE PUSH1 0x41 PUSH1 0x4 MSTORE PUSH1 0x24 DUP9 REVERT JUMPDEST PUSH2 0x1C8B SWAP1 SWAP9 SWAP2 SWAP9 PUSH2 0x20E8 JUMP JUMPDEST SWAP7 DUP9 PUSH2 0x1873 JUMP JUMPDEST PUSH1 0x40 MLOAD RETURNDATASIZE DUP12 DUP3 RETURNDATACOPY RETURNDATASIZE SWAP1 REVERT JUMPDEST DUP5 DUP1 REVERT JUMPDEST DUP3 DUP1 REVERT JUMPDEST PUSH4 0x4E487B71 PUSH1 0xE0 SHL DUP12 MSTORE PUSH1 0x41 PUSH1 0x4 MSTORE PUSH1 0x24 DUP12 REVERT JUMPDEST PUSH1 0x4 DUP11 DUP2 ADD SLOAD PUSH1 0x40 MLOAD PUSH4 0xA9059CBB PUSH1 0xE0 SHL DUP2 MSTORE PUSH1 0x1 PUSH1 0x1 PUSH1 0xA0 SHL SUB SWAP1 SWAP4 AND SWAP2 DUP4 ADD SWAP2 SWAP1 SWAP2 MSTORE PUSH1 0x24 DUP3 ADD MSTORE PUSH1 0x20 DUP2 DUP13 DUP2 DUP1 PUSH1 0x44 DUP2 ADD SUB SWAP2 PUSH32 0x0 PUSH1 0x1 PUSH1 0x1 PUSH1 0xA0 SHL SUB AND GAS CALL SWAP1 DUP2 ISZERO PUSH2 0x1D67 JUMPI DUP12 SWAP2 PUSH2 0x1D48 JUMPI JUMPDEST POP ISZERO PUSH2 0xCA6 JUMPI PUSH2 0x1D3F PUSH1 0x4 DUP11 ADD SLOAD PUSH1 0xC SLOAD PUSH2 0x2351 JUMP JUMPDEST PUSH1 0xC SSTORE DUP11 PUSH2 0x174A JUMP JUMPDEST PUSH2 0x1D61 SWAP2 POP PUSH1 0x20 RETURNDATASIZE PUSH1 0x20 GT PUSH2 0xCDF JUMPI PUSH2 0xCD1 DUP2 DUP4 PUSH2 0x2117 JUMP JUMPDEST DUP12 PUSH2 0x1D29 JUMP JUMPDEST PUSH1 0x40 MLOAD RETURNDATASIZE DUP14 DUP3 RETURNDATACOPY RETURNDATASIZE SWAP1 REVERT JUMPDEST POP PUSH1 0x4 DUP11 ADD SLOAD ISZERO ISZERO PUSH2 0x1745 JUMP JUMPDEST PUSH1 0x40 MLOAD PUSH4 0x299AA0A1 PUSH1 0xE2 SHL DUP2 MSTORE PUSH1 0x4 SWAP1 REVERT JUMPDEST DUP8 DUP1 REVERT JUMPDEST DUP7 DUP1 REVERT JUMPDEST DUP4 DUP1 REVERT JUMPDEST DUP3 CALLVALUE PUSH2 0x1DA JUMPI DUP1 PUSH1 0x3 NOT CALLDATASIZE ADD SLT PUSH2 0x1DA JUMPI PUSH1 0x40 MLOAD PUSH32 0x0 PUSH1 0x1 PUSH1 0x1 PUSH1 0xA0 SHL SUB AND DUP2 MSTORE PUSH1 0x20 SWAP1 RETURN JUMPDEST DUP3 CALLVALUE PUSH2 0x1DA JUMPI PUSH1 0x20 CALLDATASIZE PUSH1 0x3 NOT ADD SLT PUSH2 0x1DA JUMPI PUSH1 0x20 SWAP1 PUSH1 0xFF SWAP1 PUSH1 0x40 SWAP1 PUSH1 0x1 PUSH1 0x1 PUSH1 0xA0 SHL SUB PUSH2 0x1E0D PUSH2 0x2249 JUMP JUMPDEST AND DUP2 MSTORE PUSH1 0x5 DUP5 MSTORE KECCAK256 SLOAD AND PUSH1 0x40 MLOAD SWAP1 ISZERO ISZERO DUP2 MSTORE RETURN JUMPDEST DUP3 CALLVALUE PUSH2 0x1DA JUMPI PUSH2 0x1E30 CALLDATASIZE PUSH2 0x2093 JUMP JUMPDEST SWAP1 PUSH2 0x1E39 PUSH2 0x2316 JUMP JUMPDEST PUSH1 0xA DUP3 LT ISZERO PUSH2 0x5A1 JUMPI DUP1 DUP4 MSTORE PUSH1 0x20 PUSH1 0x7 DUP2 MSTORE PUSH1 0x40 DUP5 KECCAK256 DUP4 DUP6 MSTORE DUP2 MSTORE PUSH1 0x40 DUP5 KECCAK256 SWAP1 PUSH1 0xFF PUSH1 0x5 DUP4 ADD SLOAD PUSH1 0x8 SHR AND ISZERO PUSH2 0xF8D JUMPI PUSH1 0x8 DUP3 ADD SLOAD PUSH3 0x127500 DUP2 ADD DUP1 SWAP2 GT PUSH2 0xF55 JUMPI TIMESTAMP GT ISZERO PUSH2 0x1F8C JUMPI PUSH1 0x4 DUP3 ADD SLOAD PUSH2 0x1F4 DUP1 DUP3 MUL SWAP1 DUP3 DUP3 DIV EQ DUP3 ISZERO OR ISZERO PUSH2 0x1F78 JUMPI PUSH1 0x7 SWAP2 PUSH2 0x2710 PUSH2 0x1EAB SWAP3 DIV SWAP1 PUSH2 0x2351 JUMP JUMPDEST SWAP3 ADD SWAP2 PUSH2 0x1EB9 DUP4 SLOAD DUP3 PUSH2 0x2351 JUMP JUMPDEST SWAP3 DUP4 ISZERO PUSH2 0xF31 JUMPI SSTORE DUP5 SLOAD PUSH1 0x40 MLOAD PUSH4 0xA9059CBB PUSH1 0xE0 SHL DUP2 MSTORE PUSH1 0x1 PUSH1 0x1 PUSH1 0xA0 SHL SUB SWAP2 DUP3 AND PUSH1 0x4 DUP3 ADD MSTORE PUSH1 0x24 DUP2 ADD DUP5 SWAP1 MSTORE SWAP1 DUP3 SWAP1 DUP3 SWAP1 PUSH1 0x44 SWAP1 DUP3 SWAP1 DUP11 SWAP1 PUSH32 0x0 AND GAS CALL SWAP1 DUP2 ISZERO PUSH2 0x4F3 JUMPI DUP7 SWAP2 PUSH2 0x1F5B JUMPI JUMPDEST POP ISZERO PUSH2 0xCA6 JUMPI PUSH32 0xCF3B62092C7F2A3455C516C177BD1970412D1C381C960D3986E3296F9DFF0E7B SWAP2 PUSH1 0x40 MLOAD SWAP1 DUP2 MSTORE LOG3 PUSH1 0x1 DUP1 SSTORE DUP1 RETURN JUMPDEST PUSH2 0x1F72 SWAP2 POP DUP3 RETURNDATASIZE DUP5 GT PUSH2 0xCDF JUMPI PUSH2 0xCD1 DUP2 DUP4 PUSH2 0x2117 JUMP JUMPDEST DUP7 PUSH2 0x1F25 JUMP JUMPDEST PUSH4 0x4E487B71 PUSH1 0xE0 SHL DUP8 MSTORE PUSH1 0x11 PUSH1 0x4 MSTORE PUSH1 0x24 DUP8 REVERT JUMPDEST PUSH1 0x40 MLOAD PUSH4 0x162618A9 PUSH1 0xE0 SHL DUP2 MSTORE PUSH1 0x4 SWAP1 REVERT JUMPDEST DUP3 CALLVALUE PUSH2 0x1DA JUMPI PUSH1 0x40 SWAP1 PUSH2 0x1FB0 CALLDATASIZE PUSH2 0x2093 JUMP JUMPDEST SWAP1 DUP3 MSTORE PUSH1 0x7 PUSH1 0x20 MSTORE DUP3 DUP3 KECCAK256 SWAP1 DUP3 MSTORE PUSH1 0x20 MSTORE KECCAK256 SWAP1 PUSH1 0x1 DUP1 PUSH1 0xA0 SHL SUB DUP3 SLOAD AND SWAP1 PUSH2 0x1FDA PUSH1 0x1 DUP5 ADD PUSH2 0x2138 JUMP JUMPDEST SWAP3 PUSH2 0x1FE7 PUSH1 0x2 DUP3 ADD PUSH2 0x2138 JUMP JUMPDEST SWAP1 PUSH2 0x1FF4 PUSH1 0x3 DUP3 ADD PUSH2 0x2138 JUMP JUMPDEST PUSH1 0x4 DUP3 ADD SLOAD SWAP4 PUSH1 0xFF PUSH1 0x5 DUP5 ADD SLOAD PUSH2 0x2051 PUSH1 0x6 DUP7 ADD SLOAD SWAP5 PUSH2 0x2043 PUSH1 0x8 PUSH1 0x7 DUP10 ADD SLOAD SWAP9 ADD SLOAD SWAP9 PUSH2 0x2035 PUSH1 0x40 MLOAD SWAP14 DUP15 SWAP14 DUP15 MSTORE DUP14 PUSH2 0x160 SWAP1 DUP2 PUSH1 0x20 DUP3 ADD MSTORE ADD SWAP1 PUSH2 0x2201 JUMP JUMPDEST DUP13 DUP2 SUB PUSH1 0x40 DUP15 ADD MSTORE SWAP1 PUSH2 0x2201 JUMP JUMPDEST SWAP1 DUP11 DUP3 SUB PUSH1 0x60 DUP13 ADD MSTORE PUSH2 0x2201 JUMP JUMPDEST SWAP7 PUSH1 0x80 DUP10 ADD MSTORE PUSH2 0x2066 PUSH1 0xA0 DUP10 ADD DUP4 DUP4 AND PUSH2 0x2226 JUMP JUMPDEST DUP2 DUP2 PUSH1 0x8 SHR AND ISZERO ISZERO PUSH1 0xC0 DUP10 ADD MSTORE PUSH1 0x10 SHR AND ISZERO ISZERO SWAP1 DUP7 ADD MSTORE PUSH2 0x100 DUP6 ADD MSTORE PUSH2 0x120 DUP5 ADD MSTORE PUSH2 0x140 DUP4 ADD MSTORE SUB SWAP1 RETURN JUMPDEST PUSH1 0x40 SWAP1 PUSH1 0x3 NOT ADD SLT PUSH2 0x20A9 JUMPI PUSH1 0x4 CALLDATALOAD SWAP1 PUSH1 0x24 CALLDATALOAD SWAP1 JUMP JUMPDEST PUSH1 0x0 DUP1 REVERT JUMPDEST SWAP1 PUSH1 0x1 DUP3 DUP2 SHR SWAP3 AND DUP1 ISZERO PUSH2 0x20DE JUMPI JUMPDEST PUSH1 0x20 DUP4 LT EQ PUSH2 0x20C8 JUMPI JUMP JUMPDEST PUSH4 0x4E487B71 PUSH1 0xE0 SHL PUSH1 0x0 MSTORE PUSH1 0x22 PUSH1 0x4 MSTORE PUSH1 0x24 PUSH1 0x0 REVERT JUMPDEST SWAP2 PUSH1 0x7F AND SWAP2 PUSH2 0x20BD JUMP JUMPDEST PUSH1 0x1 PUSH1 0x1 PUSH1 0x40 SHL SUB DUP2 GT PUSH2 0x555 JUMPI PUSH1 0x40 MSTORE JUMP JUMPDEST PUSH2 0x160 DUP2 ADD SWAP1 DUP2 LT PUSH1 0x1 PUSH1 0x1 PUSH1 0x40 SHL SUB DUP3 GT OR PUSH2 0x555 JUMPI PUSH1 0x40 MSTORE JUMP JUMPDEST SWAP1 PUSH1 0x1F DUP1 NOT SWAP2 ADD AND DUP2 ADD SWAP1 DUP2 LT PUSH1 0x1 PUSH1 0x1 PUSH1 0x40 SHL SUB DUP3 GT OR PUSH2 0x555 JUMPI PUSH1 0x40 MSTORE JUMP JUMPDEST SWAP1 PUSH1 0x40 MLOAD SWAP2 DUP3 PUSH1 0x0 DUP3 SLOAD SWAP3 PUSH2 0x214C DUP5 PUSH2 0x20AE JUMP JUMPDEST SWAP1 DUP2 DUP5 MSTORE PUSH1 0x1 SWAP5 DUP6 DUP2 AND SWAP1 DUP2 PUSH1 0x0 EQ PUSH2 0x21BB JUMPI POP PUSH1 0x1 EQ PUSH2 0x2178 JUMPI JUMPDEST POP POP PUSH2 0x2176 SWAP3 POP SUB DUP4 PUSH2 0x2117 JUMP JUMPDEST JUMP JUMPDEST SWAP1 SWAP4 SWAP2 POP PUSH1 0x0 MSTORE PUSH1 0x20 SWAP1 DUP2 PUSH1 0x0 KECCAK256 SWAP4 PUSH1 0x0 SWAP2 JUMPDEST DUP2 DUP4 LT PUSH2 0x21A3 JUMPI POP POP PUSH2 0x2176 SWAP4 POP DUP3 ADD ADD CODESIZE DUP1 PUSH2 0x2168 JUMP JUMPDEST DUP6 SLOAD DUP9 DUP5 ADD DUP6 ADD MSTORE SWAP5 DUP6 ADD SWAP5 DUP8 SWAP5 POP SWAP2 DUP4 ADD SWAP2 PUSH2 0x218B JUMP JUMPDEST SWAP2 POP POP PUSH2 0x2176 SWAP5 POP PUSH1 0x20 SWAP3 POP PUSH1 0xFF NOT AND DUP3 DUP5 ADD MSTORE ISZERO ISZERO PUSH1 0x5 SHL DUP3 ADD ADD CODESIZE DUP1 PUSH2 0x2168 JUMP JUMPDEST PUSH1 0x0 JUMPDEST DUP4 DUP2 LT PUSH2 0x21F1 JUMPI POP POP PUSH1 0x0 SWAP2 ADD MSTORE JUMP JUMPDEST DUP2 DUP2 ADD MLOAD DUP4 DUP3 ADD MSTORE PUSH1 0x20 ADD PUSH2 0x21E1 JUMP JUMPDEST SWAP1 PUSH1 0x20 SWAP2 PUSH2 0x221A DUP2 MLOAD DUP1 SWAP3 DUP2 DUP6 MSTORE DUP6 DUP1 DUP7 ADD SWAP2 ADD PUSH2 0x21DE JUMP JUMPDEST PUSH1 0x1F ADD PUSH1 0x1F NOT AND ADD ADD SWAP1 JUMP JUMPDEST SWAP1 PUSH1 0xA DUP3 LT ISZERO PUSH2 0x2233 JUMPI MSTORE JUMP JUMPDEST PUSH4 0x4E487B71 PUSH1 0xE0 SHL PUSH1 0x0 MSTORE PUSH1 0x21 PUSH1 0x4 MSTORE PUSH1 0x24 PUSH1 0x0 REVERT JUMPDEST PUSH1 0x4 CALLDATALOAD SWAP1 PUSH1 0x1 PUSH1 0x1 PUSH1 0xA0 SHL SUB DUP3 AND DUP3 SUB PUSH2 0x20A9 JUMPI JUMP JUMPDEST SWAP2 DUP2 PUSH1 0x1F DUP5 ADD SLT ISZERO PUSH2 0x20A9 JUMPI DUP3 CALLDATALOAD SWAP2 PUSH1 0x1 PUSH1 0x1 PUSH1 0x40 SHL SUB DUP4 GT PUSH2 0x20A9 JUMPI PUSH1 0x20 DUP4 DUP2 DUP7 ADD SWAP6 ADD ADD GT PUSH2 0x20A9 JUMPI JUMP JUMPDEST PUSH1 0x60 SWAP1 PUSH1 0x3 NOT ADD SLT PUSH2 0x20A9 JUMPI PUSH1 0x4 CALLDATALOAD SWAP1 PUSH1 0x24 CALLDATALOAD SWAP1 PUSH1 0x44 CALLDATALOAD PUSH1 0x1 PUSH1 0x1 PUSH1 0xA0 SHL SUB DUP2 AND DUP2 SUB PUSH2 0x20A9 JUMPI SWAP1 JUMP JUMPDEST SWAP1 DUP2 MLOAD DUP1 DUP3 MSTORE PUSH1 0x20 DUP1 DUP1 SWAP4 ADD SWAP4 ADD SWAP2 PUSH1 0x0 JUMPDEST DUP3 DUP2 LT PUSH2 0x22D6 JUMPI POP POP POP POP SWAP1 JUMP JUMPDEST DUP4 MLOAD DUP6 MSTORE SWAP4 DUP2 ADD SWAP4 SWAP3 DUP2 ADD SWAP3 PUSH1 0x1 ADD PUSH2 0x22C8 JUMP JUMPDEST PUSH1 0x0 SLOAD PUSH1 0x1 PUSH1 0x1 PUSH1 0xA0 SHL SUB AND CALLER SUB PUSH2 0x22FE JUMPI JUMP JUMPDEST PUSH1 0x40 MLOAD PUSH4 0x118CDAA7 PUSH1 0xE0 SHL DUP2 MSTORE CALLER PUSH1 0x4 DUP3 ADD MSTORE PUSH1 0x24 SWAP1 REVERT JUMPDEST PUSH1 0x2 PUSH1 0x1 SLOAD EQ PUSH2 0x2327 JUMPI PUSH1 0x2 PUSH1 0x1 SSTORE JUMP JUMPDEST PUSH1 0x40 MLOAD PUSH4 0x3EE5AEB5 PUSH1 0xE0 SHL DUP2 MSTORE PUSH1 0x4 SWAP1 REVERT JUMPDEST SWAP1 DUP2 PUSH1 0x20 SWAP2 SUB SLT PUSH2 0x20A9 JUMPI MLOAD DUP1 ISZERO ISZERO DUP2 SUB PUSH2 0x20A9 JUMPI SWAP1 JUMP JUMPDEST SWAP2 SWAP1 DUP3 SUB SWAP2 DUP3 GT PUSH2 0x235E JUMPI JUMP JUMPDEST PUSH4 0x4E487B71 PUSH1 0xE0 SHL PUSH1 0x0 MSTORE PUSH1 0x11 PUSH1 0x4 MSTORE PUSH1 0x24 PUSH1 0x0 REVERT JUMPDEST SWAP2 SWAP1 DUP3 ADD DUP1 SWAP3 GT PUSH2 0x235E JUMPI JUMP JUMPDEST PUSH1 0x0 NOT DUP2 EQ PUSH2 0x235E JUMPI PUSH1 0x1 ADD SWAP1 JUMP JUMPDEST DUP2 ISZERO PUSH2 0x239A JUMPI DIV SWAP1 JUMP JUMPDEST PUSH4 0x4E487B71 PUSH1 0xE0 SHL PUSH1 0x0 MSTORE PUSH1 0x12 PUSH1 0x4 MSTORE PUSH1 0x24 PUSH1 0x0 REVERT JUMPDEST PUSH1 0x2 SLOAD ISZERO PUSH2 0x2433 JUMPI PUSH1 0x2 SLOAD PUSH1 0x0 NOT DUP2 ADD SWAP1 DUP2 GT PUSH2 0x235E JUMPI PUSH1 0x3 SLOAD DUP2 GT PUSH2 0x2406 JUMPI JUMPDEST PUSH2 0x23DC PUSH1 0x2 SLOAD PUSH2 0x2381 JUMP JUMPDEST PUSH1 0x2 SSTORE PUSH32 0x6FBFBCCDD0D107860C9BCCFA723D97EBA4F37886EDEB01E7A438B1E0FE44E056 PUSH1 0x0 DUP1 LOG2 JUMP JUMPDEST PUSH1 0x0 JUMPDEST PUSH1 0xA DUP2 LT PUSH2 0x241B JUMPI POP DUP1 PUSH1 0x3 SSTORE PUSH2 0x23D1 JUMP JUMPDEST DUP1 PUSH2 0x2429 PUSH2 0x242E SWAP3 DUP5 PUSH2 0x2460 JUMP JUMPDEST PUSH2 0x2381 JUMP JUMPDEST PUSH2 0x2409 JUMP JUMPDEST PUSH1 0x1 PUSH1 0x2 SSTORE PUSH1 0x0 PUSH32 0x6FBFBCCDD0D107860C9BCCFA723D97EBA4F37886EDEB01E7A438B1E0FE44E056 DUP2 DUP1 LOG2 JUMP JUMPDEST PUSH1 0x0 DUP2 DUP2 MSTORE PUSH1 0x7 PUSH1 0x20 MSTORE PUSH1 0x40 DUP2 KECCAK256 DUP4 DUP3 MSTORE PUSH1 0x20 MSTORE PUSH1 0x40 DUP2 KECCAK256 SWAP1 PUSH1 0x1 DUP1 PUSH1 0xA0 SHL SUB DUP3 SLOAD AND ISZERO PUSH2 0x2543 JUMPI PUSH1 0x5 DUP3 ADD SWAP1 DUP2 SLOAD PUSH1 0xFF DUP2 PUSH1 0x10 SHR AND PUSH2 0x2531 JUMPI POP PUSH1 0x4 DUP4 ADD SLOAD SWAP1 PUSH2 0x1F4 SWAP1 DUP2 DUP4 MUL SWAP2 DUP4 DUP4 DIV EQ DUP4 ISZERO OR ISZERO PUSH2 0x251D JUMPI POP SWAP3 PUSH1 0x20 SWAP3 PUSH2 0x24FC PUSH1 0x6 SWAP4 PUSH2 0x24F1 PUSH2 0x2710 PUSH32 0x67A59239176EDC6000958291E1C679AFD7B3E13A274C758A1FB33D8587D5E708 SWAP9 DIV PUSH1 0xB SLOAD PUSH2 0x2374 JUMP JUMPDEST PUSH1 0xB SSTORE PUSH1 0xC SLOAD PUSH2 0x2351 JUMP JUMPDEST PUSH1 0xC SSTORE DUP1 SLOAD PUSH2 0xFF00 NOT AND PUSH2 0x100 OR SWAP1 SSTORE TIMESTAMP PUSH1 0x8 DUP3 ADD SSTORE ADD SLOAD PUSH1 0x40 MLOAD SWAP1 DUP2 MSTORE LOG3 JUMP JUMPDEST PUSH4 0x4E487B71 PUSH1 0xE0 SHL DUP2 MSTORE PUSH1 0x11 PUSH1 0x4 MSTORE PUSH1 0x24 SWAP1 REVERT JUMPDEST PUSH2 0xFF00 NOT AND PUSH2 0x100 OR SWAP1 SWAP2 SSTORE POP POP POP POP JUMP JUMPDEST POP PUSH1 0x5 ADD DUP1 SLOAD PUSH2 0xFF00 NOT AND PUSH2 0x100 OR SWAP1 SSTORE POP POP JUMP JUMPDEST PUSH1 0x1 PUSH1 0x1 PUSH1 0x40 SHL SUB DUP2 GT PUSH2 0x555 JUMPI PUSH1 0x5 SHL PUSH1 0x20 ADD SWAP1 JUMP JUMPDEST DUP1 MLOAD DUP3 LT ISZERO PUSH2 0x2583 JUMPI PUSH1 0x20 SWAP2 PUSH1 0x5 SHL ADD ADD SWAP1 JUMP JUMPDEST PUSH4 0x4E487B71 PUSH1 0xE0 SHL PUSH1 0x0 MSTORE PUSH1 0x32 PUSH1 0x4 MSTORE PUSH1 0x24 PUSH1 0x0 REVERT JUMPDEST SWAP2 PUSH1 0x0 SWAP1 DUP4 DUP3 MSTORE PUSH1 0x20 SWAP1 PUSH1 0x7 DUP3 MSTORE PUSH1 0x40 SWAP2 DUP3 DUP5 KECCAK256 DUP6 DUP6 MSTORE DUP2 MSTORE DUP3 DUP5 KECCAK256 SWAP5 DUP7 DUP6 MSTORE PUSH1 0x8 DUP3 MSTORE DUP4 DUP6 KECCAK256 DUP2 DUP7 MSTORE DUP3 MSTORE DUP4 DUP6 KECCAK256 SWAP3 PUSH1 0x1 DUP1 PUSH1 0xA0 SHL SUB AND SWAP3 DUP4 DUP7 MSTORE DUP3 MSTORE PUSH1 0xFF DUP5 DUP7 KECCAK256 SLOAD AND ISZERO PUSH2 0x265C JUMPI DUP5 SWAP6 SWAP7 PUSH1 0xFF SWAP6 MSTORE PUSH1 0x9 DUP3 MSTORE DUP4 DUP7 KECCAK256 SWAP1 DUP7 MSTORE DUP2 MSTORE DUP3 DUP6 KECCAK256 SWAP2 DUP6 MSTORE MSTORE DUP3 KECCAK256 SLOAD AND PUSH2 0x2657 JUMPI PUSH1 0xFF PUSH1 0x5 DUP4 ADD SLOAD PUSH1 0x8 SHR AND ISZERO PUSH2 0x2657 JUMPI PUSH1 0x6 DUP3 ADD SLOAD SWAP2 DUP3 ISZERO PUSH2 0x2651 JUMPI PUSH1 0x4 ADD SLOAD SWAP1 PUSH2 0x1F4 SWAP1 DUP2 DUP4 MUL SWAP2 DUP4 DUP4 DIV EQ DUP4 ISZERO OR ISZERO PUSH2 0x251D JUMPI POP PUSH2 0x264E SWAP3 SWAP2 PUSH2 0x2710 PUSH2 0xE30 SWAP3 DIV SWAP1 PUSH2 0x2351 JUMP JUMPDEST SWAP1 JUMP JUMPDEST POP SWAP1 POP SWAP1 JUMP JUMPDEST SWAP1 POP SWAP1 JUMP JUMPDEST POP POP POP POP SWAP2 POP POP SWAP1 JUMP JUMPDEST SWAP1 PUSH2 0x2670 DUP3 PUSH2 0x2558 JUMP JUMPDEST PUSH2 0x267D PUSH1 0x40 MLOAD SWAP2 DUP3 PUSH2 0x2117 JUMP JUMPDEST DUP3 DUP2 MSTORE DUP1 SWAP3 PUSH2 0x268E PUSH1 0x1F NOT SWAP2 PUSH2 0x2558 JUMP JUMPDEST ADD SWAP1 PUSH1 0x20 CALLDATASIZE SWAP2 ADD CALLDATACOPY JUMP INVALID LOG2 PUSH5 0x6970667358 0x22 SLT KECCAK256 ORIGIN ORIGIN 0xB3 0x5D SLOAD DUP13 SWAP14 0xB3 0xCD PC 0xBB 0xCE SHR CALLER CALLCODE DUP10 CALL PUSH2 0x288C 0x21 CALLER 0xC SHR CODESIZE 0xD4 SWAP16 ADDMOD CALLDATACOPY 0x29 PUSH19 0xFA64736F6C6343000814003300000000000000 "},"methodIdentifiers":{"AD_SLOTS_PER_CYCLE()":"39aca329","CLAIM_DEADLINE()":"42f81580","PLATFORM_FEE_BPS()":"539aa77f","WLD()":"de061d66","accumulatedFees()":"587f5ed7","adSlots(uint256,uint256)":"035169a4","addAuthorizedSigner(address)":"5240eb32","authorizedSigners(address)":"5d2b6a4e","banAdvertiser(address)":"c0ae6146","bannedAdvertisers(address)":"11637f22","calculateUserReward(uint256,uint256,address)":"1f50fec9","claimReward(uint256,uint256)":"86bb8f37","collectExpiredClaims(uint256,uint256)":"1012be0d","currentCycle()":"bab2f552","getCurrentAds()":"b7c32bf0","getCurrentCycle()":"be26ed7f","getUserClaimableRewards(address)":"646e200b","hasClaimed(uint256,uint256,address)":"69547f2d","hasClicked(uint256,uint256,address)":"4d63a475","lastFinalizedCycle()":"6ecdf606","lockedFunds()":"b8afaa48","owner()":"8da5cb5b","permit2()":"12261ee7","placeAdBid(uint256,uint256,string,string,string,uint256,uint8,((address,uint256),uint256,uint256),bytes)":"12d95d1d","progressCycle()":"71b3fb9a","recordClick(uint256,uint256,uint256,uint256,bytes)":"e7c21a3e","register(address,uint256,uint256,uint256[8])":"cc6cd25e","registered(address)":"b2dd5c07","removeAd(uint256,uint256)":"97090dc8","removeAuthorizedSigner(address)":"f62a4edb","renounceOwnership()":"715018a6","transferOwnership(address)":"f2fde38b","unbanAdvertiser(address)":"74331428","usedSignatures(bytes32)":"f978fd61","withdrawFees()":"476343ee","worldId()":"753e9ef0"}}}}}