{"contracts/ADSDemo.sol":{"ADSDemo":{"abi":[{"inputs":[{"internalType":"address","name":"_wldToken","type":"address"},{"internalType":"address","name":"_permit2","type":"address"},{"internalType":"address","name":"_worldId","type":"address"},{"internalType":"string","name":"_appId","type":"string"},{"internalType":"string","name":"_action","type":"string"}],"stateMutability":"nonpayable","type":"constructor"},{"inputs":[],"name":"AdWasRemoved","type":"error"},{"inputs":[],"name":"AdvertiserIsBanned","type":"error"},{"inputs":[],"name":"AlreadyClaimed","type":"error"},{"inputs":[],"name":"AlreadyClicked","type":"error"},{"inputs":[],"name":"AlreadyFinalized","type":"error"},{"inputs":[],"name":"AlreadyRegistered","type":"error"},{"inputs":[],"name":"ClaimDeadlineNotPassed","type":"error"},{"inputs":[],"name":"ClaimDeadlinePassed","type":"error"},{"inputs":[],"name":"InvalidAmount","type":"error"},{"inputs":[],"name":"InvalidCycle","type":"error"},{"inputs":[],"name":"InvalidSlot","type":"error"},{"inputs":[],"name":"NoClickRecorded","type":"error"},{"inputs":[],"name":"NotAdvertiser","type":"error"},{"inputs":[],"name":"NotAuthorized","type":"error"},{"inputs":[],"name":"NotFinalized","type":"error"},{"inputs":[],"name":"NotRegistered","type":"error"},{"inputs":[{"internalType":"address","name":"owner","type":"address"}],"name":"OwnableInvalidOwner","type":"error"},{"inputs":[{"internalType":"address","name":"account","type":"address"}],"name":"OwnableUnauthorizedAccount","type":"error"},{"inputs":[],"name":"ReentrancyGuardReentrantCall","type":"error"},{"inputs":[],"name":"SignatureAlreadyUsed","type":"error"},{"inputs":[],"name":"TransferFailed","type":"error"},{"anonymous":false,"inputs":[{"indexed":true,"internalType":"address","name":"advertiser","type":"address"},{"indexed":true,"internalType":"uint256","name":"cycle","type":"uint256"},{"indexed":true,"internalType":"uint256","name":"slotIndex","type":"uint256"},{"indexed":false,"internalType":"uint256","name":"bidAmount","type":"uint256"}],"name":"AdBidPlaced","type":"event"},{"anonymous":false,"inputs":[{"indexed":true,"internalType":"address","name":"advertiser","type":"address"},{"indexed":true,"internalType":"uint256","name":"cycle","type":"uint256"},{"indexed":true,"internalType":"uint256","name":"slotIndex","type":"uint256"}],"name":"AdRemoved","type":"event"},{"anonymous":false,"inputs":[{"indexed":true,"internalType":"uint256","name":"cycle","type":"uint256"},{"indexed":true,"internalType":"uint256","name":"slotIndex","type":"uint256"},{"indexed":false,"internalType":"uint256","name":"totalClicks","type":"uint256"}],"name":"AdSlotFinalized","type":"event"},{"anonymous":false,"inputs":[{"indexed":true,"internalType":"address","name":"advertiser","type":"address"}],"name":"AdvertiserBanned","type":"event"},{"anonymous":false,"inputs":[{"indexed":true,"internalType":"address","name":"advertiser","type":"address"}],"name":"AdvertiserUnbanned","type":"event"},{"anonymous":false,"inputs":[{"indexed":true,"internalType":"address","name":"user","type":"address"},{"indexed":true,"internalType":"uint256","name":"cycle","type":"uint256"},{"indexed":true,"internalType":"uint256","name":"slotIndex","type":"uint256"}],"name":"ClickRecorded","type":"event"},{"anonymous":false,"inputs":[{"indexed":true,"internalType":"uint256","name":"cycle","type":"uint256"}],"name":"CycleFinalized","type":"event"},{"anonymous":false,"inputs":[{"indexed":true,"internalType":"uint256","name":"cycle","type":"uint256"},{"indexed":true,"internalType":"uint256","name":"slotIndex","type":"uint256"},{"indexed":false,"internalType":"uint256","name":"amount","type":"uint256"}],"name":"ExpiredClaimCollected","type":"event"},{"anonymous":false,"inputs":[{"indexed":true,"internalType":"address","name":"recipient","type":"address"},{"indexed":false,"internalType":"uint256","name":"amount","type":"uint256"}],"name":"FeesWithdrawn","type":"event"},{"anonymous":false,"inputs":[{"indexed":true,"internalType":"address","name":"previousOwner","type":"address"},{"indexed":true,"internalType":"address","name":"newOwner","type":"address"}],"name":"OwnershipTransferred","type":"event"},{"anonymous":false,"inputs":[{"indexed":true,"internalType":"address","name":"user","type":"address"},{"indexed":true,"internalType":"uint256","name":"cycle","type":"uint256"},{"indexed":true,"internalType":"uint256","name":"slotIndex","type":"uint256"},{"indexed":false,"internalType":"uint256","name":"amount","type":"uint256"}],"name":"RewardClaimed","type":"event"},{"anonymous":false,"inputs":[{"indexed":true,"internalType":"address","name":"user","type":"address"}],"name":"UserRegistered","type":"event"},{"inputs":[],"name":"AD_SLOTS_PER_CYCLE","outputs":[{"internalType":"uint256","name":"","type":"uint256"}],"stateMutability":"view","type":"function"},{"inputs":[],"name":"CLAIM_DEADLINE","outputs":[{"internalType":"uint256","name":"","type":"uint256"}],"stateMutability":"view","type":"function"},{"inputs":[],"name":"PLATFORM_FEE_BPS","outputs":[{"internalType":"uint256","name":"","type":"uint256"}],"stateMutability":"view","type":"function"},{"inputs":[],"name":"WLD","outputs":[{"internalType":"contract IERC20","name":"","type":"address"}],"stateMutability":"view","type":"function"},{"inputs":[],"name":"accumulatedFees","outputs":[{"internalType":"uint256","name":"","type":"uint256"}],"stateMutability":"view","type":"function"},{"inputs":[{"internalType":"uint256","name":"","type":"uint256"},{"internalType":"uint256","name":"","type":"uint256"}],"name":"adSlots","outputs":[{"internalType":"address","name":"advertiser","type":"address"},{"internalType":"string","name":"name","type":"string"},{"internalType":"string","name":"description","type":"string"},{"internalType":"string","name":"imageUrl","type":"string"},{"internalType":"uint256","name":"bidAmount","type":"uint256"},{"internalType":"bool","name":"finalized","type":"bool"},{"internalType":"bool","name":"removed","type":"bool"},{"internalType":"uint256","name":"totalClicks","type":"uint256"},{"internalType":"uint256","name":"claimedAmount","type":"uint256"},{"internalType":"uint256","name":"finalizedAt","type":"uint256"}],"stateMutability":"view","type":"function"},{"inputs":[{"internalType":"address","name":"signer","type":"address"}],"name":"addAuthorizedSigner","outputs":[],"stateMutability":"nonpayable","type":"function"},{"inputs":[{"internalType":"address","name":"","type":"address"}],"name":"authorizedSigners","outputs":[{"internalType":"bool","name":"","type":"bool"}],"stateMutability":"view","type":"function"},{"inputs":[{"internalType":"address","name":"advertiser","type":"address"}],"name":"banAdvertiser","outputs":[],"stateMutability":"nonpayable","type":"function"},{"inputs":[{"internalType":"address","name":"","type":"address"}],"name":"bannedAdvertisers","outputs":[{"internalType":"bool","name":"","type":"bool"}],"stateMutability":"view","type":"function"},{"inputs":[{"internalType":"uint256","name":"cycle","type":"uint256"},{"internalType":"uint256","name":"slotIndex","type":"uint256"},{"internalType":"address","name":"user","type":"address"}],"name":"calculateUserReward","outputs":[{"internalType":"uint256","name":"","type":"uint256"}],"stateMutability":"view","type":"function"},{"inputs":[{"internalType":"uint256","name":"cycle","type":"uint256"},{"internalType":"uint256","name":"slotIndex","type":"uint256"}],"name":"claimReward","outputs":[],"stateMutability":"nonpayable","type":"function"},{"inputs":[{"internalType":"uint256","name":"cycle","type":"uint256"},{"internalType":"uint256","name":"slotIndex","type":"uint256"}],"name":"collectExpiredClaims","outputs":[],"stateMutability":"nonpayable","type":"function"},{"inputs":[],"name":"currentCycle","outputs":[{"internalType":"uint256","name":"","type":"uint256"}],"stateMutability":"view","type":"function"},{"inputs":[],"name":"getCurrentAds","outputs":[{"components":[{"internalType":"address","name":"advertiser","type":"address"},{"internalType":"string","name":"name","type":"string"},{"internalType":"string","name":"description","type":"string"},{"internalType":"string","name":"imageUrl","type":"string"},{"internalType":"uint256","name":"bidAmount","type":"uint256"},{"internalType":"bool","name":"finalized","type":"bool"},{"internalType":"bool","name":"removed","type":"bool"},{"internalType":"uint256","name":"totalClicks","type":"uint256"},{"internalType":"uint256","name":"claimedAmount","type":"uint256"},{"internalType":"uint256","name":"finalizedAt","type":"uint256"}],"internalType":"struct ADSDemo.AdSlot[]","name":"","type":"tuple[]"}],"stateMutability":"view","type":"function"},{"inputs":[],"name":"getCurrentCycle","outputs":[{"internalType":"uint256","name":"","type":"uint256"}],"stateMutability":"view","type":"function"},{"inputs":[{"internalType":"address","name":"user","type":"address"}],"name":"getUserClaimableRewards","outputs":[{"internalType":"uint256[]","name":"cycles","type":"uint256[]"},{"internalType":"uint256[]","name":"slots","type":"uint256[]"},{"internalType":"uint256[]","name":"amounts","type":"uint256[]"}],"stateMutability":"view","type":"function"},{"inputs":[{"internalType":"uint256","name":"","type":"uint256"},{"internalType":"uint256","name":"","type":"uint256"},{"internalType":"address","name":"","type":"address"}],"name":"hasClaimed","outputs":[{"internalType":"bool","name":"","type":"bool"}],"stateMutability":"view","type":"function"},{"inputs":[{"internalType":"uint256","name":"","type":"uint256"},{"internalType":"uint256","name":"","type":"uint256"},{"internalType":"address","name":"","type":"address"}],"name":"hasClicked","outputs":[{"internalType":"bool","name":"","type":"bool"}],"stateMutability":"view","type":"function"},{"inputs":[],"name":"lastFinalizedCycle","outputs":[{"internalType":"uint256","name":"","type":"uint256"}],"stateMutability":"view","type":"function"},{"inputs":[],"name":"lockedFunds","outputs":[{"internalType":"uint256","name":"","type":"uint256"}],"stateMutability":"view","type":"function"},{"inputs":[],"name":"owner","outputs":[{"internalType":"address","name":"","type":"address"}],"stateMutability":"view","type":"function"},{"inputs":[],"name":"permit2","outputs":[{"internalType":"contract IPermit2","name":"","type":"address"}],"stateMutability":"view","type":"function"},{"inputs":[{"internalType":"uint256","name":"cycle","type":"uint256"},{"internalType":"uint256","name":"slotIndex","type":"uint256"},{"internalType":"string","name":"name","type":"string"},{"internalType":"string","name":"description","type":"string"},{"internalType":"string","name":"imageUrl","type":"string"},{"internalType":"uint256","name":"bidAmount","type":"uint256"},{"components":[{"components":[{"internalType":"address","name":"token","type":"address"},{"internalType":"uint256","name":"amount","type":"uint256"}],"internalType":"struct IPermit2.TokenPermissions","name":"permitted","type":"tuple"},{"internalType":"uint256","name":"nonce","type":"uint256"},{"internalType":"uint256","name":"deadline","type":"uint256"}],"internalType":"struct IPermit2.PermitTransferFrom","name":"permit","type":"tuple"},{"internalType":"bytes","name":"signature","type":"bytes"}],"name":"placeAdBid","outputs":[],"stateMutability":"nonpayable","type":"function"},{"inputs":[],"name":"progressCycle","outputs":[],"stateMutability":"nonpayable","type":"function"},{"inputs":[{"internalType":"uint256","name":"cycle","type":"uint256"},{"internalType":"uint256","name":"slotIndex","type":"uint256"},{"internalType":"uint256","name":"nonce","type":"uint256"},{"internalType":"uint256","name":"timestamp","type":"uint256"},{"internalType":"bytes","name":"signature","type":"bytes"}],"name":"recordClick","outputs":[],"stateMutability":"nonpayable","type":"function"},{"inputs":[{"internalType":"address","name":"signal","type":"address"},{"internalType":"uint256","name":"root","type":"uint256"},{"internalType":"uint256","name":"nullifierHash","type":"uint256"},{"internalType":"uint256[8]","name":"proof","type":"uint256[8]"}],"name":"register","outputs":[],"stateMutability":"nonpayable","type":"function"},{"inputs":[{"internalType":"address","name":"","type":"address"}],"name":"registered","outputs":[{"internalType":"bool","name":"","type":"bool"}],"stateMutability":"view","type":"function"},{"inputs":[{"internalType":"uint256","name":"cycle","type":"uint256"},{"internalType":"uint256","name":"slotIndex","type":"uint256"}],"name":"removeAd","outputs":[],"stateMutability":"nonpayable","type":"function"},{"inputs":[{"internalType":"address","name":"signer","type":"address"}],"name":"removeAuthorizedSigner","outputs":[],"stateMutability":"nonpayable","type":"function"},{"inputs":[],"name":"renounceOwnership","outputs":[],"stateMutability":"nonpayable","type":"function"},{"inputs":[{"internalType":"address","name":"newOwner","type":"address"}],"name":"transferOwnership","outputs":[],"stateMutability":"nonpayable","type":"function"},{"inputs":[{"internalType":"address","name":"advertiser","type":"address"}],"name":"unbanAdvertiser","outputs":[],"stateMutability":"nonpayable","type":"function"},{"inputs":[{"internalType":"bytes32","name":"","type":"bytes32"}],"name":"usedSignatures","outputs":[{"internalType":"bool","name":"","type":"bool"}],"stateMutability":"view","type":"function"},{"inputs":[],"name":"withdrawFees","outputs":[],"stateMutability":"nonpayable","type":"function"},{"inputs":[],"name":"worldId","outputs":[{"internalType":"contract IWorldID","name":"","type":"address"}],"stateMutability":"view","type":"function"}],"evm":{"bytecode":{"linkReferences":{},"object":"6101206040818152346200020557620027e580380380916200002282866200020a565b8439820160a08382031262000205576200003c8362000244565b926020906200004d82820162000244565b6200005a85830162000244565b60608301516001600160401b039591939190868111620002055781620000829184016200027e565b95608083015190811162000205576200009c92016200027e565b933315620001ed5760008054336001600160a01b0319821681178355885189979690958795879590946001600160a01b039485939290918416907f8be0079c531659141344cd1fd0a4f28419497f9722a3daafe3b4186f6b6457e09080a360018055816101009d60018f52166080521660a0521660c0528051908184808501920191620001299262000259565b810103808352016200013c90826200020a565b6200014790620002d9565b8251938491838301528051908184868501920191620001669262000259565b8101039081018352016200017b90826200020a565b6200018690620002d9565b60e052516124d49182620003118339608051828181610c8001528181610d64015281816112690152818161146f01528181611b160152611d52015260a051828181610715015281816107db0152611c13015260c0518261158c015260e05182505051815050f35b8551631e4fbdf760e01b815260006004820152602490fd5b600080fd5b601f909101601f19168101906001600160401b038211908210176200022e57604052565b634e487b7160e01b600052604160045260246000fd5b51906001600160a01b03821682036200020557565b60005b8381106200026d5750506000910152565b81810151838201526020016200025c565b81601f82011215620002055780516001600160401b0381116200022e5760405192620002b5601f8301601f1916602001856200020a565b818452602082840101116200020557620002d6916020808501910162000259565b90565b6040516200030760208281620002f9818301968781519384920162000259565b81010380845201826200020a565b51902060081c9056fe6080604052600436101561001257600080fd5b600060e08135811c908163035169a414611dfb5781631012be0d14611c8157816311637f2214611c4257816312261ee714611bfd5781631f50fec914611bdb57816339aca32914611bbf57816342f8158014611ba1578163476343ee14611ab85781634d63a47514611a745781635240eb3214611a30578163539aa77f14611a13578163587f5ed7146119f55781635d2b6a4e146119b6578163646e200b1461170557816369547f2d146116c15781636ecdf606146116a3578163715018a61461164957816371b3fb9a1461162157816374331428146115bb578163753e9ef01461157657816386bb8f371461130a5781638da5cb5b146112e357816397090dc814611182578163b2dd5c0714611143578163b7c32bf014610ece578163b8afaa4814610eb0578163bab2f55214610e92578163be26ed7f14610e92578163c0ae614614610e29578163cc6cd25e14610d93578163de061d6614610d4e578163e26f58be146105dc578163e7c21a3e146102ae57508063f2fde38b1461021e578063f62a4edb146101dd5763f978fd61146101ac57600080fd5b346101da5760203660031901126101da5760ff60406020926004358152600a84522054166040519015158152f35b80fd5b50346101da5760203660031901126101da576101f7612054565b6101ff6120f5565b6001600160a01b03168152600660205260408120805460ff1916905580f35b50346101da5760203660031901126101da57610238612054565b6102406120f5565b6001600160a01b0390811690811561029557600054826bffffffffffffffffffffffff60a01b821617600055167f8be0079c531659141344cd1fd0a4f28419497f9722a3daafe3b4186f6b6457e0600080a380f35b604051631e4fbdf760e01b815260048101849052602490fd5b9050346105d85760a03660031901126105d857600435602435916084356001600160401b03908181116105d4576102e99036906004016120c8565b926102f2612121565b3387526020916004835260ff918260408a205416156105c2576002548710156105b057600388101561059e578689526007845260408920888a5284526040892094600586015484811661058c5760081c841661057a57878a526008855260408a20898b52855260408a20336000528552836040600020541661056857604051908582013360601b81528960348401528a6054840152604435607484015260643560948401526094835260c08301928084108385111761055257610120918460405281519020948101947f19457468657265756d205369676e6564204d6573736167653a0a333200000000865260fc820152603c84520190828210908211176105525760405251902094858952600a84528260408a205416610540576041036104fb57876080849283604051918983526040810135851a82840152803560408401520135606082015282805260015afa156104f05786516001600160a01b0316875260068252604087205416156104de576006928652600a8152604086209060ff199160018382541617905584875260088152604087208688528152604087209033600052526001604060002091825416179055016104b0815461218c565b9055337fdf68871eff37c21a2d5f5f4714defb013c53c6aa48ebe6eff29ca11e065191278480a46001805580f35b60405163ea8e4eb560e01b8152600490fd5b6040513d88823e3d90fd5b60405162461bcd60e51b815260048101849052601860248201527f496e76616c6964207369676e6174757265206c656e67746800000000000000006044820152606490fd5b60405163900bb2c960e01b8152600490fd5b634e487b7160e01b600052604160045260246000fd5b60405163e02cd2cb60e01b8152600490fd5b604051631bb428a960e21b8152600490fd5b60405163475a253560e01b8152600490fd5b604051631258e44360e01b8152600490fd5b604051634dc7f5ff60e11b8152600490fd5b60405163aba4733960e01b8152600490fd5b8580fd5b5080fd5b82346101da576101603660031901126101da576044356001600160401b0381116105d85761060e9036906004016120c8565b91906064356001600160401b038111610d4a5761062f9036906004016120c8565b6084356001600160401b038111610d465761064e9036906004016120c8565b929095608060c3193601126105d457610144356001600160401b038111610d425761067d9036906004016120c8565b9590610687612121565b338852600560205260ff604089205416610d3057600254600435036105b0576003602435101561059e5760043588526007602052604088206024358952602052604088209660018060a01b0388541680151580610d23575b610c49575b50604051918260408101106001600160401b03604085011117610c35576040838101905230835260a43560208401527f00000000000000000000000000000000000000000000000000000000000000006001600160a01b03163b15610c315760405163187945bd60e11b81529260c4356001600160a01b0381168103610c2d57838086948e9661012495879560018060a01b0316600487015260e4356024870152602061010491823560448901528835606489015260018060a01b038151166084890152015160a48701523360c487015261010060e4870152850152848401378181018301859052601f01601f19168101030181837f00000000000000000000000000000000000000000000000000000000000000006001600160a01b03165af18015610c2257610bf3575b5085546001600160a01b031916331786556001600160401b038211610bdf57819061083e6001880154611ef7565b601f8111610b8f575b508790601f8311600114610b23578892610b18575b50508160011b916000199060031b1c19161760018501555b6001600160401b038211610b045781906108916002860154611ef7565b601f8111610ab4575b508590601f8311600114610a48578692610a3d575b50508160011b916000199060031b1c19161760028301555b6001600160401b038111610a29576108e26003830154611ef7565b601f81116109e5575b5082601f821160011461097c57839482939492610971575b50508160011b916000199060031b1c19161760038201555b600460a43591015561093160a435600c5461217f565b600c5560405160a435815260243590600435907f9b078a1e54e0268aaf952de1cc5bbb050d90f14e2ba254958290a3d961f832c960203392a46001805580f35b013590508480610903565b601f198216946003840185526020852091855b8781106109cd5750836001959697106109b3575b505050811b01600382015561091b565b0135600019600384901b60f8161c191690558480806109a3565b9092602060018192868601358155019401910161098f565b60038301845260208420601f830160051c810160208410610a22575b601f830160051c82018110610a175750506108eb565b858155600101610a01565b5080610a01565b634e487b7160e01b83526041600452602483fd5b0135905086806108af565b60028601875260208720879450915b601f1984168510610a9c576001945083601f19811610610a82575b505050811b0160028301556108c7565b0135600019600384901b60f8161c19169055868080610a72565b81810135835560209485019460019093019201610a57565b90915060028501865260208620601f840160051c810160208510610afd575b90849392915b601f830160051c82018110610aef57505061089a565b888155859450600101610ad9565b5080610ad3565b634e487b7160e01b85526041600452602485fd5b01359050888061085c565b60018801895260208920899450915b601f1984168510610b77576001945083601f19811610610b5d575b505050811b016001850155610874565b0135600019600384901b60f8161c19169055888080610b4d565b81810135835560209485019460019093019201610b32565b90915060018701885260208820601f840160051c810160208510610bd8575b90849392915b601f830160051c82018110610bca575050610847565b8a8155859450600101610bb4565b5080610bae565b634e487b7160e01b87526041600452602487fd5b6001600160401b038198929811610c0e576040529588610810565b634e487b7160e01b82526041600452602482fd5b6040513d8a823e3d90fd5b8b80fd5b8980fd5b634e487b7160e01b8a52604160045260248afd5b60048981015460405163a9059cbb60e01b81526001600160a01b03909316918301919091526024820152602081806044810103818d7f00000000000000000000000000000000000000000000000000000000000000006001600160a01b03165af1908115610d18578a91610ce9575b5015610cd757610cce6004890154600c5461215c565b600c558a6106e4565b6040516312171d8360e31b8152600490fd5b610d0b915060203d602011610d11575b610d038183611f4d565b810190612144565b8b610cb8565b503d610cf9565b6040513d8c823e3d90fd5b50600489015415156106df565b60405163299aa0a160e21b8152600490fd5b8680fd5b8480fd5b8280fd5b82346101da57806003193601126101da576040517f00000000000000000000000000000000000000000000000000000000000000006001600160a01b03168152602090f35b82346101da576101603660031901126101da57610dae612054565b5036610164116101da57610dc0612121565b338152600460205260ff604082205416610e175733808252600460205260408220805460ff191660011790557f54db7a5cb4735e1aac1f53db512d3390390bb6637bd30ad4bf9fc98667d9b9b98280a26001805580f35b604051630ea075bf60e21b8152600490fd5b82346101da5760203660031901126101da57610e43612054565b610e4b6120f5565b6001600160a01b0316808252600560205260408220805460ff191660011790557f97b051fe48e86c08fca96c9bbe846678783b6999358e6d4efbaf9e40ca59b6a78280a280f35b82346101da57806003193601126101da576020600254604051908152f35b82346101da57806003193601126101da576020600c54604051908152f35b82346101da57806003193601126101da576040516080908181018181106001600160401b0382111761112f57604052600390818152835b606080821015610f625760405160209291610f1f82611f31565b878252839080828401528060408401528083015287878301528760a08301528760c083015287898301528761010083015287610120830152828501015201610f05565b505091929081906002908154925b818110611062575050505060405192602080850191818652845180935260408601908260408560051b890101960194975b848910610fae5787870388f35b9091929394958480600192603f198b8203018752895190848060a01b038251168152611012610fff610fed858501516101408088870152850190612014565b60408501518482036040860152612014565b6060808501519084830390850152612014565b91878101518883015260a08082015115159083015260c080820151151590830152868101518783015261010080820151908301526101208091015191015298019401980197919094939294610fa1565b611127908486989652600760209080825260408a20838b52825260408a206040519261108d84611f31565b81546001600160a01b031684526110a660018301611f6e565b908401526110b5878201611f6e565b60408401526110c5868201611f6e565b606084015260048101548984015260058101549160ff808416151560a0860152600893841c16151560c085015260068201548d85015281015461010084015201546101208201526111168289612378565b526111218188612378565b5061218c565b959395610f70565b634e487b7160e01b84526041600452602484fd5b82346101da5760203660031901126101da5760209060ff906040906001600160a01b0361116e612054565b168152600484522054166040519015158152f35b82346101da5761119136611edc565b9061119a612121565b600382101561059e578083526007602052604083208284526020526040832060018060a01b038082541633036112d157600582019182549060ff821661058c57869361010060049361ff001916179055019081549081611225575b50505050337f2ddf52ad696f7475d5e714ce5c8c1c4e9b93814e40d3f4c5ab845cb2bc0579ac8480a46001805580f35b60209261123761126593600c5461215c565b600c555460405163a9059cbb60e01b8152336004820152602481019190915293849283919082906044820190565b03927f0000000000000000000000000000000000000000000000000000000000000000165af19081156112c65784916112a8575b5015610cd757828480806111f5565b6112c0915060203d8111610d1157610d038183611f4d565b84611299565b6040513d86823e3d90fd5b604051632211114160e11b8152600490fd5b82346101da57806003193601126101da57546040516001600160a01b039091168152602090f35b82346101da5761131936611edc565b90611322612121565b33835260206004815260ff604085205416156105c257600383101561059e57818452600781526040842083855281526040842090600582015460ff8116156115645760081c60ff1661057a578285526008815260408520848652815260408520338652815260ff60408620541615611552578285526009815260408520848652815260408520338652815260ff60408620541661154057600882015462127500810180911161152c57421161151a57600682015480156115085760048301546101f48082029082820414821517156114f4579161140961140e92612710600795049061215c565b61219b565b928487526009835260408720868852835260408720338852835260408720600160ff198254161790550161144383825461217f565b905560405163a9059cbb60e01b8152336004820152602481018390528181604481896001600160a01b037f0000000000000000000000000000000000000000000000000000000000000000165af19081156104f05786916114d7575b5015610cd7577f812be816db82c66cd18ca8457005cd84689642d8ac4d38599cc6af444a2dc72a906040519283523392a46001805580f35b6114ee9150823d8411610d1157610d038183611f4d565b8661149f565b634e487b7160e01b88526011600452602488fd5b60405163162908e360e11b8152600490fd5b60405163320c7b7d60e21b8152600490fd5b634e487b7160e01b86526011600452602486fd5b604051630c8d9eab60e31b8152600490fd5b6040516301327deb60e01b8152600490fd5b604051630df706ad60e11b8152600490fd5b82346101da57806003193601126101da576040517f00000000000000000000000000000000000000000000000000000000000000006001600160a01b03168152602090f35b82346101da5760203660031901126101da576115d5612054565b6115dd6120f5565b6001600160a01b0316808252600560205260408220805460ff191690557f2a2f5e02b0e6aab2b998dbcae41aec9407649a38bd8d41b7b49bedee8cdeaf2e8280a280f35b82346101da57806003193601126101da5761163a612121565b6116426121bb565b6001805580f35b82346101da57806003193601126101da576116626120f5565b80546001600160a01b03198116825581906001600160a01b03167f8be0079c531659141344cd1fd0a4f28419497f9722a3daafe3b4186f6b6457e08280a380f35b82346101da57806003193601126101da576020600354604051908152f35b82346101da5760ff60406020926116d73661206a565b9183526009865283832090835285528282206001600160a01b03909116825284522054604051911615158152f35b82346101da57602090816003193601126101da57611721612054565b9060025491600392838102938185048114821517156119a2576117468593929361246c565b926117596117538761246c565b9661246c565b85939092906001600160a01b0316845b8381111561182b575050505061177e8261246c565b946117888361246c565b936117928461246c565b955b8481106117db576117bc886117d7896117c98d8b604051968796606088526060880190612094565b9186830390870152612094565b908382036040850152612094565b0390f35b806117e96118269284612378565b516117f4828b612378565b526117ff8185612378565b5161180a8289612378565b526118158186612378565b51611820828a612378565b5261218c565b611794565b875b838110611843575061183e9061218c565b611769565b81895260078b5260408920818a528b5260408920828a528b600880825260408c20848d52825260408c20868d52825260ff8c816040822054169384611976575b505082611968575b5081611939575b508061192c575b6118ad575b506118a89061218c565b61182d565b60048198929801546101f48082029082820414821517156119185789611906858f888f95836118fa6119119a60066118f16118a89e9c61271061190097049061215c565b9101549061219b565b97612378565b52612378565b52611820828a612378565b969061189e565b634e487b7160e01b8c52601160045260248cfd5b5060068101541515611899565b9050810154621275008101809111611954574211158d611892565b634e487b7160e01b8b52601160045260248bfd5b60058401541691508e61188b565b909193508682526009815260408220868352815287604083209252528160408d20541615918c8f611883565b634e487b7160e01b84526011600452602484fd5b82346101da5760203660031901126101da5760209060ff906040906001600160a01b036119e1612054565b168152600684522054166040519015158152f35b82346101da57806003193601126101da576020600b54604051908152f35b82346101da57806003193601126101da5760206040516101f48152f35b82346101da5760203660031901126101da57611a4a612054565b611a526120f5565b6001600160a01b03168152600660205260408120805460ff1916600117905580f35b82346101da5760ff6040602092611a8a3661206a565b9183526008865283832090835285528282206001600160a01b03909116825284522054604051911615158152f35b82346101da57806003193601126101da57611ad16120f5565b611ad9612121565b600b54801561150857600b829055815460405163a9059cbb60e01b81526001600160a01b03918216600482015260248101839052602081604481877f000000000000000000000000000000000000000000000000000000000000000087165af19081156112c6578491611b83575b5015610cd75760207fc0819c13be868895eb93e40eaceb96de976442fa1d404e5c55f14bb65a8c489a9184541692604051908152a26001805580f35b611b9b915060203d8111610d1157610d038183611f4d565b84611b47565b82346101da57806003193601126101da576020604051621275008152f35b82346101da57806003193601126101da57602060405160038152f35b82346101da576020611bf5611bef3661206a565b916123a2565b604051908152f35b82346101da57806003193601126101da576040517f00000000000000000000000000000000000000000000000000000000000000006001600160a01b03168152602090f35b82346101da5760203660031901126101da5760209060ff906040906001600160a01b03611c6d612054565b168152600584522054166040519015158152f35b82346101da57611c9036611edc565b90611c99612121565b600382101561059e57808352602060078152604084208385528152604084209060ff6005830154161561156457600882015462127500810180911161152c57421115611de95760048201546101f4808202908282041482151715611dd557600791612710611d0892049061215c565b920191611d1683548261215c565b9283156115085755845460405163a9059cbb60e01b81526001600160a01b03918216600482015260248101849052908290829060449082908a907f0000000000000000000000000000000000000000000000000000000000000000165af19081156104f0578691611db8575b5015610cd7577fcf3b62092c7f2a3455c516c177bd1970412d1c381c960d3986e3296f9dff0e7b91604051908152a36001805580f35b611dcf9150823d8411610d1157610d038183611f4d565b86611d82565b634e487b7160e01b87526011600452602487fd5b60405163162618a960e01b8152600490fd5b82346101da57604090611e0d36611edc565b9082526007602052828220908252602052209060018060a01b0382541690611e3760018401611f6e565b92611e4460028201611f6e565b90611e5160038201611f6e565b60048201549360ff6005840154611eae600686015494611ea06008600789015498015498611e926040519d8e9d8e528d610140908160208201520190612014565b8c810360408e015290612014565b908a820360608c0152612014565b966080890152818116151560a089015260081c16151560c08701528501526101008401526101208301520390f35b6040906003190112611ef2576004359060243590565b600080fd5b90600182811c92168015611f27575b6020831014611f1157565b634e487b7160e01b600052602260045260246000fd5b91607f1691611f06565b61014081019081106001600160401b0382111761055257604052565b90601f801991011681019081106001600160401b0382111761055257604052565b9060405191826000825492611f8284611ef7565b908184526001948581169081600014611ff15750600114611fae575b5050611fac92500383611f4d565b565b9093915060005260209081600020936000915b818310611fd9575050611fac93508201013880611f9e565b85548884018501529485019487945091830191611fc1565b915050611fac94506020925060ff191682840152151560051b8201013880611f9e565b919082519283825260005b848110612040575050826000602080949584010152601f8019910116010190565b60208183018101518483018201520161201f565b600435906001600160a01b0382168203611ef257565b6060906003190112611ef25760043590602435906044356001600160a01b0381168103611ef25790565b90815180825260208080930193019160005b8281106120b4575050505090565b8351855293810193928101926001016120a6565b9181601f84011215611ef2578235916001600160401b038311611ef25760208381860195010111611ef257565b6000546001600160a01b0316330361210957565b60405163118cdaa760e01b8152336004820152602490fd5b600260015414612132576002600155565b604051633ee5aeb560e01b8152600490fd5b90816020910312611ef257518015158103611ef25790565b9190820391821161216957565b634e487b7160e01b600052601160045260246000fd5b9190820180921161216957565b60001981146121695760010190565b81156121a5570490565b634e487b7160e01b600052601260045260246000fd5b6002541561224257600254600019810190811161216957600380548211612213575b506121e960025461218c565b6002557f6fbfbccdd0d107860c9bccfa723d97eba4f37886edeb01e7a438b1e0fe44e056600080a2565b819060005b818110612227575055386121dd565b6122358161223a939461226f565b61218c565b908291612218565b600160025560007f6fbfbccdd0d107860c9bccfa723d97eba4f37886edeb01e7a438b1e0fe44e0568180a2565b6000818152600760205260408120838252602052604081209060018060a01b038254161561234e576005820190815460ff8160081c1661233e57506004830154906101f49081830291838304148315171561232a57509260209261230b6006936123006127107f67a59239176edc6000958291e1c679afd7b3e13a274c758a1fb33d8587d5e7089804600b5461217f565b600b55600c5461215c565b600c55805460ff191660011790554260088201550154604051908152a3565b634e487b7160e01b81526011600452602490fd5b60ff191660011790915550505050565b50600501805460ff191660011790555050565b6001600160401b0381116105525760051b60200190565b805182101561238c5760209160051b010190565b634e487b7160e01b600052603260045260246000fd5b91600090838252602090600782526040918284208585528152828420948685526008825283852081865282528385209260018060a01b031692838652825260ff8486205416156124625784959660ff9552600982528386209086528152828520918552528220541661245d5760ff6005830154161561245d5760068201549182156124575760040154906101f49081830291838304148315171561232a5750612454929161271061140992049061215c565b90565b50905090565b905090565b5050505091505090565b9061247682612361565b6124836040519182611f4d565b8281528092612494601f1991612361565b019060203691013756fea264697066735822122061725d17895d28330fdaf6e277f6cb5b9308273ac0af0e21ab904a287c6efd9064736f6c63430008140033","opcodes":"PUSH2 0x120 PUSH1 0x40 DUP2 DUP2 MSTORE CALLVALUE PUSH3 0x205 JUMPI PUSH3 0x27E5 DUP1 CODESIZE SUB DUP1 SWAP2 PUSH3 0x22 DUP3 DUP7 PUSH3 0x20A JUMP JUMPDEST DUP5 CODECOPY DUP3 ADD PUSH1 0xA0 DUP4 DUP3 SUB SLT PUSH3 0x205 JUMPI PUSH3 0x3C DUP4 PUSH3 0x244 JUMP JUMPDEST SWAP3 PUSH1 0x20 SWAP1 PUSH3 0x4D DUP3 DUP3 ADD PUSH3 0x244 JUMP JUMPDEST PUSH3 0x5A DUP6 DUP4 ADD PUSH3 0x244 JUMP JUMPDEST PUSH1 0x60 DUP4 ADD MLOAD PUSH1 0x1 PUSH1 0x1 PUSH1 0x40 SHL SUB SWAP6 SWAP2 SWAP4 SWAP2 SWAP1 DUP7 DUP2 GT PUSH3 0x205 JUMPI DUP2 PUSH3 0x82 SWAP2 DUP5 ADD PUSH3 0x27E JUMP JUMPDEST SWAP6 PUSH1 0x80 DUP4 ADD MLOAD SWAP1 DUP2 GT PUSH3 0x205 JUMPI PUSH3 0x9C SWAP3 ADD PUSH3 0x27E JUMP JUMPDEST SWAP4 CALLER ISZERO PUSH3 0x1ED JUMPI PUSH1 0x0 DUP1 SLOAD CALLER PUSH1 0x1 PUSH1 0x1 PUSH1 0xA0 SHL SUB NOT DUP3 AND DUP2 OR DUP4 SSTORE DUP9 MLOAD DUP10 SWAP8 SWAP7 SWAP1 SWAP6 DUP8 SWAP6 DUP8 SWAP6 SWAP1 SWAP5 PUSH1 0x1 PUSH1 0x1 PUSH1 0xA0 SHL SUB SWAP5 DUP6 SWAP4 SWAP3 SWAP1 SWAP2 DUP5 AND SWAP1 PUSH32 0x8BE0079C531659141344CD1FD0A4F28419497F9722A3DAAFE3B4186F6B6457E0 SWAP1 DUP1 LOG3 PUSH1 0x1 DUP1 SSTORE DUP2 PUSH2 0x100 SWAP14 PUSH1 0x1 DUP16 MSTORE AND PUSH1 0x80 MSTORE AND PUSH1 0xA0 MSTORE AND PUSH1 0xC0 MSTORE DUP1 MLOAD SWAP1 DUP2 DUP5 DUP1 DUP6 ADD SWAP3 ADD SWAP2 PUSH3 0x129 SWAP3 PUSH3 0x259 JUMP JUMPDEST DUP2 ADD SUB DUP1 DUP4 MSTORE ADD PUSH3 0x13C SWAP1 DUP3 PUSH3 0x20A JUMP JUMPDEST PUSH3 0x147 SWAP1 PUSH3 0x2D9 JUMP JUMPDEST DUP3 MLOAD SWAP4 DUP5 SWAP2 DUP4 DUP4 ADD MSTORE DUP1 MLOAD SWAP1 DUP2 DUP5 DUP7 DUP6 ADD SWAP3 ADD SWAP2 PUSH3 0x166 SWAP3 PUSH3 0x259 JUMP JUMPDEST DUP2 ADD SUB SWAP1 DUP2 ADD DUP4 MSTORE ADD PUSH3 0x17B SWAP1 DUP3 PUSH3 0x20A JUMP JUMPDEST PUSH3 0x186 SWAP1 PUSH3 0x2D9 JUMP JUMPDEST PUSH1 0xE0 MSTORE MLOAD PUSH2 0x24D4 SWAP2 DUP3 PUSH3 0x311 DUP4 CODECOPY PUSH1 0x80 MLOAD DUP3 DUP2 DUP2 PUSH2 0xC80 ADD MSTORE DUP2 DUP2 PUSH2 0xD64 ADD MSTORE DUP2 DUP2 PUSH2 0x1269 ADD MSTORE DUP2 DUP2 PUSH2 0x146F ADD MSTORE DUP2 DUP2 PUSH2 0x1B16 ADD MSTORE PUSH2 0x1D52 ADD MSTORE PUSH1 0xA0 MLOAD DUP3 DUP2 DUP2 PUSH2 0x715 ADD MSTORE DUP2 DUP2 PUSH2 0x7DB ADD MSTORE PUSH2 0x1C13 ADD MSTORE PUSH1 0xC0 MLOAD DUP3 PUSH2 0x158C ADD MSTORE PUSH1 0xE0 MLOAD DUP3 POP POP MLOAD DUP2 POP POP RETURN JUMPDEST DUP6 MLOAD PUSH4 0x1E4FBDF7 PUSH1 0xE0 SHL DUP2 MSTORE PUSH1 0x0 PUSH1 0x4 DUP3 ADD MSTORE PUSH1 0x24 SWAP1 REVERT JUMPDEST PUSH1 0x0 DUP1 REVERT JUMPDEST PUSH1 0x1F SWAP1 SWAP2 ADD PUSH1 0x1F NOT AND DUP2 ADD SWAP1 PUSH1 0x1 PUSH1 0x1 PUSH1 0x40 SHL SUB DUP3 GT SWAP1 DUP3 LT OR PUSH3 0x22E JUMPI PUSH1 0x40 MSTORE JUMP JUMPDEST PUSH4 0x4E487B71 PUSH1 0xE0 SHL PUSH1 0x0 MSTORE PUSH1 0x41 PUSH1 0x4 MSTORE PUSH1 0x24 PUSH1 0x0 REVERT JUMPDEST MLOAD SWAP1 PUSH1 0x1 PUSH1 0x1 PUSH1 0xA0 SHL SUB DUP3 AND DUP3 SUB PUSH3 0x205 JUMPI JUMP JUMPDEST PUSH1 0x0 JUMPDEST DUP4 DUP2 LT PUSH3 0x26D JUMPI POP POP PUSH1 0x0 SWAP2 ADD MSTORE JUMP JUMPDEST DUP2 DUP2 ADD MLOAD DUP4 DUP3 ADD MSTORE PUSH1 0x20 ADD PUSH3 0x25C JUMP JUMPDEST DUP2 PUSH1 0x1F DUP3 ADD SLT ISZERO PUSH3 0x205 JUMPI DUP1 MLOAD PUSH1 0x1 PUSH1 0x1 PUSH1 0x40 SHL SUB DUP2 GT PUSH3 0x22E JUMPI PUSH1 0x40 MLOAD SWAP3 PUSH3 0x2B5 PUSH1 0x1F DUP4 ADD PUSH1 0x1F NOT AND PUSH1 0x20 ADD DUP6 PUSH3 0x20A JUMP JUMPDEST DUP2 DUP5 MSTORE PUSH1 0x20 DUP3 DUP5 ADD ADD GT PUSH3 0x205 JUMPI PUSH3 0x2D6 SWAP2 PUSH1 0x20 DUP1 DUP6 ADD SWAP2 ADD PUSH3 0x259 JUMP JUMPDEST SWAP1 JUMP JUMPDEST PUSH1 0x40 MLOAD PUSH3 0x307 PUSH1 0x20 DUP3 DUP2 PUSH3 0x2F9 DUP2 DUP4 ADD SWAP7 DUP8 DUP2 MLOAD SWAP4 DUP5 SWAP3 ADD PUSH3 0x259 JUMP JUMPDEST DUP2 ADD SUB DUP1 DUP5 MSTORE ADD DUP3 PUSH3 0x20A JUMP JUMPDEST MLOAD SWAP1 KECCAK256 PUSH1 0x8 SHR SWAP1 JUMP INVALID PUSH1 0x80 PUSH1 0x40 MSTORE PUSH1 0x4 CALLDATASIZE LT ISZERO PUSH2 0x12 JUMPI PUSH1 0x0 DUP1 REVERT JUMPDEST PUSH1 0x0 PUSH1 0xE0 DUP2 CALLDATALOAD DUP2 SHR SWAP1 DUP2 PUSH4 0x35169A4 EQ PUSH2 0x1DFB JUMPI DUP2 PUSH4 0x1012BE0D EQ PUSH2 0x1C81 JUMPI DUP2 PUSH4 0x11637F22 EQ PUSH2 0x1C42 JUMPI DUP2 PUSH4 0x12261EE7 EQ PUSH2 0x1BFD JUMPI DUP2 PUSH4 0x1F50FEC9 EQ PUSH2 0x1BDB JUMPI DUP2 PUSH4 0x39ACA329 EQ PUSH2 0x1BBF JUMPI DUP2 PUSH4 0x42F81580 EQ PUSH2 0x1BA1 JUMPI DUP2 PUSH4 0x476343EE EQ PUSH2 0x1AB8 JUMPI DUP2 PUSH4 0x4D63A475 EQ PUSH2 0x1A74 JUMPI DUP2 PUSH4 0x5240EB32 EQ PUSH2 0x1A30 JUMPI DUP2 PUSH4 0x539AA77F EQ PUSH2 0x1A13 JUMPI DUP2 PUSH4 0x587F5ED7 EQ PUSH2 0x19F5 JUMPI DUP2 PUSH4 0x5D2B6A4E EQ PUSH2 0x19B6 JUMPI DUP2 PUSH4 0x646E200B EQ PUSH2 0x1705 JUMPI DUP2 PUSH4 0x69547F2D EQ PUSH2 0x16C1 JUMPI DUP2 PUSH4 0x6ECDF606 EQ PUSH2 0x16A3 JUMPI DUP2 PUSH4 0x715018A6 EQ PUSH2 0x1649 JUMPI DUP2 PUSH4 0x71B3FB9A EQ PUSH2 0x1621 JUMPI DUP2 PUSH4 0x74331428 EQ PUSH2 0x15BB JUMPI DUP2 PUSH4 0x753E9EF0 EQ PUSH2 0x1576 JUMPI DUP2 PUSH4 0x86BB8F37 EQ PUSH2 0x130A JUMPI DUP2 PUSH4 0x8DA5CB5B EQ PUSH2 0x12E3 JUMPI DUP2 PUSH4 0x97090DC8 EQ PUSH2 0x1182 JUMPI DUP2 PUSH4 0xB2DD5C07 EQ PUSH2 0x1143 JUMPI DUP2 PUSH4 0xB7C32BF0 EQ PUSH2 0xECE JUMPI DUP2 PUSH4 0xB8AFAA48 EQ PUSH2 0xEB0 JUMPI DUP2 PUSH4 0xBAB2F552 EQ PUSH2 0xE92 JUMPI DUP2 PUSH4 0xBE26ED7F EQ PUSH2 0xE92 JUMPI DUP2 PUSH4 0xC0AE6146 EQ PUSH2 0xE29 JUMPI DUP2 PUSH4 0xCC6CD25E EQ PUSH2 0xD93 JUMPI DUP2 PUSH4 0xDE061D66 EQ PUSH2 0xD4E JUMPI DUP2 PUSH4 0xE26F58BE EQ PUSH2 0x5DC JUMPI DUP2 PUSH4 0xE7C21A3E EQ PUSH2 0x2AE JUMPI POP DUP1 PUSH4 0xF2FDE38B EQ PUSH2 0x21E JUMPI DUP1 PUSH4 0xF62A4EDB EQ PUSH2 0x1DD JUMPI PUSH4 0xF978FD61 EQ PUSH2 0x1AC JUMPI PUSH1 0x0 DUP1 REVERT JUMPDEST CALLVALUE PUSH2 0x1DA JUMPI PUSH1 0x20 CALLDATASIZE PUSH1 0x3 NOT ADD SLT PUSH2 0x1DA JUMPI PUSH1 0xFF PUSH1 0x40 PUSH1 0x20 SWAP3 PUSH1 0x4 CALLDATALOAD DUP2 MSTORE PUSH1 0xA DUP5 MSTORE KECCAK256 SLOAD AND PUSH1 0x40 MLOAD SWAP1 ISZERO ISZERO DUP2 MSTORE RETURN JUMPDEST DUP1 REVERT JUMPDEST POP CALLVALUE PUSH2 0x1DA JUMPI PUSH1 0x20 CALLDATASIZE PUSH1 0x3 NOT ADD SLT PUSH2 0x1DA JUMPI PUSH2 0x1F7 PUSH2 0x2054 JUMP JUMPDEST PUSH2 0x1FF PUSH2 0x20F5 JUMP JUMPDEST PUSH1 0x1 PUSH1 0x1 PUSH1 0xA0 SHL SUB AND DUP2 MSTORE PUSH1 0x6 PUSH1 0x20 MSTORE PUSH1 0x40 DUP2 KECCAK256 DUP1 SLOAD PUSH1 0xFF NOT AND SWAP1 SSTORE DUP1 RETURN JUMPDEST POP CALLVALUE PUSH2 0x1DA JUMPI PUSH1 0x20 CALLDATASIZE PUSH1 0x3 NOT ADD SLT PUSH2 0x1DA JUMPI PUSH2 0x238 PUSH2 0x2054 JUMP JUMPDEST PUSH2 0x240 PUSH2 0x20F5 JUMP JUMPDEST PUSH1 0x1 PUSH1 0x1 PUSH1 0xA0 SHL SUB SWAP1 DUP2 AND SWAP1 DUP2 ISZERO PUSH2 0x295 JUMPI PUSH1 0x0 SLOAD DUP3 PUSH12 0xFFFFFFFFFFFFFFFFFFFFFFFF PUSH1 0xA0 SHL DUP3 AND OR PUSH1 0x0 SSTORE AND PUSH32 0x8BE0079C531659141344CD1FD0A4F28419497F9722A3DAAFE3B4186F6B6457E0 PUSH1 0x0 DUP1 LOG3 DUP1 RETURN JUMPDEST PUSH1 0x40 MLOAD PUSH4 0x1E4FBDF7 PUSH1 0xE0 SHL DUP2 MSTORE PUSH1 0x4 DUP2 ADD DUP5 SWAP1 MSTORE PUSH1 0x24 SWAP1 REVERT JUMPDEST SWAP1 POP CALLVALUE PUSH2 0x5D8 JUMPI PUSH1 0xA0 CALLDATASIZE PUSH1 0x3 NOT ADD SLT PUSH2 0x5D8 JUMPI PUSH1 0x4 CALLDATALOAD PUSH1 0x24 CALLDATALOAD SWAP2 PUSH1 0x84 CALLDATALOAD PUSH1 0x1 PUSH1 0x1 PUSH1 0x40 SHL SUB SWAP1 DUP2 DUP2 GT PUSH2 0x5D4 JUMPI PUSH2 0x2E9 SWAP1 CALLDATASIZE SWAP1 PUSH1 0x4 ADD PUSH2 0x20C8 JUMP JUMPDEST SWAP3 PUSH2 0x2F2 PUSH2 0x2121 JUMP JUMPDEST CALLER DUP8 MSTORE PUSH1 0x20 SWAP2 PUSH1 0x4 DUP4 MSTORE PUSH1 0xFF SWAP2 DUP3 PUSH1 0x40 DUP11 KECCAK256 SLOAD AND ISZERO PUSH2 0x5C2 JUMPI PUSH1 0x2 SLOAD DUP8 LT ISZERO PUSH2 0x5B0 JUMPI PUSH1 0x3 DUP9 LT ISZERO PUSH2 0x59E JUMPI DUP7 DUP10 MSTORE PUSH1 0x7 DUP5 MSTORE PUSH1 0x40 DUP10 KECCAK256 DUP9 DUP11 MSTORE DUP5 MSTORE PUSH1 0x40 DUP10 KECCAK256 SWAP5 PUSH1 0x5 DUP7 ADD SLOAD DUP5 DUP2 AND PUSH2 0x58C JUMPI PUSH1 0x8 SHR DUP5 AND PUSH2 0x57A JUMPI DUP8 DUP11 MSTORE PUSH1 0x8 DUP6 MSTORE PUSH1 0x40 DUP11 KECCAK256 DUP10 DUP12 MSTORE DUP6 MSTORE PUSH1 0x40 DUP11 KECCAK256 CALLER PUSH1 0x0 MSTORE DUP6 MSTORE DUP4 PUSH1 0x40 PUSH1 0x0 KECCAK256 SLOAD AND PUSH2 0x568 JUMPI PUSH1 0x40 MLOAD SWAP1 DUP6 DUP3 ADD CALLER PUSH1 0x60 SHL DUP2 MSTORE DUP10 PUSH1 0x34 DUP5 ADD MSTORE DUP11 PUSH1 0x54 DUP5 ADD MSTORE PUSH1 0x44 CALLDATALOAD PUSH1 0x74 DUP5 ADD MSTORE PUSH1 0x64 CALLDATALOAD PUSH1 0x94 DUP5 ADD MSTORE PUSH1 0x94 DUP4 MSTORE PUSH1 0xC0 DUP4 ADD SWAP3 DUP1 DUP5 LT DUP4 DUP6 GT OR PUSH2 0x552 JUMPI PUSH2 0x120 SWAP2 DUP5 PUSH1 0x40 MSTORE DUP2 MLOAD SWAP1 KECCAK256 SWAP5 DUP2 ADD SWAP5 PUSH32 0x19457468657265756D205369676E6564204D6573736167653A0A333200000000 DUP7 MSTORE PUSH1 0xFC DUP3 ADD MSTORE PUSH1 0x3C DUP5 MSTORE ADD SWAP1 DUP3 DUP3 LT SWAP1 DUP3 GT OR PUSH2 0x552 JUMPI PUSH1 0x40 MSTORE MLOAD SWAP1 KECCAK256 SWAP5 DUP6 DUP10 MSTORE PUSH1 0xA DUP5 MSTORE DUP3 PUSH1 0x40 DUP11 KECCAK256 SLOAD AND PUSH2 0x540 JUMPI PUSH1 0x41 SUB PUSH2 0x4FB JUMPI DUP8 PUSH1 0x80 DUP5 SWAP3 DUP4 PUSH1 0x40 MLOAD SWAP2 DUP10 DUP4 MSTORE PUSH1 0x40 DUP2 ADD CALLDATALOAD DUP6 BYTE DUP3 DUP5 ADD MSTORE DUP1 CALLDATALOAD PUSH1 0x40 DUP5 ADD MSTORE ADD CALLDATALOAD PUSH1 0x60 DUP3 ADD MSTORE DUP3 DUP1 MSTORE PUSH1 0x1 GAS STATICCALL ISZERO PUSH2 0x4F0 JUMPI DUP7 MLOAD PUSH1 0x1 PUSH1 0x1 PUSH1 0xA0 SHL SUB AND DUP8 MSTORE PUSH1 0x6 DUP3 MSTORE PUSH1 0x40 DUP8 KECCAK256 SLOAD AND ISZERO PUSH2 0x4DE JUMPI PUSH1 0x6 SWAP3 DUP7 MSTORE PUSH1 0xA DUP2 MSTORE PUSH1 0x40 DUP7 KECCAK256 SWAP1 PUSH1 0xFF NOT SWAP2 PUSH1 0x1 DUP4 DUP3 SLOAD AND OR SWAP1 SSTORE DUP5 DUP8 MSTORE PUSH1 0x8 DUP2 MSTORE PUSH1 0x40 DUP8 KECCAK256 DUP7 DUP9 MSTORE DUP2 MSTORE PUSH1 0x40 DUP8 KECCAK256 SWAP1 CALLER PUSH1 0x0 MSTORE MSTORE PUSH1 0x1 PUSH1 0x40 PUSH1 0x0 KECCAK256 SWAP2 DUP3 SLOAD AND OR SWAP1 SSTORE ADD PUSH2 0x4B0 DUP2 SLOAD PUSH2 0x218C JUMP JUMPDEST SWAP1 SSTORE CALLER PUSH32 0xDF68871EFF37C21A2D5F5F4714DEFB013C53C6AA48EBE6EFF29CA11E06519127 DUP5 DUP1 LOG4 PUSH1 0x1 DUP1 SSTORE DUP1 RETURN JUMPDEST PUSH1 0x40 MLOAD PUSH4 0xEA8E4EB5 PUSH1 0xE0 SHL DUP2 MSTORE PUSH1 0x4 SWAP1 REVERT JUMPDEST PUSH1 0x40 MLOAD RETURNDATASIZE DUP9 DUP3 RETURNDATACOPY RETURNDATASIZE SWAP1 REVERT JUMPDEST PUSH1 0x40 MLOAD PUSH3 0x461BCD PUSH1 0xE5 SHL DUP2 MSTORE PUSH1 0x4 DUP2 ADD DUP5 SWAP1 MSTORE PUSH1 0x18 PUSH1 0x24 DUP3 ADD MSTORE PUSH32 0x496E76616C6964207369676E6174757265206C656E6774680000000000000000 PUSH1 0x44 DUP3 ADD MSTORE PUSH1 0x64 SWAP1 REVERT JUMPDEST PUSH1 0x40 MLOAD PUSH4 0x900BB2C9 PUSH1 0xE0 SHL DUP2 MSTORE PUSH1 0x4 SWAP1 REVERT JUMPDEST PUSH4 0x4E487B71 PUSH1 0xE0 SHL PUSH1 0x0 MSTORE PUSH1 0x41 PUSH1 0x4 MSTORE PUSH1 0x24 PUSH1 0x0 REVERT JUMPDEST PUSH1 0x40 MLOAD PUSH4 0xE02CD2CB PUSH1 0xE0 SHL DUP2 MSTORE PUSH1 0x4 SWAP1 REVERT JUMPDEST PUSH1 0x40 MLOAD PUSH4 0x1BB428A9 PUSH1 0xE2 SHL DUP2 MSTORE PUSH1 0x4 SWAP1 REVERT JUMPDEST PUSH1 0x40 MLOAD PUSH4 0x475A2535 PUSH1 0xE0 SHL DUP2 MSTORE PUSH1 0x4 SWAP1 REVERT JUMPDEST PUSH1 0x40 MLOAD PUSH4 0x1258E443 PUSH1 0xE0 SHL DUP2 MSTORE PUSH1 0x4 SWAP1 REVERT JUMPDEST PUSH1 0x40 MLOAD PUSH4 0x4DC7F5FF PUSH1 0xE1 SHL DUP2 MSTORE PUSH1 0x4 SWAP1 REVERT JUMPDEST PUSH1 0x40 MLOAD PUSH4 0xABA47339 PUSH1 0xE0 SHL DUP2 MSTORE PUSH1 0x4 SWAP1 REVERT JUMPDEST DUP6 DUP1 REVERT JUMPDEST POP DUP1 REVERT JUMPDEST DUP3 CALLVALUE PUSH2 0x1DA JUMPI PUSH2 0x160 CALLDATASIZE PUSH1 0x3 NOT ADD SLT PUSH2 0x1DA JUMPI PUSH1 0x44 CALLDATALOAD PUSH1 0x1 PUSH1 0x1 PUSH1 0x40 SHL SUB DUP2 GT PUSH2 0x5D8 JUMPI PUSH2 0x60E SWAP1 CALLDATASIZE SWAP1 PUSH1 0x4 ADD PUSH2 0x20C8 JUMP JUMPDEST SWAP2 SWAP1 PUSH1 0x64 CALLDATALOAD PUSH1 0x1 PUSH1 0x1 PUSH1 0x40 SHL SUB DUP2 GT PUSH2 0xD4A JUMPI PUSH2 0x62F SWAP1 CALLDATASIZE SWAP1 PUSH1 0x4 ADD PUSH2 0x20C8 JUMP JUMPDEST PUSH1 0x84 CALLDATALOAD PUSH1 0x1 PUSH1 0x1 PUSH1 0x40 SHL SUB DUP2 GT PUSH2 0xD46 JUMPI PUSH2 0x64E SWAP1 CALLDATASIZE SWAP1 PUSH1 0x4 ADD PUSH2 0x20C8 JUMP JUMPDEST SWAP3 SWAP1 SWAP6 PUSH1 0x80 PUSH1 0xC3 NOT CALLDATASIZE ADD SLT PUSH2 0x5D4 JUMPI PUSH2 0x144 CALLDATALOAD PUSH1 0x1 PUSH1 0x1 PUSH1 0x40 SHL SUB DUP2 GT PUSH2 0xD42 JUMPI PUSH2 0x67D SWAP1 CALLDATASIZE SWAP1 PUSH1 0x4 ADD PUSH2 0x20C8 JUMP JUMPDEST SWAP6 SWAP1 PUSH2 0x687 PUSH2 0x2121 JUMP JUMPDEST CALLER DUP9 MSTORE PUSH1 0x5 PUSH1 0x20 MSTORE PUSH1 0xFF PUSH1 0x40 DUP10 KECCAK256 SLOAD AND PUSH2 0xD30 JUMPI PUSH1 0x2 SLOAD PUSH1 0x4 CALLDATALOAD SUB PUSH2 0x5B0 JUMPI PUSH1 0x3 PUSH1 0x24 CALLDATALOAD LT ISZERO PUSH2 0x59E JUMPI PUSH1 0x4 CALLDATALOAD DUP9 MSTORE PUSH1 0x7 PUSH1 0x20 MSTORE PUSH1 0x40 DUP9 KECCAK256 PUSH1 0x24 CALLDATALOAD DUP10 MSTORE PUSH1 0x20 MSTORE PUSH1 0x40 DUP9 KECCAK256 SWAP7 PUSH1 0x1 DUP1 PUSH1 0xA0 SHL SUB DUP9 SLOAD AND DUP1 ISZERO ISZERO DUP1 PUSH2 0xD23 JUMPI JUMPDEST PUSH2 0xC49 JUMPI JUMPDEST POP PUSH1 0x40 MLOAD SWAP2 DUP3 PUSH1 0x40 DUP2 ADD LT PUSH1 0x1 PUSH1 0x1 PUSH1 0x40 SHL SUB PUSH1 0x40 DUP6 ADD GT OR PUSH2 0xC35 JUMPI PUSH1 0x40 DUP4 DUP2 ADD SWAP1 MSTORE ADDRESS DUP4 MSTORE PUSH1 0xA4 CALLDATALOAD PUSH1 0x20 DUP5 ADD MSTORE PUSH32 0x0 PUSH1 0x1 PUSH1 0x1 PUSH1 0xA0 SHL SUB AND EXTCODESIZE ISZERO PUSH2 0xC31 JUMPI PUSH1 0x40 MLOAD PUSH4 0x187945BD PUSH1 0xE1 SHL DUP2 MSTORE SWAP3 PUSH1 0xC4 CALLDATALOAD PUSH1 0x1 PUSH1 0x1 PUSH1 0xA0 SHL SUB DUP2 AND DUP2 SUB PUSH2 0xC2D JUMPI DUP4 DUP1 DUP7 SWAP5 DUP15 SWAP7 PUSH2 0x124 SWAP6 DUP8 SWAP6 PUSH1 0x1 DUP1 PUSH1 0xA0 SHL SUB AND PUSH1 0x4 DUP8 ADD MSTORE PUSH1 0xE4 CALLDATALOAD PUSH1 0x24 DUP8 ADD MSTORE PUSH1 0x20 PUSH2 0x104 SWAP2 DUP3 CALLDATALOAD PUSH1 0x44 DUP10 ADD MSTORE DUP9 CALLDATALOAD PUSH1 0x64 DUP10 ADD MSTORE PUSH1 0x1 DUP1 PUSH1 0xA0 SHL SUB DUP2 MLOAD AND PUSH1 0x84 DUP10 ADD MSTORE ADD MLOAD PUSH1 0xA4 DUP8 ADD MSTORE CALLER PUSH1 0xC4 DUP8 ADD MSTORE PUSH2 0x100 PUSH1 0xE4 DUP8 ADD MSTORE DUP6 ADD MSTORE DUP5 DUP5 ADD CALLDATACOPY DUP2 DUP2 ADD DUP4 ADD DUP6 SWAP1 MSTORE PUSH1 0x1F ADD PUSH1 0x1F NOT AND DUP2 ADD SUB ADD DUP2 DUP4 PUSH32 0x0 PUSH1 0x1 PUSH1 0x1 PUSH1 0xA0 SHL SUB AND GAS CALL DUP1 ISZERO PUSH2 0xC22 JUMPI PUSH2 0xBF3 JUMPI JUMPDEST POP DUP6 SLOAD PUSH1 0x1 PUSH1 0x1 PUSH1 0xA0 SHL SUB NOT AND CALLER OR DUP7 SSTORE PUSH1 0x1 PUSH1 0x1 PUSH1 0x40 SHL SUB DUP3 GT PUSH2 0xBDF JUMPI DUP2 SWAP1 PUSH2 0x83E PUSH1 0x1 DUP9 ADD SLOAD PUSH2 0x1EF7 JUMP JUMPDEST PUSH1 0x1F DUP2 GT PUSH2 0xB8F JUMPI JUMPDEST POP DUP8 SWAP1 PUSH1 0x1F DUP4 GT PUSH1 0x1 EQ PUSH2 0xB23 JUMPI DUP9 SWAP3 PUSH2 0xB18 JUMPI JUMPDEST POP POP DUP2 PUSH1 0x1 SHL SWAP2 PUSH1 0x0 NOT SWAP1 PUSH1 0x3 SHL SHR NOT AND OR PUSH1 0x1 DUP6 ADD SSTORE JUMPDEST PUSH1 0x1 PUSH1 0x1 PUSH1 0x40 SHL SUB DUP3 GT PUSH2 0xB04 JUMPI DUP2 SWAP1 PUSH2 0x891 PUSH1 0x2 DUP7 ADD SLOAD PUSH2 0x1EF7 JUMP JUMPDEST PUSH1 0x1F DUP2 GT PUSH2 0xAB4 JUMPI JUMPDEST POP DUP6 SWAP1 PUSH1 0x1F DUP4 GT PUSH1 0x1 EQ PUSH2 0xA48 JUMPI DUP7 SWAP3 PUSH2 0xA3D JUMPI JUMPDEST POP POP DUP2 PUSH1 0x1 SHL SWAP2 PUSH1 0x0 NOT SWAP1 PUSH1 0x3 SHL SHR NOT AND OR PUSH1 0x2 DUP4 ADD SSTORE JUMPDEST PUSH1 0x1 PUSH1 0x1 PUSH1 0x40 SHL SUB DUP2 GT PUSH2 0xA29 JUMPI PUSH2 0x8E2 PUSH1 0x3 DUP4 ADD SLOAD PUSH2 0x1EF7 JUMP JUMPDEST PUSH1 0x1F DUP2 GT PUSH2 0x9E5 JUMPI JUMPDEST POP DUP3 PUSH1 0x1F DUP3 GT PUSH1 0x1 EQ PUSH2 0x97C JUMPI DUP4 SWAP5 DUP3 SWAP4 SWAP5 SWAP3 PUSH2 0x971 JUMPI JUMPDEST POP POP DUP2 PUSH1 0x1 SHL SWAP2 PUSH1 0x0 NOT SWAP1 PUSH1 0x3 SHL SHR NOT AND OR PUSH1 0x3 DUP3 ADD SSTORE JUMPDEST PUSH1 0x4 PUSH1 0xA4 CALLDATALOAD SWAP2 ADD SSTORE PUSH2 0x931 PUSH1 0xA4 CALLDATALOAD PUSH1 0xC SLOAD PUSH2 0x217F JUMP JUMPDEST PUSH1 0xC SSTORE PUSH1 0x40 MLOAD PUSH1 0xA4 CALLDATALOAD DUP2 MSTORE PUSH1 0x24 CALLDATALOAD SWAP1 PUSH1 0x4 CALLDATALOAD SWAP1 PUSH32 0x9B078A1E54E0268AAF952DE1CC5BBB050D90F14E2BA254958290A3D961F832C9 PUSH1 0x20 CALLER SWAP3 LOG4 PUSH1 0x1 DUP1 SSTORE DUP1 RETURN JUMPDEST ADD CALLDATALOAD SWAP1 POP DUP5 DUP1 PUSH2 0x903 JUMP JUMPDEST PUSH1 0x1F NOT DUP3 AND SWAP5 PUSH1 0x3 DUP5 ADD DUP6 MSTORE PUSH1 0x20 DUP6 KECCAK256 SWAP2 DUP6 JUMPDEST DUP8 DUP2 LT PUSH2 0x9CD JUMPI POP DUP4 PUSH1 0x1 SWAP6 SWAP7 SWAP8 LT PUSH2 0x9B3 JUMPI JUMPDEST POP POP POP DUP2 SHL ADD PUSH1 0x3 DUP3 ADD SSTORE PUSH2 0x91B JUMP JUMPDEST ADD CALLDATALOAD PUSH1 0x0 NOT PUSH1 0x3 DUP5 SWAP1 SHL PUSH1 0xF8 AND SHR NOT AND SWAP1 SSTORE DUP5 DUP1 DUP1 PUSH2 0x9A3 JUMP JUMPDEST SWAP1 SWAP3 PUSH1 0x20 PUSH1 0x1 DUP2 SWAP3 DUP7 DUP7 ADD CALLDATALOAD DUP2 SSTORE ADD SWAP5 ADD SWAP2 ADD PUSH2 0x98F JUMP JUMPDEST PUSH1 0x3 DUP4 ADD DUP5 MSTORE PUSH1 0x20 DUP5 KECCAK256 PUSH1 0x1F DUP4 ADD PUSH1 0x5 SHR DUP2 ADD PUSH1 0x20 DUP5 LT PUSH2 0xA22 JUMPI JUMPDEST PUSH1 0x1F DUP4 ADD PUSH1 0x5 SHR DUP3 ADD DUP2 LT PUSH2 0xA17 JUMPI POP POP PUSH2 0x8EB JUMP JUMPDEST DUP6 DUP2 SSTORE PUSH1 0x1 ADD PUSH2 0xA01 JUMP JUMPDEST POP DUP1 PUSH2 0xA01 JUMP JUMPDEST PUSH4 0x4E487B71 PUSH1 0xE0 SHL DUP4 MSTORE PUSH1 0x41 PUSH1 0x4 MSTORE PUSH1 0x24 DUP4 REVERT JUMPDEST ADD CALLDATALOAD SWAP1 POP DUP7 DUP1 PUSH2 0x8AF JUMP JUMPDEST PUSH1 0x2 DUP7 ADD DUP8 MSTORE PUSH1 0x20 DUP8 KECCAK256 DUP8 SWAP5 POP SWAP2 JUMPDEST PUSH1 0x1F NOT DUP5 AND DUP6 LT PUSH2 0xA9C JUMPI PUSH1 0x1 SWAP5 POP DUP4 PUSH1 0x1F NOT DUP2 AND LT PUSH2 0xA82 JUMPI JUMPDEST POP POP POP DUP2 SHL ADD PUSH1 0x2 DUP4 ADD SSTORE PUSH2 0x8C7 JUMP JUMPDEST ADD CALLDATALOAD PUSH1 0x0 NOT PUSH1 0x3 DUP5 SWAP1 SHL PUSH1 0xF8 AND SHR NOT AND SWAP1 SSTORE DUP7 DUP1 DUP1 PUSH2 0xA72 JUMP JUMPDEST DUP2 DUP2 ADD CALLDATALOAD DUP4 SSTORE PUSH1 0x20 SWAP5 DUP6 ADD SWAP5 PUSH1 0x1 SWAP1 SWAP4 ADD SWAP3 ADD PUSH2 0xA57 JUMP JUMPDEST SWAP1 SWAP2 POP PUSH1 0x2 DUP6 ADD DUP7 MSTORE PUSH1 0x20 DUP7 KECCAK256 PUSH1 0x1F DUP5 ADD PUSH1 0x5 SHR DUP2 ADD PUSH1 0x20 DUP6 LT PUSH2 0xAFD JUMPI JUMPDEST SWAP1 DUP5 SWAP4 SWAP3 SWAP2 JUMPDEST PUSH1 0x1F DUP4 ADD PUSH1 0x5 SHR DUP3 ADD DUP2 LT PUSH2 0xAEF JUMPI POP POP PUSH2 0x89A JUMP JUMPDEST DUP9 DUP2 SSTORE DUP6 SWAP5 POP PUSH1 0x1 ADD PUSH2 0xAD9 JUMP JUMPDEST POP DUP1 PUSH2 0xAD3 JUMP JUMPDEST PUSH4 0x4E487B71 PUSH1 0xE0 SHL DUP6 MSTORE PUSH1 0x41 PUSH1 0x4 MSTORE PUSH1 0x24 DUP6 REVERT JUMPDEST ADD CALLDATALOAD SWAP1 POP DUP9 DUP1 PUSH2 0x85C JUMP JUMPDEST PUSH1 0x1 DUP9 ADD DUP10 MSTORE PUSH1 0x20 DUP10 KECCAK256 DUP10 SWAP5 POP SWAP2 JUMPDEST PUSH1 0x1F NOT DUP5 AND DUP6 LT PUSH2 0xB77 JUMPI PUSH1 0x1 SWAP5 POP DUP4 PUSH1 0x1F NOT DUP2 AND LT PUSH2 0xB5D JUMPI JUMPDEST POP POP POP DUP2 SHL ADD PUSH1 0x1 DUP6 ADD SSTORE PUSH2 0x874 JUMP JUMPDEST ADD CALLDATALOAD PUSH1 0x0 NOT PUSH1 0x3 DUP5 SWAP1 SHL PUSH1 0xF8 AND SHR NOT AND SWAP1 SSTORE DUP9 DUP1 DUP1 PUSH2 0xB4D JUMP JUMPDEST DUP2 DUP2 ADD CALLDATALOAD DUP4 SSTORE PUSH1 0x20 SWAP5 DUP6 ADD SWAP5 PUSH1 0x1 SWAP1 SWAP4 ADD SWAP3 ADD PUSH2 0xB32 JUMP JUMPDEST SWAP1 SWAP2 POP PUSH1 0x1 DUP8 ADD DUP9 MSTORE PUSH1 0x20 DUP9 KECCAK256 PUSH1 0x1F DUP5 ADD PUSH1 0x5 SHR DUP2 ADD PUSH1 0x20 DUP6 LT PUSH2 0xBD8 JUMPI JUMPDEST SWAP1 DUP5 SWAP4 SWAP3 SWAP2 JUMPDEST PUSH1 0x1F DUP4 ADD PUSH1 0x5 SHR DUP3 ADD DUP2 LT PUSH2 0xBCA JUMPI POP POP PUSH2 0x847 JUMP JUMPDEST DUP11 DUP2 SSTORE DUP6 SWAP5 POP PUSH1 0x1 ADD PUSH2 0xBB4 JUMP JUMPDEST POP DUP1 PUSH2 0xBAE JUMP JUMPDEST PUSH4 0x4E487B71 PUSH1 0xE0 SHL DUP8 MSTORE PUSH1 0x41 PUSH1 0x4 MSTORE PUSH1 0x24 DUP8 REVERT JUMPDEST PUSH1 0x1 PUSH1 0x1 PUSH1 0x40 SHL SUB DUP2 SWAP9 SWAP3 SWAP9 GT PUSH2 0xC0E JUMPI PUSH1 0x40 MSTORE SWAP6 DUP9 PUSH2 0x810 JUMP JUMPDEST PUSH4 0x4E487B71 PUSH1 0xE0 SHL DUP3 MSTORE PUSH1 0x41 PUSH1 0x4 MSTORE PUSH1 0x24 DUP3 REVERT JUMPDEST PUSH1 0x40 MLOAD RETURNDATASIZE DUP11 DUP3 RETURNDATACOPY RETURNDATASIZE SWAP1 REVERT JUMPDEST DUP12 DUP1 REVERT JUMPDEST DUP10 DUP1 REVERT JUMPDEST PUSH4 0x4E487B71 PUSH1 0xE0 SHL DUP11 MSTORE PUSH1 0x41 PUSH1 0x4 MSTORE PUSH1 0x24 DUP11 REVERT JUMPDEST PUSH1 0x4 DUP10 DUP2 ADD SLOAD PUSH1 0x40 MLOAD PUSH4 0xA9059CBB PUSH1 0xE0 SHL DUP2 MSTORE PUSH1 0x1 PUSH1 0x1 PUSH1 0xA0 SHL SUB SWAP1 SWAP4 AND SWAP2 DUP4 ADD SWAP2 SWAP1 SWAP2 MSTORE PUSH1 0x24 DUP3 ADD MSTORE PUSH1 0x20 DUP2 DUP1 PUSH1 0x44 DUP2 ADD SUB DUP2 DUP14 PUSH32 0x0 PUSH1 0x1 PUSH1 0x1 PUSH1 0xA0 SHL SUB AND GAS CALL SWAP1 DUP2 ISZERO PUSH2 0xD18 JUMPI DUP11 SWAP2 PUSH2 0xCE9 JUMPI JUMPDEST POP ISZERO PUSH2 0xCD7 JUMPI PUSH2 0xCCE PUSH1 0x4 DUP10 ADD SLOAD PUSH1 0xC SLOAD PUSH2 0x215C JUMP JUMPDEST PUSH1 0xC SSTORE DUP11 PUSH2 0x6E4 JUMP JUMPDEST PUSH1 0x40 MLOAD PUSH4 0x12171D83 PUSH1 0xE3 SHL DUP2 MSTORE PUSH1 0x4 SWAP1 REVERT JUMPDEST PUSH2 0xD0B SWAP2 POP PUSH1 0x20 RETURNDATASIZE PUSH1 0x20 GT PUSH2 0xD11 JUMPI JUMPDEST PUSH2 0xD03 DUP2 DUP4 PUSH2 0x1F4D JUMP JUMPDEST DUP2 ADD SWAP1 PUSH2 0x2144 JUMP JUMPDEST DUP12 PUSH2 0xCB8 JUMP JUMPDEST POP RETURNDATASIZE PUSH2 0xCF9 JUMP JUMPDEST PUSH1 0x40 MLOAD RETURNDATASIZE DUP13 DUP3 RETURNDATACOPY RETURNDATASIZE SWAP1 REVERT JUMPDEST POP PUSH1 0x4 DUP10 ADD SLOAD ISZERO ISZERO PUSH2 0x6DF JUMP JUMPDEST PUSH1 0x40 MLOAD PUSH4 0x299AA0A1 PUSH1 0xE2 SHL DUP2 MSTORE PUSH1 0x4 SWAP1 REVERT JUMPDEST DUP7 DUP1 REVERT JUMPDEST DUP5 DUP1 REVERT JUMPDEST DUP3 DUP1 REVERT JUMPDEST DUP3 CALLVALUE PUSH2 0x1DA JUMPI DUP1 PUSH1 0x3 NOT CALLDATASIZE ADD SLT PUSH2 0x1DA JUMPI PUSH1 0x40 MLOAD PUSH32 0x0 PUSH1 0x1 PUSH1 0x1 PUSH1 0xA0 SHL SUB AND DUP2 MSTORE PUSH1 0x20 SWAP1 RETURN JUMPDEST DUP3 CALLVALUE PUSH2 0x1DA JUMPI PUSH2 0x160 CALLDATASIZE PUSH1 0x3 NOT ADD SLT PUSH2 0x1DA JUMPI PUSH2 0xDAE PUSH2 0x2054 JUMP JUMPDEST POP CALLDATASIZE PUSH2 0x164 GT PUSH2 0x1DA JUMPI PUSH2 0xDC0 PUSH2 0x2121 JUMP JUMPDEST CALLER DUP2 MSTORE PUSH1 0x4 PUSH1 0x20 MSTORE PUSH1 0xFF PUSH1 0x40 DUP3 KECCAK256 SLOAD AND PUSH2 0xE17 JUMPI CALLER DUP1 DUP3 MSTORE PUSH1 0x4 PUSH1 0x20 MSTORE PUSH1 0x40 DUP3 KECCAK256 DUP1 SLOAD PUSH1 0xFF NOT AND PUSH1 0x1 OR SWAP1 SSTORE PUSH32 0x54DB7A5CB4735E1AAC1F53DB512D3390390BB6637BD30AD4BF9FC98667D9B9B9 DUP3 DUP1 LOG2 PUSH1 0x1 DUP1 SSTORE DUP1 RETURN JUMPDEST PUSH1 0x40 MLOAD PUSH4 0xEA075BF PUSH1 0xE2 SHL DUP2 MSTORE PUSH1 0x4 SWAP1 REVERT JUMPDEST DUP3 CALLVALUE PUSH2 0x1DA JUMPI PUSH1 0x20 CALLDATASIZE PUSH1 0x3 NOT ADD SLT PUSH2 0x1DA JUMPI PUSH2 0xE43 PUSH2 0x2054 JUMP JUMPDEST PUSH2 0xE4B PUSH2 0x20F5 JUMP JUMPDEST PUSH1 0x1 PUSH1 0x1 PUSH1 0xA0 SHL SUB AND DUP1 DUP3 MSTORE PUSH1 0x5 PUSH1 0x20 MSTORE PUSH1 0x40 DUP3 KECCAK256 DUP1 SLOAD PUSH1 0xFF NOT AND PUSH1 0x1 OR SWAP1 SSTORE PUSH32 0x97B051FE48E86C08FCA96C9BBE846678783B6999358E6D4EFBAF9E40CA59B6A7 DUP3 DUP1 LOG2 DUP1 RETURN JUMPDEST DUP3 CALLVALUE PUSH2 0x1DA JUMPI DUP1 PUSH1 0x3 NOT CALLDATASIZE ADD SLT PUSH2 0x1DA JUMPI PUSH1 0x20 PUSH1 0x2 SLOAD PUSH1 0x40 MLOAD SWAP1 DUP2 MSTORE RETURN JUMPDEST DUP3 CALLVALUE PUSH2 0x1DA JUMPI DUP1 PUSH1 0x3 NOT CALLDATASIZE ADD SLT PUSH2 0x1DA JUMPI PUSH1 0x20 PUSH1 0xC SLOAD PUSH1 0x40 MLOAD SWAP1 DUP2 MSTORE RETURN JUMPDEST DUP3 CALLVALUE PUSH2 0x1DA JUMPI DUP1 PUSH1 0x3 NOT CALLDATASIZE ADD SLT PUSH2 0x1DA JUMPI PUSH1 0x40 MLOAD PUSH1 0x80 SWAP1 DUP2 DUP2 ADD DUP2 DUP2 LT PUSH1 0x1 PUSH1 0x1 PUSH1 0x40 SHL SUB DUP3 GT OR PUSH2 0x112F JUMPI PUSH1 0x40 MSTORE PUSH1 0x3 SWAP1 DUP2 DUP2 MSTORE DUP4 JUMPDEST PUSH1 0x60 DUP1 DUP3 LT ISZERO PUSH2 0xF62 JUMPI PUSH1 0x40 MLOAD PUSH1 0x20 SWAP3 SWAP2 PUSH2 0xF1F DUP3 PUSH2 0x1F31 JUMP JUMPDEST DUP8 DUP3 MSTORE DUP4 SWAP1 DUP1 DUP3 DUP5 ADD MSTORE DUP1 PUSH1 0x40 DUP5 ADD MSTORE DUP1 DUP4 ADD MSTORE DUP8 DUP8 DUP4 ADD MSTORE DUP8 PUSH1 0xA0 DUP4 ADD MSTORE DUP8 PUSH1 0xC0 DUP4 ADD MSTORE DUP8 DUP10 DUP4 ADD MSTORE DUP8 PUSH2 0x100 DUP4 ADD MSTORE DUP8 PUSH2 0x120 DUP4 ADD MSTORE DUP3 DUP6 ADD ADD MSTORE ADD PUSH2 0xF05 JUMP JUMPDEST POP POP SWAP2 SWAP3 SWAP1 DUP2 SWAP1 PUSH1 0x2 SWAP1 DUP2 SLOAD SWAP3 JUMPDEST DUP2 DUP2 LT PUSH2 0x1062 JUMPI POP POP POP POP PUSH1 0x40 MLOAD SWAP3 PUSH1 0x20 DUP1 DUP6 ADD SWAP2 DUP2 DUP7 MSTORE DUP5 MLOAD DUP1 SWAP4 MSTORE PUSH1 0x40 DUP7 ADD SWAP1 DUP3 PUSH1 0x40 DUP6 PUSH1 0x5 SHL DUP10 ADD ADD SWAP7 ADD SWAP5 SWAP8 JUMPDEST DUP5 DUP10 LT PUSH2 0xFAE JUMPI DUP8 DUP8 SUB DUP9 RETURN JUMPDEST SWAP1 SWAP2 SWAP3 SWAP4 SWAP5 SWAP6 DUP5 DUP1 PUSH1 0x1 SWAP3 PUSH1 0x3F NOT DUP12 DUP3 SUB ADD DUP8 MSTORE DUP10 MLOAD SWAP1 DUP5 DUP1 PUSH1 0xA0 SHL SUB DUP3 MLOAD AND DUP2 MSTORE PUSH2 0x1012 PUSH2 0xFFF PUSH2 0xFED DUP6 DUP6 ADD MLOAD PUSH2 0x140 DUP1 DUP9 DUP8 ADD MSTORE DUP6 ADD SWAP1 PUSH2 0x2014 JUMP JUMPDEST PUSH1 0x40 DUP6 ADD MLOAD DUP5 DUP3 SUB PUSH1 0x40 DUP7 ADD MSTORE PUSH2 0x2014 JUMP JUMPDEST PUSH1 0x60 DUP1 DUP6 ADD MLOAD SWAP1 DUP5 DUP4 SUB SWAP1 DUP6 ADD MSTORE PUSH2 0x2014 JUMP JUMPDEST SWAP2 DUP8 DUP2 ADD MLOAD DUP9 DUP4 ADD MSTORE PUSH1 0xA0 DUP1 DUP3 ADD MLOAD ISZERO ISZERO SWAP1 DUP4 ADD MSTORE PUSH1 0xC0 DUP1 DUP3 ADD MLOAD ISZERO ISZERO SWAP1 DUP4 ADD MSTORE DUP7 DUP2 ADD MLOAD DUP8 DUP4 ADD MSTORE PUSH2 0x100 DUP1 DUP3 ADD MLOAD SWAP1 DUP4 ADD MSTORE PUSH2 0x120 DUP1 SWAP2 ADD MLOAD SWAP2 ADD MSTORE SWAP9 ADD SWAP5 ADD SWAP9 ADD SWAP8 SWAP2 SWAP1 SWAP5 SWAP4 SWAP3 SWAP5 PUSH2 0xFA1 JUMP JUMPDEST PUSH2 0x1127 SWAP1 DUP5 DUP7 SWAP9 SWAP7 MSTORE PUSH1 0x7 PUSH1 0x20 SWAP1 DUP1 DUP3 MSTORE PUSH1 0x40 DUP11 KECCAK256 DUP4 DUP12 MSTORE DUP3 MSTORE PUSH1 0x40 DUP11 KECCAK256 PUSH1 0x40 MLOAD SWAP3 PUSH2 0x108D DUP5 PUSH2 0x1F31 JUMP JUMPDEST DUP2 SLOAD PUSH1 0x1 PUSH1 0x1 PUSH1 0xA0 SHL SUB AND DUP5 MSTORE PUSH2 0x10A6 PUSH1 0x1 DUP4 ADD PUSH2 0x1F6E JUMP JUMPDEST SWAP1 DUP5 ADD MSTORE PUSH2 0x10B5 DUP8 DUP3 ADD PUSH2 0x1F6E JUMP JUMPDEST PUSH1 0x40 DUP5 ADD MSTORE PUSH2 0x10C5 DUP7 DUP3 ADD PUSH2 0x1F6E JUMP JUMPDEST PUSH1 0x60 DUP5 ADD MSTORE PUSH1 0x4 DUP2 ADD SLOAD DUP10 DUP5 ADD MSTORE PUSH1 0x5 DUP2 ADD SLOAD SWAP2 PUSH1 0xFF DUP1 DUP5 AND ISZERO ISZERO PUSH1 0xA0 DUP7 ADD MSTORE PUSH1 0x8 SWAP4 DUP5 SHR AND ISZERO ISZERO PUSH1 0xC0 DUP6 ADD MSTORE PUSH1 0x6 DUP3 ADD SLOAD DUP14 DUP6 ADD MSTORE DUP2 ADD SLOAD PUSH2 0x100 DUP5 ADD MSTORE ADD SLOAD PUSH2 0x120 DUP3 ADD MSTORE PUSH2 0x1116 DUP3 DUP10 PUSH2 0x2378 JUMP JUMPDEST MSTORE PUSH2 0x1121 DUP2 DUP9 PUSH2 0x2378 JUMP JUMPDEST POP PUSH2 0x218C JUMP JUMPDEST SWAP6 SWAP4 SWAP6 PUSH2 0xF70 JUMP JUMPDEST PUSH4 0x4E487B71 PUSH1 0xE0 SHL DUP5 MSTORE PUSH1 0x41 PUSH1 0x4 MSTORE PUSH1 0x24 DUP5 REVERT JUMPDEST DUP3 CALLVALUE PUSH2 0x1DA JUMPI PUSH1 0x20 CALLDATASIZE PUSH1 0x3 NOT ADD SLT PUSH2 0x1DA JUMPI PUSH1 0x20 SWAP1 PUSH1 0xFF SWAP1 PUSH1 0x40 SWAP1 PUSH1 0x1 PUSH1 0x1 PUSH1 0xA0 SHL SUB PUSH2 0x116E PUSH2 0x2054 JUMP JUMPDEST AND DUP2 MSTORE PUSH1 0x4 DUP5 MSTORE KECCAK256 SLOAD AND PUSH1 0x40 MLOAD SWAP1 ISZERO ISZERO DUP2 MSTORE RETURN JUMPDEST DUP3 CALLVALUE PUSH2 0x1DA JUMPI PUSH2 0x1191 CALLDATASIZE PUSH2 0x1EDC JUMP JUMPDEST SWAP1 PUSH2 0x119A PUSH2 0x2121 JUMP JUMPDEST PUSH1 0x3 DUP3 LT ISZERO PUSH2 0x59E JUMPI DUP1 DUP4 MSTORE PUSH1 0x7 PUSH1 0x20 MSTORE PUSH1 0x40 DUP4 KECCAK256 DUP3 DUP5 MSTORE PUSH1 0x20 MSTORE PUSH1 0x40 DUP4 KECCAK256 PUSH1 0x1 DUP1 PUSH1 0xA0 SHL SUB DUP1 DUP3 SLOAD AND CALLER SUB PUSH2 0x12D1 JUMPI PUSH1 0x5 DUP3 ADD SWAP2 DUP3 SLOAD SWAP1 PUSH1 0xFF DUP3 AND PUSH2 0x58C JUMPI DUP7 SWAP4 PUSH2 0x100 PUSH1 0x4 SWAP4 PUSH2 0xFF00 NOT AND OR SWAP1 SSTORE ADD SWAP1 DUP2 SLOAD SWAP1 DUP2 PUSH2 0x1225 JUMPI JUMPDEST POP POP POP POP CALLER PUSH32 0x2DDF52AD696F7475D5E714CE5C8C1C4E9B93814E40D3F4C5AB845CB2BC0579AC DUP5 DUP1 LOG4 PUSH1 0x1 DUP1 SSTORE DUP1 RETURN JUMPDEST PUSH1 0x20 SWAP3 PUSH2 0x1237 PUSH2 0x1265 SWAP4 PUSH1 0xC SLOAD PUSH2 0x215C JUMP JUMPDEST PUSH1 0xC SSTORE SLOAD PUSH1 0x40 MLOAD PUSH4 0xA9059CBB PUSH1 0xE0 SHL DUP2 MSTORE CALLER PUSH1 0x4 DUP3 ADD MSTORE PUSH1 0x24 DUP2 ADD SWAP2 SWAP1 SWAP2 MSTORE SWAP4 DUP5 SWAP3 DUP4 SWAP2 SWAP1 DUP3 SWAP1 PUSH1 0x44 DUP3 ADD SWAP1 JUMP JUMPDEST SUB SWAP3 PUSH32 0x0 AND GAS CALL SWAP1 DUP2 ISZERO PUSH2 0x12C6 JUMPI DUP5 SWAP2 PUSH2 0x12A8 JUMPI JUMPDEST POP ISZERO PUSH2 0xCD7 JUMPI DUP3 DUP5 DUP1 DUP1 PUSH2 0x11F5 JUMP JUMPDEST PUSH2 0x12C0 SWAP2 POP PUSH1 0x20 RETURNDATASIZE DUP2 GT PUSH2 0xD11 JUMPI PUSH2 0xD03 DUP2 DUP4 PUSH2 0x1F4D JUMP JUMPDEST DUP5 PUSH2 0x1299 JUMP JUMPDEST PUSH1 0x40 MLOAD RETURNDATASIZE DUP7 DUP3 RETURNDATACOPY RETURNDATASIZE SWAP1 REVERT JUMPDEST PUSH1 0x40 MLOAD PUSH4 0x22111141 PUSH1 0xE1 SHL DUP2 MSTORE PUSH1 0x4 SWAP1 REVERT JUMPDEST DUP3 CALLVALUE PUSH2 0x1DA JUMPI DUP1 PUSH1 0x3 NOT CALLDATASIZE ADD SLT PUSH2 0x1DA JUMPI SLOAD PUSH1 0x40 MLOAD PUSH1 0x1 PUSH1 0x1 PUSH1 0xA0 SHL SUB SWAP1 SWAP2 AND DUP2 MSTORE PUSH1 0x20 SWAP1 RETURN JUMPDEST DUP3 CALLVALUE PUSH2 0x1DA JUMPI PUSH2 0x1319 CALLDATASIZE PUSH2 0x1EDC JUMP JUMPDEST SWAP1 PUSH2 0x1322 PUSH2 0x2121 JUMP JUMPDEST CALLER DUP4 MSTORE PUSH1 0x20 PUSH1 0x4 DUP2 MSTORE PUSH1 0xFF PUSH1 0x40 DUP6 KECCAK256 SLOAD AND ISZERO PUSH2 0x5C2 JUMPI PUSH1 0x3 DUP4 LT ISZERO PUSH2 0x59E JUMPI DUP2 DUP5 MSTORE PUSH1 0x7 DUP2 MSTORE PUSH1 0x40 DUP5 KECCAK256 DUP4 DUP6 MSTORE DUP2 MSTORE PUSH1 0x40 DUP5 KECCAK256 SWAP1 PUSH1 0x5 DUP3 ADD SLOAD PUSH1 0xFF DUP2 AND ISZERO PUSH2 0x1564 JUMPI PUSH1 0x8 SHR PUSH1 0xFF AND PUSH2 0x57A JUMPI DUP3 DUP6 MSTORE PUSH1 0x8 DUP2 MSTORE PUSH1 0x40 DUP6 KECCAK256 DUP5 DUP7 MSTORE DUP2 MSTORE PUSH1 0x40 DUP6 KECCAK256 CALLER DUP7 MSTORE DUP2 MSTORE PUSH1 0xFF PUSH1 0x40 DUP7 KECCAK256 SLOAD AND ISZERO PUSH2 0x1552 JUMPI DUP3 DUP6 MSTORE PUSH1 0x9 DUP2 MSTORE PUSH1 0x40 DUP6 KECCAK256 DUP5 DUP7 MSTORE DUP2 MSTORE PUSH1 0x40 DUP6 KECCAK256 CALLER DUP7 MSTORE DUP2 MSTORE PUSH1 0xFF PUSH1 0x40 DUP7 KECCAK256 SLOAD AND PUSH2 0x1540 JUMPI PUSH1 0x8 DUP3 ADD SLOAD PUSH3 0x127500 DUP2 ADD DUP1 SWAP2 GT PUSH2 0x152C JUMPI TIMESTAMP GT PUSH2 0x151A JUMPI PUSH1 0x6 DUP3 ADD SLOAD DUP1 ISZERO PUSH2 0x1508 JUMPI PUSH1 0x4 DUP4 ADD SLOAD PUSH2 0x1F4 DUP1 DUP3 MUL SWAP1 DUP3 DUP3 DIV EQ DUP3 ISZERO OR ISZERO PUSH2 0x14F4 JUMPI SWAP2 PUSH2 0x1409 PUSH2 0x140E SWAP3 PUSH2 0x2710 PUSH1 0x7 SWAP6 DIV SWAP1 PUSH2 0x215C JUMP JUMPDEST PUSH2 0x219B JUMP JUMPDEST SWAP3 DUP5 DUP8 MSTORE PUSH1 0x9 DUP4 MSTORE PUSH1 0x40 DUP8 KECCAK256 DUP7 DUP9 MSTORE DUP4 MSTORE PUSH1 0x40 DUP8 KECCAK256 CALLER DUP9 MSTORE DUP4 MSTORE PUSH1 0x40 DUP8 KECCAK256 PUSH1 0x1 PUSH1 0xFF NOT DUP3 SLOAD AND OR SWAP1 SSTORE ADD PUSH2 0x1443 DUP4 DUP3 SLOAD PUSH2 0x217F JUMP JUMPDEST SWAP1 SSTORE PUSH1 0x40 MLOAD PUSH4 0xA9059CBB PUSH1 0xE0 SHL DUP2 MSTORE CALLER PUSH1 0x4 DUP3 ADD MSTORE PUSH1 0x24 DUP2 ADD DUP4 SWAP1 MSTORE DUP2 DUP2 PUSH1 0x44 DUP2 DUP10 PUSH1 0x1 PUSH1 0x1 PUSH1 0xA0 SHL SUB PUSH32 0x0 AND GAS CALL SWAP1 DUP2 ISZERO PUSH2 0x4F0 JUMPI DUP7 SWAP2 PUSH2 0x14D7 JUMPI JUMPDEST POP ISZERO PUSH2 0xCD7 JUMPI PUSH32 0x812BE816DB82C66CD18CA8457005CD84689642D8AC4D38599CC6AF444A2DC72A SWAP1 PUSH1 0x40 MLOAD SWAP3 DUP4 MSTORE CALLER SWAP3 LOG4 PUSH1 0x1 DUP1 SSTORE DUP1 RETURN JUMPDEST PUSH2 0x14EE SWAP2 POP DUP3 RETURNDATASIZE DUP5 GT PUSH2 0xD11 JUMPI PUSH2 0xD03 DUP2 DUP4 PUSH2 0x1F4D JUMP JUMPDEST DUP7 PUSH2 0x149F JUMP JUMPDEST PUSH4 0x4E487B71 PUSH1 0xE0 SHL DUP9 MSTORE PUSH1 0x11 PUSH1 0x4 MSTORE PUSH1 0x24 DUP9 REVERT JUMPDEST PUSH1 0x40 MLOAD PUSH4 0x162908E3 PUSH1 0xE1 SHL DUP2 MSTORE PUSH1 0x4 SWAP1 REVERT JUMPDEST PUSH1 0x40 MLOAD PUSH4 0x320C7B7D PUSH1 0xE2 SHL DUP2 MSTORE PUSH1 0x4 SWAP1 REVERT JUMPDEST PUSH4 0x4E487B71 PUSH1 0xE0 SHL DUP7 MSTORE PUSH1 0x11 PUSH1 0x4 MSTORE PUSH1 0x24 DUP7 REVERT JUMPDEST PUSH1 0x40 MLOAD PUSH4 0xC8D9EAB PUSH1 0xE3 SHL DUP2 MSTORE PUSH1 0x4 SWAP1 REVERT JUMPDEST PUSH1 0x40 MLOAD PUSH4 0x1327DEB PUSH1 0xE0 SHL DUP2 MSTORE PUSH1 0x4 SWAP1 REVERT JUMPDEST PUSH1 0x40 MLOAD PUSH4 0xDF706AD PUSH1 0xE1 SHL DUP2 MSTORE PUSH1 0x4 SWAP1 REVERT JUMPDEST DUP3 CALLVALUE PUSH2 0x1DA JUMPI DUP1 PUSH1 0x3 NOT CALLDATASIZE ADD SLT PUSH2 0x1DA JUMPI PUSH1 0x40 MLOAD PUSH32 0x0 PUSH1 0x1 PUSH1 0x1 PUSH1 0xA0 SHL SUB AND DUP2 MSTORE PUSH1 0x20 SWAP1 RETURN JUMPDEST DUP3 CALLVALUE PUSH2 0x1DA JUMPI PUSH1 0x20 CALLDATASIZE PUSH1 0x3 NOT ADD SLT PUSH2 0x1DA JUMPI PUSH2 0x15D5 PUSH2 0x2054 JUMP JUMPDEST PUSH2 0x15DD PUSH2 0x20F5 JUMP JUMPDEST PUSH1 0x1 PUSH1 0x1 PUSH1 0xA0 SHL SUB AND DUP1 DUP3 MSTORE PUSH1 0x5 PUSH1 0x20 MSTORE PUSH1 0x40 DUP3 KECCAK256 DUP1 SLOAD PUSH1 0xFF NOT AND SWAP1 SSTORE PUSH32 0x2A2F5E02B0E6AAB2B998DBCAE41AEC9407649A38BD8D41B7B49BEDEE8CDEAF2E DUP3 DUP1 LOG2 DUP1 RETURN JUMPDEST DUP3 CALLVALUE PUSH2 0x1DA JUMPI DUP1 PUSH1 0x3 NOT CALLDATASIZE ADD SLT PUSH2 0x1DA JUMPI PUSH2 0x163A PUSH2 0x2121 JUMP JUMPDEST PUSH2 0x1642 PUSH2 0x21BB JUMP JUMPDEST PUSH1 0x1 DUP1 SSTORE DUP1 RETURN JUMPDEST DUP3 CALLVALUE PUSH2 0x1DA JUMPI DUP1 PUSH1 0x3 NOT CALLDATASIZE ADD SLT PUSH2 0x1DA JUMPI PUSH2 0x1662 PUSH2 0x20F5 JUMP JUMPDEST DUP1 SLOAD PUSH1 0x1 PUSH1 0x1 PUSH1 0xA0 SHL SUB NOT DUP2 AND DUP3 SSTORE DUP2 SWAP1 PUSH1 0x1 PUSH1 0x1 PUSH1 0xA0 SHL SUB AND PUSH32 0x8BE0079C531659141344CD1FD0A4F28419497F9722A3DAAFE3B4186F6B6457E0 DUP3 DUP1 LOG3 DUP1 RETURN JUMPDEST DUP3 CALLVALUE PUSH2 0x1DA JUMPI DUP1 PUSH1 0x3 NOT CALLDATASIZE ADD SLT PUSH2 0x1DA JUMPI PUSH1 0x20 PUSH1 0x3 SLOAD PUSH1 0x40 MLOAD SWAP1 DUP2 MSTORE RETURN JUMPDEST DUP3 CALLVALUE PUSH2 0x1DA JUMPI PUSH1 0xFF PUSH1 0x40 PUSH1 0x20 SWAP3 PUSH2 0x16D7 CALLDATASIZE PUSH2 0x206A JUMP JUMPDEST SWAP2 DUP4 MSTORE PUSH1 0x9 DUP7 MSTORE DUP4 DUP4 KECCAK256 SWAP1 DUP4 MSTORE DUP6 MSTORE DUP3 DUP3 KECCAK256 PUSH1 0x1 PUSH1 0x1 PUSH1 0xA0 SHL SUB SWAP1 SWAP2 AND DUP3 MSTORE DUP5 MSTORE KECCAK256 SLOAD PUSH1 0x40 MLOAD SWAP2 AND ISZERO ISZERO DUP2 MSTORE RETURN JUMPDEST DUP3 CALLVALUE PUSH2 0x1DA JUMPI PUSH1 0x20 SWAP1 DUP2 PUSH1 0x3 NOT CALLDATASIZE ADD SLT PUSH2 0x1DA JUMPI PUSH2 0x1721 PUSH2 0x2054 JUMP JUMPDEST SWAP1 PUSH1 0x2 SLOAD SWAP2 PUSH1 0x3 SWAP3 DUP4 DUP2 MUL SWAP4 DUP2 DUP6 DIV DUP2 EQ DUP3 ISZERO OR ISZERO PUSH2 0x19A2 JUMPI PUSH2 0x1746 DUP6 SWAP4 SWAP3 SWAP4 PUSH2 0x246C JUMP JUMPDEST SWAP3 PUSH2 0x1759 PUSH2 0x1753 DUP8 PUSH2 0x246C JUMP JUMPDEST SWAP7 PUSH2 0x246C JUMP JUMPDEST DUP6 SWAP4 SWAP1 SWAP3 SWAP1 PUSH1 0x1 PUSH1 0x1 PUSH1 0xA0 SHL SUB AND DUP5 JUMPDEST DUP4 DUP2 GT ISZERO PUSH2 0x182B JUMPI POP POP POP POP PUSH2 0x177E DUP3 PUSH2 0x246C JUMP JUMPDEST SWAP5 PUSH2 0x1788 DUP4 PUSH2 0x246C JUMP JUMPDEST SWAP4 PUSH2 0x1792 DUP5 PUSH2 0x246C JUMP JUMPDEST SWAP6 JUMPDEST DUP5 DUP2 LT PUSH2 0x17DB JUMPI PUSH2 0x17BC DUP9 PUSH2 0x17D7 DUP10 PUSH2 0x17C9 DUP14 DUP12 PUSH1 0x40 MLOAD SWAP7 DUP8 SWAP7 PUSH1 0x60 DUP9 MSTORE PUSH1 0x60 DUP9 ADD SWAP1 PUSH2 0x2094 JUMP JUMPDEST SWAP2 DUP7 DUP4 SUB SWAP1 DUP8 ADD MSTORE PUSH2 0x2094 JUMP JUMPDEST SWAP1 DUP4 DUP3 SUB PUSH1 0x40 DUP6 ADD MSTORE PUSH2 0x2094 JUMP JUMPDEST SUB SWAP1 RETURN JUMPDEST DUP1 PUSH2 0x17E9 PUSH2 0x1826 SWAP3 DUP5 PUSH2 0x2378 JUMP JUMPDEST MLOAD PUSH2 0x17F4 DUP3 DUP12 PUSH2 0x2378 JUMP JUMPDEST MSTORE PUSH2 0x17FF DUP2 DUP6 PUSH2 0x2378 JUMP JUMPDEST MLOAD PUSH2 0x180A DUP3 DUP10 PUSH2 0x2378 JUMP JUMPDEST MSTORE PUSH2 0x1815 DUP2 DUP7 PUSH2 0x2378 JUMP JUMPDEST MLOAD PUSH2 0x1820 DUP3 DUP11 PUSH2 0x2378 JUMP JUMPDEST MSTORE PUSH2 0x218C JUMP JUMPDEST PUSH2 0x1794 JUMP JUMPDEST DUP8 JUMPDEST DUP4 DUP2 LT PUSH2 0x1843 JUMPI POP PUSH2 0x183E SWAP1 PUSH2 0x218C JUMP JUMPDEST PUSH2 0x1769 JUMP JUMPDEST DUP2 DUP10 MSTORE PUSH1 0x7 DUP12 MSTORE PUSH1 0x40 DUP10 KECCAK256 DUP2 DUP11 MSTORE DUP12 MSTORE PUSH1 0x40 DUP10 KECCAK256 DUP3 DUP11 MSTORE DUP12 PUSH1 0x8 DUP1 DUP3 MSTORE PUSH1 0x40 DUP13 KECCAK256 DUP5 DUP14 MSTORE DUP3 MSTORE PUSH1 0x40 DUP13 KECCAK256 DUP7 DUP14 MSTORE DUP3 MSTORE PUSH1 0xFF DUP13 DUP2 PUSH1 0x40 DUP3 KECCAK256 SLOAD AND SWAP4 DUP5 PUSH2 0x1976 JUMPI JUMPDEST POP POP DUP3 PUSH2 0x1968 JUMPI JUMPDEST POP DUP2 PUSH2 0x1939 JUMPI JUMPDEST POP DUP1 PUSH2 0x192C JUMPI JUMPDEST PUSH2 0x18AD JUMPI JUMPDEST POP PUSH2 0x18A8 SWAP1 PUSH2 0x218C JUMP JUMPDEST PUSH2 0x182D JUMP JUMPDEST PUSH1 0x4 DUP2 SWAP9 SWAP3 SWAP9 ADD SLOAD PUSH2 0x1F4 DUP1 DUP3 MUL SWAP1 DUP3 DUP3 DIV EQ DUP3 ISZERO OR ISZERO PUSH2 0x1918 JUMPI DUP10 PUSH2 0x1906 DUP6 DUP16 DUP9 DUP16 SWAP6 DUP4 PUSH2 0x18FA PUSH2 0x1911 SWAP11 PUSH1 0x6 PUSH2 0x18F1 PUSH2 0x18A8 SWAP15 SWAP13 PUSH2 0x2710 PUSH2 0x1900 SWAP8 DIV SWAP1 PUSH2 0x215C JUMP JUMPDEST SWAP2 ADD SLOAD SWAP1 PUSH2 0x219B JUMP JUMPDEST SWAP8 PUSH2 0x2378 JUMP JUMPDEST MSTORE PUSH2 0x2378 JUMP JUMPDEST MSTORE PUSH2 0x1820 DUP3 DUP11 PUSH2 0x2378 JUMP JUMPDEST SWAP7 SWAP1 PUSH2 0x189E JUMP JUMPDEST PUSH4 0x4E487B71 PUSH1 0xE0 SHL DUP13 MSTORE PUSH1 0x11 PUSH1 0x4 MSTORE PUSH1 0x24 DUP13 REVERT JUMPDEST POP PUSH1 0x6 DUP2 ADD SLOAD ISZERO ISZERO PUSH2 0x1899 JUMP JUMPDEST SWAP1 POP DUP2 ADD SLOAD PUSH3 0x127500 DUP2 ADD DUP1 SWAP2 GT PUSH2 0x1954 JUMPI TIMESTAMP GT ISZERO DUP14 PUSH2 0x1892 JUMP JUMPDEST PUSH4 0x4E487B71 PUSH1 0xE0 SHL DUP12 MSTORE PUSH1 0x11 PUSH1 0x4 MSTORE PUSH1 0x24 DUP12 REVERT JUMPDEST PUSH1 0x5 DUP5 ADD SLOAD AND SWAP2 POP DUP15 PUSH2 0x188B JUMP JUMPDEST SWAP1 SWAP2 SWAP4 POP DUP7 DUP3 MSTORE PUSH1 0x9 DUP2 MSTORE PUSH1 0x40 DUP3 KECCAK256 DUP7 DUP4 MSTORE DUP2 MSTORE DUP8 PUSH1 0x40 DUP4 KECCAK256 SWAP3 MSTORE MSTORE DUP2 PUSH1 0x40 DUP14 KECCAK256 SLOAD AND ISZERO SWAP2 DUP13 DUP16 PUSH2 0x1883 JUMP JUMPDEST PUSH4 0x4E487B71 PUSH1 0xE0 SHL DUP5 MSTORE PUSH1 0x11 PUSH1 0x4 MSTORE PUSH1 0x24 DUP5 REVERT JUMPDEST DUP3 CALLVALUE PUSH2 0x1DA JUMPI PUSH1 0x20 CALLDATASIZE PUSH1 0x3 NOT ADD SLT PUSH2 0x1DA JUMPI PUSH1 0x20 SWAP1 PUSH1 0xFF SWAP1 PUSH1 0x40 SWAP1 PUSH1 0x1 PUSH1 0x1 PUSH1 0xA0 SHL SUB PUSH2 0x19E1 PUSH2 0x2054 JUMP JUMPDEST AND DUP2 MSTORE PUSH1 0x6 DUP5 MSTORE KECCAK256 SLOAD AND PUSH1 0x40 MLOAD SWAP1 ISZERO ISZERO DUP2 MSTORE RETURN JUMPDEST DUP3 CALLVALUE PUSH2 0x1DA JUMPI DUP1 PUSH1 0x3 NOT CALLDATASIZE ADD SLT PUSH2 0x1DA JUMPI PUSH1 0x20 PUSH1 0xB SLOAD PUSH1 0x40 MLOAD SWAP1 DUP2 MSTORE RETURN JUMPDEST DUP3 CALLVALUE PUSH2 0x1DA JUMPI DUP1 PUSH1 0x3 NOT CALLDATASIZE ADD SLT PUSH2 0x1DA JUMPI PUSH1 0x20 PUSH1 0x40 MLOAD PUSH2 0x1F4 DUP2 MSTORE RETURN JUMPDEST DUP3 CALLVALUE PUSH2 0x1DA JUMPI PUSH1 0x20 CALLDATASIZE PUSH1 0x3 NOT ADD SLT PUSH2 0x1DA JUMPI PUSH2 0x1A4A PUSH2 0x2054 JUMP JUMPDEST PUSH2 0x1A52 PUSH2 0x20F5 JUMP JUMPDEST PUSH1 0x1 PUSH1 0x1 PUSH1 0xA0 SHL SUB AND DUP2 MSTORE PUSH1 0x6 PUSH1 0x20 MSTORE PUSH1 0x40 DUP2 KECCAK256 DUP1 SLOAD PUSH1 0xFF NOT AND PUSH1 0x1 OR SWAP1 SSTORE DUP1 RETURN JUMPDEST DUP3 CALLVALUE PUSH2 0x1DA JUMPI PUSH1 0xFF PUSH1 0x40 PUSH1 0x20 SWAP3 PUSH2 0x1A8A CALLDATASIZE PUSH2 0x206A JUMP JUMPDEST SWAP2 DUP4 MSTORE PUSH1 0x8 DUP7 MSTORE DUP4 DUP4 KECCAK256 SWAP1 DUP4 MSTORE DUP6 MSTORE DUP3 DUP3 KECCAK256 PUSH1 0x1 PUSH1 0x1 PUSH1 0xA0 SHL SUB SWAP1 SWAP2 AND DUP3 MSTORE DUP5 MSTORE KECCAK256 SLOAD PUSH1 0x40 MLOAD SWAP2 AND ISZERO ISZERO DUP2 MSTORE RETURN JUMPDEST DUP3 CALLVALUE PUSH2 0x1DA JUMPI DUP1 PUSH1 0x3 NOT CALLDATASIZE ADD SLT PUSH2 0x1DA JUMPI PUSH2 0x1AD1 PUSH2 0x20F5 JUMP JUMPDEST PUSH2 0x1AD9 PUSH2 0x2121 JUMP JUMPDEST PUSH1 0xB SLOAD DUP1 ISZERO PUSH2 0x1508 JUMPI PUSH1 0xB DUP3 SWAP1 SSTORE DUP2 SLOAD PUSH1 0x40 MLOAD PUSH4 0xA9059CBB PUSH1 0xE0 SHL DUP2 MSTORE PUSH1 0x1 PUSH1 0x1 PUSH1 0xA0 SHL SUB SWAP2 DUP3 AND PUSH1 0x4 DUP3 ADD MSTORE PUSH1 0x24 DUP2 ADD DUP4 SWAP1 MSTORE PUSH1 0x20 DUP2 PUSH1 0x44 DUP2 DUP8 PUSH32 0x0 DUP8 AND GAS CALL SWAP1 DUP2 ISZERO PUSH2 0x12C6 JUMPI DUP5 SWAP2 PUSH2 0x1B83 JUMPI JUMPDEST POP ISZERO PUSH2 0xCD7 JUMPI PUSH1 0x20 PUSH32 0xC0819C13BE868895EB93E40EACEB96DE976442FA1D404E5C55F14BB65A8C489A SWAP2 DUP5 SLOAD AND SWAP3 PUSH1 0x40 MLOAD SWAP1 DUP2 MSTORE LOG2 PUSH1 0x1 DUP1 SSTORE DUP1 RETURN JUMPDEST PUSH2 0x1B9B SWAP2 POP PUSH1 0x20 RETURNDATASIZE DUP2 GT PUSH2 0xD11 JUMPI PUSH2 0xD03 DUP2 DUP4 PUSH2 0x1F4D JUMP JUMPDEST DUP5 PUSH2 0x1B47 JUMP JUMPDEST DUP3 CALLVALUE PUSH2 0x1DA JUMPI DUP1 PUSH1 0x3 NOT CALLDATASIZE ADD SLT PUSH2 0x1DA JUMPI PUSH1 0x20 PUSH1 0x40 MLOAD PUSH3 0x127500 DUP2 MSTORE RETURN JUMPDEST DUP3 CALLVALUE PUSH2 0x1DA JUMPI DUP1 PUSH1 0x3 NOT CALLDATASIZE ADD SLT PUSH2 0x1DA JUMPI PUSH1 0x20 PUSH1 0x40 MLOAD PUSH1 0x3 DUP2 MSTORE RETURN JUMPDEST DUP3 CALLVALUE PUSH2 0x1DA JUMPI PUSH1 0x20 PUSH2 0x1BF5 PUSH2 0x1BEF CALLDATASIZE PUSH2 0x206A JUMP JUMPDEST SWAP2 PUSH2 0x23A2 JUMP JUMPDEST PUSH1 0x40 MLOAD SWAP1 DUP2 MSTORE RETURN JUMPDEST DUP3 CALLVALUE PUSH2 0x1DA JUMPI DUP1 PUSH1 0x3 NOT CALLDATASIZE ADD SLT PUSH2 0x1DA JUMPI PUSH1 0x40 MLOAD PUSH32 0x0 PUSH1 0x1 PUSH1 0x1 PUSH1 0xA0 SHL SUB AND DUP2 MSTORE PUSH1 0x20 SWAP1 RETURN JUMPDEST DUP3 CALLVALUE PUSH2 0x1DA JUMPI PUSH1 0x20 CALLDATASIZE PUSH1 0x3 NOT ADD SLT PUSH2 0x1DA JUMPI PUSH1 0x20 SWAP1 PUSH1 0xFF SWAP1 PUSH1 0x40 SWAP1 PUSH1 0x1 PUSH1 0x1 PUSH1 0xA0 SHL SUB PUSH2 0x1C6D PUSH2 0x2054 JUMP JUMPDEST AND DUP2 MSTORE PUSH1 0x5 DUP5 MSTORE KECCAK256 SLOAD AND PUSH1 0x40 MLOAD SWAP1 ISZERO ISZERO DUP2 MSTORE RETURN JUMPDEST DUP3 CALLVALUE PUSH2 0x1DA JUMPI PUSH2 0x1C90 CALLDATASIZE PUSH2 0x1EDC JUMP JUMPDEST SWAP1 PUSH2 0x1C99 PUSH2 0x2121 JUMP JUMPDEST PUSH1 0x3 DUP3 LT ISZERO PUSH2 0x59E JUMPI DUP1 DUP4 MSTORE PUSH1 0x20 PUSH1 0x7 DUP2 MSTORE PUSH1 0x40 DUP5 KECCAK256 DUP4 DUP6 MSTORE DUP2 MSTORE PUSH1 0x40 DUP5 KECCAK256 SWAP1 PUSH1 0xFF PUSH1 0x5 DUP4 ADD SLOAD AND ISZERO PUSH2 0x1564 JUMPI PUSH1 0x8 DUP3 ADD SLOAD PUSH3 0x127500 DUP2 ADD DUP1 SWAP2 GT PUSH2 0x152C JUMPI TIMESTAMP GT ISZERO PUSH2 0x1DE9 JUMPI PUSH1 0x4 DUP3 ADD SLOAD PUSH2 0x1F4 DUP1 DUP3 MUL SWAP1 DUP3 DUP3 DIV EQ DUP3 ISZERO OR ISZERO PUSH2 0x1DD5 JUMPI PUSH1 0x7 SWAP2 PUSH2 0x2710 PUSH2 0x1D08 SWAP3 DIV SWAP1 PUSH2 0x215C JUMP JUMPDEST SWAP3 ADD SWAP2 PUSH2 0x1D16 DUP4 SLOAD DUP3 PUSH2 0x215C JUMP JUMPDEST SWAP3 DUP4 ISZERO PUSH2 0x1508 JUMPI SSTORE DUP5 SLOAD PUSH1 0x40 MLOAD PUSH4 0xA9059CBB PUSH1 0xE0 SHL DUP2 MSTORE PUSH1 0x1 PUSH1 0x1 PUSH1 0xA0 SHL SUB SWAP2 DUP3 AND PUSH1 0x4 DUP3 ADD MSTORE PUSH1 0x24 DUP2 ADD DUP5 SWAP1 MSTORE SWAP1 DUP3 SWAP1 DUP3 SWAP1 PUSH1 0x44 SWAP1 DUP3 SWAP1 DUP11 SWAP1 PUSH32 0x0 AND GAS CALL SWAP1 DUP2 ISZERO PUSH2 0x4F0 JUMPI DUP7 SWAP2 PUSH2 0x1DB8 JUMPI JUMPDEST POP ISZERO PUSH2 0xCD7 JUMPI PUSH32 0xCF3B62092C7F2A3455C516C177BD1970412D1C381C960D3986E3296F9DFF0E7B SWAP2 PUSH1 0x40 MLOAD SWAP1 DUP2 MSTORE LOG3 PUSH1 0x1 DUP1 SSTORE DUP1 RETURN JUMPDEST PUSH2 0x1DCF SWAP2 POP DUP3 RETURNDATASIZE DUP5 GT PUSH2 0xD11 JUMPI PUSH2 0xD03 DUP2 DUP4 PUSH2 0x1F4D JUMP JUMPDEST DUP7 PUSH2 0x1D82 JUMP JUMPDEST PUSH4 0x4E487B71 PUSH1 0xE0 SHL DUP8 MSTORE PUSH1 0x11 PUSH1 0x4 MSTORE PUSH1 0x24 DUP8 REVERT JUMPDEST PUSH1 0x40 MLOAD PUSH4 0x162618A9 PUSH1 0xE0 SHL DUP2 MSTORE PUSH1 0x4 SWAP1 REVERT JUMPDEST DUP3 CALLVALUE PUSH2 0x1DA JUMPI PUSH1 0x40 SWAP1 PUSH2 0x1E0D CALLDATASIZE PUSH2 0x1EDC JUMP JUMPDEST SWAP1 DUP3 MSTORE PUSH1 0x7 PUSH1 0x20 MSTORE DUP3 DUP3 KECCAK256 SWAP1 DUP3 MSTORE PUSH1 0x20 MSTORE KECCAK256 SWAP1 PUSH1 0x1 DUP1 PUSH1 0xA0 SHL SUB DUP3 SLOAD AND SWAP1 PUSH2 0x1E37 PUSH1 0x1 DUP5 ADD PUSH2 0x1F6E JUMP JUMPDEST SWAP3 PUSH2 0x1E44 PUSH1 0x2 DUP3 ADD PUSH2 0x1F6E JUMP JUMPDEST SWAP1 PUSH2 0x1E51 PUSH1 0x3 DUP3 ADD PUSH2 0x1F6E JUMP JUMPDEST PUSH1 0x4 DUP3 ADD SLOAD SWAP4 PUSH1 0xFF PUSH1 0x5 DUP5 ADD SLOAD PUSH2 0x1EAE PUSH1 0x6 DUP7 ADD SLOAD SWAP5 PUSH2 0x1EA0 PUSH1 0x8 PUSH1 0x7 DUP10 ADD SLOAD SWAP9 ADD SLOAD SWAP9 PUSH2 0x1E92 PUSH1 0x40 MLOAD SWAP14 DUP15 SWAP14 DUP15 MSTORE DUP14 PUSH2 0x140 SWAP1 DUP2 PUSH1 0x20 DUP3 ADD MSTORE ADD SWAP1 PUSH2 0x2014 JUMP JUMPDEST DUP13 DUP2 SUB PUSH1 0x40 DUP15 ADD MSTORE SWAP1 PUSH2 0x2014 JUMP JUMPDEST SWAP1 DUP11 DUP3 SUB PUSH1 0x60 DUP13 ADD MSTORE PUSH2 0x2014 JUMP JUMPDEST SWAP7 PUSH1 0x80 DUP10 ADD MSTORE DUP2 DUP2 AND ISZERO ISZERO PUSH1 0xA0 DUP10 ADD MSTORE PUSH1 0x8 SHR AND ISZERO ISZERO PUSH1 0xC0 DUP8 ADD MSTORE DUP6 ADD MSTORE PUSH2 0x100 DUP5 ADD MSTORE PUSH2 0x120 DUP4 ADD MSTORE SUB SWAP1 RETURN JUMPDEST PUSH1 0x40 SWAP1 PUSH1 0x3 NOT ADD SLT PUSH2 0x1EF2 JUMPI PUSH1 0x4 CALLDATALOAD SWAP1 PUSH1 0x24 CALLDATALOAD SWAP1 JUMP JUMPDEST PUSH1 0x0 DUP1 REVERT JUMPDEST SWAP1 PUSH1 0x1 DUP3 DUP2 SHR SWAP3 AND DUP1 ISZERO PUSH2 0x1F27 JUMPI JUMPDEST PUSH1 0x20 DUP4 LT EQ PUSH2 0x1F11 JUMPI JUMP JUMPDEST PUSH4 0x4E487B71 PUSH1 0xE0 SHL PUSH1 0x0 MSTORE PUSH1 0x22 PUSH1 0x4 MSTORE PUSH1 0x24 PUSH1 0x0 REVERT JUMPDEST SWAP2 PUSH1 0x7F AND SWAP2 PUSH2 0x1F06 JUMP JUMPDEST PUSH2 0x140 DUP2 ADD SWAP1 DUP2 LT PUSH1 0x1 PUSH1 0x1 PUSH1 0x40 SHL SUB DUP3 GT OR PUSH2 0x552 JUMPI PUSH1 0x40 MSTORE JUMP JUMPDEST SWAP1 PUSH1 0x1F DUP1 NOT SWAP2 ADD AND DUP2 ADD SWAP1 DUP2 LT PUSH1 0x1 PUSH1 0x1 PUSH1 0x40 SHL SUB DUP3 GT OR PUSH2 0x552 JUMPI PUSH1 0x40 MSTORE JUMP JUMPDEST SWAP1 PUSH1 0x40 MLOAD SWAP2 DUP3 PUSH1 0x0 DUP3 SLOAD SWAP3 PUSH2 0x1F82 DUP5 PUSH2 0x1EF7 JUMP JUMPDEST SWAP1 DUP2 DUP5 MSTORE PUSH1 0x1 SWAP5 DUP6 DUP2 AND SWAP1 DUP2 PUSH1 0x0 EQ PUSH2 0x1FF1 JUMPI POP PUSH1 0x1 EQ PUSH2 0x1FAE JUMPI JUMPDEST POP POP PUSH2 0x1FAC SWAP3 POP SUB DUP4 PUSH2 0x1F4D JUMP JUMPDEST JUMP JUMPDEST SWAP1 SWAP4 SWAP2 POP PUSH1 0x0 MSTORE PUSH1 0x20 SWAP1 DUP2 PUSH1 0x0 KECCAK256 SWAP4 PUSH1 0x0 SWAP2 JUMPDEST DUP2 DUP4 LT PUSH2 0x1FD9 JUMPI POP POP PUSH2 0x1FAC SWAP4 POP DUP3 ADD ADD CODESIZE DUP1 PUSH2 0x1F9E JUMP JUMPDEST DUP6 SLOAD DUP9 DUP5 ADD DUP6 ADD MSTORE SWAP5 DUP6 ADD SWAP5 DUP8 SWAP5 POP SWAP2 DUP4 ADD SWAP2 PUSH2 0x1FC1 JUMP JUMPDEST SWAP2 POP POP PUSH2 0x1FAC SWAP5 POP PUSH1 0x20 SWAP3 POP PUSH1 0xFF NOT AND DUP3 DUP5 ADD MSTORE ISZERO ISZERO PUSH1 0x5 SHL DUP3 ADD ADD CODESIZE DUP1 PUSH2 0x1F9E JUMP JUMPDEST SWAP2 SWAP1 DUP3 MLOAD SWAP3 DUP4 DUP3 MSTORE PUSH1 0x0 JUMPDEST DUP5 DUP2 LT PUSH2 0x2040 JUMPI POP POP DUP3 PUSH1 0x0 PUSH1 0x20 DUP1 SWAP5 SWAP6 DUP5 ADD ADD MSTORE PUSH1 0x1F DUP1 NOT SWAP2 ADD AND ADD ADD SWAP1 JUMP JUMPDEST PUSH1 0x20 DUP2 DUP4 ADD DUP2 ADD MLOAD DUP5 DUP4 ADD DUP3 ADD MSTORE ADD PUSH2 0x201F JUMP JUMPDEST PUSH1 0x4 CALLDATALOAD SWAP1 PUSH1 0x1 PUSH1 0x1 PUSH1 0xA0 SHL SUB DUP3 AND DUP3 SUB PUSH2 0x1EF2 JUMPI JUMP JUMPDEST PUSH1 0x60 SWAP1 PUSH1 0x3 NOT ADD SLT PUSH2 0x1EF2 JUMPI PUSH1 0x4 CALLDATALOAD SWAP1 PUSH1 0x24 CALLDATALOAD SWAP1 PUSH1 0x44 CALLDATALOAD PUSH1 0x1 PUSH1 0x1 PUSH1 0xA0 SHL SUB DUP2 AND DUP2 SUB PUSH2 0x1EF2 JUMPI SWAP1 JUMP JUMPDEST SWAP1 DUP2 MLOAD DUP1 DUP3 MSTORE PUSH1 0x20 DUP1 DUP1 SWAP4 ADD SWAP4 ADD SWAP2 PUSH1 0x0 JUMPDEST DUP3 DUP2 LT PUSH2 0x20B4 JUMPI POP POP POP POP SWAP1 JUMP JUMPDEST DUP4 MLOAD DUP6 MSTORE SWAP4 DUP2 ADD SWAP4 SWAP3 DUP2 ADD SWAP3 PUSH1 0x1 ADD PUSH2 0x20A6 JUMP JUMPDEST SWAP2 DUP2 PUSH1 0x1F DUP5 ADD SLT ISZERO PUSH2 0x1EF2 JUMPI DUP3 CALLDATALOAD SWAP2 PUSH1 0x1 PUSH1 0x1 PUSH1 0x40 SHL SUB DUP4 GT PUSH2 0x1EF2 JUMPI PUSH1 0x20 DUP4 DUP2 DUP7 ADD SWAP6 ADD ADD GT PUSH2 0x1EF2 JUMPI JUMP JUMPDEST PUSH1 0x0 SLOAD PUSH1 0x1 PUSH1 0x1 PUSH1 0xA0 SHL SUB AND CALLER SUB PUSH2 0x2109 JUMPI JUMP JUMPDEST PUSH1 0x40 MLOAD PUSH4 0x118CDAA7 PUSH1 0xE0 SHL DUP2 MSTORE CALLER PUSH1 0x4 DUP3 ADD MSTORE PUSH1 0x24 SWAP1 REVERT JUMPDEST PUSH1 0x2 PUSH1 0x1 SLOAD EQ PUSH2 0x2132 JUMPI PUSH1 0x2 PUSH1 0x1 SSTORE JUMP JUMPDEST PUSH1 0x40 MLOAD PUSH4 0x3EE5AEB5 PUSH1 0xE0 SHL DUP2 MSTORE PUSH1 0x4 SWAP1 REVERT JUMPDEST SWAP1 DUP2 PUSH1 0x20 SWAP2 SUB SLT PUSH2 0x1EF2 JUMPI MLOAD DUP1 ISZERO ISZERO DUP2 SUB PUSH2 0x1EF2 JUMPI SWAP1 JUMP JUMPDEST SWAP2 SWAP1 DUP3 SUB SWAP2 DUP3 GT PUSH2 0x2169 JUMPI JUMP JUMPDEST PUSH4 0x4E487B71 PUSH1 0xE0 SHL PUSH1 0x0 MSTORE PUSH1 0x11 PUSH1 0x4 MSTORE PUSH1 0x24 PUSH1 0x0 REVERT JUMPDEST SWAP2 SWAP1 DUP3 ADD DUP1 SWAP3 GT PUSH2 0x2169 JUMPI JUMP JUMPDEST PUSH1 0x0 NOT DUP2 EQ PUSH2 0x2169 JUMPI PUSH1 0x1 ADD SWAP1 JUMP JUMPDEST DUP2 ISZERO PUSH2 0x21A5 JUMPI DIV SWAP1 JUMP JUMPDEST PUSH4 0x4E487B71 PUSH1 0xE0 SHL PUSH1 0x0 MSTORE PUSH1 0x12 PUSH1 0x4 MSTORE PUSH1 0x24 PUSH1 0x0 REVERT JUMPDEST PUSH1 0x2 SLOAD ISZERO PUSH2 0x2242 JUMPI PUSH1 0x2 SLOAD PUSH1 0x0 NOT DUP2 ADD SWAP1 DUP2 GT PUSH2 0x2169 JUMPI PUSH1 0x3 DUP1 SLOAD DUP3 GT PUSH2 0x2213 JUMPI JUMPDEST POP PUSH2 0x21E9 PUSH1 0x2 SLOAD PUSH2 0x218C JUMP JUMPDEST PUSH1 0x2 SSTORE PUSH32 0x6FBFBCCDD0D107860C9BCCFA723D97EBA4F37886EDEB01E7A438B1E0FE44E056 PUSH1 0x0 DUP1 LOG2 JUMP JUMPDEST DUP2 SWAP1 PUSH1 0x0 JUMPDEST DUP2 DUP2 LT PUSH2 0x2227 JUMPI POP SSTORE CODESIZE PUSH2 0x21DD JUMP JUMPDEST PUSH2 0x2235 DUP2 PUSH2 0x223A SWAP4 SWAP5 PUSH2 0x226F JUMP JUMPDEST PUSH2 0x218C JUMP JUMPDEST SWAP1 DUP3 SWAP2 PUSH2 0x2218 JUMP JUMPDEST PUSH1 0x1 PUSH1 0x2 SSTORE PUSH1 0x0 PUSH32 0x6FBFBCCDD0D107860C9BCCFA723D97EBA4F37886EDEB01E7A438B1E0FE44E056 DUP2 DUP1 LOG2 JUMP JUMPDEST PUSH1 0x0 DUP2 DUP2 MSTORE PUSH1 0x7 PUSH1 0x20 MSTORE PUSH1 0x40 DUP2 KECCAK256 DUP4 DUP3 MSTORE PUSH1 0x20 MSTORE PUSH1 0x40 DUP2 KECCAK256 SWAP1 PUSH1 0x1 DUP1 PUSH1 0xA0 SHL SUB DUP3 SLOAD AND ISZERO PUSH2 0x234E JUMPI PUSH1 0x5 DUP3 ADD SWAP1 DUP2 SLOAD PUSH1 0xFF DUP2 PUSH1 0x8 SHR AND PUSH2 0x233E JUMPI POP PUSH1 0x4 DUP4 ADD SLOAD SWAP1 PUSH2 0x1F4 SWAP1 DUP2 DUP4 MUL SWAP2 DUP4 DUP4 DIV EQ DUP4 ISZERO OR ISZERO PUSH2 0x232A JUMPI POP SWAP3 PUSH1 0x20 SWAP3 PUSH2 0x230B PUSH1 0x6 SWAP4 PUSH2 0x2300 PUSH2 0x2710 PUSH32 0x67A59239176EDC6000958291E1C679AFD7B3E13A274C758A1FB33D8587D5E708 SWAP9 DIV PUSH1 0xB SLOAD PUSH2 0x217F JUMP JUMPDEST PUSH1 0xB SSTORE PUSH1 0xC SLOAD PUSH2 0x215C JUMP JUMPDEST PUSH1 0xC SSTORE DUP1 SLOAD PUSH1 0xFF NOT AND PUSH1 0x1 OR SWAP1 SSTORE TIMESTAMP PUSH1 0x8 DUP3 ADD SSTORE ADD SLOAD PUSH1 0x40 MLOAD SWAP1 DUP2 MSTORE LOG3 JUMP JUMPDEST PUSH4 0x4E487B71 PUSH1 0xE0 SHL DUP2 MSTORE PUSH1 0x11 PUSH1 0x4 MSTORE PUSH1 0x24 SWAP1 REVERT JUMPDEST PUSH1 0xFF NOT AND PUSH1 0x1 OR SWAP1 SWAP2 SSTORE POP POP POP POP JUMP JUMPDEST POP PUSH1 0x5 ADD DUP1 SLOAD PUSH1 0xFF NOT AND PUSH1 0x1 OR SWAP1 SSTORE POP POP JUMP JUMPDEST PUSH1 0x1 PUSH1 0x1 PUSH1 0x40 SHL SUB DUP2 GT PUSH2 0x552 JUMPI PUSH1 0x5 SHL PUSH1 0x20 ADD SWAP1 JUMP JUMPDEST DUP1 MLOAD DUP3 LT ISZERO PUSH2 0x238C JUMPI PUSH1 0x20 SWAP2 PUSH1 0x5 SHL ADD ADD SWAP1 JUMP JUMPDEST PUSH4 0x4E487B71 PUSH1 0xE0 SHL PUSH1 0x0 MSTORE PUSH1 0x32 PUSH1 0x4 MSTORE PUSH1 0x24 PUSH1 0x0 REVERT JUMPDEST SWAP2 PUSH1 0x0 SWAP1 DUP4 DUP3 MSTORE PUSH1 0x20 SWAP1 PUSH1 0x7 DUP3 MSTORE PUSH1 0x40 SWAP2 DUP3 DUP5 KECCAK256 DUP6 DUP6 MSTORE DUP2 MSTORE DUP3 DUP5 KECCAK256 SWAP5 DUP7 DUP6 MSTORE PUSH1 0x8 DUP3 MSTORE DUP4 DUP6 KECCAK256 DUP2 DUP7 MSTORE DUP3 MSTORE DUP4 DUP6 KECCAK256 SWAP3 PUSH1 0x1 DUP1 PUSH1 0xA0 SHL SUB AND SWAP3 DUP4 DUP7 MSTORE DUP3 MSTORE PUSH1 0xFF DUP5 DUP7 KECCAK256 SLOAD AND ISZERO PUSH2 0x2462 JUMPI DUP5 SWAP6 SWAP7 PUSH1 0xFF SWAP6 MSTORE PUSH1 0x9 DUP3 MSTORE DUP4 DUP7 KECCAK256 SWAP1 DUP7 MSTORE DUP2 MSTORE DUP3 DUP6 KECCAK256 SWAP2 DUP6 MSTORE MSTORE DUP3 KECCAK256 SLOAD AND PUSH2 0x245D JUMPI PUSH1 0xFF PUSH1 0x5 DUP4 ADD SLOAD AND ISZERO PUSH2 0x245D JUMPI PUSH1 0x6 DUP3 ADD SLOAD SWAP2 DUP3 ISZERO PUSH2 0x2457 JUMPI PUSH1 0x4 ADD SLOAD SWAP1 PUSH2 0x1F4 SWAP1 DUP2 DUP4 MUL SWAP2 DUP4 DUP4 DIV EQ DUP4 ISZERO OR ISZERO PUSH2 0x232A JUMPI POP PUSH2 0x2454 SWAP3 SWAP2 PUSH2 0x2710 PUSH2 0x1409 SWAP3 DIV SWAP1 PUSH2 0x215C JUMP JUMPDEST SWAP1 JUMP JUMPDEST POP SWAP1 POP SWAP1 JUMP JUMPDEST SWAP1 POP SWAP1 JUMP JUMPDEST POP POP POP POP SWAP2 POP POP SWAP1 JUMP JUMPDEST SWAP1 PUSH2 0x2476 DUP3 PUSH2 0x2361 JUMP JUMPDEST PUSH2 0x2483 PUSH1 0x40 MLOAD SWAP2 DUP3 PUSH2 0x1F4D JUMP JUMPDEST DUP3 DUP2 MSTORE DUP1 SWAP3 PUSH2 0x2494 PUSH1 0x1F NOT SWAP2 PUSH2 0x2361 JUMP JUMPDEST ADD SWAP1 PUSH1 0x20 CALLDATASIZE SWAP2 ADD CALLDATACOPY JUMP INVALID LOG2 PUSH5 0x6970667358 0x22 SLT KECCAK256 PUSH2 0x725D OR DUP10 0x5D 0x28 CALLER 0xF 0xDA 0xF6 0xE2 PUSH24 0xF6CB5B9308273AC0AF0E21AB904A287C6EFD9064736F6C63 NUMBER STOP ADDMOD EQ STOP CALLER "},"methodIdentifiers":{"AD_SLOTS_PER_CYCLE()":"39aca329","CLAIM_DEADLINE()":"42f81580","PLATFORM_FEE_BPS()":"539aa77f","WLD()":"de061d66","accumulatedFees()":"587f5ed7","adSlots(uint256,uint256)":"035169a4","addAuthorizedSigner(address)":"5240eb32","authorizedSigners(address)":"5d2b6a4e","banAdvertiser(address)":"c0ae6146","bannedAdvertisers(address)":"11637f22","calculateUserReward(uint256,uint256,address)":"1f50fec9","claimReward(uint256,uint256)":"86bb8f37","collectExpiredClaims(uint256,uint256)":"1012be0d","currentCycle()":"bab2f552","getCurrentAds()":"b7c32bf0","getCurrentCycle()":"be26ed7f","getUserClaimableRewards(address)":"646e200b","hasClaimed(uint256,uint256,address)":"69547f2d","hasClicked(uint256,uint256,address)":"4d63a475","lastFinalizedCycle()":"6ecdf606","lockedFunds()":"b8afaa48","owner()":"8da5cb5b","permit2()":"12261ee7","placeAdBid(uint256,uint256,string,string,string,uint256,((address,uint256),uint256,uint256),bytes)":"e26f58be","progressCycle()":"71b3fb9a","recordClick(uint256,uint256,uint256,uint256,bytes)":"e7c21a3e","register(address,uint256,uint256,uint256[8])":"cc6cd25e","registered(address)":"b2dd5c07","removeAd(uint256,uint256)":"97090dc8","removeAuthorizedSigner(address)":"f62a4edb","renounceOwnership()":"715018a6","transferOwnership(address)":"f2fde38b","unbanAdvertiser(address)":"74331428","usedSignatures(bytes32)":"f978fd61","withdrawFees()":"476343ee","worldId()":"753e9ef0"}}}}}