{"contracts/ADSDemo.sol":{"ADSDemo":{"abi":[{"inputs":[{"internalType":"address","name":"_wldToken","type":"address"},{"internalType":"address","name":"_worldId","type":"address"},{"internalType":"string","name":"_appId","type":"string"},{"internalType":"string","name":"_action","type":"string"}],"stateMutability":"nonpayable","type":"constructor"},{"inputs":[],"name":"AdWasRemoved","type":"error"},{"inputs":[],"name":"AdvertiserIsBanned","type":"error"},{"inputs":[],"name":"AlreadyClaimed","type":"error"},{"inputs":[],"name":"AlreadyClicked","type":"error"},{"inputs":[],"name":"AlreadyFinalized","type":"error"},{"inputs":[],"name":"AlreadyRegistered","type":"error"},{"inputs":[],"name":"ClaimDeadlineNotPassed","type":"error"},{"inputs":[],"name":"ClaimDeadlinePassed","type":"error"},{"inputs":[],"name":"InvalidAmount","type":"error"},{"inputs":[],"name":"InvalidCycle","type":"error"},{"inputs":[],"name":"InvalidSlot","type":"error"},{"inputs":[],"name":"NoClickRecorded","type":"error"},{"inputs":[],"name":"NotAdvertiser","type":"error"},{"inputs":[],"name":"NotAuthorized","type":"error"},{"inputs":[],"name":"NotFinalized","type":"error"},{"inputs":[],"name":"NotRegistered","type":"error"},{"inputs":[{"internalType":"address","name":"owner","type":"address"}],"name":"OwnableInvalidOwner","type":"error"},{"inputs":[{"internalType":"address","name":"account","type":"address"}],"name":"OwnableUnauthorizedAccount","type":"error"},{"inputs":[],"name":"ReentrancyGuardReentrantCall","type":"error"},{"inputs":[],"name":"SignatureAlreadyUsed","type":"error"},{"inputs":[],"name":"TransferFailed","type":"error"},{"anonymous":false,"inputs":[{"indexed":true,"internalType":"address","name":"advertiser","type":"address"},{"indexed":true,"internalType":"uint256","name":"cycle","type":"uint256"},{"indexed":true,"internalType":"uint256","name":"slotIndex","type":"uint256"},{"indexed":false,"internalType":"enum ADSDemo.SlotType","name":"slotType","type":"uint8"},{"indexed":false,"internalType":"uint256","name":"bidAmount","type":"uint256"}],"name":"AdBidPlaced","type":"event"},{"anonymous":false,"inputs":[{"indexed":true,"internalType":"address","name":"advertiser","type":"address"},{"indexed":true,"internalType":"uint256","name":"cycle","type":"uint256"},{"indexed":true,"internalType":"uint256","name":"slotIndex","type":"uint256"}],"name":"AdRemoved","type":"event"},{"anonymous":false,"inputs":[{"indexed":true,"internalType":"uint256","name":"cycle","type":"uint256"},{"indexed":true,"internalType":"uint256","name":"slotIndex","type":"uint256"},{"indexed":false,"internalType":"uint256","name":"totalClicks","type":"uint256"}],"name":"AdSlotFinalized","type":"event"},{"anonymous":false,"inputs":[{"indexed":true,"internalType":"address","name":"advertiser","type":"address"}],"name":"AdvertiserBanned","type":"event"},{"anonymous":false,"inputs":[{"indexed":true,"internalType":"address","name":"advertiser","type":"address"}],"name":"AdvertiserUnbanned","type":"event"},{"anonymous":false,"inputs":[{"indexed":true,"internalType":"address","name":"user","type":"address"},{"indexed":true,"internalType":"uint256","name":"cycle","type":"uint256"},{"indexed":true,"internalType":"uint256","name":"slotIndex","type":"uint256"}],"name":"ClickRecorded","type":"event"},{"anonymous":false,"inputs":[{"indexed":true,"internalType":"uint256","name":"cycle","type":"uint256"}],"name":"CycleFinalized","type":"event"},{"anonymous":false,"inputs":[{"indexed":true,"internalType":"uint256","name":"cycle","type":"uint256"},{"indexed":true,"internalType":"uint256","name":"slotIndex","type":"uint256"},{"indexed":false,"internalType":"uint256","name":"amount","type":"uint256"}],"name":"ExpiredClaimCollected","type":"event"},{"anonymous":false,"inputs":[{"indexed":true,"internalType":"address","name":"recipient","type":"address"},{"indexed":false,"internalType":"uint256","name":"amount","type":"uint256"}],"name":"FeesWithdrawn","type":"event"},{"anonymous":false,"inputs":[{"indexed":true,"internalType":"address","name":"previousOwner","type":"address"},{"indexed":true,"internalType":"address","name":"newOwner","type":"address"}],"name":"OwnershipTransferred","type":"event"},{"anonymous":false,"inputs":[{"indexed":true,"internalType":"address","name":"user","type":"address"},{"indexed":true,"internalType":"uint256","name":"cycle","type":"uint256"},{"indexed":true,"internalType":"uint256","name":"slotIndex","type":"uint256"},{"indexed":false,"internalType":"uint256","name":"amount","type":"uint256"}],"name":"RewardClaimed","type":"event"},{"anonymous":false,"inputs":[{"indexed":true,"internalType":"address","name":"user","type":"address"}],"name":"UserRegistered","type":"event"},{"inputs":[],"name":"AD_SLOTS_PER_CYCLE","outputs":[{"internalType":"uint256","name":"","type":"uint256"}],"stateMutability":"view","type":"function"},{"inputs":[],"name":"CLAIM_DEADLINE","outputs":[{"internalType":"uint256","name":"","type":"uint256"}],"stateMutability":"view","type":"function"},{"inputs":[],"name":"CYCLE_DURATION","outputs":[{"internalType":"uint256","name":"","type":"uint256"}],"stateMutability":"view","type":"function"},{"inputs":[],"name":"PLATFORM_FEE_BPS","outputs":[{"internalType":"uint256","name":"","type":"uint256"}],"stateMutability":"view","type":"function"},{"inputs":[],"name":"WLD","outputs":[{"internalType":"contract IERC20","name":"","type":"address"}],"stateMutability":"view","type":"function"},{"inputs":[],"name":"accumulatedFees","outputs":[{"internalType":"uint256","name":"","type":"uint256"}],"stateMutability":"view","type":"function"},{"inputs":[{"internalType":"uint256","name":"","type":"uint256"},{"internalType":"uint256","name":"","type":"uint256"}],"name":"adSlots","outputs":[{"internalType":"address","name":"advertiser","type":"address"},{"internalType":"string","name":"name","type":"string"},{"internalType":"string","name":"description","type":"string"},{"internalType":"string","name":"imageUrl","type":"string"},{"internalType":"uint256","name":"bidAmount","type":"uint256"},{"internalType":"enum ADSDemo.SlotType","name":"slotType","type":"uint8"},{"internalType":"bool","name":"finalized","type":"bool"},{"internalType":"bool","name":"removed","type":"bool"},{"internalType":"uint256","name":"totalClicks","type":"uint256"},{"internalType":"uint256","name":"claimedAmount","type":"uint256"},{"internalType":"uint256","name":"finalizedAt","type":"uint256"}],"stateMutability":"view","type":"function"},{"inputs":[{"internalType":"address","name":"signer","type":"address"}],"name":"addAuthorizedSigner","outputs":[],"stateMutability":"nonpayable","type":"function"},{"inputs":[{"internalType":"address","name":"","type":"address"}],"name":"authorizedSigners","outputs":[{"internalType":"bool","name":"","type":"bool"}],"stateMutability":"view","type":"function"},{"inputs":[{"internalType":"address","name":"advertiser","type":"address"}],"name":"banAdvertiser","outputs":[],"stateMutability":"nonpayable","type":"function"},{"inputs":[{"internalType":"address","name":"","type":"address"}],"name":"bannedAdvertisers","outputs":[{"internalType":"bool","name":"","type":"bool"}],"stateMutability":"view","type":"function"},{"inputs":[{"internalType":"uint256","name":"cycle","type":"uint256"},{"internalType":"uint256","name":"slotIndex","type":"uint256"},{"internalType":"address","name":"user","type":"address"}],"name":"calculateUserReward","outputs":[{"internalType":"uint256","name":"","type":"uint256"}],"stateMutability":"view","type":"function"},{"inputs":[{"internalType":"uint256","name":"cycle","type":"uint256"},{"internalType":"uint256","name":"slotIndex","type":"uint256"}],"name":"claimReward","outputs":[],"stateMutability":"nonpayable","type":"function"},{"inputs":[{"internalType":"uint256","name":"cycle","type":"uint256"},{"internalType":"uint256","name":"slotIndex","type":"uint256"}],"name":"collectExpiredClaims","outputs":[],"stateMutability":"nonpayable","type":"function"},{"inputs":[{"internalType":"uint256","name":"cycle","type":"uint256"}],"name":"finalizeCycle","outputs":[],"stateMutability":"nonpayable","type":"function"},{"inputs":[],"name":"forceFinalizeCycle","outputs":[],"stateMutability":"nonpayable","type":"function"},{"inputs":[],"name":"getCurrentAds","outputs":[{"components":[{"internalType":"address","name":"advertiser","type":"address"},{"internalType":"string","name":"name","type":"string"},{"internalType":"string","name":"description","type":"string"},{"internalType":"string","name":"imageUrl","type":"string"},{"internalType":"uint256","name":"bidAmount","type":"uint256"},{"internalType":"enum ADSDemo.SlotType","name":"slotType","type":"uint8"},{"internalType":"bool","name":"finalized","type":"bool"},{"internalType":"bool","name":"removed","type":"bool"},{"internalType":"uint256","name":"totalClicks","type":"uint256"},{"internalType":"uint256","name":"claimedAmount","type":"uint256"},{"internalType":"uint256","name":"finalizedAt","type":"uint256"}],"internalType":"struct ADSDemo.AdSlot[]","name":"","type":"tuple[]"}],"stateMutability":"view","type":"function"},{"inputs":[],"name":"getCurrentCycle","outputs":[{"internalType":"uint256","name":"","type":"uint256"}],"stateMutability":"view","type":"function"},{"inputs":[{"internalType":"address","name":"user","type":"address"}],"name":"getUserClaimableRewards","outputs":[{"internalType":"uint256[]","name":"cycles","type":"uint256[]"},{"internalType":"uint256[]","name":"slots","type":"uint256[]"},{"internalType":"uint256[]","name":"amounts","type":"uint256[]"}],"stateMutability":"view","type":"function"},{"inputs":[{"internalType":"uint256","name":"","type":"uint256"},{"internalType":"uint256","name":"","type":"uint256"},{"internalType":"address","name":"","type":"address"}],"name":"hasClaimed","outputs":[{"internalType":"bool","name":"","type":"bool"}],"stateMutability":"view","type":"function"},{"inputs":[{"internalType":"uint256","name":"","type":"uint256"},{"internalType":"uint256","name":"","type":"uint256"},{"internalType":"address","name":"","type":"address"}],"name":"hasClicked","outputs":[{"internalType":"bool","name":"","type":"bool"}],"stateMutability":"view","type":"function"},{"inputs":[],"name":"lastFinalizedCycle","outputs":[{"internalType":"uint256","name":"","type":"uint256"}],"stateMutability":"view","type":"function"},{"inputs":[],"name":"lockedFunds","outputs":[{"internalType":"uint256","name":"","type":"uint256"}],"stateMutability":"view","type":"function"},{"inputs":[],"name":"owner","outputs":[{"internalType":"address","name":"","type":"address"}],"stateMutability":"view","type":"function"},{"inputs":[{"internalType":"uint256","name":"cycle","type":"uint256"},{"internalType":"uint256","name":"slotIndex","type":"uint256"},{"internalType":"string","name":"name","type":"string"},{"internalType":"string","name":"description","type":"string"},{"internalType":"string","name":"imageUrl","type":"string"},{"internalType":"uint256","name":"bidAmount","type":"uint256"},{"internalType":"enum ADSDemo.SlotType","name":"slotType","type":"uint8"}],"name":"placeAdBid","outputs":[],"stateMutability":"nonpayable","type":"function"},{"inputs":[{"internalType":"uint256","name":"cycle","type":"uint256"},{"internalType":"uint256","name":"slotIndex","type":"uint256"},{"internalType":"uint256","name":"nonce","type":"uint256"},{"internalType":"uint256","name":"timestamp","type":"uint256"},{"internalType":"bytes","name":"signature","type":"bytes"}],"name":"recordClick","outputs":[],"stateMutability":"nonpayable","type":"function"},{"inputs":[{"internalType":"address","name":"signal","type":"address"},{"internalType":"uint256","name":"root","type":"uint256"},{"internalType":"uint256","name":"nullifierHash","type":"uint256"},{"internalType":"uint256[8]","name":"proof","type":"uint256[8]"}],"name":"register","outputs":[],"stateMutability":"nonpayable","type":"function"},{"inputs":[{"internalType":"address","name":"","type":"address"}],"name":"registered","outputs":[{"internalType":"bool","name":"","type":"bool"}],"stateMutability":"view","type":"function"},{"inputs":[{"internalType":"uint256","name":"cycle","type":"uint256"},{"internalType":"uint256","name":"slotIndex","type":"uint256"}],"name":"removeAd","outputs":[],"stateMutability":"nonpayable","type":"function"},{"inputs":[{"internalType":"address","name":"signer","type":"address"}],"name":"removeAuthorizedSigner","outputs":[],"stateMutability":"nonpayable","type":"function"},{"inputs":[],"name":"renounceOwnership","outputs":[],"stateMutability":"nonpayable","type":"function"},{"inputs":[{"internalType":"address","name":"newOwner","type":"address"}],"name":"transferOwnership","outputs":[],"stateMutability":"nonpayable","type":"function"},{"inputs":[{"internalType":"address","name":"advertiser","type":"address"}],"name":"unbanAdvertiser","outputs":[],"stateMutability":"nonpayable","type":"function"},{"inputs":[{"internalType":"bytes32","name":"","type":"bytes32"}],"name":"usedSignatures","outputs":[{"internalType":"bool","name":"","type":"bool"}],"stateMutability":"view","type":"function"},{"inputs":[],"name":"withdrawFees","outputs":[],"stateMutability":"nonpayable","type":"function"},{"inputs":[],"name":"worldId","outputs":[{"internalType":"contract IWorldID","name":"","type":"address"}],"stateMutability":"view","type":"function"}],"evm":{"bytecode":{"linkReferences":{},"object":"610100604052600060e0523480156200001757600080fd5b50604051620031bb380380620031bb8339810160408190526200003a916200024a565b33806200006157604051631e4fbdf760e01b81526000600482015260240160405180910390fd5b6200006c81620000d9565b50600180556001600160a01b03808516608052831660a052604051620000cb90620000b790620000a1908590602001620002da565b60408051601f1981840301815291905262000129565b82604051602001620000a1929190620002f8565b60c052506200032092505050565b600080546001600160a01b038381166001600160a01b0319831681178455604051919092169283917f8be0079c531659141344cd1fd0a4f28419497f9722a3daafe3b4186f6b6457e09190a35050565b6000600882604051602001620001409190620002da565b60408051601f198184030181529190528051602090910120901c92915050565b80516001600160a01b03811681146200017857600080fd5b919050565b634e487b7160e01b600052604160045260246000fd5b60005b83811015620001b057818101518382015260200162000196565b50506000910152565b600082601f830112620001cb57600080fd5b81516001600160401b0380821115620001e857620001e86200017d565b604051601f8301601f19908116603f011681019082821181831017156200021357620002136200017d565b816040528381528660208588010111156200022d57600080fd5b6200024084602083016020890162000193565b9695505050505050565b600080600080608085870312156200026157600080fd5b6200026c8562000160565b93506200027c6020860162000160565b60408601519093506001600160401b03808211156200029a57600080fd5b620002a888838901620001b9565b93506060870151915080821115620002bf57600080fd5b50620002ce87828801620001b9565b91505092959194509250565b60008251620002ee81846020870162000193565b9190910192915050565b828152600082516200031281602085016020870162000193565b919091016020019392505050565b60805160a05160c05160e051612e306200038b6000396000611e8301526000611ee50152600081816103ed0152611e530152600081816104ed0152818161088b01528181610c3a015281816114df015281816116bd01528181611b6f0152611c3e0152612e306000f3fe608060405234801561001057600080fd5b506004361061021c5760003560e01c80637433142811610125578063be26ed7f116100ad578063de061d661161007c578063de061d66146104e8578063e7c21a3e1461050f578063f2fde38b14610522578063f62a4edb14610535578063f978fd611461054857600080fd5b8063be26ed7f146104b2578063c0ae6146146104ba578063cc6cd25e146104cd578063cd421fbf146104e057600080fd5b806397090dc8116100f457806397090dc81461044b578063b2dd5c071461045e578063b7c32bf014610481578063b8afaa4814610496578063bad1a3801461049f57600080fd5b806374331428146103d5578063753e9ef0146103e857806386bb8f37146104275780638da5cb5b1461043a57600080fd5b80634d63a475116101a85780635d2b6a4e116101775780635d2b6a4e1461034b578063646e200b1461036e57806369547f2d146103905780636ecdf606146103c4578063715018a6146103cd57600080fd5b80634d63a475146102f25780635240eb3214610326578063539aa77f14610339578063587f5ed71461034257600080fd5b80631f50fec9116101ef5780631f50fec9146102a457806321e20e8b146102c557806339aca329146102d857806342f81580146102e0578063476343ee146102ea57600080fd5b8063035169a4146102215780631012be0d1461025457806311637f22146102695780631cbc13ac1461029c575b600080fd5b61023461022f366004612648565b61056b565b60405161024b9b9a999897969594939291906126f2565b60405180910390f35b610267610262366004612648565b610775565b005b61028c6102773660046127a1565b60046020526000908152604090205460ff1681565b604051901515815260200161024b565b6102676109a1565b6102b76102b23660046127bc565b610a3a565b60405190815260200161024b565b6102676102d33660046127f1565b610b44565b6102b7600a81565b6102b76212750081565b610267610bf4565b61028c6103003660046127bc565b600760209081526000938452604080852082529284528284209052825290205460ff1681565b6102676103343660046127a1565b610d5b565b6102b76101f481565b6102b7600a5481565b61028c6103593660046127a1565b60056020526000908152604090205460ff1681565b61038161037c3660046127a1565b610d87565b60405161024b93929190612845565b61028c61039e3660046127bc565b600860209081526000938452604080852082529284528284209052825290205460ff1681565b6102b760025481565b610267611230565b6102676103e33660046127a1565b611242565b61040f7f000000000000000000000000000000000000000000000000000000000000000081565b6040516001600160a01b03909116815260200161024b565b610267610435366004612648565b611293565b6000546001600160a01b031661040f565b610267610459366004612648565b6115c9565b61028c61046c3660046127a1565b60036020526000908152604090205460ff1681565b61048961178d565b60405161024b9190612888565b6102b7600b5481565b6102676104ad3660046129dd565b611a82565b6102b7611db5565b6102676104c83660046127a1565b611dc4565b6102676104db366004612aab565b611e18565b6102b7603c81565b61040f7f000000000000000000000000000000000000000000000000000000000000000081565b61026761051d366004612af9565b611fa7565b6102676105303660046127a1565b61229c565b6102676105433660046127a1565b6122df565b61028c6105563660046127f1565b60096020526000908152604090205460ff1681565b6006602090815260009283526040808420909152908252902080546001820180546001600160a01b0390921692916105a290612b63565b80601f01602080910402602001604051908101604052809291908181526020018280546105ce90612b63565b801561061b5780601f106105f05761010080835404028352916020019161061b565b820191906000526020600020905b8154815290600101906020018083116105fe57829003601f168201915b50505050509080600201805461063090612b63565b80601f016020809104026020016040519081016040528092919081815260200182805461065c90612b63565b80156106a95780601f1061067e576101008083540402835291602001916106a9565b820191906000526020600020905b81548152906001019060200180831161068c57829003601f168201915b5050505050908060030180546106be90612b63565b80601f01602080910402602001604051908101604052809291908181526020018280546106ea90612b63565b80156107375780601f1061070c57610100808354040283529160200191610737565b820191906000526020600020905b81548152906001019060200180831161071a57829003601f168201915b5050505060048301546005840154600685015460078601546008909601549495929460ff80841695506101008404811694620100009094041692908b565b61077d612308565b600a811061079e57604051631258e44360e01b815260040160405180910390fd5b600082815260066020908152604080832084845290915290206005810154610100900460ff166107e157604051630df706ad60e11b815260040160405180910390fd5b6212750081600801546107f49190612bb3565b42116108135760405163162618a960e01b815260040160405180910390fd5b600481015460006127106108296101f484612bcc565b6108339190612be3565b905060006108418284612c05565b905060008460070154826108559190612c05565b9050806000036108785760405163162908e360e11b815260040160405180910390fd5b6007850182905560006001600160a01b037f00000000000000000000000000000000000000000000000000000000000000001663a9059cbb6108c26000546001600160a01b031690565b6040516001600160e01b031960e084901b1681526001600160a01b039091166004820152602481018590526044016020604051808303816000875af115801561090f573d6000803e3d6000fd5b505050506040513d601f19601f820116820180604052508101906109339190612c18565b905080610953576040516312171d8360e31b815260040160405180910390fd5b86887fcf3b62092c7f2a3455c516c177bd1970412d1c381c960d3986e3296f9dff0e7b8460405161098691815260200190565b60405180910390a350505050505061099d60018055565b5050565b6109a9612332565b60006109b361235f565b9050806000036109c05750565b60006109cd600183612c05565b905060025481036109dc575050565b60005b600a811015610a04576109f2828261236c565b806109fc81612c3a565b9150506109df565b50600281905560405181907f6fbfbccdd0d107860c9bccfa723d97eba4f37886edeb01e7a438b1e0fe44e05690600090a250505b565b600083815260066020908152604080832085845282528083208684526007835281842086855283528184206001600160a01b038616855290925282205460ff16610a88576000915050610b3d565b600085815260086020908152604080832087845282528083206001600160a01b038716845290915290205460ff1615610ac5576000915050610b3d565b6005810154610100900460ff16610ae0576000915050610b3d565b8060060154600003610af6576000915050610b3d565b60048101546000612710610b0c6101f484612bcc565b610b169190612be3565b90506000610b248284612c05565b9050836006015481610b369190612be3565b9450505050505b9392505050565b610b4c61235f565b8110610b6b57604051634dc7f5ff60e11b815260040160405180910390fd5b600254610b79906001612bb3565b8114610b9857604051634dc7f5ff60e11b815260040160405180910390fd5b60005b600a811015610bc057610bae828261236c565b80610bb881612c3a565b915050610b9b565b50600281905560405181907f6fbfbccdd0d107860c9bccfa723d97eba4f37886edeb01e7a438b1e0fe44e05690600090a250565b610bfc612332565b610c04612308565b600a546000819003610c295760405163162908e360e11b815260040160405180910390fd5b6000600a8190556001600160a01b037f00000000000000000000000000000000000000000000000000000000000000001663a9059cbb610c716000546001600160a01b031690565b6040516001600160e01b031960e084901b1681526001600160a01b039091166004820152602481018590526044016020604051808303816000875af1158015610cbe573d6000803e3d6000fd5b505050506040513d601f19601f82011682018060405250810190610ce29190612c18565b905080610d02576040516312171d8360e31b815260040160405180910390fd5b6000546001600160a01b03166001600160a01b03167fc0819c13be868895eb93e40eaceb96de976442fa1d404e5c55f14bb65a8c489a83604051610d4891815260200190565b60405180910390a25050610a3860018055565b610d63612332565b6001600160a01b03166000908152600560205260409020805460ff19166001179055565b60608060606000610d9661235f565b90506000610da5600a83612bcc565b905060008167ffffffffffffffff811115610dc257610dc2612c53565b604051908082528060200260200182016040528015610deb578160200160208202803683370190505b50905060008267ffffffffffffffff811115610e0957610e09612c53565b604051908082528060200260200182016040528015610e32578160200160208202803683370190505b50905060008367ffffffffffffffff811115610e5057610e50612c53565b604051908082528060200260200182016040528015610e79578160200160208202803683370190505b5090506000805b86811161108e5760005b600a81101561107b576000600660008481526020019081526020016000206000838152602001908152602001600020905060076000848152602001908152602001600020600083815260200190815260200160002060008e6001600160a01b03166001600160a01b0316815260200190815260200160002060009054906101000a900460ff168015610f6e575060086000848152602001908152602001600020600083815260200190815260200160002060008e6001600160a01b03166001600160a01b0316815260200190815260200160002060009054906101000a900460ff16155b8015610f8357506005810154610100900460ff165b8015610fa15750621275008160080154610f9d9190612bb3565b4211155b8015610fb1575060008160060154115b156110685760048101546000612710610fcc6101f484612bcc565b610fd69190612be3565b90506000610fe48284612c05565b90506000846006015482610ff89190612be3565b9050868b898151811061100d5761100d612c69565b602002602001018181525050858a898151811061102c5761102c612c69565b6020026020010181815250508089898151811061104b5761104b612c69565b60209081029190910101528761106081612c3a565b985050505050505b508061107381612c3a565b915050610e8a565b508061108681612c3a565b915050610e80565b508067ffffffffffffffff8111156110a8576110a8612c53565b6040519080825280602002602001820160405280156110d1578160200160208202803683370190505b5098508067ffffffffffffffff8111156110ed576110ed612c53565b604051908082528060200260200182016040528015611116578160200160208202803683370190505b5097508067ffffffffffffffff81111561113257611132612c53565b60405190808252806020026020018201604052801561115b578160200160208202803683370190505b50965060005b818110156112225784818151811061117b5761117b612c69565b60200260200101518a828151811061119557611195612c69565b6020026020010181815250508381815181106111b3576111b3612c69565b60200260200101518982815181106111cd576111cd612c69565b6020026020010181815250508281815181106111eb576111eb612c69565b602002602001015188828151811061120557611205612c69565b60209081029190910101528061121a81612c3a565b915050611161565b505050505050509193909250565b611238612332565b610a386000612482565b61124a612332565b6001600160a01b038116600081815260046020526040808220805460ff19169055517f2a2f5e02b0e6aab2b998dbcae41aec9407649a38bd8d41b7b49bedee8cdeaf2e9190a250565b61129b612308565b3360009081526003602052604090205460ff166112cb5760405163aba4733960e01b815260040160405180910390fd5b600a81106112ec57604051631258e44360e01b815260040160405180910390fd5b600082815260066020908152604080832084845290915290206005810154610100900460ff1661132f57604051630df706ad60e11b815260040160405180910390fd5b600581015462010000900460ff161561135b57604051631bb428a960e21b815260040160405180910390fd5b6000838152600760209081526040808320858452825280832033845290915290205460ff1661139d576040516301327deb60e01b815260040160405180910390fd5b6000838152600860209081526040808320858452825280832033845290915290205460ff16156113e057604051630c8d9eab60e31b815260040160405180910390fd5b6212750081600801546113f39190612bb3565b4211156114135760405163320c7b7d60e21b815260040160405180910390fd5b6006810154600081900361143a5760405163162908e360e11b815260040160405180910390fd5b600482015460006127106114506101f484612bcc565b61145a9190612be3565b905060006114688284612c05565b905060006114768583612be3565b60008981526008602090815260408083208b845282528083203384529091528120805460ff1916600117905560078801805492935083929091906114bb908490612bb3565b909155505060405163a9059cbb60e01b8152336004820152602481018290526000907f00000000000000000000000000000000000000000000000000000000000000006001600160a01b03169063a9059cbb906044016020604051808303816000875af1158015611530573d6000803e3d6000fd5b505050506040513d601f19601f820116820180604052508101906115549190612c18565b905080611574576040516312171d8360e31b815260040160405180910390fd5b8789336001600160a01b03167f812be816db82c66cd18ca8457005cd84689642d8ac4d38599cc6af444a2dc72a856040516115b191815260200190565b60405180910390a45050505050505061099d60018055565b6115d1612308565b600a81106115f257604051631258e44360e01b815260040160405180910390fd5b6000828152600660209081526040808320848452909152902080546001600160a01b0316331461163557604051632211114160e11b815260040160405180910390fd5b6005810154610100900460ff16156116605760405163475a253560e01b815260040160405180910390fd5b60058101805462ff0000191662010000179055600481015415611754578060040154600b60008282546116939190612c05565b909155505060048181015460405163a9059cbb60e01b8152339281019290925260248201526000907f00000000000000000000000000000000000000000000000000000000000000006001600160a01b03169063a9059cbb906044016020604051808303816000875af115801561170e573d6000803e3d6000fd5b505050506040513d601f19601f820116820180604052508101906117329190612c18565b905080611752576040516312171d8360e31b815260040160405180910390fd5b505b6040518290849033907f2ddf52ad696f7475d5e714ce5c8c1c4e9b93814e40d3f4c5ab845cb2bc0579ac90600090a45061099d60018055565b6060600061179961235f565b60408051600a808252610160820190925291925060009190816020015b6117be6125d0565b8152602001906001900390816117b657905050905060005b600a811015611a7b5760008381526006602090815260408083208484528252918290208251610160810190935280546001600160a01b03168352600181018054919284019161182490612b63565b80601f016020809104026020016040519081016040528092919081815260200182805461185090612b63565b801561189d5780601f106118725761010080835404028352916020019161189d565b820191906000526020600020905b81548152906001019060200180831161188057829003601f168201915b505050505081526020016002820180546118b690612b63565b80601f01602080910402602001604051908101604052809291908181526020018280546118e290612b63565b801561192f5780601f106119045761010080835404028352916020019161192f565b820191906000526020600020905b81548152906001019060200180831161191257829003601f168201915b5050505050815260200160038201805461194890612b63565b80601f016020809104026020016040519081016040528092919081815260200182805461197490612b63565b80156119c15780601f10611996576101008083540402835291602001916119c1565b820191906000526020600020905b8154815290600101906020018083116119a457829003601f168201915b505050918352505060048201546020820152600582015460409091019060ff1660098111156119f2576119f26126ba565b6009811115611a0357611a036126ba565b8152600582015460ff6101008204811615156020840152620100009091041615156040820152600682015460608201526007820154608082015260089091015460a0909101528251839083908110611a5d57611a5d612c69565b60200260200101819052508080611a7390612c3a565b9150506117d6565b5092915050565b611a8a612308565b3360009081526004602052604090205460ff1615611abb5760405163299aa0a160e21b815260040160405180910390fd5b611ac361235f565b8a14611ae257604051634dc7f5ff60e11b815260040160405180910390fd5b600a8910611b0357604051631258e44360e01b815260040160405180910390fd5b60008a81526006602090815260408083208c8452909152902080546001600160a01b031615801590611b39575060008160040154115b15611c1957805460048083015460405163a9059cbb60e01b81526001600160a01b039384169281019290925260248201526000917f0000000000000000000000000000000000000000000000000000000000000000169063a9059cbb906044016020604051808303816000875af1158015611bb8573d6000803e3d6000fd5b505050506040513d601f19601f82011682018060405250810190611bdc9190612c18565b905080611bfc576040516312171d8360e31b815260040160405180910390fd5b8160040154600b6000828254611c129190612c05565b9091555050505b6040516323b872dd60e01b8152336004820152306024820152604481018490526000907f00000000000000000000000000000000000000000000000000000000000000006001600160a01b0316906323b872dd906064016020604051808303816000875af1158015611c8f573d6000803e3d6000fd5b505050506040513d601f19601f82011682018060405250810190611cb39190612c18565b905080611cd3576040516312171d8360e31b815260040160405180910390fd5b81546001600160a01b0319163317825560018201611cf28a8c83612cca565b5060028201611d02888a83612cca565b5060038201611d12868883612cca565b506004820184905560058201805484919060ff19166001836009811115611d3b57611d3b6126ba565b021790555083600b6000828254611d529190612bb3565b925050819055508a8c336001600160a01b03167f57fd3b672d0a576a3e359189cf66cb6f9f8928eba7c11efbe695d66b957ce76e8688604051611d96929190612d8b565b60405180910390a45050611da960018055565b50505050505050505050565b6000611dbf61235f565b905090565b611dcc612332565b6001600160a01b038116600081815260046020526040808220805460ff19166001179055517f97b051fe48e86c08fca96c9bbe846678783b6999358e6d4efbaf9e40ca59b6a79190a250565b611e20612308565b3360009081526003602052604090205460ff1615611e5157604051630ea075bf60e21b815260040160405180910390fd5b7f00000000000000000000000000000000000000000000000000000000000000006001600160a01b0316633bc778e3847f0000000000000000000000000000000000000000000000000000000000000000611ee288604051602001611ece919060609190911b6bffffffffffffffffffffffff1916815260140190565b6040516020818303038152906040526124d2565b867f0000000000000000000000000000000000000000000000000000000000000000876040518763ffffffff1660e01b8152600401611f2696959493929190612da6565b60006040518083038186803b158015611f3e57600080fd5b505afa158015611f52573d6000803e3d6000fd5b505033600081815260036020526040808220805460ff19166001179055519193507f54db7a5cb4735e1aac1f53db512d3390390bb6637bd30ad4bf9fc98667d9b9b9925090a2611fa160018055565b50505050565b611faf612308565b3360009081526003602052604090205460ff16611fdf5760405163aba4733960e01b815260040160405180910390fd5b611fe761235f565b861061200657604051634dc7f5ff60e11b815260040160405180910390fd5b600a851061202757604051631258e44360e01b815260040160405180910390fd5b600086815260066020908152604080832088845290915290206005810154610100900460ff161561206b5760405163475a253560e01b815260040160405180910390fd5b600581015462010000900460ff161561209757604051631bb428a960e21b815260040160405180910390fd5b6000878152600760209081526040808320898452825280832033845290915290205460ff16156120da5760405163e02cd2cb60e01b815260040160405180910390fd5b6040516bffffffffffffffffffffffff193360601b1660208201526034810188905260548101879052607481018690526094810185905260009060b40160405160208183030381529060405280519060200120905060008160405160200161216e91907f19457468657265756d205369676e6564204d6573736167653a0a3332000000008152601c810191909152603c0190565b60408051601f1981840301815291815281516020928301206000818152600990935291205490915060ff16156121b75760405163900bb2c960e01b815260040160405180910390fd5b60006121c4828787612507565b6001600160a01b03811660009081526005602052604090205490915060ff166122005760405163ea8e4eb560e01b815260040160405180910390fd5b60008281526009602090815260408083208054600160ff1991821681179092558e8552600784528285208e8652845282852033865290935290832080549092161790556006850180549161225383612c3a565b909155505060405189908b9033907fdf68871eff37c21a2d5f5f4714defb013c53c6aa48ebe6eff29ca11e0651912790600090a45050505061229460018055565b505050505050565b6122a4612332565b6001600160a01b0381166122d357604051631e4fbdf760e01b8152600060048201526024015b60405180910390fd5b6122dc81612482565b50565b6122e7612332565b6001600160a01b03166000908152600560205260409020805460ff19169055565b60026001540361232b57604051633ee5aeb560e01b815260040160405180910390fd5b6002600155565b6000546001600160a01b03163314610a385760405163118cdaa760e01b81523360048201526024016122ca565b6000611dbf603c42612be3565b6000828152600660209081526040808320848452909152902080546001600160a01b03166123a857600501805461ff0019166101001790555050565b600581015462010000900460ff16156123cf57600501805461ff0019166101001790555050565b600481015460006127106123e56101f484612bcc565b6123ef9190612be3565b905080600a60008282546124039190612bb3565b9250508190555081600b600082825461241c9190612c05565b909155505060058301805461ff0019166101001790554260088401556006830154604051859187917f67a59239176edc6000958291e1c679afd7b3e13a274c758a1fb33d8587d5e708916124739190815260200190565b60405180910390a35050505050565b600080546001600160a01b038381166001600160a01b0319831681178455604051919092169283917f8be0079c531659141344cd1fd0a4f28419497f9722a3daafe3b4186f6b6457e09190a35050565b60006008826040516020016124e79190612dde565b60408051601f198184030181529190528051602090910120901c92915050565b6000604182146125595760405162461bcd60e51b815260206004820152601860248201527f496e76616c6964207369676e6174757265206c656e677468000000000000000060448201526064016122ca565b60408051600080825260208083018085528890528684013590911a92820183905285356060830181905290860135608083018190529092909160019060a0016020604051602081039080840390855afa1580156125ba573d6000803e3d6000fd5b5050604051601f19015198975050505050505050565b60405180610160016040528060006001600160a01b03168152602001606081526020016060815260200160608152602001600081526020016000600981111561261b5761261b6126ba565b81526020016000151581526020016000151581526020016000815260200160008152602001600081525090565b6000806040838503121561265b57600080fd5b50508035926020909101359150565b60005b8381101561268557818101518382015260200161266d565b50506000910152565b600081518084526126a681602086016020860161266a565b601f01601f19169290920160200192915050565b634e487b7160e01b600052602160045260246000fd5b600a81106126ee57634e487b7160e01b600052602160045260246000fd5b9052565b6001600160a01b038c168152610160602082018190526000906127178382018e61268e565b9050828103604084015261272b818d61268e565b9050828103606084015261273f818c61268e565b91505088608083015261275560a08301896126d0565b95151560c082015293151560e0850152610100840192909252610120830152610140909101529695505050505050565b80356001600160a01b038116811461279c57600080fd5b919050565b6000602082840312156127b357600080fd5b610b3d82612785565b6000806000606084860312156127d157600080fd5b83359250602084013591506127e860408501612785565b90509250925092565b60006020828403121561280357600080fd5b5035919050565b600081518084526020808501945080840160005b8381101561283a5781518752958201959082019060010161281e565b509495945050505050565b606081526000612858606083018661280a565b828103602084015261286a818661280a565b9050828103604084015261287e818561280a565b9695505050505050565b60006020808301818452808551808352604092508286019150828160051b87010184880160005b8381101561298657888303603f19018552815180516001600160a01b0316845261016088820151818a8701526128e78287018261268e565b91505087820151858203898701526128ff828261268e565b91505060608083015186830382880152612919838261268e565b92505050608080830151818701525060a08083015161293a828801826126d0565b505060c08281015115159086015260e0808301511515908601526101008083015190860152610120808301519086015261014091820151919094015293860193908601906001016128af565b509098975050505050505050565b60008083601f8401126129a657600080fd5b50813567ffffffffffffffff8111156129be57600080fd5b6020830191508360208285010111156129d657600080fd5b9250929050565b60008060008060008060008060008060e08b8d0312156129fc57600080fd5b8a35995060208b0135985060408b013567ffffffffffffffff80821115612a2257600080fd5b612a2e8e838f01612994565b909a50985060608d0135915080821115612a4757600080fd5b612a538e838f01612994565b909850965060808d0135915080821115612a6c57600080fd5b50612a798d828e01612994565b90955093505060a08b0135915060c08b0135600a8110612a9857600080fd5b809150509295989b9194979a5092959850565b600080600080610160808688031215612ac357600080fd5b612acc86612785565b94506020860135935060408601359250868187011115612aeb57600080fd5b509295919450926060019150565b60008060008060008060a08789031215612b1257600080fd5b86359550602087013594506040870135935060608701359250608087013567ffffffffffffffff811115612b4557600080fd5b612b5189828a01612994565b979a9699509497509295939492505050565b600181811c90821680612b7757607f821691505b602082108103612b9757634e487b7160e01b600052602260045260246000fd5b50919050565b634e487b7160e01b600052601160045260246000fd5b80820180821115612bc657612bc6612b9d565b92915050565b8082028115828204841417612bc657612bc6612b9d565b600082612c0057634e487b7160e01b600052601260045260246000fd5b500490565b81810381811115612bc657612bc6612b9d565b600060208284031215612c2a57600080fd5b81518015158114610b3d57600080fd5b600060018201612c4c57612c4c612b9d565b5060010190565b634e487b7160e01b600052604160045260246000fd5b634e487b7160e01b600052603260045260246000fd5b601f821115612cc557600081815260208120601f850160051c81016020861015612ca65750805b601f850160051c820191505b8181101561229457828155600101612cb2565b505050565b67ffffffffffffffff831115612ce257612ce2612c53565b612cf683612cf08354612b63565b83612c7f565b6000601f841160018114612d2a5760008515612d125750838201355b600019600387901b1c1916600186901b178355612d84565b600083815260209020601f19861690835b82811015612d5b5786850135825560209485019460019092019101612d3b565b5086821015612d785760001960f88860031b161c19848701351681555b505060018560011b0183555b5050505050565b60408101612d9982856126d0565b8260208301529392505050565b60006101a0820190508782528660208301528560408301528460608301528360808301526101008360a0840137979650505050505050565b60008251612df081846020870161266a565b919091019291505056fea2646970667358221220b6615efb3ff49cc443284a957c3872a041e41e6dbbfd9df7e78f5d15c67c39f364736f6c63430008140033","opcodes":"PUSH2 0x100 PUSH1 0x40 MSTORE PUSH1 0x0 PUSH1 0xE0 MSTORE CALLVALUE DUP1 ISZERO PUSH3 0x17 JUMPI PUSH1 0x0 DUP1 REVERT JUMPDEST POP PUSH1 0x40 MLOAD PUSH3 0x31BB CODESIZE SUB DUP1 PUSH3 0x31BB DUP4 CODECOPY DUP2 ADD PUSH1 0x40 DUP2 SWAP1 MSTORE PUSH3 0x3A SWAP2 PUSH3 0x24A JUMP JUMPDEST CALLER DUP1 PUSH3 0x61 JUMPI PUSH1 0x40 MLOAD PUSH4 0x1E4FBDF7 PUSH1 0xE0 SHL DUP2 MSTORE PUSH1 0x0 PUSH1 0x4 DUP3 ADD MSTORE PUSH1 0x24 ADD PUSH1 0x40 MLOAD DUP1 SWAP2 SUB SWAP1 REVERT JUMPDEST PUSH3 0x6C DUP2 PUSH3 0xD9 JUMP JUMPDEST POP PUSH1 0x1 DUP1 SSTORE PUSH1 0x1 PUSH1 0x1 PUSH1 0xA0 SHL SUB DUP1 DUP6 AND PUSH1 0x80 MSTORE DUP4 AND PUSH1 0xA0 MSTORE PUSH1 0x40 MLOAD PUSH3 0xCB SWAP1 PUSH3 0xB7 SWAP1 PUSH3 0xA1 SWAP1 DUP6 SWAP1 PUSH1 0x20 ADD PUSH3 0x2DA JUMP JUMPDEST PUSH1 0x40 DUP1 MLOAD PUSH1 0x1F NOT DUP2 DUP5 SUB ADD DUP2 MSTORE SWAP2 SWAP1 MSTORE PUSH3 0x129 JUMP JUMPDEST DUP3 PUSH1 0x40 MLOAD PUSH1 0x20 ADD PUSH3 0xA1 SWAP3 SWAP2 SWAP1 PUSH3 0x2F8 JUMP JUMPDEST PUSH1 0xC0 MSTORE POP PUSH3 0x320 SWAP3 POP POP POP JUMP JUMPDEST PUSH1 0x0 DUP1 SLOAD PUSH1 0x1 PUSH1 0x1 PUSH1 0xA0 SHL SUB DUP4 DUP2 AND PUSH1 0x1 PUSH1 0x1 PUSH1 0xA0 SHL SUB NOT DUP4 AND DUP2 OR DUP5 SSTORE PUSH1 0x40 MLOAD SWAP2 SWAP1 SWAP3 AND SWAP3 DUP4 SWAP2 PUSH32 0x8BE0079C531659141344CD1FD0A4F28419497F9722A3DAAFE3B4186F6B6457E0 SWAP2 SWAP1 LOG3 POP POP JUMP JUMPDEST PUSH1 0x0 PUSH1 0x8 DUP3 PUSH1 0x40 MLOAD PUSH1 0x20 ADD PUSH3 0x140 SWAP2 SWAP1 PUSH3 0x2DA JUMP JUMPDEST PUSH1 0x40 DUP1 MLOAD PUSH1 0x1F NOT DUP2 DUP5 SUB ADD DUP2 MSTORE SWAP2 SWAP1 MSTORE DUP1 MLOAD PUSH1 0x20 SWAP1 SWAP2 ADD KECCAK256 SWAP1 SHR SWAP3 SWAP2 POP POP JUMP JUMPDEST DUP1 MLOAD PUSH1 0x1 PUSH1 0x1 PUSH1 0xA0 SHL SUB DUP2 AND DUP2 EQ PUSH3 0x178 JUMPI PUSH1 0x0 DUP1 REVERT JUMPDEST SWAP2 SWAP1 POP JUMP JUMPDEST PUSH4 0x4E487B71 PUSH1 0xE0 SHL PUSH1 0x0 MSTORE PUSH1 0x41 PUSH1 0x4 MSTORE PUSH1 0x24 PUSH1 0x0 REVERT JUMPDEST PUSH1 0x0 JUMPDEST DUP4 DUP2 LT ISZERO PUSH3 0x1B0 JUMPI DUP2 DUP2 ADD MLOAD DUP4 DUP3 ADD MSTORE PUSH1 0x20 ADD PUSH3 0x196 JUMP JUMPDEST POP POP PUSH1 0x0 SWAP2 ADD MSTORE JUMP JUMPDEST PUSH1 0x0 DUP3 PUSH1 0x1F DUP4 ADD SLT PUSH3 0x1CB JUMPI PUSH1 0x0 DUP1 REVERT JUMPDEST DUP2 MLOAD PUSH1 0x1 PUSH1 0x1 PUSH1 0x40 SHL SUB DUP1 DUP3 GT ISZERO PUSH3 0x1E8 JUMPI PUSH3 0x1E8 PUSH3 0x17D JUMP JUMPDEST PUSH1 0x40 MLOAD PUSH1 0x1F DUP4 ADD PUSH1 0x1F NOT SWAP1 DUP2 AND PUSH1 0x3F ADD AND DUP2 ADD SWAP1 DUP3 DUP3 GT DUP2 DUP4 LT OR ISZERO PUSH3 0x213 JUMPI PUSH3 0x213 PUSH3 0x17D JUMP JUMPDEST DUP2 PUSH1 0x40 MSTORE DUP4 DUP2 MSTORE DUP7 PUSH1 0x20 DUP6 DUP9 ADD ADD GT ISZERO PUSH3 0x22D JUMPI PUSH1 0x0 DUP1 REVERT JUMPDEST PUSH3 0x240 DUP5 PUSH1 0x20 DUP4 ADD PUSH1 0x20 DUP10 ADD PUSH3 0x193 JUMP JUMPDEST SWAP7 SWAP6 POP POP POP POP POP POP JUMP JUMPDEST PUSH1 0x0 DUP1 PUSH1 0x0 DUP1 PUSH1 0x80 DUP6 DUP8 SUB SLT ISZERO PUSH3 0x261 JUMPI PUSH1 0x0 DUP1 REVERT JUMPDEST PUSH3 0x26C DUP6 PUSH3 0x160 JUMP JUMPDEST SWAP4 POP PUSH3 0x27C PUSH1 0x20 DUP7 ADD PUSH3 0x160 JUMP JUMPDEST PUSH1 0x40 DUP7 ADD MLOAD SWAP1 SWAP4 POP PUSH1 0x1 PUSH1 0x1 PUSH1 0x40 SHL SUB DUP1 DUP3 GT ISZERO PUSH3 0x29A JUMPI PUSH1 0x0 DUP1 REVERT JUMPDEST PUSH3 0x2A8 DUP9 DUP4 DUP10 ADD PUSH3 0x1B9 JUMP JUMPDEST SWAP4 POP PUSH1 0x60 DUP8 ADD MLOAD SWAP2 POP DUP1 DUP3 GT ISZERO PUSH3 0x2BF JUMPI PUSH1 0x0 DUP1 REVERT JUMPDEST POP PUSH3 0x2CE DUP8 DUP3 DUP9 ADD PUSH3 0x1B9 JUMP JUMPDEST SWAP2 POP POP SWAP3 SWAP6 SWAP2 SWAP5 POP SWAP3 POP JUMP JUMPDEST PUSH1 0x0 DUP3 MLOAD PUSH3 0x2EE DUP2 DUP5 PUSH1 0x20 DUP8 ADD PUSH3 0x193 JUMP JUMPDEST SWAP2 SWAP1 SWAP2 ADD SWAP3 SWAP2 POP POP JUMP JUMPDEST DUP3 DUP2 MSTORE PUSH1 0x0 DUP3 MLOAD PUSH3 0x312 DUP2 PUSH1 0x20 DUP6 ADD PUSH1 0x20 DUP8 ADD PUSH3 0x193 JUMP JUMPDEST SWAP2 SWAP1 SWAP2 ADD PUSH1 0x20 ADD SWAP4 SWAP3 POP POP POP JUMP JUMPDEST PUSH1 0x80 MLOAD PUSH1 0xA0 MLOAD PUSH1 0xC0 MLOAD PUSH1 0xE0 MLOAD PUSH2 0x2E30 PUSH3 0x38B PUSH1 0x0 CODECOPY PUSH1 0x0 PUSH2 0x1E83 ADD MSTORE PUSH1 0x0 PUSH2 0x1EE5 ADD MSTORE PUSH1 0x0 DUP2 DUP2 PUSH2 0x3ED ADD MSTORE PUSH2 0x1E53 ADD MSTORE PUSH1 0x0 DUP2 DUP2 PUSH2 0x4ED ADD MSTORE DUP2 DUP2 PUSH2 0x88B ADD MSTORE DUP2 DUP2 PUSH2 0xC3A ADD MSTORE DUP2 DUP2 PUSH2 0x14DF ADD MSTORE DUP2 DUP2 PUSH2 0x16BD ADD MSTORE DUP2 DUP2 PUSH2 0x1B6F ADD MSTORE PUSH2 0x1C3E ADD MSTORE PUSH2 0x2E30 PUSH1 0x0 RETURN INVALID PUSH1 0x80 PUSH1 0x40 MSTORE CALLVALUE DUP1 ISZERO PUSH2 0x10 JUMPI PUSH1 0x0 DUP1 REVERT JUMPDEST POP PUSH1 0x4 CALLDATASIZE LT PUSH2 0x21C JUMPI PUSH1 0x0 CALLDATALOAD PUSH1 0xE0 SHR DUP1 PUSH4 0x74331428 GT PUSH2 0x125 JUMPI DUP1 PUSH4 0xBE26ED7F GT PUSH2 0xAD JUMPI DUP1 PUSH4 0xDE061D66 GT PUSH2 0x7C JUMPI DUP1 PUSH4 0xDE061D66 EQ PUSH2 0x4E8 JUMPI DUP1 PUSH4 0xE7C21A3E EQ PUSH2 0x50F JUMPI DUP1 PUSH4 0xF2FDE38B EQ PUSH2 0x522 JUMPI DUP1 PUSH4 0xF62A4EDB EQ PUSH2 0x535 JUMPI DUP1 PUSH4 0xF978FD61 EQ PUSH2 0x548 JUMPI PUSH1 0x0 DUP1 REVERT JUMPDEST DUP1 PUSH4 0xBE26ED7F EQ PUSH2 0x4B2 JUMPI DUP1 PUSH4 0xC0AE6146 EQ PUSH2 0x4BA JUMPI DUP1 PUSH4 0xCC6CD25E EQ PUSH2 0x4CD JUMPI DUP1 PUSH4 0xCD421FBF EQ PUSH2 0x4E0 JUMPI PUSH1 0x0 DUP1 REVERT JUMPDEST DUP1 PUSH4 0x97090DC8 GT PUSH2 0xF4 JUMPI DUP1 PUSH4 0x97090DC8 EQ PUSH2 0x44B JUMPI DUP1 PUSH4 0xB2DD5C07 EQ PUSH2 0x45E JUMPI DUP1 PUSH4 0xB7C32BF0 EQ PUSH2 0x481 JUMPI DUP1 PUSH4 0xB8AFAA48 EQ PUSH2 0x496 JUMPI DUP1 PUSH4 0xBAD1A380 EQ PUSH2 0x49F JUMPI PUSH1 0x0 DUP1 REVERT JUMPDEST DUP1 PUSH4 0x74331428 EQ PUSH2 0x3D5 JUMPI DUP1 PUSH4 0x753E9EF0 EQ PUSH2 0x3E8 JUMPI DUP1 PUSH4 0x86BB8F37 EQ PUSH2 0x427 JUMPI DUP1 PUSH4 0x8DA5CB5B EQ PUSH2 0x43A JUMPI PUSH1 0x0 DUP1 REVERT JUMPDEST DUP1 PUSH4 0x4D63A475 GT PUSH2 0x1A8 JUMPI DUP1 PUSH4 0x5D2B6A4E GT PUSH2 0x177 JUMPI DUP1 PUSH4 0x5D2B6A4E EQ PUSH2 0x34B JUMPI DUP1 PUSH4 0x646E200B EQ PUSH2 0x36E JUMPI DUP1 PUSH4 0x69547F2D EQ PUSH2 0x390 JUMPI DUP1 PUSH4 0x6ECDF606 EQ PUSH2 0x3C4 JUMPI DUP1 PUSH4 0x715018A6 EQ PUSH2 0x3CD JUMPI PUSH1 0x0 DUP1 REVERT JUMPDEST DUP1 PUSH4 0x4D63A475 EQ PUSH2 0x2F2 JUMPI DUP1 PUSH4 0x5240EB32 EQ PUSH2 0x326 JUMPI DUP1 PUSH4 0x539AA77F EQ PUSH2 0x339 JUMPI DUP1 PUSH4 0x587F5ED7 EQ PUSH2 0x342 JUMPI PUSH1 0x0 DUP1 REVERT JUMPDEST DUP1 PUSH4 0x1F50FEC9 GT PUSH2 0x1EF JUMPI DUP1 PUSH4 0x1F50FEC9 EQ PUSH2 0x2A4 JUMPI DUP1 PUSH4 0x21E20E8B EQ PUSH2 0x2C5 JUMPI DUP1 PUSH4 0x39ACA329 EQ PUSH2 0x2D8 JUMPI DUP1 PUSH4 0x42F81580 EQ PUSH2 0x2E0 JUMPI DUP1 PUSH4 0x476343EE EQ PUSH2 0x2EA JUMPI PUSH1 0x0 DUP1 REVERT JUMPDEST DUP1 PUSH4 0x35169A4 EQ PUSH2 0x221 JUMPI DUP1 PUSH4 0x1012BE0D EQ PUSH2 0x254 JUMPI DUP1 PUSH4 0x11637F22 EQ PUSH2 0x269 JUMPI DUP1 PUSH4 0x1CBC13AC EQ PUSH2 0x29C JUMPI JUMPDEST PUSH1 0x0 DUP1 REVERT JUMPDEST PUSH2 0x234 PUSH2 0x22F CALLDATASIZE PUSH1 0x4 PUSH2 0x2648 JUMP JUMPDEST PUSH2 0x56B JUMP JUMPDEST PUSH1 0x40 MLOAD PUSH2 0x24B SWAP12 SWAP11 SWAP10 SWAP9 SWAP8 SWAP7 SWAP6 SWAP5 SWAP4 SWAP3 SWAP2 SWAP1 PUSH2 0x26F2 JUMP JUMPDEST PUSH1 0x40 MLOAD DUP1 SWAP2 SUB SWAP1 RETURN JUMPDEST PUSH2 0x267 PUSH2 0x262 CALLDATASIZE PUSH1 0x4 PUSH2 0x2648 JUMP JUMPDEST PUSH2 0x775 JUMP JUMPDEST STOP JUMPDEST PUSH2 0x28C PUSH2 0x277 CALLDATASIZE PUSH1 0x4 PUSH2 0x27A1 JUMP JUMPDEST PUSH1 0x4 PUSH1 0x20 MSTORE PUSH1 0x0 SWAP1 DUP2 MSTORE PUSH1 0x40 SWAP1 KECCAK256 SLOAD PUSH1 0xFF AND DUP2 JUMP JUMPDEST PUSH1 0x40 MLOAD SWAP1 ISZERO ISZERO DUP2 MSTORE PUSH1 0x20 ADD PUSH2 0x24B JUMP JUMPDEST PUSH2 0x267 PUSH2 0x9A1 JUMP JUMPDEST PUSH2 0x2B7 PUSH2 0x2B2 CALLDATASIZE PUSH1 0x4 PUSH2 0x27BC JUMP JUMPDEST PUSH2 0xA3A JUMP JUMPDEST PUSH1 0x40 MLOAD SWAP1 DUP2 MSTORE PUSH1 0x20 ADD PUSH2 0x24B JUMP JUMPDEST PUSH2 0x267 PUSH2 0x2D3 CALLDATASIZE PUSH1 0x4 PUSH2 0x27F1 JUMP JUMPDEST PUSH2 0xB44 JUMP JUMPDEST PUSH2 0x2B7 PUSH1 0xA DUP2 JUMP JUMPDEST PUSH2 0x2B7 PUSH3 0x127500 DUP2 JUMP JUMPDEST PUSH2 0x267 PUSH2 0xBF4 JUMP JUMPDEST PUSH2 0x28C PUSH2 0x300 CALLDATASIZE PUSH1 0x4 PUSH2 0x27BC JUMP JUMPDEST PUSH1 0x7 PUSH1 0x20 SWAP1 DUP2 MSTORE PUSH1 0x0 SWAP4 DUP5 MSTORE PUSH1 0x40 DUP1 DUP6 KECCAK256 DUP3 MSTORE SWAP3 DUP5 MSTORE DUP3 DUP5 KECCAK256 SWAP1 MSTORE DUP3 MSTORE SWAP1 KECCAK256 SLOAD PUSH1 0xFF AND DUP2 JUMP JUMPDEST PUSH2 0x267 PUSH2 0x334 CALLDATASIZE PUSH1 0x4 PUSH2 0x27A1 JUMP JUMPDEST PUSH2 0xD5B JUMP JUMPDEST PUSH2 0x2B7 PUSH2 0x1F4 DUP2 JUMP JUMPDEST PUSH2 0x2B7 PUSH1 0xA SLOAD DUP2 JUMP JUMPDEST PUSH2 0x28C PUSH2 0x359 CALLDATASIZE PUSH1 0x4 PUSH2 0x27A1 JUMP JUMPDEST PUSH1 0x5 PUSH1 0x20 MSTORE PUSH1 0x0 SWAP1 DUP2 MSTORE PUSH1 0x40 SWAP1 KECCAK256 SLOAD PUSH1 0xFF AND DUP2 JUMP JUMPDEST PUSH2 0x381 PUSH2 0x37C CALLDATASIZE PUSH1 0x4 PUSH2 0x27A1 JUMP JUMPDEST PUSH2 0xD87 JUMP JUMPDEST PUSH1 0x40 MLOAD PUSH2 0x24B SWAP4 SWAP3 SWAP2 SWAP1 PUSH2 0x2845 JUMP JUMPDEST PUSH2 0x28C PUSH2 0x39E CALLDATASIZE PUSH1 0x4 PUSH2 0x27BC JUMP JUMPDEST PUSH1 0x8 PUSH1 0x20 SWAP1 DUP2 MSTORE PUSH1 0x0 SWAP4 DUP5 MSTORE PUSH1 0x40 DUP1 DUP6 KECCAK256 DUP3 MSTORE SWAP3 DUP5 MSTORE DUP3 DUP5 KECCAK256 SWAP1 MSTORE DUP3 MSTORE SWAP1 KECCAK256 SLOAD PUSH1 0xFF AND DUP2 JUMP JUMPDEST PUSH2 0x2B7 PUSH1 0x2 SLOAD DUP2 JUMP JUMPDEST PUSH2 0x267 PUSH2 0x1230 JUMP JUMPDEST PUSH2 0x267 PUSH2 0x3E3 CALLDATASIZE PUSH1 0x4 PUSH2 0x27A1 JUMP JUMPDEST PUSH2 0x1242 JUMP JUMPDEST PUSH2 0x40F PUSH32 0x0 DUP2 JUMP JUMPDEST PUSH1 0x40 MLOAD PUSH1 0x1 PUSH1 0x1 PUSH1 0xA0 SHL SUB SWAP1 SWAP2 AND DUP2 MSTORE PUSH1 0x20 ADD PUSH2 0x24B JUMP JUMPDEST PUSH2 0x267 PUSH2 0x435 CALLDATASIZE PUSH1 0x4 PUSH2 0x2648 JUMP JUMPDEST PUSH2 0x1293 JUMP JUMPDEST PUSH1 0x0 SLOAD PUSH1 0x1 PUSH1 0x1 PUSH1 0xA0 SHL SUB AND PUSH2 0x40F JUMP JUMPDEST PUSH2 0x267 PUSH2 0x459 CALLDATASIZE PUSH1 0x4 PUSH2 0x2648 JUMP JUMPDEST PUSH2 0x15C9 JUMP JUMPDEST PUSH2 0x28C PUSH2 0x46C CALLDATASIZE PUSH1 0x4 PUSH2 0x27A1 JUMP JUMPDEST PUSH1 0x3 PUSH1 0x20 MSTORE PUSH1 0x0 SWAP1 DUP2 MSTORE PUSH1 0x40 SWAP1 KECCAK256 SLOAD PUSH1 0xFF AND DUP2 JUMP JUMPDEST PUSH2 0x489 PUSH2 0x178D JUMP JUMPDEST PUSH1 0x40 MLOAD PUSH2 0x24B SWAP2 SWAP1 PUSH2 0x2888 JUMP JUMPDEST PUSH2 0x2B7 PUSH1 0xB SLOAD DUP2 JUMP JUMPDEST PUSH2 0x267 PUSH2 0x4AD CALLDATASIZE PUSH1 0x4 PUSH2 0x29DD JUMP JUMPDEST PUSH2 0x1A82 JUMP JUMPDEST PUSH2 0x2B7 PUSH2 0x1DB5 JUMP JUMPDEST PUSH2 0x267 PUSH2 0x4C8 CALLDATASIZE PUSH1 0x4 PUSH2 0x27A1 JUMP JUMPDEST PUSH2 0x1DC4 JUMP JUMPDEST PUSH2 0x267 PUSH2 0x4DB CALLDATASIZE PUSH1 0x4 PUSH2 0x2AAB JUMP JUMPDEST PUSH2 0x1E18 JUMP JUMPDEST PUSH2 0x2B7 PUSH1 0x3C DUP2 JUMP JUMPDEST PUSH2 0x40F PUSH32 0x0 DUP2 JUMP JUMPDEST PUSH2 0x267 PUSH2 0x51D CALLDATASIZE PUSH1 0x4 PUSH2 0x2AF9 JUMP JUMPDEST PUSH2 0x1FA7 JUMP JUMPDEST PUSH2 0x267 PUSH2 0x530 CALLDATASIZE PUSH1 0x4 PUSH2 0x27A1 JUMP JUMPDEST PUSH2 0x229C JUMP JUMPDEST PUSH2 0x267 PUSH2 0x543 CALLDATASIZE PUSH1 0x4 PUSH2 0x27A1 JUMP JUMPDEST PUSH2 0x22DF JUMP JUMPDEST PUSH2 0x28C PUSH2 0x556 CALLDATASIZE PUSH1 0x4 PUSH2 0x27F1 JUMP JUMPDEST PUSH1 0x9 PUSH1 0x20 MSTORE PUSH1 0x0 SWAP1 DUP2 MSTORE PUSH1 0x40 SWAP1 KECCAK256 SLOAD PUSH1 0xFF AND DUP2 JUMP JUMPDEST PUSH1 0x6 PUSH1 0x20 SWAP1 DUP2 MSTORE PUSH1 0x0 SWAP3 DUP4 MSTORE PUSH1 0x40 DUP1 DUP5 KECCAK256 SWAP1 SWAP2 MSTORE SWAP1 DUP3 MSTORE SWAP1 KECCAK256 DUP1 SLOAD PUSH1 0x1 DUP3 ADD DUP1 SLOAD PUSH1 0x1 PUSH1 0x1 PUSH1 0xA0 SHL SUB SWAP1 SWAP3 AND SWAP3 SWAP2 PUSH2 0x5A2 SWAP1 PUSH2 0x2B63 JUMP JUMPDEST DUP1 PUSH1 0x1F ADD PUSH1 0x20 DUP1 SWAP2 DIV MUL PUSH1 0x20 ADD PUSH1 0x40 MLOAD SWAP1 DUP2 ADD PUSH1 0x40 MSTORE DUP1 SWAP3 SWAP2 SWAP1 DUP2 DUP2 MSTORE PUSH1 0x20 ADD DUP3 DUP1 SLOAD PUSH2 0x5CE SWAP1 PUSH2 0x2B63 JUMP JUMPDEST DUP1 ISZERO PUSH2 0x61B JUMPI DUP1 PUSH1 0x1F LT PUSH2 0x5F0 JUMPI PUSH2 0x100 DUP1 DUP4 SLOAD DIV MUL DUP4 MSTORE SWAP2 PUSH1 0x20 ADD SWAP2 PUSH2 0x61B JUMP JUMPDEST DUP3 ADD SWAP2 SWAP1 PUSH1 0x0 MSTORE PUSH1 0x20 PUSH1 0x0 KECCAK256 SWAP1 JUMPDEST DUP2 SLOAD DUP2 MSTORE SWAP1 PUSH1 0x1 ADD SWAP1 PUSH1 0x20 ADD DUP1 DUP4 GT PUSH2 0x5FE JUMPI DUP3 SWAP1 SUB PUSH1 0x1F AND DUP3 ADD SWAP2 JUMPDEST POP POP POP POP POP SWAP1 DUP1 PUSH1 0x2 ADD DUP1 SLOAD PUSH2 0x630 SWAP1 PUSH2 0x2B63 JUMP JUMPDEST DUP1 PUSH1 0x1F ADD PUSH1 0x20 DUP1 SWAP2 DIV MUL PUSH1 0x20 ADD PUSH1 0x40 MLOAD SWAP1 DUP2 ADD PUSH1 0x40 MSTORE DUP1 SWAP3 SWAP2 SWAP1 DUP2 DUP2 MSTORE PUSH1 0x20 ADD DUP3 DUP1 SLOAD PUSH2 0x65C SWAP1 PUSH2 0x2B63 JUMP JUMPDEST DUP1 ISZERO PUSH2 0x6A9 JUMPI DUP1 PUSH1 0x1F LT PUSH2 0x67E JUMPI PUSH2 0x100 DUP1 DUP4 SLOAD DIV MUL DUP4 MSTORE SWAP2 PUSH1 0x20 ADD SWAP2 PUSH2 0x6A9 JUMP JUMPDEST DUP3 ADD SWAP2 SWAP1 PUSH1 0x0 MSTORE PUSH1 0x20 PUSH1 0x0 KECCAK256 SWAP1 JUMPDEST DUP2 SLOAD DUP2 MSTORE SWAP1 PUSH1 0x1 ADD SWAP1 PUSH1 0x20 ADD DUP1 DUP4 GT PUSH2 0x68C JUMPI DUP3 SWAP1 SUB PUSH1 0x1F AND DUP3 ADD SWAP2 JUMPDEST POP POP POP POP POP SWAP1 DUP1 PUSH1 0x3 ADD DUP1 SLOAD PUSH2 0x6BE SWAP1 PUSH2 0x2B63 JUMP JUMPDEST DUP1 PUSH1 0x1F ADD PUSH1 0x20 DUP1 SWAP2 DIV MUL PUSH1 0x20 ADD PUSH1 0x40 MLOAD SWAP1 DUP2 ADD PUSH1 0x40 MSTORE DUP1 SWAP3 SWAP2 SWAP1 DUP2 DUP2 MSTORE PUSH1 0x20 ADD DUP3 DUP1 SLOAD PUSH2 0x6EA SWAP1 PUSH2 0x2B63 JUMP JUMPDEST DUP1 ISZERO PUSH2 0x737 JUMPI DUP1 PUSH1 0x1F LT PUSH2 0x70C JUMPI PUSH2 0x100 DUP1 DUP4 SLOAD DIV MUL DUP4 MSTORE SWAP2 PUSH1 0x20 ADD SWAP2 PUSH2 0x737 JUMP JUMPDEST DUP3 ADD SWAP2 SWAP1 PUSH1 0x0 MSTORE PUSH1 0x20 PUSH1 0x0 KECCAK256 SWAP1 JUMPDEST DUP2 SLOAD DUP2 MSTORE SWAP1 PUSH1 0x1 ADD SWAP1 PUSH1 0x20 ADD DUP1 DUP4 GT PUSH2 0x71A JUMPI DUP3 SWAP1 SUB PUSH1 0x1F AND DUP3 ADD SWAP2 JUMPDEST POP POP POP POP PUSH1 0x4 DUP4 ADD SLOAD PUSH1 0x5 DUP5 ADD SLOAD PUSH1 0x6 DUP6 ADD SLOAD PUSH1 0x7 DUP7 ADD SLOAD PUSH1 0x8 SWAP1 SWAP7 ADD SLOAD SWAP5 SWAP6 SWAP3 SWAP5 PUSH1 0xFF DUP1 DUP5 AND SWAP6 POP PUSH2 0x100 DUP5 DIV DUP2 AND SWAP5 PUSH3 0x10000 SWAP1 SWAP5 DIV AND SWAP3 SWAP1 DUP12 JUMP JUMPDEST PUSH2 0x77D PUSH2 0x2308 JUMP JUMPDEST PUSH1 0xA DUP2 LT PUSH2 0x79E JUMPI PUSH1 0x40 MLOAD PUSH4 0x1258E443 PUSH1 0xE0 SHL DUP2 MSTORE PUSH1 0x4 ADD PUSH1 0x40 MLOAD DUP1 SWAP2 SUB SWAP1 REVERT JUMPDEST PUSH1 0x0 DUP3 DUP2 MSTORE PUSH1 0x6 PUSH1 0x20 SWAP1 DUP2 MSTORE PUSH1 0x40 DUP1 DUP4 KECCAK256 DUP5 DUP5 MSTORE SWAP1 SWAP2 MSTORE SWAP1 KECCAK256 PUSH1 0x5 DUP2 ADD SLOAD PUSH2 0x100 SWAP1 DIV PUSH1 0xFF AND PUSH2 0x7E1 JUMPI PUSH1 0x40 MLOAD PUSH4 0xDF706AD PUSH1 0xE1 SHL DUP2 MSTORE PUSH1 0x4 ADD PUSH1 0x40 MLOAD DUP1 SWAP2 SUB SWAP1 REVERT JUMPDEST PUSH3 0x127500 DUP2 PUSH1 0x8 ADD SLOAD PUSH2 0x7F4 SWAP2 SWAP1 PUSH2 0x2BB3 JUMP JUMPDEST TIMESTAMP GT PUSH2 0x813 JUMPI PUSH1 0x40 MLOAD PUSH4 0x162618A9 PUSH1 0xE0 SHL DUP2 MSTORE PUSH1 0x4 ADD PUSH1 0x40 MLOAD DUP1 SWAP2 SUB SWAP1 REVERT JUMPDEST PUSH1 0x4 DUP2 ADD SLOAD PUSH1 0x0 PUSH2 0x2710 PUSH2 0x829 PUSH2 0x1F4 DUP5 PUSH2 0x2BCC JUMP JUMPDEST PUSH2 0x833 SWAP2 SWAP1 PUSH2 0x2BE3 JUMP JUMPDEST SWAP1 POP PUSH1 0x0 PUSH2 0x841 DUP3 DUP5 PUSH2 0x2C05 JUMP JUMPDEST SWAP1 POP PUSH1 0x0 DUP5 PUSH1 0x7 ADD SLOAD DUP3 PUSH2 0x855 SWAP2 SWAP1 PUSH2 0x2C05 JUMP JUMPDEST SWAP1 POP DUP1 PUSH1 0x0 SUB PUSH2 0x878 JUMPI PUSH1 0x40 MLOAD PUSH4 0x162908E3 PUSH1 0xE1 SHL DUP2 MSTORE PUSH1 0x4 ADD PUSH1 0x40 MLOAD DUP1 SWAP2 SUB SWAP1 REVERT JUMPDEST PUSH1 0x7 DUP6 ADD DUP3 SWAP1 SSTORE PUSH1 0x0 PUSH1 0x1 PUSH1 0x1 PUSH1 0xA0 SHL SUB PUSH32 0x0 AND PUSH4 0xA9059CBB PUSH2 0x8C2 PUSH1 0x0 SLOAD PUSH1 0x1 PUSH1 0x1 PUSH1 0xA0 SHL SUB AND SWAP1 JUMP JUMPDEST PUSH1 0x40 MLOAD PUSH1 0x1 PUSH1 0x1 PUSH1 0xE0 SHL SUB NOT PUSH1 0xE0 DUP5 SWAP1 SHL AND DUP2 MSTORE PUSH1 0x1 PUSH1 0x1 PUSH1 0xA0 SHL SUB SWAP1 SWAP2 AND PUSH1 0x4 DUP3 ADD MSTORE PUSH1 0x24 DUP2 ADD DUP6 SWAP1 MSTORE PUSH1 0x44 ADD PUSH1 0x20 PUSH1 0x40 MLOAD DUP1 DUP4 SUB DUP2 PUSH1 0x0 DUP8 GAS CALL ISZERO DUP1 ISZERO PUSH2 0x90F JUMPI RETURNDATASIZE PUSH1 0x0 DUP1 RETURNDATACOPY RETURNDATASIZE PUSH1 0x0 REVERT JUMPDEST POP POP POP POP PUSH1 0x40 MLOAD RETURNDATASIZE PUSH1 0x1F NOT PUSH1 0x1F DUP3 ADD AND DUP3 ADD DUP1 PUSH1 0x40 MSTORE POP DUP2 ADD SWAP1 PUSH2 0x933 SWAP2 SWAP1 PUSH2 0x2C18 JUMP JUMPDEST SWAP1 POP DUP1 PUSH2 0x953 JUMPI PUSH1 0x40 MLOAD PUSH4 0x12171D83 PUSH1 0xE3 SHL DUP2 MSTORE PUSH1 0x4 ADD PUSH1 0x40 MLOAD DUP1 SWAP2 SUB SWAP1 REVERT JUMPDEST DUP7 DUP9 PUSH32 0xCF3B62092C7F2A3455C516C177BD1970412D1C381C960D3986E3296F9DFF0E7B DUP5 PUSH1 0x40 MLOAD PUSH2 0x986 SWAP2 DUP2 MSTORE PUSH1 0x20 ADD SWAP1 JUMP JUMPDEST PUSH1 0x40 MLOAD DUP1 SWAP2 SUB SWAP1 LOG3 POP POP POP POP POP POP PUSH2 0x99D PUSH1 0x1 DUP1 SSTORE JUMP JUMPDEST POP POP JUMP JUMPDEST PUSH2 0x9A9 PUSH2 0x2332 JUMP JUMPDEST PUSH1 0x0 PUSH2 0x9B3 PUSH2 0x235F JUMP JUMPDEST SWAP1 POP DUP1 PUSH1 0x0 SUB PUSH2 0x9C0 JUMPI POP JUMP JUMPDEST PUSH1 0x0 PUSH2 0x9CD PUSH1 0x1 DUP4 PUSH2 0x2C05 JUMP JUMPDEST SWAP1 POP PUSH1 0x2 SLOAD DUP2 SUB PUSH2 0x9DC JUMPI POP POP JUMP JUMPDEST PUSH1 0x0 JUMPDEST PUSH1 0xA DUP2 LT ISZERO PUSH2 0xA04 JUMPI PUSH2 0x9F2 DUP3 DUP3 PUSH2 0x236C JUMP JUMPDEST DUP1 PUSH2 0x9FC DUP2 PUSH2 0x2C3A JUMP JUMPDEST SWAP2 POP POP PUSH2 0x9DF JUMP JUMPDEST POP PUSH1 0x2 DUP2 SWAP1 SSTORE PUSH1 0x40 MLOAD DUP2 SWAP1 PUSH32 0x6FBFBCCDD0D107860C9BCCFA723D97EBA4F37886EDEB01E7A438B1E0FE44E056 SWAP1 PUSH1 0x0 SWAP1 LOG2 POP POP JUMPDEST JUMP JUMPDEST PUSH1 0x0 DUP4 DUP2 MSTORE PUSH1 0x6 PUSH1 0x20 SWAP1 DUP2 MSTORE PUSH1 0x40 DUP1 DUP4 KECCAK256 DUP6 DUP5 MSTORE DUP3 MSTORE DUP1 DUP4 KECCAK256 DUP7 DUP5 MSTORE PUSH1 0x7 DUP4 MSTORE DUP2 DUP5 KECCAK256 DUP7 DUP6 MSTORE DUP4 MSTORE DUP2 DUP5 KECCAK256 PUSH1 0x1 PUSH1 0x1 PUSH1 0xA0 SHL SUB DUP7 AND DUP6 MSTORE SWAP1 SWAP3 MSTORE DUP3 KECCAK256 SLOAD PUSH1 0xFF AND PUSH2 0xA88 JUMPI PUSH1 0x0 SWAP2 POP POP PUSH2 0xB3D JUMP JUMPDEST PUSH1 0x0 DUP6 DUP2 MSTORE PUSH1 0x8 PUSH1 0x20 SWAP1 DUP2 MSTORE PUSH1 0x40 DUP1 DUP4 KECCAK256 DUP8 DUP5 MSTORE DUP3 MSTORE DUP1 DUP4 KECCAK256 PUSH1 0x1 PUSH1 0x1 PUSH1 0xA0 SHL SUB DUP8 AND DUP5 MSTORE SWAP1 SWAP2 MSTORE SWAP1 KECCAK256 SLOAD PUSH1 0xFF AND ISZERO PUSH2 0xAC5 JUMPI PUSH1 0x0 SWAP2 POP POP PUSH2 0xB3D JUMP JUMPDEST PUSH1 0x5 DUP2 ADD SLOAD PUSH2 0x100 SWAP1 DIV PUSH1 0xFF AND PUSH2 0xAE0 JUMPI PUSH1 0x0 SWAP2 POP POP PUSH2 0xB3D JUMP JUMPDEST DUP1 PUSH1 0x6 ADD SLOAD PUSH1 0x0 SUB PUSH2 0xAF6 JUMPI PUSH1 0x0 SWAP2 POP POP PUSH2 0xB3D JUMP JUMPDEST PUSH1 0x4 DUP2 ADD SLOAD PUSH1 0x0 PUSH2 0x2710 PUSH2 0xB0C PUSH2 0x1F4 DUP5 PUSH2 0x2BCC JUMP JUMPDEST PUSH2 0xB16 SWAP2 SWAP1 PUSH2 0x2BE3 JUMP JUMPDEST SWAP1 POP PUSH1 0x0 PUSH2 0xB24 DUP3 DUP5 PUSH2 0x2C05 JUMP JUMPDEST SWAP1 POP DUP4 PUSH1 0x6 ADD SLOAD DUP2 PUSH2 0xB36 SWAP2 SWAP1 PUSH2 0x2BE3 JUMP JUMPDEST SWAP5 POP POP POP POP POP JUMPDEST SWAP4 SWAP3 POP POP POP JUMP JUMPDEST PUSH2 0xB4C PUSH2 0x235F JUMP JUMPDEST DUP2 LT PUSH2 0xB6B JUMPI PUSH1 0x40 MLOAD PUSH4 0x4DC7F5FF PUSH1 0xE1 SHL DUP2 MSTORE PUSH1 0x4 ADD PUSH1 0x40 MLOAD DUP1 SWAP2 SUB SWAP1 REVERT JUMPDEST PUSH1 0x2 SLOAD PUSH2 0xB79 SWAP1 PUSH1 0x1 PUSH2 0x2BB3 JUMP JUMPDEST DUP2 EQ PUSH2 0xB98 JUMPI PUSH1 0x40 MLOAD PUSH4 0x4DC7F5FF PUSH1 0xE1 SHL DUP2 MSTORE PUSH1 0x4 ADD PUSH1 0x40 MLOAD DUP1 SWAP2 SUB SWAP1 REVERT JUMPDEST PUSH1 0x0 JUMPDEST PUSH1 0xA DUP2 LT ISZERO PUSH2 0xBC0 JUMPI PUSH2 0xBAE DUP3 DUP3 PUSH2 0x236C JUMP JUMPDEST DUP1 PUSH2 0xBB8 DUP2 PUSH2 0x2C3A JUMP JUMPDEST SWAP2 POP POP PUSH2 0xB9B JUMP JUMPDEST POP PUSH1 0x2 DUP2 SWAP1 SSTORE PUSH1 0x40 MLOAD DUP2 SWAP1 PUSH32 0x6FBFBCCDD0D107860C9BCCFA723D97EBA4F37886EDEB01E7A438B1E0FE44E056 SWAP1 PUSH1 0x0 SWAP1 LOG2 POP JUMP JUMPDEST PUSH2 0xBFC PUSH2 0x2332 JUMP JUMPDEST PUSH2 0xC04 PUSH2 0x2308 JUMP JUMPDEST PUSH1 0xA SLOAD PUSH1 0x0 DUP2 SWAP1 SUB PUSH2 0xC29 JUMPI PUSH1 0x40 MLOAD PUSH4 0x162908E3 PUSH1 0xE1 SHL DUP2 MSTORE PUSH1 0x4 ADD PUSH1 0x40 MLOAD DUP1 SWAP2 SUB SWAP1 REVERT JUMPDEST PUSH1 0x0 PUSH1 0xA DUP2 SWAP1 SSTORE PUSH1 0x1 PUSH1 0x1 PUSH1 0xA0 SHL SUB PUSH32 0x0 AND PUSH4 0xA9059CBB PUSH2 0xC71 PUSH1 0x0 SLOAD PUSH1 0x1 PUSH1 0x1 PUSH1 0xA0 SHL SUB AND SWAP1 JUMP JUMPDEST PUSH1 0x40 MLOAD PUSH1 0x1 PUSH1 0x1 PUSH1 0xE0 SHL SUB NOT PUSH1 0xE0 DUP5 SWAP1 SHL AND DUP2 MSTORE PUSH1 0x1 PUSH1 0x1 PUSH1 0xA0 SHL SUB SWAP1 SWAP2 AND PUSH1 0x4 DUP3 ADD MSTORE PUSH1 0x24 DUP2 ADD DUP6 SWAP1 MSTORE PUSH1 0x44 ADD PUSH1 0x20 PUSH1 0x40 MLOAD DUP1 DUP4 SUB DUP2 PUSH1 0x0 DUP8 GAS CALL ISZERO DUP1 ISZERO PUSH2 0xCBE JUMPI RETURNDATASIZE PUSH1 0x0 DUP1 RETURNDATACOPY RETURNDATASIZE PUSH1 0x0 REVERT JUMPDEST POP POP POP POP PUSH1 0x40 MLOAD RETURNDATASIZE PUSH1 0x1F NOT PUSH1 0x1F DUP3 ADD AND DUP3 ADD DUP1 PUSH1 0x40 MSTORE POP DUP2 ADD SWAP1 PUSH2 0xCE2 SWAP2 SWAP1 PUSH2 0x2C18 JUMP JUMPDEST SWAP1 POP DUP1 PUSH2 0xD02 JUMPI PUSH1 0x40 MLOAD PUSH4 0x12171D83 PUSH1 0xE3 SHL DUP2 MSTORE PUSH1 0x4 ADD PUSH1 0x40 MLOAD DUP1 SWAP2 SUB SWAP1 REVERT JUMPDEST PUSH1 0x0 SLOAD PUSH1 0x1 PUSH1 0x1 PUSH1 0xA0 SHL SUB AND PUSH1 0x1 PUSH1 0x1 PUSH1 0xA0 SHL SUB AND PUSH32 0xC0819C13BE868895EB93E40EACEB96DE976442FA1D404E5C55F14BB65A8C489A DUP4 PUSH1 0x40 MLOAD PUSH2 0xD48 SWAP2 DUP2 MSTORE PUSH1 0x20 ADD SWAP1 JUMP JUMPDEST PUSH1 0x40 MLOAD DUP1 SWAP2 SUB SWAP1 LOG2 POP POP PUSH2 0xA38 PUSH1 0x1 DUP1 SSTORE JUMP JUMPDEST PUSH2 0xD63 PUSH2 0x2332 JUMP JUMPDEST PUSH1 0x1 PUSH1 0x1 PUSH1 0xA0 SHL SUB AND PUSH1 0x0 SWAP1 DUP2 MSTORE PUSH1 0x5 PUSH1 0x20 MSTORE PUSH1 0x40 SWAP1 KECCAK256 DUP1 SLOAD PUSH1 0xFF NOT AND PUSH1 0x1 OR SWAP1 SSTORE JUMP JUMPDEST PUSH1 0x60 DUP1 PUSH1 0x60 PUSH1 0x0 PUSH2 0xD96 PUSH2 0x235F JUMP JUMPDEST SWAP1 POP PUSH1 0x0 PUSH2 0xDA5 PUSH1 0xA DUP4 PUSH2 0x2BCC JUMP JUMPDEST SWAP1 POP PUSH1 0x0 DUP2 PUSH8 0xFFFFFFFFFFFFFFFF DUP2 GT ISZERO PUSH2 0xDC2 JUMPI PUSH2 0xDC2 PUSH2 0x2C53 JUMP JUMPDEST PUSH1 0x40 MLOAD SWAP1 DUP1 DUP3 MSTORE DUP1 PUSH1 0x20 MUL PUSH1 0x20 ADD DUP3 ADD PUSH1 0x40 MSTORE DUP1 ISZERO PUSH2 0xDEB JUMPI DUP2 PUSH1 0x20 ADD PUSH1 0x20 DUP3 MUL DUP1 CALLDATASIZE DUP4 CALLDATACOPY ADD SWAP1 POP JUMPDEST POP SWAP1 POP PUSH1 0x0 DUP3 PUSH8 0xFFFFFFFFFFFFFFFF DUP2 GT ISZERO PUSH2 0xE09 JUMPI PUSH2 0xE09 PUSH2 0x2C53 JUMP JUMPDEST PUSH1 0x40 MLOAD SWAP1 DUP1 DUP3 MSTORE DUP1 PUSH1 0x20 MUL PUSH1 0x20 ADD DUP3 ADD PUSH1 0x40 MSTORE DUP1 ISZERO PUSH2 0xE32 JUMPI DUP2 PUSH1 0x20 ADD PUSH1 0x20 DUP3 MUL DUP1 CALLDATASIZE DUP4 CALLDATACOPY ADD SWAP1 POP JUMPDEST POP SWAP1 POP PUSH1 0x0 DUP4 PUSH8 0xFFFFFFFFFFFFFFFF DUP2 GT ISZERO PUSH2 0xE50 JUMPI PUSH2 0xE50 PUSH2 0x2C53 JUMP JUMPDEST PUSH1 0x40 MLOAD SWAP1 DUP1 DUP3 MSTORE DUP1 PUSH1 0x20 MUL PUSH1 0x20 ADD DUP3 ADD PUSH1 0x40 MSTORE DUP1 ISZERO PUSH2 0xE79 JUMPI DUP2 PUSH1 0x20 ADD PUSH1 0x20 DUP3 MUL DUP1 CALLDATASIZE DUP4 CALLDATACOPY ADD SWAP1 POP JUMPDEST POP SWAP1 POP PUSH1 0x0 DUP1 JUMPDEST DUP7 DUP2 GT PUSH2 0x108E JUMPI PUSH1 0x0 JUMPDEST PUSH1 0xA DUP2 LT ISZERO PUSH2 0x107B JUMPI PUSH1 0x0 PUSH1 0x6 PUSH1 0x0 DUP5 DUP2 MSTORE PUSH1 0x20 ADD SWAP1 DUP2 MSTORE PUSH1 0x20 ADD PUSH1 0x0 KECCAK256 PUSH1 0x0 DUP4 DUP2 MSTORE PUSH1 0x20 ADD SWAP1 DUP2 MSTORE PUSH1 0x20 ADD PUSH1 0x0 KECCAK256 SWAP1 POP PUSH1 0x7 PUSH1 0x0 DUP5 DUP2 MSTORE PUSH1 0x20 ADD SWAP1 DUP2 MSTORE PUSH1 0x20 ADD PUSH1 0x0 KECCAK256 PUSH1 0x0 DUP4 DUP2 MSTORE PUSH1 0x20 ADD SWAP1 DUP2 MSTORE PUSH1 0x20 ADD PUSH1 0x0 KECCAK256 PUSH1 0x0 DUP15 PUSH1 0x1 PUSH1 0x1 PUSH1 0xA0 SHL SUB AND PUSH1 0x1 PUSH1 0x1 PUSH1 0xA0 SHL SUB AND DUP2 MSTORE PUSH1 0x20 ADD SWAP1 DUP2 MSTORE PUSH1 0x20 ADD PUSH1 0x0 KECCAK256 PUSH1 0x0 SWAP1 SLOAD SWAP1 PUSH2 0x100 EXP SWAP1 DIV PUSH1 0xFF AND DUP1 ISZERO PUSH2 0xF6E JUMPI POP PUSH1 0x8 PUSH1 0x0 DUP5 DUP2 MSTORE PUSH1 0x20 ADD SWAP1 DUP2 MSTORE PUSH1 0x20 ADD PUSH1 0x0 KECCAK256 PUSH1 0x0 DUP4 DUP2 MSTORE PUSH1 0x20 ADD SWAP1 DUP2 MSTORE PUSH1 0x20 ADD PUSH1 0x0 KECCAK256 PUSH1 0x0 DUP15 PUSH1 0x1 PUSH1 0x1 PUSH1 0xA0 SHL SUB AND PUSH1 0x1 PUSH1 0x1 PUSH1 0xA0 SHL SUB AND DUP2 MSTORE PUSH1 0x20 ADD SWAP1 DUP2 MSTORE PUSH1 0x20 ADD PUSH1 0x0 KECCAK256 PUSH1 0x0 SWAP1 SLOAD SWAP1 PUSH2 0x100 EXP SWAP1 DIV PUSH1 0xFF AND ISZERO JUMPDEST DUP1 ISZERO PUSH2 0xF83 JUMPI POP PUSH1 0x5 DUP2 ADD SLOAD PUSH2 0x100 SWAP1 DIV PUSH1 0xFF AND JUMPDEST DUP1 ISZERO PUSH2 0xFA1 JUMPI POP PUSH3 0x127500 DUP2 PUSH1 0x8 ADD SLOAD PUSH2 0xF9D SWAP2 SWAP1 PUSH2 0x2BB3 JUMP JUMPDEST TIMESTAMP GT ISZERO JUMPDEST DUP1 ISZERO PUSH2 0xFB1 JUMPI POP PUSH1 0x0 DUP2 PUSH1 0x6 ADD SLOAD GT JUMPDEST ISZERO PUSH2 0x1068 JUMPI PUSH1 0x4 DUP2 ADD SLOAD PUSH1 0x0 PUSH2 0x2710 PUSH2 0xFCC PUSH2 0x1F4 DUP5 PUSH2 0x2BCC JUMP JUMPDEST PUSH2 0xFD6 SWAP2 SWAP1 PUSH2 0x2BE3 JUMP JUMPDEST SWAP1 POP PUSH1 0x0 PUSH2 0xFE4 DUP3 DUP5 PUSH2 0x2C05 JUMP JUMPDEST SWAP1 POP PUSH1 0x0 DUP5 PUSH1 0x6 ADD SLOAD DUP3 PUSH2 0xFF8 SWAP2 SWAP1 PUSH2 0x2BE3 JUMP JUMPDEST SWAP1 POP DUP7 DUP12 DUP10 DUP2 MLOAD DUP2 LT PUSH2 0x100D JUMPI PUSH2 0x100D PUSH2 0x2C69 JUMP JUMPDEST PUSH1 0x20 MUL PUSH1 0x20 ADD ADD DUP2 DUP2 MSTORE POP POP DUP6 DUP11 DUP10 DUP2 MLOAD DUP2 LT PUSH2 0x102C JUMPI PUSH2 0x102C PUSH2 0x2C69 JUMP JUMPDEST PUSH1 0x20 MUL PUSH1 0x20 ADD ADD DUP2 DUP2 MSTORE POP POP DUP1 DUP10 DUP10 DUP2 MLOAD DUP2 LT PUSH2 0x104B JUMPI PUSH2 0x104B PUSH2 0x2C69 JUMP JUMPDEST PUSH1 0x20 SWAP1 DUP2 MUL SWAP2 SWAP1 SWAP2 ADD ADD MSTORE DUP8 PUSH2 0x1060 DUP2 PUSH2 0x2C3A JUMP JUMPDEST SWAP9 POP POP POP POP POP POP JUMPDEST POP DUP1 PUSH2 0x1073 DUP2 PUSH2 0x2C3A JUMP JUMPDEST SWAP2 POP POP PUSH2 0xE8A JUMP JUMPDEST POP DUP1 PUSH2 0x1086 DUP2 PUSH2 0x2C3A JUMP JUMPDEST SWAP2 POP POP PUSH2 0xE80 JUMP JUMPDEST POP DUP1 PUSH8 0xFFFFFFFFFFFFFFFF DUP2 GT ISZERO PUSH2 0x10A8 JUMPI PUSH2 0x10A8 PUSH2 0x2C53 JUMP JUMPDEST PUSH1 0x40 MLOAD SWAP1 DUP1 DUP3 MSTORE DUP1 PUSH1 0x20 MUL PUSH1 0x20 ADD DUP3 ADD PUSH1 0x40 MSTORE DUP1 ISZERO PUSH2 0x10D1 JUMPI DUP2 PUSH1 0x20 ADD PUSH1 0x20 DUP3 MUL DUP1 CALLDATASIZE DUP4 CALLDATACOPY ADD SWAP1 POP JUMPDEST POP SWAP9 POP DUP1 PUSH8 0xFFFFFFFFFFFFFFFF DUP2 GT ISZERO PUSH2 0x10ED JUMPI PUSH2 0x10ED PUSH2 0x2C53 JUMP JUMPDEST PUSH1 0x40 MLOAD SWAP1 DUP1 DUP3 MSTORE DUP1 PUSH1 0x20 MUL PUSH1 0x20 ADD DUP3 ADD PUSH1 0x40 MSTORE DUP1 ISZERO PUSH2 0x1116 JUMPI DUP2 PUSH1 0x20 ADD PUSH1 0x20 DUP3 MUL DUP1 CALLDATASIZE DUP4 CALLDATACOPY ADD SWAP1 POP JUMPDEST POP SWAP8 POP DUP1 PUSH8 0xFFFFFFFFFFFFFFFF DUP2 GT ISZERO PUSH2 0x1132 JUMPI PUSH2 0x1132 PUSH2 0x2C53 JUMP JUMPDEST PUSH1 0x40 MLOAD SWAP1 DUP1 DUP3 MSTORE DUP1 PUSH1 0x20 MUL PUSH1 0x20 ADD DUP3 ADD PUSH1 0x40 MSTORE DUP1 ISZERO PUSH2 0x115B JUMPI DUP2 PUSH1 0x20 ADD PUSH1 0x20 DUP3 MUL DUP1 CALLDATASIZE DUP4 CALLDATACOPY ADD SWAP1 POP JUMPDEST POP SWAP7 POP PUSH1 0x0 JUMPDEST DUP2 DUP2 LT ISZERO PUSH2 0x1222 JUMPI DUP5 DUP2 DUP2 MLOAD DUP2 LT PUSH2 0x117B JUMPI PUSH2 0x117B PUSH2 0x2C69 JUMP JUMPDEST PUSH1 0x20 MUL PUSH1 0x20 ADD ADD MLOAD DUP11 DUP3 DUP2 MLOAD DUP2 LT PUSH2 0x1195 JUMPI PUSH2 0x1195 PUSH2 0x2C69 JUMP JUMPDEST PUSH1 0x20 MUL PUSH1 0x20 ADD ADD DUP2 DUP2 MSTORE POP POP DUP4 DUP2 DUP2 MLOAD DUP2 LT PUSH2 0x11B3 JUMPI PUSH2 0x11B3 PUSH2 0x2C69 JUMP JUMPDEST PUSH1 0x20 MUL PUSH1 0x20 ADD ADD MLOAD DUP10 DUP3 DUP2 MLOAD DUP2 LT PUSH2 0x11CD JUMPI PUSH2 0x11CD PUSH2 0x2C69 JUMP JUMPDEST PUSH1 0x20 MUL PUSH1 0x20 ADD ADD DUP2 DUP2 MSTORE POP POP DUP3 DUP2 DUP2 MLOAD DUP2 LT PUSH2 0x11EB JUMPI PUSH2 0x11EB PUSH2 0x2C69 JUMP JUMPDEST PUSH1 0x20 MUL PUSH1 0x20 ADD ADD MLOAD DUP9 DUP3 DUP2 MLOAD DUP2 LT PUSH2 0x1205 JUMPI PUSH2 0x1205 PUSH2 0x2C69 JUMP JUMPDEST PUSH1 0x20 SWAP1 DUP2 MUL SWAP2 SWAP1 SWAP2 ADD ADD MSTORE DUP1 PUSH2 0x121A DUP2 PUSH2 0x2C3A JUMP JUMPDEST SWAP2 POP POP PUSH2 0x1161 JUMP JUMPDEST POP POP POP POP POP POP POP SWAP2 SWAP4 SWAP1 SWAP3 POP JUMP JUMPDEST PUSH2 0x1238 PUSH2 0x2332 JUMP JUMPDEST PUSH2 0xA38 PUSH1 0x0 PUSH2 0x2482 JUMP JUMPDEST PUSH2 0x124A PUSH2 0x2332 JUMP JUMPDEST PUSH1 0x1 PUSH1 0x1 PUSH1 0xA0 SHL SUB DUP2 AND PUSH1 0x0 DUP2 DUP2 MSTORE PUSH1 0x4 PUSH1 0x20 MSTORE PUSH1 0x40 DUP1 DUP3 KECCAK256 DUP1 SLOAD PUSH1 0xFF NOT AND SWAP1 SSTORE MLOAD PUSH32 0x2A2F5E02B0E6AAB2B998DBCAE41AEC9407649A38BD8D41B7B49BEDEE8CDEAF2E SWAP2 SWAP1 LOG2 POP JUMP JUMPDEST PUSH2 0x129B PUSH2 0x2308 JUMP JUMPDEST CALLER PUSH1 0x0 SWAP1 DUP2 MSTORE PUSH1 0x3 PUSH1 0x20 MSTORE PUSH1 0x40 SWAP1 KECCAK256 SLOAD PUSH1 0xFF AND PUSH2 0x12CB JUMPI PUSH1 0x40 MLOAD PUSH4 0xABA47339 PUSH1 0xE0 SHL DUP2 MSTORE PUSH1 0x4 ADD PUSH1 0x40 MLOAD DUP1 SWAP2 SUB SWAP1 REVERT JUMPDEST PUSH1 0xA DUP2 LT PUSH2 0x12EC JUMPI PUSH1 0x40 MLOAD PUSH4 0x1258E443 PUSH1 0xE0 SHL DUP2 MSTORE PUSH1 0x4 ADD PUSH1 0x40 MLOAD DUP1 SWAP2 SUB SWAP1 REVERT JUMPDEST PUSH1 0x0 DUP3 DUP2 MSTORE PUSH1 0x6 PUSH1 0x20 SWAP1 DUP2 MSTORE PUSH1 0x40 DUP1 DUP4 KECCAK256 DUP5 DUP5 MSTORE SWAP1 SWAP2 MSTORE SWAP1 KECCAK256 PUSH1 0x5 DUP2 ADD SLOAD PUSH2 0x100 SWAP1 DIV PUSH1 0xFF AND PUSH2 0x132F JUMPI PUSH1 0x40 MLOAD PUSH4 0xDF706AD PUSH1 0xE1 SHL DUP2 MSTORE PUSH1 0x4 ADD PUSH1 0x40 MLOAD DUP1 SWAP2 SUB SWAP1 REVERT JUMPDEST PUSH1 0x5 DUP2 ADD SLOAD PUSH3 0x10000 SWAP1 DIV PUSH1 0xFF AND ISZERO PUSH2 0x135B JUMPI PUSH1 0x40 MLOAD PUSH4 0x1BB428A9 PUSH1 0xE2 SHL DUP2 MSTORE PUSH1 0x4 ADD PUSH1 0x40 MLOAD DUP1 SWAP2 SUB SWAP1 REVERT JUMPDEST PUSH1 0x0 DUP4 DUP2 MSTORE PUSH1 0x7 PUSH1 0x20 SWAP1 DUP2 MSTORE PUSH1 0x40 DUP1 DUP4 KECCAK256 DUP6 DUP5 MSTORE DUP3 MSTORE DUP1 DUP4 KECCAK256 CALLER DUP5 MSTORE SWAP1 SWAP2 MSTORE SWAP1 KECCAK256 SLOAD PUSH1 0xFF AND PUSH2 0x139D JUMPI PUSH1 0x40 MLOAD PUSH4 0x1327DEB PUSH1 0xE0 SHL DUP2 MSTORE PUSH1 0x4 ADD PUSH1 0x40 MLOAD DUP1 SWAP2 SUB SWAP1 REVERT JUMPDEST PUSH1 0x0 DUP4 DUP2 MSTORE PUSH1 0x8 PUSH1 0x20 SWAP1 DUP2 MSTORE PUSH1 0x40 DUP1 DUP4 KECCAK256 DUP6 DUP5 MSTORE DUP3 MSTORE DUP1 DUP4 KECCAK256 CALLER DUP5 MSTORE SWAP1 SWAP2 MSTORE SWAP1 KECCAK256 SLOAD PUSH1 0xFF AND ISZERO PUSH2 0x13E0 JUMPI PUSH1 0x40 MLOAD PUSH4 0xC8D9EAB PUSH1 0xE3 SHL DUP2 MSTORE PUSH1 0x4 ADD PUSH1 0x40 MLOAD DUP1 SWAP2 SUB SWAP1 REVERT JUMPDEST PUSH3 0x127500 DUP2 PUSH1 0x8 ADD SLOAD PUSH2 0x13F3 SWAP2 SWAP1 PUSH2 0x2BB3 JUMP JUMPDEST TIMESTAMP GT ISZERO PUSH2 0x1413 JUMPI PUSH1 0x40 MLOAD PUSH4 0x320C7B7D PUSH1 0xE2 SHL DUP2 MSTORE PUSH1 0x4 ADD PUSH1 0x40 MLOAD DUP1 SWAP2 SUB SWAP1 REVERT JUMPDEST PUSH1 0x6 DUP2 ADD SLOAD PUSH1 0x0 DUP2 SWAP1 SUB PUSH2 0x143A JUMPI PUSH1 0x40 MLOAD PUSH4 0x162908E3 PUSH1 0xE1 SHL DUP2 MSTORE PUSH1 0x4 ADD PUSH1 0x40 MLOAD DUP1 SWAP2 SUB SWAP1 REVERT JUMPDEST PUSH1 0x4 DUP3 ADD SLOAD PUSH1 0x0 PUSH2 0x2710 PUSH2 0x1450 PUSH2 0x1F4 DUP5 PUSH2 0x2BCC JUMP JUMPDEST PUSH2 0x145A SWAP2 SWAP1 PUSH2 0x2BE3 JUMP JUMPDEST SWAP1 POP PUSH1 0x0 PUSH2 0x1468 DUP3 DUP5 PUSH2 0x2C05 JUMP JUMPDEST SWAP1 POP PUSH1 0x0 PUSH2 0x1476 DUP6 DUP4 PUSH2 0x2BE3 JUMP JUMPDEST PUSH1 0x0 DUP10 DUP2 MSTORE PUSH1 0x8 PUSH1 0x20 SWAP1 DUP2 MSTORE PUSH1 0x40 DUP1 DUP4 KECCAK256 DUP12 DUP5 MSTORE DUP3 MSTORE DUP1 DUP4 KECCAK256 CALLER DUP5 MSTORE SWAP1 SWAP2 MSTORE DUP2 KECCAK256 DUP1 SLOAD PUSH1 0xFF NOT AND PUSH1 0x1 OR SWAP1 SSTORE PUSH1 0x7 DUP9 ADD DUP1 SLOAD SWAP3 SWAP4 POP DUP4 SWAP3 SWAP1 SWAP2 SWAP1 PUSH2 0x14BB SWAP1 DUP5 SWAP1 PUSH2 0x2BB3 JUMP JUMPDEST SWAP1 SWAP2 SSTORE POP POP PUSH1 0x40 MLOAD PUSH4 0xA9059CBB PUSH1 0xE0 SHL DUP2 MSTORE CALLER PUSH1 0x4 DUP3 ADD MSTORE PUSH1 0x24 DUP2 ADD DUP3 SWAP1 MSTORE PUSH1 0x0 SWAP1 PUSH32 0x0 PUSH1 0x1 PUSH1 0x1 PUSH1 0xA0 SHL SUB AND SWAP1 PUSH4 0xA9059CBB SWAP1 PUSH1 0x44 ADD PUSH1 0x20 PUSH1 0x40 MLOAD DUP1 DUP4 SUB DUP2 PUSH1 0x0 DUP8 GAS CALL ISZERO DUP1 ISZERO PUSH2 0x1530 JUMPI RETURNDATASIZE PUSH1 0x0 DUP1 RETURNDATACOPY RETURNDATASIZE PUSH1 0x0 REVERT JUMPDEST POP POP POP POP PUSH1 0x40 MLOAD RETURNDATASIZE PUSH1 0x1F NOT PUSH1 0x1F DUP3 ADD AND DUP3 ADD DUP1 PUSH1 0x40 MSTORE POP DUP2 ADD SWAP1 PUSH2 0x1554 SWAP2 SWAP1 PUSH2 0x2C18 JUMP JUMPDEST SWAP1 POP DUP1 PUSH2 0x1574 JUMPI PUSH1 0x40 MLOAD PUSH4 0x12171D83 PUSH1 0xE3 SHL DUP2 MSTORE PUSH1 0x4 ADD PUSH1 0x40 MLOAD DUP1 SWAP2 SUB SWAP1 REVERT JUMPDEST DUP8 DUP10 CALLER PUSH1 0x1 PUSH1 0x1 PUSH1 0xA0 SHL SUB AND PUSH32 0x812BE816DB82C66CD18CA8457005CD84689642D8AC4D38599CC6AF444A2DC72A DUP6 PUSH1 0x40 MLOAD PUSH2 0x15B1 SWAP2 DUP2 MSTORE PUSH1 0x20 ADD SWAP1 JUMP JUMPDEST PUSH1 0x40 MLOAD DUP1 SWAP2 SUB SWAP1 LOG4 POP POP POP POP POP POP POP PUSH2 0x99D PUSH1 0x1 DUP1 SSTORE JUMP JUMPDEST PUSH2 0x15D1 PUSH2 0x2308 JUMP JUMPDEST PUSH1 0xA DUP2 LT PUSH2 0x15F2 JUMPI PUSH1 0x40 MLOAD PUSH4 0x1258E443 PUSH1 0xE0 SHL DUP2 MSTORE PUSH1 0x4 ADD PUSH1 0x40 MLOAD DUP1 SWAP2 SUB SWAP1 REVERT JUMPDEST PUSH1 0x0 DUP3 DUP2 MSTORE PUSH1 0x6 PUSH1 0x20 SWAP1 DUP2 MSTORE PUSH1 0x40 DUP1 DUP4 KECCAK256 DUP5 DUP5 MSTORE SWAP1 SWAP2 MSTORE SWAP1 KECCAK256 DUP1 SLOAD PUSH1 0x1 PUSH1 0x1 PUSH1 0xA0 SHL SUB AND CALLER EQ PUSH2 0x1635 JUMPI PUSH1 0x40 MLOAD PUSH4 0x22111141 PUSH1 0xE1 SHL DUP2 MSTORE PUSH1 0x4 ADD PUSH1 0x40 MLOAD DUP1 SWAP2 SUB SWAP1 REVERT JUMPDEST PUSH1 0x5 DUP2 ADD SLOAD PUSH2 0x100 SWAP1 DIV PUSH1 0xFF AND ISZERO PUSH2 0x1660 JUMPI PUSH1 0x40 MLOAD PUSH4 0x475A2535 PUSH1 0xE0 SHL DUP2 MSTORE PUSH1 0x4 ADD PUSH1 0x40 MLOAD DUP1 SWAP2 SUB SWAP1 REVERT JUMPDEST PUSH1 0x5 DUP2 ADD DUP1 SLOAD PUSH3 0xFF0000 NOT AND PUSH3 0x10000 OR SWAP1 SSTORE PUSH1 0x4 DUP2 ADD SLOAD ISZERO PUSH2 0x1754 JUMPI DUP1 PUSH1 0x4 ADD SLOAD PUSH1 0xB PUSH1 0x0 DUP3 DUP3 SLOAD PUSH2 0x1693 SWAP2 SWAP1 PUSH2 0x2C05 JUMP JUMPDEST SWAP1 SWAP2 SSTORE POP POP PUSH1 0x4 DUP2 DUP2 ADD SLOAD PUSH1 0x40 MLOAD PUSH4 0xA9059CBB PUSH1 0xE0 SHL DUP2 MSTORE CALLER SWAP3 DUP2 ADD SWAP3 SWAP1 SWAP3 MSTORE PUSH1 0x24 DUP3 ADD MSTORE PUSH1 0x0 SWAP1 PUSH32 0x0 PUSH1 0x1 PUSH1 0x1 PUSH1 0xA0 SHL SUB AND SWAP1 PUSH4 0xA9059CBB SWAP1 PUSH1 0x44 ADD PUSH1 0x20 PUSH1 0x40 MLOAD DUP1 DUP4 SUB DUP2 PUSH1 0x0 DUP8 GAS CALL ISZERO DUP1 ISZERO PUSH2 0x170E JUMPI RETURNDATASIZE PUSH1 0x0 DUP1 RETURNDATACOPY RETURNDATASIZE PUSH1 0x0 REVERT JUMPDEST POP POP POP POP PUSH1 0x40 MLOAD RETURNDATASIZE PUSH1 0x1F NOT PUSH1 0x1F DUP3 ADD AND DUP3 ADD DUP1 PUSH1 0x40 MSTORE POP DUP2 ADD SWAP1 PUSH2 0x1732 SWAP2 SWAP1 PUSH2 0x2C18 JUMP JUMPDEST SWAP1 POP DUP1 PUSH2 0x1752 JUMPI PUSH1 0x40 MLOAD PUSH4 0x12171D83 PUSH1 0xE3 SHL DUP2 MSTORE PUSH1 0x4 ADD PUSH1 0x40 MLOAD DUP1 SWAP2 SUB SWAP1 REVERT JUMPDEST POP JUMPDEST PUSH1 0x40 MLOAD DUP3 SWAP1 DUP5 SWAP1 CALLER SWAP1 PUSH32 0x2DDF52AD696F7475D5E714CE5C8C1C4E9B93814E40D3F4C5AB845CB2BC0579AC SWAP1 PUSH1 0x0 SWAP1 LOG4 POP PUSH2 0x99D PUSH1 0x1 DUP1 SSTORE JUMP JUMPDEST PUSH1 0x60 PUSH1 0x0 PUSH2 0x1799 PUSH2 0x235F JUMP JUMPDEST PUSH1 0x40 DUP1 MLOAD PUSH1 0xA DUP1 DUP3 MSTORE PUSH2 0x160 DUP3 ADD SWAP1 SWAP3 MSTORE SWAP2 SWAP3 POP PUSH1 0x0 SWAP2 SWAP1 DUP2 PUSH1 0x20 ADD JUMPDEST PUSH2 0x17BE PUSH2 0x25D0 JUMP JUMPDEST DUP2 MSTORE PUSH1 0x20 ADD SWAP1 PUSH1 0x1 SWAP1 SUB SWAP1 DUP2 PUSH2 0x17B6 JUMPI SWAP1 POP POP SWAP1 POP PUSH1 0x0 JUMPDEST PUSH1 0xA DUP2 LT ISZERO PUSH2 0x1A7B JUMPI PUSH1 0x0 DUP4 DUP2 MSTORE PUSH1 0x6 PUSH1 0x20 SWAP1 DUP2 MSTORE PUSH1 0x40 DUP1 DUP4 KECCAK256 DUP5 DUP5 MSTORE DUP3 MSTORE SWAP2 DUP3 SWAP1 KECCAK256 DUP3 MLOAD PUSH2 0x160 DUP2 ADD SWAP1 SWAP4 MSTORE DUP1 SLOAD PUSH1 0x1 PUSH1 0x1 PUSH1 0xA0 SHL SUB AND DUP4 MSTORE PUSH1 0x1 DUP2 ADD DUP1 SLOAD SWAP2 SWAP3 DUP5 ADD SWAP2 PUSH2 0x1824 SWAP1 PUSH2 0x2B63 JUMP JUMPDEST DUP1 PUSH1 0x1F ADD PUSH1 0x20 DUP1 SWAP2 DIV MUL PUSH1 0x20 ADD PUSH1 0x40 MLOAD SWAP1 DUP2 ADD PUSH1 0x40 MSTORE DUP1 SWAP3 SWAP2 SWAP1 DUP2 DUP2 MSTORE PUSH1 0x20 ADD DUP3 DUP1 SLOAD PUSH2 0x1850 SWAP1 PUSH2 0x2B63 JUMP JUMPDEST DUP1 ISZERO PUSH2 0x189D JUMPI DUP1 PUSH1 0x1F LT PUSH2 0x1872 JUMPI PUSH2 0x100 DUP1 DUP4 SLOAD DIV MUL DUP4 MSTORE SWAP2 PUSH1 0x20 ADD SWAP2 PUSH2 0x189D JUMP JUMPDEST DUP3 ADD SWAP2 SWAP1 PUSH1 0x0 MSTORE PUSH1 0x20 PUSH1 0x0 KECCAK256 SWAP1 JUMPDEST DUP2 SLOAD DUP2 MSTORE SWAP1 PUSH1 0x1 ADD SWAP1 PUSH1 0x20 ADD DUP1 DUP4 GT PUSH2 0x1880 JUMPI DUP3 SWAP1 SUB PUSH1 0x1F AND DUP3 ADD SWAP2 JUMPDEST POP POP POP POP POP DUP2 MSTORE PUSH1 0x20 ADD PUSH1 0x2 DUP3 ADD DUP1 SLOAD PUSH2 0x18B6 SWAP1 PUSH2 0x2B63 JUMP JUMPDEST DUP1 PUSH1 0x1F ADD PUSH1 0x20 DUP1 SWAP2 DIV MUL PUSH1 0x20 ADD PUSH1 0x40 MLOAD SWAP1 DUP2 ADD PUSH1 0x40 MSTORE DUP1 SWAP3 SWAP2 SWAP1 DUP2 DUP2 MSTORE PUSH1 0x20 ADD DUP3 DUP1 SLOAD PUSH2 0x18E2 SWAP1 PUSH2 0x2B63 JUMP JUMPDEST DUP1 ISZERO PUSH2 0x192F JUMPI DUP1 PUSH1 0x1F LT PUSH2 0x1904 JUMPI PUSH2 0x100 DUP1 DUP4 SLOAD DIV MUL DUP4 MSTORE SWAP2 PUSH1 0x20 ADD SWAP2 PUSH2 0x192F JUMP JUMPDEST DUP3 ADD SWAP2 SWAP1 PUSH1 0x0 MSTORE PUSH1 0x20 PUSH1 0x0 KECCAK256 SWAP1 JUMPDEST DUP2 SLOAD DUP2 MSTORE SWAP1 PUSH1 0x1 ADD SWAP1 PUSH1 0x20 ADD DUP1 DUP4 GT PUSH2 0x1912 JUMPI DUP3 SWAP1 SUB PUSH1 0x1F AND DUP3 ADD SWAP2 JUMPDEST POP POP POP POP POP DUP2 MSTORE PUSH1 0x20 ADD PUSH1 0x3 DUP3 ADD DUP1 SLOAD PUSH2 0x1948 SWAP1 PUSH2 0x2B63 JUMP JUMPDEST DUP1 PUSH1 0x1F ADD PUSH1 0x20 DUP1 SWAP2 DIV MUL PUSH1 0x20 ADD PUSH1 0x40 MLOAD SWAP1 DUP2 ADD PUSH1 0x40 MSTORE DUP1 SWAP3 SWAP2 SWAP1 DUP2 DUP2 MSTORE PUSH1 0x20 ADD DUP3 DUP1 SLOAD PUSH2 0x1974 SWAP1 PUSH2 0x2B63 JUMP JUMPDEST DUP1 ISZERO PUSH2 0x19C1 JUMPI DUP1 PUSH1 0x1F LT PUSH2 0x1996 JUMPI PUSH2 0x100 DUP1 DUP4 SLOAD DIV MUL DUP4 MSTORE SWAP2 PUSH1 0x20 ADD SWAP2 PUSH2 0x19C1 JUMP JUMPDEST DUP3 ADD SWAP2 SWAP1 PUSH1 0x0 MSTORE PUSH1 0x20 PUSH1 0x0 KECCAK256 SWAP1 JUMPDEST DUP2 SLOAD DUP2 MSTORE SWAP1 PUSH1 0x1 ADD SWAP1 PUSH1 0x20 ADD DUP1 DUP4 GT PUSH2 0x19A4 JUMPI DUP3 SWAP1 SUB PUSH1 0x1F AND DUP3 ADD SWAP2 JUMPDEST POP POP POP SWAP2 DUP4 MSTORE POP POP PUSH1 0x4 DUP3 ADD SLOAD PUSH1 0x20 DUP3 ADD MSTORE PUSH1 0x5 DUP3 ADD SLOAD PUSH1 0x40 SWAP1 SWAP2 ADD SWAP1 PUSH1 0xFF AND PUSH1 0x9 DUP2 GT ISZERO PUSH2 0x19F2 JUMPI PUSH2 0x19F2 PUSH2 0x26BA JUMP JUMPDEST PUSH1 0x9 DUP2 GT ISZERO PUSH2 0x1A03 JUMPI PUSH2 0x1A03 PUSH2 0x26BA JUMP JUMPDEST DUP2 MSTORE PUSH1 0x5 DUP3 ADD SLOAD PUSH1 0xFF PUSH2 0x100 DUP3 DIV DUP2 AND ISZERO ISZERO PUSH1 0x20 DUP5 ADD MSTORE PUSH3 0x10000 SWAP1 SWAP2 DIV AND ISZERO ISZERO PUSH1 0x40 DUP3 ADD MSTORE PUSH1 0x6 DUP3 ADD SLOAD PUSH1 0x60 DUP3 ADD MSTORE PUSH1 0x7 DUP3 ADD SLOAD PUSH1 0x80 DUP3 ADD MSTORE PUSH1 0x8 SWAP1 SWAP2 ADD SLOAD PUSH1 0xA0 SWAP1 SWAP2 ADD MSTORE DUP3 MLOAD DUP4 SWAP1 DUP4 SWAP1 DUP2 LT PUSH2 0x1A5D JUMPI PUSH2 0x1A5D PUSH2 0x2C69 JUMP JUMPDEST PUSH1 0x20 MUL PUSH1 0x20 ADD ADD DUP2 SWAP1 MSTORE POP DUP1 DUP1 PUSH2 0x1A73 SWAP1 PUSH2 0x2C3A JUMP JUMPDEST SWAP2 POP POP PUSH2 0x17D6 JUMP JUMPDEST POP SWAP3 SWAP2 POP POP JUMP JUMPDEST PUSH2 0x1A8A PUSH2 0x2308 JUMP JUMPDEST CALLER PUSH1 0x0 SWAP1 DUP2 MSTORE PUSH1 0x4 PUSH1 0x20 MSTORE PUSH1 0x40 SWAP1 KECCAK256 SLOAD PUSH1 0xFF AND ISZERO PUSH2 0x1ABB JUMPI PUSH1 0x40 MLOAD PUSH4 0x299AA0A1 PUSH1 0xE2 SHL DUP2 MSTORE PUSH1 0x4 ADD PUSH1 0x40 MLOAD DUP1 SWAP2 SUB SWAP1 REVERT JUMPDEST PUSH2 0x1AC3 PUSH2 0x235F JUMP JUMPDEST DUP11 EQ PUSH2 0x1AE2 JUMPI PUSH1 0x40 MLOAD PUSH4 0x4DC7F5FF PUSH1 0xE1 SHL DUP2 MSTORE PUSH1 0x4 ADD PUSH1 0x40 MLOAD DUP1 SWAP2 SUB SWAP1 REVERT JUMPDEST PUSH1 0xA DUP10 LT PUSH2 0x1B03 JUMPI PUSH1 0x40 MLOAD PUSH4 0x1258E443 PUSH1 0xE0 SHL DUP2 MSTORE PUSH1 0x4 ADD PUSH1 0x40 MLOAD DUP1 SWAP2 SUB SWAP1 REVERT JUMPDEST PUSH1 0x0 DUP11 DUP2 MSTORE PUSH1 0x6 PUSH1 0x20 SWAP1 DUP2 MSTORE PUSH1 0x40 DUP1 DUP4 KECCAK256 DUP13 DUP5 MSTORE SWAP1 SWAP2 MSTORE SWAP1 KECCAK256 DUP1 SLOAD PUSH1 0x1 PUSH1 0x1 PUSH1 0xA0 SHL SUB AND ISZERO DUP1 ISZERO SWAP1 PUSH2 0x1B39 JUMPI POP PUSH1 0x0 DUP2 PUSH1 0x4 ADD SLOAD GT JUMPDEST ISZERO PUSH2 0x1C19 JUMPI DUP1 SLOAD PUSH1 0x4 DUP1 DUP4 ADD SLOAD PUSH1 0x40 MLOAD PUSH4 0xA9059CBB PUSH1 0xE0 SHL DUP2 MSTORE PUSH1 0x1 PUSH1 0x1 PUSH1 0xA0 SHL SUB SWAP4 DUP5 AND SWAP3 DUP2 ADD SWAP3 SWAP1 SWAP3 MSTORE PUSH1 0x24 DUP3 ADD MSTORE PUSH1 0x0 SWAP2 PUSH32 0x0 AND SWAP1 PUSH4 0xA9059CBB SWAP1 PUSH1 0x44 ADD PUSH1 0x20 PUSH1 0x40 MLOAD DUP1 DUP4 SUB DUP2 PUSH1 0x0 DUP8 GAS CALL ISZERO DUP1 ISZERO PUSH2 0x1BB8 JUMPI RETURNDATASIZE PUSH1 0x0 DUP1 RETURNDATACOPY RETURNDATASIZE PUSH1 0x0 REVERT JUMPDEST POP POP POP POP PUSH1 0x40 MLOAD RETURNDATASIZE PUSH1 0x1F NOT PUSH1 0x1F DUP3 ADD AND DUP3 ADD DUP1 PUSH1 0x40 MSTORE POP DUP2 ADD SWAP1 PUSH2 0x1BDC SWAP2 SWAP1 PUSH2 0x2C18 JUMP JUMPDEST SWAP1 POP DUP1 PUSH2 0x1BFC JUMPI PUSH1 0x40 MLOAD PUSH4 0x12171D83 PUSH1 0xE3 SHL DUP2 MSTORE PUSH1 0x4 ADD PUSH1 0x40 MLOAD DUP1 SWAP2 SUB SWAP1 REVERT JUMPDEST DUP2 PUSH1 0x4 ADD SLOAD PUSH1 0xB PUSH1 0x0 DUP3 DUP3 SLOAD PUSH2 0x1C12 SWAP2 SWAP1 PUSH2 0x2C05 JUMP JUMPDEST SWAP1 SWAP2 SSTORE POP POP POP JUMPDEST PUSH1 0x40 MLOAD PUSH4 0x23B872DD PUSH1 0xE0 SHL DUP2 MSTORE CALLER PUSH1 0x4 DUP3 ADD MSTORE ADDRESS PUSH1 0x24 DUP3 ADD MSTORE PUSH1 0x44 DUP2 ADD DUP5 SWAP1 MSTORE PUSH1 0x0 SWAP1 PUSH32 0x0 PUSH1 0x1 PUSH1 0x1 PUSH1 0xA0 SHL SUB AND SWAP1 PUSH4 0x23B872DD SWAP1 PUSH1 0x64 ADD PUSH1 0x20 PUSH1 0x40 MLOAD DUP1 DUP4 SUB DUP2 PUSH1 0x0 DUP8 GAS CALL ISZERO DUP1 ISZERO PUSH2 0x1C8F JUMPI RETURNDATASIZE PUSH1 0x0 DUP1 RETURNDATACOPY RETURNDATASIZE PUSH1 0x0 REVERT JUMPDEST POP POP POP POP PUSH1 0x40 MLOAD RETURNDATASIZE PUSH1 0x1F NOT PUSH1 0x1F DUP3 ADD AND DUP3 ADD DUP1 PUSH1 0x40 MSTORE POP DUP2 ADD SWAP1 PUSH2 0x1CB3 SWAP2 SWAP1 PUSH2 0x2C18 JUMP JUMPDEST SWAP1 POP DUP1 PUSH2 0x1CD3 JUMPI PUSH1 0x40 MLOAD PUSH4 0x12171D83 PUSH1 0xE3 SHL DUP2 MSTORE PUSH1 0x4 ADD PUSH1 0x40 MLOAD DUP1 SWAP2 SUB SWAP1 REVERT JUMPDEST DUP2 SLOAD PUSH1 0x1 PUSH1 0x1 PUSH1 0xA0 SHL SUB NOT AND CALLER OR DUP3 SSTORE PUSH1 0x1 DUP3 ADD PUSH2 0x1CF2 DUP11 DUP13 DUP4 PUSH2 0x2CCA JUMP JUMPDEST POP PUSH1 0x2 DUP3 ADD PUSH2 0x1D02 DUP9 DUP11 DUP4 PUSH2 0x2CCA JUMP JUMPDEST POP PUSH1 0x3 DUP3 ADD PUSH2 0x1D12 DUP7 DUP9 DUP4 PUSH2 0x2CCA JUMP JUMPDEST POP PUSH1 0x4 DUP3 ADD DUP5 SWAP1 SSTORE PUSH1 0x5 DUP3 ADD DUP1 SLOAD DUP5 SWAP2 SWAP1 PUSH1 0xFF NOT AND PUSH1 0x1 DUP4 PUSH1 0x9 DUP2 GT ISZERO PUSH2 0x1D3B JUMPI PUSH2 0x1D3B PUSH2 0x26BA JUMP JUMPDEST MUL OR SWAP1 SSTORE POP DUP4 PUSH1 0xB PUSH1 0x0 DUP3 DUP3 SLOAD PUSH2 0x1D52 SWAP2 SWAP1 PUSH2 0x2BB3 JUMP JUMPDEST SWAP3 POP POP DUP2 SWAP1 SSTORE POP DUP11 DUP13 CALLER PUSH1 0x1 PUSH1 0x1 PUSH1 0xA0 SHL SUB AND PUSH32 0x57FD3B672D0A576A3E359189CF66CB6F9F8928EBA7C11EFBE695D66B957CE76E DUP7 DUP9 PUSH1 0x40 MLOAD PUSH2 0x1D96 SWAP3 SWAP2 SWAP1 PUSH2 0x2D8B JUMP JUMPDEST PUSH1 0x40 MLOAD DUP1 SWAP2 SUB SWAP1 LOG4 POP POP PUSH2 0x1DA9 PUSH1 0x1 DUP1 SSTORE JUMP JUMPDEST POP POP POP POP POP POP POP POP POP POP JUMP JUMPDEST PUSH1 0x0 PUSH2 0x1DBF PUSH2 0x235F JUMP JUMPDEST SWAP1 POP SWAP1 JUMP JUMPDEST PUSH2 0x1DCC PUSH2 0x2332 JUMP JUMPDEST PUSH1 0x1 PUSH1 0x1 PUSH1 0xA0 SHL SUB DUP2 AND PUSH1 0x0 DUP2 DUP2 MSTORE PUSH1 0x4 PUSH1 0x20 MSTORE PUSH1 0x40 DUP1 DUP3 KECCAK256 DUP1 SLOAD PUSH1 0xFF NOT AND PUSH1 0x1 OR SWAP1 SSTORE MLOAD PUSH32 0x97B051FE48E86C08FCA96C9BBE846678783B6999358E6D4EFBAF9E40CA59B6A7 SWAP2 SWAP1 LOG2 POP JUMP JUMPDEST PUSH2 0x1E20 PUSH2 0x2308 JUMP JUMPDEST CALLER PUSH1 0x0 SWAP1 DUP2 MSTORE PUSH1 0x3 PUSH1 0x20 MSTORE PUSH1 0x40 SWAP1 KECCAK256 SLOAD PUSH1 0xFF AND ISZERO PUSH2 0x1E51 JUMPI PUSH1 0x40 MLOAD PUSH4 0xEA075BF PUSH1 0xE2 SHL DUP2 MSTORE PUSH1 0x4 ADD PUSH1 0x40 MLOAD DUP1 SWAP2 SUB SWAP1 REVERT JUMPDEST PUSH32 0x0 PUSH1 0x1 PUSH1 0x1 PUSH1 0xA0 SHL SUB AND PUSH4 0x3BC778E3 DUP5 PUSH32 0x0 PUSH2 0x1EE2 DUP9 PUSH1 0x40 MLOAD PUSH1 0x20 ADD PUSH2 0x1ECE SWAP2 SWAP1 PUSH1 0x60 SWAP2 SWAP1 SWAP2 SHL PUSH12 0xFFFFFFFFFFFFFFFFFFFFFFFF NOT AND DUP2 MSTORE PUSH1 0x14 ADD SWAP1 JUMP JUMPDEST PUSH1 0x40 MLOAD PUSH1 0x20 DUP2 DUP4 SUB SUB DUP2 MSTORE SWAP1 PUSH1 0x40 MSTORE PUSH2 0x24D2 JUMP JUMPDEST DUP7 PUSH32 0x0 DUP8 PUSH1 0x40 MLOAD DUP8 PUSH4 0xFFFFFFFF AND PUSH1 0xE0 SHL DUP2 MSTORE PUSH1 0x4 ADD PUSH2 0x1F26 SWAP7 SWAP6 SWAP5 SWAP4 SWAP3 SWAP2 SWAP1 PUSH2 0x2DA6 JUMP JUMPDEST PUSH1 0x0 PUSH1 0x40 MLOAD DUP1 DUP4 SUB DUP2 DUP7 DUP1 EXTCODESIZE ISZERO DUP1 ISZERO PUSH2 0x1F3E JUMPI PUSH1 0x0 DUP1 REVERT JUMPDEST POP GAS STATICCALL ISZERO DUP1 ISZERO PUSH2 0x1F52 JUMPI RETURNDATASIZE PUSH1 0x0 DUP1 RETURNDATACOPY RETURNDATASIZE PUSH1 0x0 REVERT JUMPDEST POP POP CALLER PUSH1 0x0 DUP2 DUP2 MSTORE PUSH1 0x3 PUSH1 0x20 MSTORE PUSH1 0x40 DUP1 DUP3 KECCAK256 DUP1 SLOAD PUSH1 0xFF NOT AND PUSH1 0x1 OR SWAP1 SSTORE MLOAD SWAP2 SWAP4 POP PUSH32 0x54DB7A5CB4735E1AAC1F53DB512D3390390BB6637BD30AD4BF9FC98667D9B9B9 SWAP3 POP SWAP1 LOG2 PUSH2 0x1FA1 PUSH1 0x1 DUP1 SSTORE JUMP JUMPDEST POP POP POP POP JUMP JUMPDEST PUSH2 0x1FAF PUSH2 0x2308 JUMP JUMPDEST CALLER PUSH1 0x0 SWAP1 DUP2 MSTORE PUSH1 0x3 PUSH1 0x20 MSTORE PUSH1 0x40 SWAP1 KECCAK256 SLOAD PUSH1 0xFF AND PUSH2 0x1FDF JUMPI PUSH1 0x40 MLOAD PUSH4 0xABA47339 PUSH1 0xE0 SHL DUP2 MSTORE PUSH1 0x4 ADD PUSH1 0x40 MLOAD DUP1 SWAP2 SUB SWAP1 REVERT JUMPDEST PUSH2 0x1FE7 PUSH2 0x235F JUMP JUMPDEST DUP7 LT PUSH2 0x2006 JUMPI PUSH1 0x40 MLOAD PUSH4 0x4DC7F5FF PUSH1 0xE1 SHL DUP2 MSTORE PUSH1 0x4 ADD PUSH1 0x40 MLOAD DUP1 SWAP2 SUB SWAP1 REVERT JUMPDEST PUSH1 0xA DUP6 LT PUSH2 0x2027 JUMPI PUSH1 0x40 MLOAD PUSH4 0x1258E443 PUSH1 0xE0 SHL DUP2 MSTORE PUSH1 0x4 ADD PUSH1 0x40 MLOAD DUP1 SWAP2 SUB SWAP1 REVERT JUMPDEST PUSH1 0x0 DUP7 DUP2 MSTORE PUSH1 0x6 PUSH1 0x20 SWAP1 DUP2 MSTORE PUSH1 0x40 DUP1 DUP4 KECCAK256 DUP9 DUP5 MSTORE SWAP1 SWAP2 MSTORE SWAP1 KECCAK256 PUSH1 0x5 DUP2 ADD SLOAD PUSH2 0x100 SWAP1 DIV PUSH1 0xFF AND ISZERO PUSH2 0x206B JUMPI PUSH1 0x40 MLOAD PUSH4 0x475A2535 PUSH1 0xE0 SHL DUP2 MSTORE PUSH1 0x4 ADD PUSH1 0x40 MLOAD DUP1 SWAP2 SUB SWAP1 REVERT JUMPDEST PUSH1 0x5 DUP2 ADD SLOAD PUSH3 0x10000 SWAP1 DIV PUSH1 0xFF AND ISZERO PUSH2 0x2097 JUMPI PUSH1 0x40 MLOAD PUSH4 0x1BB428A9 PUSH1 0xE2 SHL DUP2 MSTORE PUSH1 0x4 ADD PUSH1 0x40 MLOAD DUP1 SWAP2 SUB SWAP1 REVERT JUMPDEST PUSH1 0x0 DUP8 DUP2 MSTORE PUSH1 0x7 PUSH1 0x20 SWAP1 DUP2 MSTORE PUSH1 0x40 DUP1 DUP4 KECCAK256 DUP10 DUP5 MSTORE DUP3 MSTORE DUP1 DUP4 KECCAK256 CALLER DUP5 MSTORE SWAP1 SWAP2 MSTORE SWAP1 KECCAK256 SLOAD PUSH1 0xFF AND ISZERO PUSH2 0x20DA JUMPI PUSH1 0x40 MLOAD PUSH4 0xE02CD2CB PUSH1 0xE0 SHL DUP2 MSTORE PUSH1 0x4 ADD PUSH1 0x40 MLOAD DUP1 SWAP2 SUB SWAP1 REVERT JUMPDEST PUSH1 0x40 MLOAD PUSH12 0xFFFFFFFFFFFFFFFFFFFFFFFF NOT CALLER PUSH1 0x60 SHL AND PUSH1 0x20 DUP3 ADD MSTORE PUSH1 0x34 DUP2 ADD DUP9 SWAP1 MSTORE PUSH1 0x54 DUP2 ADD DUP8 SWAP1 MSTORE PUSH1 0x74 DUP2 ADD DUP7 SWAP1 MSTORE PUSH1 0x94 DUP2 ADD DUP6 SWAP1 MSTORE PUSH1 0x0 SWAP1 PUSH1 0xB4 ADD PUSH1 0x40 MLOAD PUSH1 0x20 DUP2 DUP4 SUB SUB DUP2 MSTORE SWAP1 PUSH1 0x40 MSTORE DUP1 MLOAD SWAP1 PUSH1 0x20 ADD KECCAK256 SWAP1 POP PUSH1 0x0 DUP2 PUSH1 0x40 MLOAD PUSH1 0x20 ADD PUSH2 0x216E SWAP2 SWAP1 PUSH32 0x19457468657265756D205369676E6564204D6573736167653A0A333200000000 DUP2 MSTORE PUSH1 0x1C DUP2 ADD SWAP2 SWAP1 SWAP2 MSTORE PUSH1 0x3C ADD SWAP1 JUMP JUMPDEST PUSH1 0x40 DUP1 MLOAD PUSH1 0x1F NOT DUP2 DUP5 SUB ADD DUP2 MSTORE SWAP2 DUP2 MSTORE DUP2 MLOAD PUSH1 0x20 SWAP3 DUP4 ADD KECCAK256 PUSH1 0x0 DUP2 DUP2 MSTORE PUSH1 0x9 SWAP1 SWAP4 MSTORE SWAP2 KECCAK256 SLOAD SWAP1 SWAP2 POP PUSH1 0xFF AND ISZERO PUSH2 0x21B7 JUMPI PUSH1 0x40 MLOAD PUSH4 0x900BB2C9 PUSH1 0xE0 SHL DUP2 MSTORE PUSH1 0x4 ADD PUSH1 0x40 MLOAD DUP1 SWAP2 SUB SWAP1 REVERT JUMPDEST PUSH1 0x0 PUSH2 0x21C4 DUP3 DUP8 DUP8 PUSH2 0x2507 JUMP JUMPDEST PUSH1 0x1 PUSH1 0x1 PUSH1 0xA0 SHL SUB DUP2 AND PUSH1 0x0 SWAP1 DUP2 MSTORE PUSH1 0x5 PUSH1 0x20 MSTORE PUSH1 0x40 SWAP1 KECCAK256 SLOAD SWAP1 SWAP2 POP PUSH1 0xFF AND PUSH2 0x2200 JUMPI PUSH1 0x40 MLOAD PUSH4 0xEA8E4EB5 PUSH1 0xE0 SHL DUP2 MSTORE PUSH1 0x4 ADD PUSH1 0x40 MLOAD DUP1 SWAP2 SUB SWAP1 REVERT JUMPDEST PUSH1 0x0 DUP3 DUP2 MSTORE PUSH1 0x9 PUSH1 0x20 SWAP1 DUP2 MSTORE PUSH1 0x40 DUP1 DUP4 KECCAK256 DUP1 SLOAD PUSH1 0x1 PUSH1 0xFF NOT SWAP2 DUP3 AND DUP2 OR SWAP1 SWAP3 SSTORE DUP15 DUP6 MSTORE PUSH1 0x7 DUP5 MSTORE DUP3 DUP6 KECCAK256 DUP15 DUP7 MSTORE DUP5 MSTORE DUP3 DUP6 KECCAK256 CALLER DUP7 MSTORE SWAP1 SWAP4 MSTORE SWAP1 DUP4 KECCAK256 DUP1 SLOAD SWAP1 SWAP3 AND OR SWAP1 SSTORE PUSH1 0x6 DUP6 ADD DUP1 SLOAD SWAP2 PUSH2 0x2253 DUP4 PUSH2 0x2C3A JUMP JUMPDEST SWAP1 SWAP2 SSTORE POP POP PUSH1 0x40 MLOAD DUP10 SWAP1 DUP12 SWAP1 CALLER SWAP1 PUSH32 0xDF68871EFF37C21A2D5F5F4714DEFB013C53C6AA48EBE6EFF29CA11E06519127 SWAP1 PUSH1 0x0 SWAP1 LOG4 POP POP POP POP PUSH2 0x2294 PUSH1 0x1 DUP1 SSTORE JUMP JUMPDEST POP POP POP POP POP POP JUMP JUMPDEST PUSH2 0x22A4 PUSH2 0x2332 JUMP JUMPDEST PUSH1 0x1 PUSH1 0x1 PUSH1 0xA0 SHL SUB DUP2 AND PUSH2 0x22D3 JUMPI PUSH1 0x40 MLOAD PUSH4 0x1E4FBDF7 PUSH1 0xE0 SHL DUP2 MSTORE PUSH1 0x0 PUSH1 0x4 DUP3 ADD MSTORE PUSH1 0x24 ADD JUMPDEST PUSH1 0x40 MLOAD DUP1 SWAP2 SUB SWAP1 REVERT JUMPDEST PUSH2 0x22DC DUP2 PUSH2 0x2482 JUMP JUMPDEST POP JUMP JUMPDEST PUSH2 0x22E7 PUSH2 0x2332 JUMP JUMPDEST PUSH1 0x1 PUSH1 0x1 PUSH1 0xA0 SHL SUB AND PUSH1 0x0 SWAP1 DUP2 MSTORE PUSH1 0x5 PUSH1 0x20 MSTORE PUSH1 0x40 SWAP1 KECCAK256 DUP1 SLOAD PUSH1 0xFF NOT AND SWAP1 SSTORE JUMP JUMPDEST PUSH1 0x2 PUSH1 0x1 SLOAD SUB PUSH2 0x232B JUMPI PUSH1 0x40 MLOAD PUSH4 0x3EE5AEB5 PUSH1 0xE0 SHL DUP2 MSTORE PUSH1 0x4 ADD PUSH1 0x40 MLOAD DUP1 SWAP2 SUB SWAP1 REVERT JUMPDEST PUSH1 0x2 PUSH1 0x1 SSTORE JUMP JUMPDEST PUSH1 0x0 SLOAD PUSH1 0x1 PUSH1 0x1 PUSH1 0xA0 SHL SUB AND CALLER EQ PUSH2 0xA38 JUMPI PUSH1 0x40 MLOAD PUSH4 0x118CDAA7 PUSH1 0xE0 SHL DUP2 MSTORE CALLER PUSH1 0x4 DUP3 ADD MSTORE PUSH1 0x24 ADD PUSH2 0x22CA JUMP JUMPDEST PUSH1 0x0 PUSH2 0x1DBF PUSH1 0x3C TIMESTAMP PUSH2 0x2BE3 JUMP JUMPDEST PUSH1 0x0 DUP3 DUP2 MSTORE PUSH1 0x6 PUSH1 0x20 SWAP1 DUP2 MSTORE PUSH1 0x40 DUP1 DUP4 KECCAK256 DUP5 DUP5 MSTORE SWAP1 SWAP2 MSTORE SWAP1 KECCAK256 DUP1 SLOAD PUSH1 0x1 PUSH1 0x1 PUSH1 0xA0 SHL SUB AND PUSH2 0x23A8 JUMPI PUSH1 0x5 ADD DUP1 SLOAD PUSH2 0xFF00 NOT AND PUSH2 0x100 OR SWAP1 SSTORE POP POP JUMP JUMPDEST PUSH1 0x5 DUP2 ADD SLOAD PUSH3 0x10000 SWAP1 DIV PUSH1 0xFF AND ISZERO PUSH2 0x23CF JUMPI PUSH1 0x5 ADD DUP1 SLOAD PUSH2 0xFF00 NOT AND PUSH2 0x100 OR SWAP1 SSTORE POP POP JUMP JUMPDEST PUSH1 0x4 DUP2 ADD SLOAD PUSH1 0x0 PUSH2 0x2710 PUSH2 0x23E5 PUSH2 0x1F4 DUP5 PUSH2 0x2BCC JUMP JUMPDEST PUSH2 0x23EF SWAP2 SWAP1 PUSH2 0x2BE3 JUMP JUMPDEST SWAP1 POP DUP1 PUSH1 0xA PUSH1 0x0 DUP3 DUP3 SLOAD PUSH2 0x2403 SWAP2 SWAP1 PUSH2 0x2BB3 JUMP JUMPDEST SWAP3 POP POP DUP2 SWAP1 SSTORE POP DUP2 PUSH1 0xB PUSH1 0x0 DUP3 DUP3 SLOAD PUSH2 0x241C SWAP2 SWAP1 PUSH2 0x2C05 JUMP JUMPDEST SWAP1 SWAP2 SSTORE POP POP PUSH1 0x5 DUP4 ADD DUP1 SLOAD PUSH2 0xFF00 NOT AND PUSH2 0x100 OR SWAP1 SSTORE TIMESTAMP PUSH1 0x8 DUP5 ADD SSTORE PUSH1 0x6 DUP4 ADD SLOAD PUSH1 0x40 MLOAD DUP6 SWAP2 DUP8 SWAP2 PUSH32 0x67A59239176EDC6000958291E1C679AFD7B3E13A274C758A1FB33D8587D5E708 SWAP2 PUSH2 0x2473 SWAP2 SWAP1 DUP2 MSTORE PUSH1 0x20 ADD SWAP1 JUMP JUMPDEST PUSH1 0x40 MLOAD DUP1 SWAP2 SUB SWAP1 LOG3 POP POP POP POP POP JUMP JUMPDEST PUSH1 0x0 DUP1 SLOAD PUSH1 0x1 PUSH1 0x1 PUSH1 0xA0 SHL SUB DUP4 DUP2 AND PUSH1 0x1 PUSH1 0x1 PUSH1 0xA0 SHL SUB NOT DUP4 AND DUP2 OR DUP5 SSTORE PUSH1 0x40 MLOAD SWAP2 SWAP1 SWAP3 AND SWAP3 DUP4 SWAP2 PUSH32 0x8BE0079C531659141344CD1FD0A4F28419497F9722A3DAAFE3B4186F6B6457E0 SWAP2 SWAP1 LOG3 POP POP JUMP JUMPDEST PUSH1 0x0 PUSH1 0x8 DUP3 PUSH1 0x40 MLOAD PUSH1 0x20 ADD PUSH2 0x24E7 SWAP2 SWAP1 PUSH2 0x2DDE JUMP JUMPDEST PUSH1 0x40 DUP1 MLOAD PUSH1 0x1F NOT DUP2 DUP5 SUB ADD DUP2 MSTORE SWAP2 SWAP1 MSTORE DUP1 MLOAD PUSH1 0x20 SWAP1 SWAP2 ADD KECCAK256 SWAP1 SHR SWAP3 SWAP2 POP POP JUMP JUMPDEST PUSH1 0x0 PUSH1 0x41 DUP3 EQ PUSH2 0x2559 JUMPI PUSH1 0x40 MLOAD PUSH3 0x461BCD PUSH1 0xE5 SHL DUP2 MSTORE PUSH1 0x20 PUSH1 0x4 DUP3 ADD MSTORE PUSH1 0x18 PUSH1 0x24 DUP3 ADD MSTORE PUSH32 0x496E76616C6964207369676E6174757265206C656E6774680000000000000000 PUSH1 0x44 DUP3 ADD MSTORE PUSH1 0x64 ADD PUSH2 0x22CA JUMP JUMPDEST PUSH1 0x40 DUP1 MLOAD PUSH1 0x0 DUP1 DUP3 MSTORE PUSH1 0x20 DUP1 DUP4 ADD DUP1 DUP6 MSTORE DUP9 SWAP1 MSTORE DUP7 DUP5 ADD CALLDATALOAD SWAP1 SWAP2 BYTE SWAP3 DUP3 ADD DUP4 SWAP1 MSTORE DUP6 CALLDATALOAD PUSH1 0x60 DUP4 ADD DUP2 SWAP1 MSTORE SWAP1 DUP7 ADD CALLDATALOAD PUSH1 0x80 DUP4 ADD DUP2 SWAP1 MSTORE SWAP1 SWAP3 SWAP1 SWAP2 PUSH1 0x1 SWAP1 PUSH1 0xA0 ADD PUSH1 0x20 PUSH1 0x40 MLOAD PUSH1 0x20 DUP2 SUB SWAP1 DUP1 DUP5 SUB SWAP1 DUP6 GAS STATICCALL ISZERO DUP1 ISZERO PUSH2 0x25BA JUMPI RETURNDATASIZE PUSH1 0x0 DUP1 RETURNDATACOPY RETURNDATASIZE PUSH1 0x0 REVERT JUMPDEST POP POP PUSH1 0x40 MLOAD PUSH1 0x1F NOT ADD MLOAD SWAP9 SWAP8 POP POP POP POP POP POP POP POP JUMP JUMPDEST PUSH1 0x40 MLOAD DUP1 PUSH2 0x160 ADD PUSH1 0x40 MSTORE DUP1 PUSH1 0x0 PUSH1 0x1 PUSH1 0x1 PUSH1 0xA0 SHL SUB AND DUP2 MSTORE PUSH1 0x20 ADD PUSH1 0x60 DUP2 MSTORE PUSH1 0x20 ADD PUSH1 0x60 DUP2 MSTORE PUSH1 0x20 ADD PUSH1 0x60 DUP2 MSTORE PUSH1 0x20 ADD PUSH1 0x0 DUP2 MSTORE PUSH1 0x20 ADD PUSH1 0x0 PUSH1 0x9 DUP2 GT ISZERO PUSH2 0x261B JUMPI PUSH2 0x261B PUSH2 0x26BA JUMP JUMPDEST DUP2 MSTORE PUSH1 0x20 ADD PUSH1 0x0 ISZERO ISZERO DUP2 MSTORE PUSH1 0x20 ADD PUSH1 0x0 ISZERO ISZERO DUP2 MSTORE PUSH1 0x20 ADD PUSH1 0x0 DUP2 MSTORE PUSH1 0x20 ADD PUSH1 0x0 DUP2 MSTORE PUSH1 0x20 ADD PUSH1 0x0 DUP2 MSTORE POP SWAP1 JUMP JUMPDEST PUSH1 0x0 DUP1 PUSH1 0x40 DUP4 DUP6 SUB SLT ISZERO PUSH2 0x265B JUMPI PUSH1 0x0 DUP1 REVERT JUMPDEST POP POP DUP1 CALLDATALOAD SWAP3 PUSH1 0x20 SWAP1 SWAP2 ADD CALLDATALOAD SWAP2 POP JUMP JUMPDEST PUSH1 0x0 JUMPDEST DUP4 DUP2 LT ISZERO PUSH2 0x2685 JUMPI DUP2 DUP2 ADD MLOAD DUP4 DUP3 ADD MSTORE PUSH1 0x20 ADD PUSH2 0x266D JUMP JUMPDEST POP POP PUSH1 0x0 SWAP2 ADD MSTORE JUMP JUMPDEST PUSH1 0x0 DUP2 MLOAD DUP1 DUP5 MSTORE PUSH2 0x26A6 DUP2 PUSH1 0x20 DUP7 ADD PUSH1 0x20 DUP7 ADD PUSH2 0x266A JUMP JUMPDEST PUSH1 0x1F ADD PUSH1 0x1F NOT AND SWAP3 SWAP1 SWAP3 ADD PUSH1 0x20 ADD SWAP3 SWAP2 POP POP JUMP JUMPDEST PUSH4 0x4E487B71 PUSH1 0xE0 SHL PUSH1 0x0 MSTORE PUSH1 0x21 PUSH1 0x4 MSTORE PUSH1 0x24 PUSH1 0x0 REVERT JUMPDEST PUSH1 0xA DUP2 LT PUSH2 0x26EE JUMPI PUSH4 0x4E487B71 PUSH1 0xE0 SHL PUSH1 0x0 MSTORE PUSH1 0x21 PUSH1 0x4 MSTORE PUSH1 0x24 PUSH1 0x0 REVERT JUMPDEST SWAP1 MSTORE JUMP JUMPDEST PUSH1 0x1 PUSH1 0x1 PUSH1 0xA0 SHL SUB DUP13 AND DUP2 MSTORE PUSH2 0x160 PUSH1 0x20 DUP3 ADD DUP2 SWAP1 MSTORE PUSH1 0x0 SWAP1 PUSH2 0x2717 DUP4 DUP3 ADD DUP15 PUSH2 0x268E JUMP JUMPDEST SWAP1 POP DUP3 DUP2 SUB PUSH1 0x40 DUP5 ADD MSTORE PUSH2 0x272B DUP2 DUP14 PUSH2 0x268E JUMP JUMPDEST SWAP1 POP DUP3 DUP2 SUB PUSH1 0x60 DUP5 ADD MSTORE PUSH2 0x273F DUP2 DUP13 PUSH2 0x268E JUMP JUMPDEST SWAP2 POP POP DUP9 PUSH1 0x80 DUP4 ADD MSTORE PUSH2 0x2755 PUSH1 0xA0 DUP4 ADD DUP10 PUSH2 0x26D0 JUMP JUMPDEST SWAP6 ISZERO ISZERO PUSH1 0xC0 DUP3 ADD MSTORE SWAP4 ISZERO ISZERO PUSH1 0xE0 DUP6 ADD MSTORE PUSH2 0x100 DUP5 ADD SWAP3 SWAP1 SWAP3 MSTORE PUSH2 0x120 DUP4 ADD MSTORE PUSH2 0x140 SWAP1 SWAP2 ADD MSTORE SWAP7 SWAP6 POP POP POP POP POP POP JUMP JUMPDEST DUP1 CALLDATALOAD PUSH1 0x1 PUSH1 0x1 PUSH1 0xA0 SHL SUB DUP2 AND DUP2 EQ PUSH2 0x279C JUMPI PUSH1 0x0 DUP1 REVERT JUMPDEST SWAP2 SWAP1 POP JUMP JUMPDEST PUSH1 0x0 PUSH1 0x20 DUP3 DUP5 SUB SLT ISZERO PUSH2 0x27B3 JUMPI PUSH1 0x0 DUP1 REVERT JUMPDEST PUSH2 0xB3D DUP3 PUSH2 0x2785 JUMP JUMPDEST PUSH1 0x0 DUP1 PUSH1 0x0 PUSH1 0x60 DUP5 DUP7 SUB SLT ISZERO PUSH2 0x27D1 JUMPI PUSH1 0x0 DUP1 REVERT JUMPDEST DUP4 CALLDATALOAD SWAP3 POP PUSH1 0x20 DUP5 ADD CALLDATALOAD SWAP2 POP PUSH2 0x27E8 PUSH1 0x40 DUP6 ADD PUSH2 0x2785 JUMP JUMPDEST SWAP1 POP SWAP3 POP SWAP3 POP SWAP3 JUMP JUMPDEST PUSH1 0x0 PUSH1 0x20 DUP3 DUP5 SUB SLT ISZERO PUSH2 0x2803 JUMPI PUSH1 0x0 DUP1 REVERT JUMPDEST POP CALLDATALOAD SWAP2 SWAP1 POP JUMP JUMPDEST PUSH1 0x0 DUP2 MLOAD DUP1 DUP5 MSTORE PUSH1 0x20 DUP1 DUP6 ADD SWAP5 POP DUP1 DUP5 ADD PUSH1 0x0 JUMPDEST DUP4 DUP2 LT ISZERO PUSH2 0x283A JUMPI DUP2 MLOAD DUP8 MSTORE SWAP6 DUP3 ADD SWAP6 SWAP1 DUP3 ADD SWAP1 PUSH1 0x1 ADD PUSH2 0x281E JUMP JUMPDEST POP SWAP5 SWAP6 SWAP5 POP POP POP POP POP JUMP JUMPDEST PUSH1 0x60 DUP2 MSTORE PUSH1 0x0 PUSH2 0x2858 PUSH1 0x60 DUP4 ADD DUP7 PUSH2 0x280A JUMP JUMPDEST DUP3 DUP2 SUB PUSH1 0x20 DUP5 ADD MSTORE PUSH2 0x286A DUP2 DUP7 PUSH2 0x280A JUMP JUMPDEST SWAP1 POP DUP3 DUP2 SUB PUSH1 0x40 DUP5 ADD MSTORE PUSH2 0x287E DUP2 DUP6 PUSH2 0x280A JUMP JUMPDEST SWAP7 SWAP6 POP POP POP POP POP POP JUMP JUMPDEST PUSH1 0x0 PUSH1 0x20 DUP1 DUP4 ADD DUP2 DUP5 MSTORE DUP1 DUP6 MLOAD DUP1 DUP4 MSTORE PUSH1 0x40 SWAP3 POP DUP3 DUP7 ADD SWAP2 POP DUP3 DUP2 PUSH1 0x5 SHL DUP8 ADD ADD DUP5 DUP9 ADD PUSH1 0x0 JUMPDEST DUP4 DUP2 LT ISZERO PUSH2 0x2986 JUMPI DUP9 DUP4 SUB PUSH1 0x3F NOT ADD DUP6 MSTORE DUP2 MLOAD DUP1 MLOAD PUSH1 0x1 PUSH1 0x1 PUSH1 0xA0 SHL SUB AND DUP5 MSTORE PUSH2 0x160 DUP9 DUP3 ADD MLOAD DUP2 DUP11 DUP8 ADD MSTORE PUSH2 0x28E7 DUP3 DUP8 ADD DUP3 PUSH2 0x268E JUMP JUMPDEST SWAP2 POP POP DUP8 DUP3 ADD MLOAD DUP6 DUP3 SUB DUP10 DUP8 ADD MSTORE PUSH2 0x28FF DUP3 DUP3 PUSH2 0x268E JUMP JUMPDEST SWAP2 POP POP PUSH1 0x60 DUP1 DUP4 ADD MLOAD DUP7 DUP4 SUB DUP3 DUP9 ADD MSTORE PUSH2 0x2919 DUP4 DUP3 PUSH2 0x268E JUMP JUMPDEST SWAP3 POP POP POP PUSH1 0x80 DUP1 DUP4 ADD MLOAD DUP2 DUP8 ADD MSTORE POP PUSH1 0xA0 DUP1 DUP4 ADD MLOAD PUSH2 0x293A DUP3 DUP9 ADD DUP3 PUSH2 0x26D0 JUMP JUMPDEST POP POP PUSH1 0xC0 DUP3 DUP2 ADD MLOAD ISZERO ISZERO SWAP1 DUP7 ADD MSTORE PUSH1 0xE0 DUP1 DUP4 ADD MLOAD ISZERO ISZERO SWAP1 DUP7 ADD MSTORE PUSH2 0x100 DUP1 DUP4 ADD MLOAD SWAP1 DUP7 ADD MSTORE PUSH2 0x120 DUP1 DUP4 ADD MLOAD SWAP1 DUP7 ADD MSTORE PUSH2 0x140 SWAP2 DUP3 ADD MLOAD SWAP2 SWAP1 SWAP5 ADD MSTORE SWAP4 DUP7 ADD SWAP4 SWAP1 DUP7 ADD SWAP1 PUSH1 0x1 ADD PUSH2 0x28AF JUMP JUMPDEST POP SWAP1 SWAP9 SWAP8 POP POP POP POP POP POP POP POP JUMP JUMPDEST PUSH1 0x0 DUP1 DUP4 PUSH1 0x1F DUP5 ADD SLT PUSH2 0x29A6 JUMPI PUSH1 0x0 DUP1 REVERT JUMPDEST POP DUP2 CALLDATALOAD PUSH8 0xFFFFFFFFFFFFFFFF DUP2 GT ISZERO PUSH2 0x29BE JUMPI PUSH1 0x0 DUP1 REVERT JUMPDEST PUSH1 0x20 DUP4 ADD SWAP2 POP DUP4 PUSH1 0x20 DUP3 DUP6 ADD ADD GT ISZERO PUSH2 0x29D6 JUMPI PUSH1 0x0 DUP1 REVERT JUMPDEST SWAP3 POP SWAP3 SWAP1 POP JUMP JUMPDEST PUSH1 0x0 DUP1 PUSH1 0x0 DUP1 PUSH1 0x0 DUP1 PUSH1 0x0 DUP1 PUSH1 0x0 DUP1 PUSH1 0xE0 DUP12 DUP14 SUB SLT ISZERO PUSH2 0x29FC JUMPI PUSH1 0x0 DUP1 REVERT JUMPDEST DUP11 CALLDATALOAD SWAP10 POP PUSH1 0x20 DUP12 ADD CALLDATALOAD SWAP9 POP PUSH1 0x40 DUP12 ADD CALLDATALOAD PUSH8 0xFFFFFFFFFFFFFFFF DUP1 DUP3 GT ISZERO PUSH2 0x2A22 JUMPI PUSH1 0x0 DUP1 REVERT JUMPDEST PUSH2 0x2A2E DUP15 DUP4 DUP16 ADD PUSH2 0x2994 JUMP JUMPDEST SWAP1 SWAP11 POP SWAP9 POP PUSH1 0x60 DUP14 ADD CALLDATALOAD SWAP2 POP DUP1 DUP3 GT ISZERO PUSH2 0x2A47 JUMPI PUSH1 0x0 DUP1 REVERT JUMPDEST PUSH2 0x2A53 DUP15 DUP4 DUP16 ADD PUSH2 0x2994 JUMP JUMPDEST SWAP1 SWAP9 POP SWAP7 POP PUSH1 0x80 DUP14 ADD CALLDATALOAD SWAP2 POP DUP1 DUP3 GT ISZERO PUSH2 0x2A6C JUMPI PUSH1 0x0 DUP1 REVERT JUMPDEST POP PUSH2 0x2A79 DUP14 DUP3 DUP15 ADD PUSH2 0x2994 JUMP JUMPDEST SWAP1 SWAP6 POP SWAP4 POP POP PUSH1 0xA0 DUP12 ADD CALLDATALOAD SWAP2 POP PUSH1 0xC0 DUP12 ADD CALLDATALOAD PUSH1 0xA DUP2 LT PUSH2 0x2A98 JUMPI PUSH1 0x0 DUP1 REVERT JUMPDEST DUP1 SWAP2 POP POP SWAP3 SWAP6 SWAP9 SWAP12 SWAP2 SWAP5 SWAP8 SWAP11 POP SWAP3 SWAP6 SWAP9 POP JUMP JUMPDEST PUSH1 0x0 DUP1 PUSH1 0x0 DUP1 PUSH2 0x160 DUP1 DUP7 DUP9 SUB SLT ISZERO PUSH2 0x2AC3 JUMPI PUSH1 0x0 DUP1 REVERT JUMPDEST PUSH2 0x2ACC DUP7 PUSH2 0x2785 JUMP JUMPDEST SWAP5 POP PUSH1 0x20 DUP7 ADD CALLDATALOAD SWAP4 POP PUSH1 0x40 DUP7 ADD CALLDATALOAD SWAP3 POP DUP7 DUP2 DUP8 ADD GT ISZERO PUSH2 0x2AEB JUMPI PUSH1 0x0 DUP1 REVERT JUMPDEST POP SWAP3 SWAP6 SWAP2 SWAP5 POP SWAP3 PUSH1 0x60 ADD SWAP2 POP JUMP JUMPDEST PUSH1 0x0 DUP1 PUSH1 0x0 DUP1 PUSH1 0x0 DUP1 PUSH1 0xA0 DUP8 DUP10 SUB SLT ISZERO PUSH2 0x2B12 JUMPI PUSH1 0x0 DUP1 REVERT JUMPDEST DUP7 CALLDATALOAD SWAP6 POP PUSH1 0x20 DUP8 ADD CALLDATALOAD SWAP5 POP PUSH1 0x40 DUP8 ADD CALLDATALOAD SWAP4 POP PUSH1 0x60 DUP8 ADD CALLDATALOAD SWAP3 POP PUSH1 0x80 DUP8 ADD CALLDATALOAD PUSH8 0xFFFFFFFFFFFFFFFF DUP2 GT ISZERO PUSH2 0x2B45 JUMPI PUSH1 0x0 DUP1 REVERT JUMPDEST PUSH2 0x2B51 DUP10 DUP3 DUP11 ADD PUSH2 0x2994 JUMP JUMPDEST SWAP8 SWAP11 SWAP7 SWAP10 POP SWAP5 SWAP8 POP SWAP3 SWAP6 SWAP4 SWAP5 SWAP3 POP POP POP JUMP JUMPDEST PUSH1 0x1 DUP2 DUP2 SHR SWAP1 DUP3 AND DUP1 PUSH2 0x2B77 JUMPI PUSH1 0x7F DUP3 AND SWAP2 POP JUMPDEST PUSH1 0x20 DUP3 LT DUP2 SUB PUSH2 0x2B97 JUMPI PUSH4 0x4E487B71 PUSH1 0xE0 SHL PUSH1 0x0 MSTORE PUSH1 0x22 PUSH1 0x4 MSTORE PUSH1 0x24 PUSH1 0x0 REVERT JUMPDEST POP SWAP2 SWAP1 POP JUMP JUMPDEST PUSH4 0x4E487B71 PUSH1 0xE0 SHL PUSH1 0x0 MSTORE PUSH1 0x11 PUSH1 0x4 MSTORE PUSH1 0x24 PUSH1 0x0 REVERT JUMPDEST DUP1 DUP3 ADD DUP1 DUP3 GT ISZERO PUSH2 0x2BC6 JUMPI PUSH2 0x2BC6 PUSH2 0x2B9D JUMP JUMPDEST SWAP3 SWAP2 POP POP JUMP JUMPDEST DUP1 DUP3 MUL DUP2 ISZERO DUP3 DUP3 DIV DUP5 EQ OR PUSH2 0x2BC6 JUMPI PUSH2 0x2BC6 PUSH2 0x2B9D JUMP JUMPDEST PUSH1 0x0 DUP3 PUSH2 0x2C00 JUMPI PUSH4 0x4E487B71 PUSH1 0xE0 SHL PUSH1 0x0 MSTORE PUSH1 0x12 PUSH1 0x4 MSTORE PUSH1 0x24 PUSH1 0x0 REVERT JUMPDEST POP DIV SWAP1 JUMP JUMPDEST DUP2 DUP2 SUB DUP2 DUP2 GT ISZERO PUSH2 0x2BC6 JUMPI PUSH2 0x2BC6 PUSH2 0x2B9D JUMP JUMPDEST PUSH1 0x0 PUSH1 0x20 DUP3 DUP5 SUB SLT ISZERO PUSH2 0x2C2A JUMPI PUSH1 0x0 DUP1 REVERT JUMPDEST DUP2 MLOAD DUP1 ISZERO ISZERO DUP2 EQ PUSH2 0xB3D JUMPI PUSH1 0x0 DUP1 REVERT JUMPDEST PUSH1 0x0 PUSH1 0x1 DUP3 ADD PUSH2 0x2C4C JUMPI PUSH2 0x2C4C PUSH2 0x2B9D JUMP JUMPDEST POP PUSH1 0x1 ADD SWAP1 JUMP JUMPDEST PUSH4 0x4E487B71 PUSH1 0xE0 SHL PUSH1 0x0 MSTORE PUSH1 0x41 PUSH1 0x4 MSTORE PUSH1 0x24 PUSH1 0x0 REVERT JUMPDEST PUSH4 0x4E487B71 PUSH1 0xE0 SHL PUSH1 0x0 MSTORE PUSH1 0x32 PUSH1 0x4 MSTORE PUSH1 0x24 PUSH1 0x0 REVERT JUMPDEST PUSH1 0x1F DUP3 GT ISZERO PUSH2 0x2CC5 JUMPI PUSH1 0x0 DUP2 DUP2 MSTORE PUSH1 0x20 DUP2 KECCAK256 PUSH1 0x1F DUP6 ADD PUSH1 0x5 SHR DUP2 ADD PUSH1 0x20 DUP7 LT ISZERO PUSH2 0x2CA6 JUMPI POP DUP1 JUMPDEST PUSH1 0x1F DUP6 ADD PUSH1 0x5 SHR DUP3 ADD SWAP2 POP JUMPDEST DUP2 DUP2 LT ISZERO PUSH2 0x2294 JUMPI DUP3 DUP2 SSTORE PUSH1 0x1 ADD PUSH2 0x2CB2 JUMP JUMPDEST POP POP POP JUMP JUMPDEST PUSH8 0xFFFFFFFFFFFFFFFF DUP4 GT ISZERO PUSH2 0x2CE2 JUMPI PUSH2 0x2CE2 PUSH2 0x2C53 JUMP JUMPDEST PUSH2 0x2CF6 DUP4 PUSH2 0x2CF0 DUP4 SLOAD PUSH2 0x2B63 JUMP JUMPDEST DUP4 PUSH2 0x2C7F JUMP JUMPDEST PUSH1 0x0 PUSH1 0x1F DUP5 GT PUSH1 0x1 DUP2 EQ PUSH2 0x2D2A JUMPI PUSH1 0x0 DUP6 ISZERO PUSH2 0x2D12 JUMPI POP DUP4 DUP3 ADD CALLDATALOAD JUMPDEST PUSH1 0x0 NOT PUSH1 0x3 DUP8 SWAP1 SHL SHR NOT AND PUSH1 0x1 DUP7 SWAP1 SHL OR DUP4 SSTORE PUSH2 0x2D84 JUMP JUMPDEST PUSH1 0x0 DUP4 DUP2 MSTORE PUSH1 0x20 SWAP1 KECCAK256 PUSH1 0x1F NOT DUP7 AND SWAP1 DUP4 JUMPDEST DUP3 DUP2 LT ISZERO PUSH2 0x2D5B JUMPI DUP7 DUP6 ADD CALLDATALOAD DUP3 SSTORE PUSH1 0x20 SWAP5 DUP6 ADD SWAP5 PUSH1 0x1 SWAP1 SWAP3 ADD SWAP2 ADD PUSH2 0x2D3B JUMP JUMPDEST POP DUP7 DUP3 LT ISZERO PUSH2 0x2D78 JUMPI PUSH1 0x0 NOT PUSH1 0xF8 DUP9 PUSH1 0x3 SHL AND SHR NOT DUP5 DUP8 ADD CALLDATALOAD AND DUP2 SSTORE JUMPDEST POP POP PUSH1 0x1 DUP6 PUSH1 0x1 SHL ADD DUP4 SSTORE JUMPDEST POP POP POP POP POP JUMP JUMPDEST PUSH1 0x40 DUP2 ADD PUSH2 0x2D99 DUP3 DUP6 PUSH2 0x26D0 JUMP JUMPDEST DUP3 PUSH1 0x20 DUP4 ADD MSTORE SWAP4 SWAP3 POP POP POP JUMP JUMPDEST PUSH1 0x0 PUSH2 0x1A0 DUP3 ADD SWAP1 POP DUP8 DUP3 MSTORE DUP7 PUSH1 0x20 DUP4 ADD MSTORE DUP6 PUSH1 0x40 DUP4 ADD MSTORE DUP5 PUSH1 0x60 DUP4 ADD MSTORE DUP4 PUSH1 0x80 DUP4 ADD MSTORE PUSH2 0x100 DUP4 PUSH1 0xA0 DUP5 ADD CALLDATACOPY SWAP8 SWAP7 POP POP POP POP POP POP POP JUMP JUMPDEST PUSH1 0x0 DUP3 MLOAD PUSH2 0x2DF0 DUP2 DUP5 PUSH1 0x20 DUP8 ADD PUSH2 0x266A JUMP JUMPDEST SWAP2 SWAP1 SWAP2 ADD SWAP3 SWAP2 POP POP JUMP INVALID LOG2 PUSH5 0x6970667358 0x22 SLT KECCAK256 0xB6 PUSH2 0x5EFB EXTCODEHASH DELEGATECALL SWAP13 0xC4 NUMBER 0x28 0x4A SWAP6 PUSH29 0x3872A041E41E6DBBFD9DF7E78F5D15C67C39F364736F6C634300081400 CALLER "},"methodIdentifiers":{"AD_SLOTS_PER_CYCLE()":"39aca329","CLAIM_DEADLINE()":"42f81580","CYCLE_DURATION()":"cd421fbf","PLATFORM_FEE_BPS()":"539aa77f","WLD()":"de061d66","accumulatedFees()":"587f5ed7","adSlots(uint256,uint256)":"035169a4","addAuthorizedSigner(address)":"5240eb32","authorizedSigners(address)":"5d2b6a4e","banAdvertiser(address)":"c0ae6146","bannedAdvertisers(address)":"11637f22","calculateUserReward(uint256,uint256,address)":"1f50fec9","claimReward(uint256,uint256)":"86bb8f37","collectExpiredClaims(uint256,uint256)":"1012be0d","finalizeCycle(uint256)":"21e20e8b","forceFinalizeCycle()":"1cbc13ac","getCurrentAds()":"b7c32bf0","getCurrentCycle()":"be26ed7f","getUserClaimableRewards(address)":"646e200b","hasClaimed(uint256,uint256,address)":"69547f2d","hasClicked(uint256,uint256,address)":"4d63a475","lastFinalizedCycle()":"6ecdf606","lockedFunds()":"b8afaa48","owner()":"8da5cb5b","placeAdBid(uint256,uint256,string,string,string,uint256,uint8)":"bad1a380","recordClick(uint256,uint256,uint256,uint256,bytes)":"e7c21a3e","register(address,uint256,uint256,uint256[8])":"cc6cd25e","registered(address)":"b2dd5c07","removeAd(uint256,uint256)":"97090dc8","removeAuthorizedSigner(address)":"f62a4edb","renounceOwnership()":"715018a6","transferOwnership(address)":"f2fde38b","unbanAdvertiser(address)":"74331428","usedSignatures(bytes32)":"f978fd61","withdrawFees()":"476343ee","worldId()":"753e9ef0"}}}}}